¯
                                         High Level Assembler Option Summary                   (PTF UK37157)   Page    1
                                                                                            HLASM R6.0  2014/07/08 18.32
²  No Overriding ASMAOPT Parameters
²  No Overriding Parameters
²  No Process Statements


  Options for this Assembly
²  NOADATA
²    ALIGN
²  NOASA
²    BATCH
²    CODEPAGE(047C)
²  NOCOMPAT
²  NODBCS
²  NODECK
²    DXREF
²    ESD
²  NOEXIT
²    FLAG(0,ALIGN,CONT,EXLITW,NOIMPLEN,NOPAGE0,PUSH,RECORD,NOSUBSTR,USING0)
²  NOFOLD
²  NOGOFF
²  NOINFO
²    LANGUAGE(EN)
²  NOLIBMAC
²    LINECOUNT(60)
²    LIST(121)
²    MACHINE(,NOLIST)
²    MXREF(SOURCE)
²    OBJECT
²    OPTABLE(UNI,NOLIST)
²  NOPCONTROL
²  NOPESTOP
²  NOPROFILE
²  NORA2
²  NORENT
²    RLD
²    RXREF
²    SECTALGN(8)
²    SIZE(MAX)
²  NOSUPRWARN
²    SYSPARM()
²  NOTERM
²  NOTEST
²    THREAD
²  NOTRANSLATE
²    TYPECHECK(MAGNITUDE,REGISTER)
²    USING(NOLIMIT,MAP,WARN(15))
²  NOWORKFILE
²    XREF(SHORT,UNREFS)

²  No Overriding DD Names
¯
                                              External Symbol Dictionary                                       Page    2
Symbol   Type   Id     Address  Length   Owner Id Flags Alias-of                            HLASM R6.0  2014/07/08 18.32
²          PC 00000001 00000000 00000000             00
²MAINLINE  SD 00000002 00000000 00000014             02
²INPARSE   SD 00000003 00000018 0000067A             02
²BLDPRM    SD 00000004 00000698 00000106             02
²DALLOC    SD 00000005 000007A0 00000406             02
²DUNALLOC  SD 00000006 00000BA8 00000186             02
²CNVTOHEX  SD 00000007 00000D30 000001CE             02
²SPZPGEN   SD 00000008 00000F00 000002C2             02
²BLDRECB   SD 00000009 000011C8 0000049A             02
²PREPMDL   SD 0000000A 00001668 000004BE             02
²GETINIT   SD 0000000B 00001B28 0000024A             02
¯
²                                                                                                               Page    3
  Active Usings: None
  Loc  Object Code    Addr1 Addr2  Stmt   Source Statement                                  HLASM R6.0  2014/07/08 18.32
²                                      1          MACRO                                                          00001017
²                                      2          SKIPBLOCK &INPUT,&LINE,&SIGN                                   00002017
²                                      3 *SKIPS BLOCK  OF LISTING                                                00002117
²                                      4          GBLA  &E62                                                     00002217
²                                      5 &E62     SETA  &E62+1                                                   00002317
²                                      6 SKIPLIN&E62 EQU   *                                                     00003017
²                                      7          GET   &INPUT,&LINE                                             00004017
²                                      8          CLC   &LINE.(1),&SIGN                                          00004117
²                                      9          BNE   SKIPLIN&E62                                              00004217
                                     10          MEND                                                           00004317
²                                     12          GENREG                                                         00004700
²                      00000          13+R0       EQU   0                                                        01-GENRE
²                      00001          14+R1       EQU   1                                                        01-GENRE
²                      00002          15+R2       EQU   2                                                        01-GENRE
²                      00003          16+R3       EQU   3                                                        01-GENRE
²                      00004          17+R4       EQU   4                                                        01-GENRE
²                      00005          18+R5       EQU   5                                                        01-GENRE
²                      00006          19+R6       EQU   6                                                        01-GENRE
²                      00007          20+R7       EQU   7                                                        01-GENRE
²                      00008          21+R8       EQU   8                                                        01-GENRE
²                      00009          22+R9       EQU   9                                                        01-GENRE
²                      0000A          23+R10      EQU   10                                                       01-GENRE
²                      0000B          24+R11      EQU   11                                                       01-GENRE
²                      0000C          25+R12      EQU   12                                                       01-GENRE
²                      0000D          26+R13      EQU   13                                                       01-GENRE
²                      0000E          27+R14      EQU   14                                                       01-GENRE
²                      0000F          28+R15      EQU   15                                                       01-GENRE
²                                     29          GBLC  &CSECT                                                   00004800
                                     30 &CSECT   SETC  ''                                                       00005000
²000000                00000 00014    32 MAINLINE CSECT                                                          00029100
²                                     33 MAINLINE AMODE 31                                                       00029214
                                     34 MAINLINE RMODE 24                                                       00029311
²000000 0DC0                          36          BASR  R12,0                                                    00060000
                 R:C  00002          37          USING *,R12             SET ADDRESSATION                       00070000
²                                     39       PROCCALL NAME=GETINIT,(R11)                                       00071000
²000002 18BE                          40+         LR    R11,R14                                                  01-PROCC
²000004 58F0 C00E            00010    41+         L     R15,=A(GETINIT)                                          01-PROCC
²000008 0DEF                          42+         BASR  R14,R15                                                  01-PROCC
²00000A 18EB                          43+         LR    R14,R11                                                  01-PROCC
²00000C 07FE                          44          BR    R14                                                      00080200
²000010                               45          LTORG                                                          00080300
²000010 00001B28                      46                =A(GETINIT)
²000014                               47          DS    0F                                                       00080400
²                                     48 *=====================================================================  00080500
²                                     49          COPY  INPARSE                                                  00080600
²                                     50=*INSERT YOUR ROUTINE HERE
²                                     51=INPARSE  PROCBGN
²                 R:D  00000          52+         USING INPARSE_SAVE,R13            SET SA ADDRESSATION          01-PROCB
²000018                00018 0067A    53+INPARSE  CSECT                                                          01-PROCB
²                                     54+INPARSE  AMODE 31                                                       01-PROCB
i                                     55+INPARSE  RMODE 24                                                       01-PROCB
²                                                                                                               Page    4
  Active Usings: MAINLINE+X'2',R12  INPARSE_SAVE,R13
  Loc  Object Code    Addr1 Addr2  Stmt   Source Statement                                  HLASM R6.0  2014/07/08 18.32
²000018 90EC D00C            0000C    56+         STM   R14,R12,12(R13)             STORE REGISTERS              01-PROCB
²00001C 0DC0                          57+         BASR  R12,0                                                    01-PROCB
²                 R:C  0001E          58+         USING *,R12                       SET ADDRESSATION             01-PROCB
²00001E 0700                          61+         CNOP  0,4                                                      02-GETMA
²000020 47F0 C00E            0002C    62+         B     IHB0004C           BRANCH AROUND DATA                    02-GETMA
²000024 00000048                      63+IHB0004L DC    A(INPARSE_SAVELEN) LENGTH                                02-GETMA
²000028 00                            64+IHB0004F DC    BL1'00000000'                         Flags.        @L7C 02-GETMA
²000029 00                            65+         DC    AL1(0)             RESERVED                              02-GETMA
²00002A 00                            66+         DC    AL1(0)             SUBPOOL                               02-GETMA
²00002B 72                            67+         DC    BL1'01110010'                 MODE BYTE         @G860P30 02-GETMA
²00002C                               68+IHB0004C DS     0H                                                      02-GETMA
²00002C 5800 C006            00024    69+         L     0,IHB0004L         LOAD LENGTH                           02-GETMA
²000030 58F0 C00A            00028    70+         L     15,IHB0004F                       LOAD GETMAIN PARMS     02-GETMA
²000034 1B11                          71+         SR    1,1                     ZERO RESERVED REG 1              02-GETMA
²000036 0A78                          72+         SVC   120                     ISSUE GETMAIN SVC                02-GETMA
²000038 1831                          73+         LR    R3,R1                       R3:=R1                       01-PROCB
²00003A 5800 D014            00014    74+         L     R0,INPARSE_SAVE_R0                                       01-PROCB
²00003E 5810 D018            00018    75+         L     R1,INPARSE_SAVE_R1                                       01-PROCB
²000042 58F0 D010            00010    76+         L     R15,INPARSE_SAVE_R15        RESTORE R0,R1,R15            01-PROCB
²000046 50D3 0004            00004    77+         ST    R13,4(R3)                   STORE OLD SA                 01-PROCB
²00004A 182D                          78+         LR    R2,R13                                                   01-PROCB
²00004C 18D3                          79+         LR    R13,R3                      SET NEW SA                   01-PROCB
²00004E 50D2 0008            00008    80+         ST    R13,8(R2)                   STORE ADDR OF NEW SA TO OLD  01-PROCB
²                                     81+*CREATE DSECT FOR SAVEAREA
²000000                00000 00048    82+INPARSE_SAVE DSECT                                                      01-PROCB
²000000                               83+INPARSE_SAVE_AREA DS 0C                                                 01-PROCB
²000000                               84+INPARSE_RESERVED  DS 1F                                                 01-PROCB
²000004                               85+INPARSE_OLD_SAVE  DS A                                                  01-PROCB
²000008                               86+INPARSE_NEW_SAVE  DS A                                                  01-PROCB
²00000C                               87+INPARSE_SAVE_R14  DS 1F                                                 01-PROCB
²000010                               88+INPARSE_SAVE_R15  DS 1F                                                 01-PROCB
²000014                               89+INPARSE_SAVE_R0  DS 1F                                                  01-PROCB
²000018                               90+INPARSE_SAVE_R1  DS 1F                                                  01-PROCB
²00001C                               91+INPARSE_SAVE_R2  DS 1F                                                  01-PROCB
²000020                               92+INPARSE_SAVE_R3  DS 1F                                                  01-PROCB
²000024                               93+INPARSE_SAVE_R4  DS 1F                                                  01-PROCB
²000028                               94+INPARSE_SAVE_R5  DS 1F                                                  01-PROCB
²00002C                               95+INPARSE_SAVE_R6  DS 1F                                                  01-PROCB
²000030                               96+INPARSE_SAVE_R7  DS 1F                                                  01-PROCB
²000034                               97+INPARSE_SAVE_R8  DS 1F                                                  01-PROCB
²000038                               98+INPARSE_SAVE_R9  DS 1F                                                  01-PROCB
²00003C                               99+INPARSE_SAVE_R10 DS 1F                                                  01-PROCB
²000040                              100+INPARSE_SAVE_R11 DS 1F                                                  01-PROCB
²000044                              101+INPARSE_SAVE_R12 DS 1F                                                  01-PROCB
²                      00048         102+INPARSE_SAVELEN EQU *-INPARSE_SAVE_AREA                                 01-PROCB
²000052                00018 0067A   103+INPARSE  CSECT                                                          01-PROCB
²                                    104=*GETS IN RO USA, LOADS PARAMS FROM DD SYSIN
²                                    105=*RETURNS IN R0 ADDR OF RTOPM
²000052 18A0                         106=         LR    R10,R0
                 R:A  00000         107=         USING USA,R10
²                                    109=       GETMAIN RU,LV=DDATA1#,LOC=ANY
²000054                              111+         CNOP  0,4                                                      01-GETMA
²000054 47F0 C042            00060   112+         B     IHB0006C           BRANCH AROUND DATA                    01-GETMA
i000058 00000054                     113+IHB0006L DC    A(DDATA1#)         LENGTH                                01-GETMA
²                                                                                                               Page    5
  Active Usings: USA,R10  INPARSE+X'6',R12  INPARSE_SAVE,R13
  Loc  Object Code    Addr1 Addr2  Stmt   Source Statement                                  HLASM R6.0  2014/07/08 18.32
²00005C 00                           114+IHB0006F DC    BL1'00000000'                         Flags.        @L7C 01-GETMA
²00005D 00                           115+         DC    AL1(0)             RESERVED                              01-GETMA
²00005E 00                           116+         DC    AL1(0)             SUBPOOL                               01-GETMA
²00005F 72                           117+         DC    BL1'01110010'                 MODE BYTE         @G860P30 01-GETMA
²000060                              118+IHB0006C DS     0H                                                      01-GETMA
²000060 5800 C03A            00058   119+         L     0,IHB0006L         LOAD LENGTH                           01-GETMA
²000064 58F0 C03E            0005C   120+         L     15,IHB0006F                       LOAD GETMAIN PARMS     01-GETMA
²000068 1B11                         121+         SR    1,1                     ZERO RESERVED REG 1              01-GETMA
²00006A 0A78                         122+         SVC   120                     ISSUE GETMAIN SVC                01-GETMA
²00006C 18B1                         123=         LR    R11,R1
                 R:B  00000         124=         USING DDATA1,R11
²                                    126=       PREPDCB PARM=GET,EODAD=GEND,'SYSIN   ',(R9)
²                                    127+*CHANGES R1,R2,R3,R4 R5
²00006E 0700                         130+         CNOP  0,4                                                      02-WTO
²000070 A715 000A            00084   131+         BRAS  1,IHB0009A               BRANCH AROUND MESSAGE      @LCC 02-WTO
²000074 000F                         132+         DC    AL2(15)                  TEXT LENGTH            @YA17152 02-WTO
²000076 0000                         133+         DC    B'0000000000000000'      MCSFLAGS                        02-WTO
²000078 C3D9C5C1E3C5C440             134+         DC    C'CREATED DCB'           MESSAGE TEXT               @L6C 02-WTO
²000084                              135+IHB0009A DS    0H                                                       02-WTO
²000084 0A23                         136+         SVC   35                       ISSUE SVC 35               @L6A 02-WTO
²000086 47F0 C074            00092   137+         B     SDNM1                                                    01-PREPD
²00008A E2E8E2C9D5404040             138+DNM1     DC    CL8'SYSIN   '                                            01-PREPD
²                      00092         139+SDNM1    EQU   *                                                        01-PREPD
²000092 4130 C06C            0008A   140+         LA    R3,DNM1                                                  01-PREPD
²000096 1722                         141+         XR    R2,R2                                                    01-PREPD
²000098 A728 0058            00058   142+         LHI   R2,DCBLNGBS                                              01-PREPD
²00009C                              145+         CNOP  0,4                                                      02-GETMA
²00009C 47F0 C086            000A4   146+         B     IHB0011C           BRANCH AROUND DATA                    02-GETMA
²0000A0 00                           147+IHB0011F DC    BL1'00000000'                         Flags.        @L7C 02-GETMA
²0000A1 00                           148+         DC    AL1(0)             RESERVED                              02-GETMA
²0000A2 00                           149+         DC    AL1(0)             SUBPOOL                               02-GETMA
²0000A3 12                           150+         DC    BL1'00010010'                 MODE BYTE         @G860P30 02-GETMA
²0000A4                              151+IHB0011C DS     0H                                                      02-GETMA
²0000A4 1802                         152+         LR    0,R2               LOAD LENGTH                  @ZA07133 02-GETMA
²0000A6 58F0 C082            000A0   153+         L     15,IHB0011F                       LOAD GETMAIN PARMS     02-GETMA
²0000AA 1B11                         154+         SR    1,1                     ZERO RESERVED REG 1              02-GETMA
²0000AC 0A78                         155+         SVC   120                     ISSUE GETMAIN SVC                02-GETMA
²0000AE 1841                         156+         LR    R4,R1                                                    01-PREPD
²                 R:4  00000         157+         USING IHADCB,R4                        SET R4  TO IHADCB       01-PREPD
²0000B0 1711                         158+         XR    R1,R1                                                    01-PREPD
²0000B2 5010 4000            00000   159+         ST    R1,IHADCB                                                01-PREPD
²0000B6 D256 4001 4000 00001 00000   160+         MVC   IHADCB+1(DCBLNGBS-1),IHADCB       ZERIONG DATA AREA      01-PREPD
²0000BC D207 4028 3000 00028 00000   161+         MVC   DCBDDNAM(8),0(R3)                 SET DDNAME             01-PREPD
²0000C2 9650 4032      00032         162+         OI    DCBMACR1,DCBMRGET+DCBMRMVG        GET                    01-PREPD
²0000C6 9650 4032      00032         163+         OI    DCBMACR1,DCBMRGET+DCBMRMVG        OTHER FLAGS            01-PREPD
²0000CA 9640 401A      0001A         164+         OI    DCBDSORG,DCBDSGPS                                        01-PREPD
²0000CE 9602 4030      00030         165+         OI    DCBOFLGS,DCBOFUEX                                        01-PREPD
²0000D2 D203 4014 C632 00014 00650   166+         MVC   DCBBUFCB(4),=XL4'00000001'                               01-PREPD
²0000D8 D203 401C C632 0001C 00650   167+         MVC   DCBIOBAD(4),=XL4'00000001'                               01-PREPD
²0000DE D203 4034 C632 00034 00650   168+         MVC   DCBGERR(4),=XL4'00000001'                                01-PREPD
²0000E4 D203 4038 C632 00038 00650   169+         MVC   DCBSYNAD(4),=XL4'00000001'                               01-PREPD
²0000EA D203 4044 C632 00044 00650   170+         MVC   DCBCICB(4),=XL4'00000001'                                01-PREPD
²0000F0 D203 4048 C632 00048 00650   171+         MVC   DCBEOBR(4),=XL4'00000001'                                01-PREPD
i0000F6 D203 404C C632 0004C 00650   172+         MVC   DCBEOBW(4),=XL4'00000001'                                01-PREPD
²                                                                                                               Page    6
  Active Usings: IHADCB,R4  USA,R10  DDATA1,R11  INPARSE+X'6',R12  INPARSE_SAVE,R13
  Loc  Object Code    Addr1 Addr2  Stmt   Source Statement                                  HLASM R6.0  2014/07/08 18.32
²0000FC 1722                         173+         XR    R2,R2                                                    01-PREPD
²0000FE A728 0038            00038   174+         LHI   R2,DCBEMINL                                              01-PREPD
²000102 0700                         177+         CNOP  0,4                                                      02-GETMA
²000104 47F0 C0EE            0010C   178+         B     IHB0013C           BRANCH AROUND DATA                    02-GETMA
²000108 00                           179+IHB0013F DC    BL1'00000000'                         Flags.        @L7C 02-GETMA
²000109 00                           180+         DC    AL1(0)             RESERVED                              02-GETMA
²00010A 00                           181+         DC    AL1(0)             SUBPOOL                               02-GETMA
²00010B 72                           182+         DC    BL1'01110010'                 MODE BYTE         @G860P30 02-GETMA
²00010C                              183+IHB0013C DS     0H                                                      02-GETMA
²00010C 1802                         184+         LR    0,R2               LOAD LENGTH                  @ZA07133 02-GETMA
²00010E 58F0 C0EA            00108   185+         L     15,IHB0013F                       LOAD GETMAIN PARMS     02-GETMA
²000112 1B11                         186+         SR    1,1                     ZERO RESERVED REG 1              02-GETMA
²000114 0A78                         187+         SVC   120                     ISSUE GETMAIN SVC                02-GETMA
²000116 1851                         188+         LR    R5,R1                                                    01-PREPD
²                 R:5  00000         189+         USING DCBE,R5                        SET R5  TO IHADCB         01-PREPD
²000118 1711                         190+         XR    R1,R1                                                    01-PREPD
²00011A 5010 5000            00000   191+         ST    R1,DCBEID                                                01-PREPD
²00011E D236 5001 5000 00001 00000   192+         MVC   DCBEID+1(DCBEMINL-1),DCBEID       ZERIONG DATA AREA      01-PREPD
²000124 4020 5004            00004   193+         STH   R2,DCBELEN                                               01-PREPD
²000128 D203 4020 C632 00020 00650   194+         MVC   DCBEODAD(4),=XL4'00000001'                               01-PREPD
²00012E 9684 4020      00020         195+         OI    DCBBFALN,DCBH0+DCBH1                                     01-PREPD
²000132 5050 4000            00000   196+         ST    R5,DCBDCBE                                               01-PREPD
²000136 D203 5000 C636 00000 00654   197+         MVC   DCBEID(4),=CL4'DCBE'                                     01-PREPD
²                                    198+*        L     R1,DCBBFALN
²                                    199+*        DC    X'00000000'
²00013C 4110 C5DA            005F8   200+         LA    R1,GEND                                                  01-PREPD
²000140 5010 5028            00028   201+         ST    R1,DCBEEODA                                              01-PREPD
²                                    202+*        OI    DCBEFLG2,DCBEBU31
²                                    203+*        OI    DCBOFLGS,DCBOFUEX
²                                    204+         DROP  R4                                                       01-PREPD
²000144 1894                         205+         LR    R9,R4                                                    01-PREPD
²                                    206=         OPEN  ((R9),INPUT),MODE=31
²000146 0700                         207+         CNOP  0,4                          ALIGN LIST TO HALFWORD @L1A 01-OPEN
²000148 4D10 C136            00154   208+         BAS   1,*+12                       LOAD REG1 W/LIST ADDR.      01-OPEN
²00014C 00000000                     209+         DC    A(0)                         OPTION BYTE            @L1A 01-OPEN
²000150 00000000                     210+         DC    A(0)                         DCB ADDRESS            @L1A 01-OPEN
²000154 5091 0004            00004   211+         ST    R9,4(1,0)                    STORE INTO LIST        @L1C 01-OPEN
²000158 9280 1000      00000         212+         MVI   0(1),128                     MOVE IN OPTION BYTE         01-OPEN
²00015C 1801                         213+         LR    0,1                          POINT REG0 TO PLIST    @L1A 01-OPEN
²00015E 1B11                         214+         SR    1,1                          CLEAR REGISTER 1       @L1A 01-OPEN
²000160 0A13                         215+         SVC   19                           ISSUE OPEN SVC              01-OPEN
²000162 47F0 C27E            0029C   216=         B     SKIP#50
²000166 00                           217=DIEZ     DC    XL1'00'
²000167 7B                           218=         DC    CL1'#'
²000168 00                           219=COMMA#1  DC    XL1'00'
²000169 6B                           220=         DC    CL1','
²00016A 00                           221=SPACE#   DC    XL1'00'
²00016B 40                           222=         DC    CL1' '
²00016C 00                           223=EQUAL#1  DC    XL1'00'
²00016D 7E                           224=         DC    CL1'='
²00016E 0000000000000000             225=SCTB2    DC    256X'00'            SCANTAB SET
²00026E                0026E 001EC   226=         ORG   SCTB2+C'='
²0001EC 7E                           227=         DC    C'='
²0001ED                001ED 001AE   228=         ORG   SCTB2+C' '
i0001AE 40                           229=         DC    C' '
²                                                                                                               Page    7
  Active Usings: DCBE,R5  USA,R10  DDATA1,R11  INPARSE+X'6',R12  INPARSE_SAVE,R13
  Loc  Object Code    Addr1 Addr2  Stmt   Source Statement                                  HLASM R6.0  2014/07/08 18.32
²0001AF                001AF 001BB   230=         ORG   SCTB2+C'('
²0001BB 4D                           231=         DC    C'('
²0001BC                001BC 001CB   232=         ORG   SCTB2+C')'
²0001CB 5D                           233=         DC    C')'
²0001CC                001CC 001D9   234=         ORG   SCTB2+C','
²0001D9 6B                           235=         DC    C','
²0001DA                001DA 0026E   236=         ORG
²00026E C2C9D5C1D9E8                 237=BIN      DC    CL6'BINARY'
²000274 D3C9E2E3C9D5C7               238=LST      DC    CL7'LISTING'
²00027B D4C1C9D5                     239=MAIN     DC    CL4'MAIN'
²00027F C3D6D4D4C1D5C4E2             240=CMD      DC    CL8'COMMANDS'
²000287 D6E4E3D7E4E3                 241=OUTPUT   DC    CL6'OUTPUT'
²00028D 00
²00028E DD00 3000 C150 00000 0016E   242=PTRT     TRT   0(0,R3),SCTB2
²000294 D200 8000 3000 00000 00000   243=PMVC     MVC   0(0,R8),0(R3)
²                                    244=*IBMVC   MVC   LIBRARY(0),0(R3)
²                                    245=*EMMVC   MVC   MEMBER(0),0(R3)
²                                    246=*MNMVC   MVC   PMN(0),0(R3)
²                                    247=*DSNMVC  MVC   PDSN(0),0(R3)
²                                    248=*PDSNMVC MVC   LPDSN(0),0(R3)
²00029C                              249=         DS    0F
²                                    250=*EBUG    DCB   DDNAME=DEBUG,DSORG=PS,MACRF=(PM)
²00029C                              251=         DS    0F
                      0029C         252=SKIP#50  EQU   *
                      0029C         254=LOOP#31  EQU   *
²00029C 183B                         256=         LR    R3,R11                   R3:=ADDR OF DATA AREA
²                                    257=         GET   (R9),(R3)                READ STRING INTO (R3)
²00029E 1819                         259+         LR    1,R9                              LOAD PARAMETER REG 1   02-IHBIN
²0002A0 1803                         260+         LR    0,R3                              LOAD PARAMETER REG 0   02-IHBIN
²0002A2 1FFF                         261+         SLR   15,15                    CLEAR REGISTER             @L1A 01-GET
²0002A4 BFF7 1031            00031   262+         ICM   15,7,49(1)               LOAD GET ROUTINE ADDR      @L1C 01-GET
²0002A8 05EF                         263+         BALR  14,15                    LINK TO GET ROUTINE             01-GET
²                                    264=*        CLOSE (DEBUG)
²0002AA 1722                         265=         XR    R2,R2                    R2:=0
0002AC 1744                         266=         XR    R4,R4                    R4:=0
²0002AE A748 004F            0004F   268=         LHI   R4,X'004F'               R4:=79
²0002B2 4440 C270            0028E   269=         EX    R4,PTRT                  SEEK   =
²0002B6 4920 C14E            0016C   270=         CH    R2,EQUAL#1               IF FOUNDED CP1
0002BA 4780 C2C6            002E4   271=         BE    CP1
²                                    273=         WTO   'WRONG PARAMETER'        ERROR GENERATION
²0002BE 0700                         275+         CNOP  0,4                                                      01-WTO
²0002C0 A715 000C            002D8   276+         BRAS  1,IHB0018A               BRANCH AROUND MESSAGE      @LCC 01-WTO
²0002C4 0013                         277+         DC    AL2(19)                  TEXT LENGTH            @YA17152 01-WTO
²0002C6 0000                         278+         DC    B'0000000000000000'      MCSFLAGS                        01-WTO
²0002C8 E6D9D6D5C740D7C1             279+         DC    C'WRONG PARAMETER'       MESSAGE TEXT               @L6C 01-WTO
²0002D8                              280+IHB0018A DS    0H                                                       01-WTO
²0002D8 0A23                         281+         SVC   35                       ISSUE SVC 35               @L6A 01-WTO
²0002DA 17FF                         282=         XR    R15,R15
²0002DC A7F8 0002            00002   283=         LHI   R15,X'0002'
²0002E0 47F0 C5DA            005F8   284=         B     GEND                     EXIT BY ERROR
i                                    285=*IN TRT WE GOT L+1? YES
²                                                                                                               Page    8
  Active Usings: DCBE,R5  USA,R10  DDATA1,R11  INPARSE+X'6',R12  INPARSE_SAVE,R13
  Loc  Object Code    Addr1 Addr2  Stmt   Source Statement                                  HLASM R6.0  2014/07/08 18.32
²                                    286=*E.T. WE TRT ER(3),ER2 -> TRT ER(2),ER2
²                      002E4         287=CP1      EQU   *
²                                    288=*BY TRT WE WILL FOUND NEXT TO SEEKING SYMBOL
²0002E4 1821                         289=         LR    R2,R1                    R2:=ADDR OF SYMBOL
²0002E6 1B23                         290=         SR    R2,R3                 R2:=DISTANCE BETWEEN SYM AND START
²0002E8 1831                         291=         LR    R3,R1                 R3:=ADDR OF SYMBOL
²0002EA 4130 3001            00001   292=         LA    R3,1(,R3)             R3:=R3+1
0002EE 1B42                         293=         SR    R4,R2                    GOT LENGTH FROM NEXT TO = TO
²0002F0 4440 C270            0028E   295=         EX    R4,PTRT                SEEK SPACE
²0002F4 1851                         296=         LR    R5,R1
²0002F6 1B53                         297=         SR    R5,R3                  R5:=DISTANCE BETWEEN = AND SPACE
²0002F8 D505 C250 B000 0026E 00000   298=NXT#1    CLC   BIN(6),LINE1              IF (R3)=BIN THEN
²0002FE 4770 C2FA            00318   299=         BNE   NXT#2
²000302 0650                         300=         BCTR  R5,0                     R5:=R5-1; BECAUSE OF EX MVC
²000304 4180 A032            00032   301=         LA    R8,PDSN
²000308 4450 C276            00294   302=         EX    R5,PMVC                  COPY LIBNAME TO OUR RECORD
²00030C 4150 5001            00001   303=         LA    R5,1(,R5)                R5:=R5+1;  RESTORE REAL LENGTH
²000310 4050 A030            00030   304=         STH   R5,_PDSN                 STORE INTO LENTH FIELD
000314 47F0 C5D6            005F4   305=         B     NXT#6
²000318 D506 C256 B000 00274 00000   307=NXT#2    CLC   LST(7),LINE1
²00031E 4770 C31A            00338   308=         BNE   NXT#3
²000322 0650                         309=         BCTR  R5,0                     R5:=R5-1; BECAUSE OF EX MVC
²000324 4180 A06A            0006A   310=         LA    R8,LPDSN
²000328 4450 C276            00294   311=         EX    R5,PMVC                  COPY LIBNAME TO OUR RECORD
²00032C 4150 5001            00001   312=         LA    R5,1(,R5)                R5:=R5+1;  RESTORE REAL LENGTH
²000330 4050 A068            00068   313=         STH   R5,_LPDSN                STORE INTO LENTH FIELD
000334 47F0 C5D6            005F4   314=         B     NXT#6
²000338 D503 C25D B000 0027B 00000   316=NXT#3    CLC   MAIN(4),LINE1
²00033E 4770 C370            0038E   317=         BNE   NXT#4
²000342 900C D00C            0000C   318=         STM   R0,R12,12(R13)
²                                    319=       GETMAIN RU,LV=TOPM#,LOC=ANY
²000346 0700                         321+         CNOP  0,4                                                      01-GETMA
²000348 47F0 C336            00354   322+         B     IHB0020C           BRANCH AROUND DATA                    01-GETMA
²00034C 0000000A                     323+IHB0020L DC    A(TOPM#)           LENGTH                                01-GETMA
²000350 00                           324+IHB0020F DC    BL1'00000000'                         Flags.        @L7C 01-GETMA
²000351 00                           325+         DC    AL1(0)             RESERVED                              01-GETMA
²000352 00                           326+         DC    AL1(0)             SUBPOOL                               01-GETMA
²000353 72                           327+         DC    BL1'01110010'                 MODE BYTE         @G860P30 01-GETMA
²000354                              328+IHB0020C DS     0H                                                      01-GETMA
²000354 5800 C32E            0034C   329+         L     0,IHB0020L         LOAD LENGTH                           01-GETMA
²000358 58F0 C332            00350   330+         L     15,IHB0020F                       LOAD GETMAIN PARMS     01-GETMA
²00035C 1B11                         331+         SR    1,1                     ZERO RESERVED REG 1              01-GETMA
²00035E 0A78                         332+         SVC   120                     ISSUE GETMAIN SVC                01-GETMA
000360 18F1                         333=         LR    R15,R1
²000362 1711                         335=         XR    R1,R1
²000364 4210 F000            00000   336=         STC   R1,0(,R15)
000368 D208 F001 F000 00001 00000   337=         MVC   1(TOPM#-1,R15),0(R15)
²00036E 980C D00C            0000C   339=         LM    R0,R12,12(R13)
²000372 186F                         340=         LR    R6,R15                   GOT NEW RTOPM IN R6
i                 R:6  00000         341=         USING TOPM,R6
²                                                                                                               Page    9
  Active Usings: DCBE,R5  TOPM,R6  USA,R10  DDATA1,R11  INPARSE+X'6',R12  INPARSE_SAVE,R13
  Loc  Object Code    Addr1 Addr2  Stmt   Source Statement                                  HLASM R6.0  2014/07/08 18.32
²000374 0650                         342=         BCTR  R5,0                     R5:=R5-1; BECAUSE OF EX MVC
²000376 4180 6002            00002   343=         LA    R8,PMN
²00037A 4450 C276            00294   344=         EX    R5,PMVC                  COPY MODULE NAME TO OUR RECORD
²00037E 4150 5001            00001   345=         LA    R5,1(,R5)                R5:=R5+1;  RESTORE REAL LENGTH
²000382 4050 6000            00000   346=         STH   R5,_PMN                  STORE LENGTH
                                    347=         DROP  R6                       PREPARED RECORD TO INSERT
²000386 5060 B050            00050   349=         ST    R6,RTOPM@1               REPLACE INSERTING BY
²                                    350=*        STM   R14,R12,12(R13)
²                                    351=*        L     R5,TOPM@
²                                    352=*   PUSHSTRUCT TOPM,(R6),(R5)          INSERTING
²                                    353=*        LM    R14,R12,12(R13)
00038A 47F0 C5D6            005F4   354=         B     NXT#6
²00038E D507 C261 B000 0027F 00000   356=NXT#4    CLC   CMD(8),LINE1
²000394 4770 C4A2            004C0   357=         BNE   NXT#5
                      00398         358=INLP#30  EQU   *
²000398 5860 A01C            0001C   360=         L     R6,RICB@
²                 R:6  00000         361=         USING ICB,R6
²00039C 5870 C63A            00658   362=         L     R7,=C'    '
²0003A0 5070 6000            00000   363=         ST    R7,0(,R6)
²0003A4 5070 6004            00004   364=         ST    R7,4(,R6)
²0003A8 0650                         365=         BCTR  R5,0                      R5:=R5-1 CAUSE OF EX MVC
²0003AA 4180 6000            00000   366=         LA    R8,IC
²0003AE A78A 0002            00002   367=         AHI   R8,X'0002'
²                                    368=*        PUT   DEBUG,(R3)
²0003B2 4450 C276            00294   369=         EX    R5,PMVC                    COPY LIBNAME TO OUR RECORD
²0003B6 0680                         370=         BCTR  R8,0
²0003B8 0680                         371=         BCTR  R8,0
                                    372=         DROP  R6                       PREPARED RECORD TO INSERT
0003BA 90EC D00C            0000C   374=         STM   R14,R12,12(R13)
²0003BE 5850 A018            00018   376=         L     R5,ICB@
²                                    377=      PSHSTRCT ICB,(R6),(R5)          INSERTING
²                                    378+*R0 R1 R2 R3 R4 R7 R8 R9 MAY CHANGE
²                                    379+*INSERTS &RECORD IN &LIST TYPE &STRUCTNAME
²                                    380+*&LIST MAY BE RECREATED
²                 R:5  00000         381+         USING CBHEAD,R5                                                01-PSHST
²0003C2 5830 5004            00004   382+         L     R3,POS               R3:=POS                             01-PSHST
²0003C6 5820 5000            00000   383+         L     R2,LENGTH            R2:=LENGTH                          01-PSHST
²0003CA 1923                         384+         CR    R2,R3                IF POS=LENGTH THEN EXPAND AND COPY  01-PSHST
²0003CC 4770 C42E            0044C   385+         BNE   COPY#1               ELSE COPY                           01-PSHST
²                      003D0         386+EXP#1    EQU   *                                                        01-PSHST
²0003D0                              389+         CNOP  0,4                                                      02-WTO
²0003D0 A715 000B            003E6   390+         BRAS  1,IHB0023A               BRANCH AROUND MESSAGE      @LCC 02-WTO
²0003D4 0011                         391+         DC    AL2(17)                  TEXT LENGTH            @YA17152 02-WTO
²0003D6 0000                         392+         DC    B'0000000000000000'      MCSFLAGS                        02-WTO
²0003D8 D3C9E2E340C5E7D7             393+         DC    C'LIST EXPANDED'         MESSAGE TEXT               @L6C 02-WTO
²0003E6                              394+IHB0023A DS    0H                                                       02-WTO
²0003E6 0A23                         395+         SVC   35                       ISSUE SVC 35               @L6A 02-WTO
²0003E8 8B20 0001            00001   396+         SLA   R2,1                 R2:=R2*2                            01-PSHST
²0003EC 1842                         397+         LR    R4,R2                                                    01-PSHST
i0003EE A72A 0008            00008   398+         AHI   R2,CBHEAD#           +HEADER                             01-PSHST
²                                                                                                               Page   10
  Active Usings: CBHEAD,R5  USA,R10  DDATA1,R11  INPARSE+X'6',R12  INPARSE_SAVE,R13
  Loc  Object Code    Addr1 Addr2  Stmt   Source Statement                                  HLASM R6.0  2014/07/08 18.32
²0003F2 0700                         401+         CNOP  0,4                                                      02-GETMA
²0003F4 47F0 C3DE            003FC   402+         B     IHB0025C           BRANCH AROUND DATA                    02-GETMA
²0003F8 00                           403+IHB0025F DC    BL1'00000000'                         Flags.        @L7C 02-GETMA
²0003F9 00                           404+         DC    AL1(0)             RESERVED                              02-GETMA
²0003FA 00                           405+         DC    AL1(0)             SUBPOOL                               02-GETMA
²0003FB 72                           406+         DC    BL1'01110010'                 MODE BYTE         @G860P30 02-GETMA
²0003FC                              407+IHB0025C DS     0H                                                      02-GETMA
²0003FC 1802                         408+         LR    0,R2               LOAD LENGTH                  @ZA07133 02-GETMA
²0003FE 58F0 C3DA            003F8   409+         L     15,IHB0025F                       LOAD GETMAIN PARMS     02-GETMA
²000402 1B11                         410+         SR    1,1                     ZERO RESERVED REG 1              02-GETMA
²000404 0A78                         411+         SVC   120                     ISSUE GETMAIN SVC                02-GETMA
²000406 1891                         412+         LR    R9,R1                R9:=R1                              01-PSHST
²000408 5870 5000            00000   413+         L     R7,LENGTH                                                01-PSHST
²00040C A77A 0008            00008   414+         AHI   R7,CBHEAD#                                               01-PSHST
²                                    416+*R1 R2 R3 R8 R9 MAY CHANGE
²                                    417+*======================================================================
²000410 1837                         418+         LR    R3,R7                                                    02-FASTC
²000412 1722                         419+         XR    R2,R2                                                    02-FASTC
²000414 1711                         420+         XR    R1,R1                                                    02-FASTC
²000416 A718 00FF            000FF   421+         LHI   R1,X'FF'                                                 02-FASTC
²00041A 1D21                         422+         DR    R2,R1                 LENGTH - PAIR OF REGISTERS (E-O)   02-FASTC
²00041C 5930 C63E            0065C   423+         C     R3,=X'00000000'                                          02-FASTC
²000420 4780 C422            00440   424+         BE    SKIP#1                                                   02-FASTC
²                      00424         425+LP#1     EQU   *                                                        02-FASTC
²000424 D2FE 9000 5000 00000 00000   426+         MVC   0(255,R9),0(R5)                                          02-FASTC
²00042A A79A 00FF            000FF   427+         AHI   R9,X'FF'                                                 02-FASTC
²00042E A75A 00FF            000FF   428+         AHI   R5,X'FF'                                                 02-FASTC
²000432 4630 C406            00424   429+         BCT   R3,LP#1                                                  02-FASTC
²000436 47F0 C422            00440   430+         B     SKIP#1                                                   02-FASTC
²00043A D200 9000 5000 00000 00000   431+REM#1    MVC   0(0,R9),0(R5)                                            02-FASTC
²                      00440         432+SKIP#1   EQU   *                                                        02-FASTC
²000440 0620                         433+         BCTR  R2,0                                                     02-FASTC
²000442 4420 C41C            0043A   434+         EX    R2,REM#1                                                 02-FASTC
²000446 1859                         435+         LR    R5,R9                 SET UP NEW LIST                    01-PSHST
²000448 5040 5000            00000   436+         ST    R4,LENGTH            LENGTH:=R4                          01-PSHST
²                      0044C         437+COPY#1   EQU   *                                                        01-PSHST
²00044C 5840 5004            00004   438+         L     R4,POS               R4:=POS                             01-PSHST
²000450 1834                         439+         LR    R3,R4                R3:=R4                              01-PSHST
²000452 A73A 0008            00008   440+         AHI   R3,ICB#               R3:=R3+OFFSET FOR NEW MEMBER       01-PSHST
²000456 5030 5004            00004   441+         ST    R3,POS               POS:=R3                             01-PSHST
²00045A 1A45                         442+         AR    R4,R5                 R4:=POS + ADDR OF LIST             01-PSHST
²00045C A74A 0008            00008   443+         AHI   R4,CBHEAD#           ADD HEADER TO R4                    01-PSHST
²000460 1788                         444+         XR    R8,R8                R8:=0                               01-PSHST
²000462 A788 0008            00008   445+         LHI   R8,ICB#               R8:=LENGTH OF RECORD               01-PSHST
²                                    447+*R1 R2 R3 R8 R9 MAY CHANGE
²                                    448+*======================================================================
²000466 1838                         449+         LR    R3,R8                                                    02-FASTC
²000468 1722                         450+         XR    R2,R2                                                    02-FASTC
²00046A 1711                         451+         XR    R1,R1                                                    02-FASTC
²00046C A718 00FF            000FF   452+         LHI   R1,X'FF'                                                 02-FASTC
²000470 1D21                         453+         DR    R2,R1                 LENGTH - PAIR OF REGISTERS (E-O)   02-FASTC
²000472 5930 C63E            0065C   454+         C     R3,=X'00000000'                                          02-FASTC
²000476 4780 C478            00496   455+         BE    SKIP#2                                                   02-FASTC
²                      0047A         456+LP#2     EQU   *                                                        02-FASTC
i00047A D2FE 4000 6000 00000 00000   457+         MVC   0(255,R4),0(R6)                                          02-FASTC
²                                                                                                               Page   11
  Active Usings: CBHEAD,R5  USA,R10  DDATA1,R11  INPARSE+X'6',R12  INPARSE_SAVE,R13
  Loc  Object Code    Addr1 Addr2  Stmt   Source Statement                                  HLASM R6.0  2014/07/08 18.32
²000480 A74A 00FF            000FF   458+         AHI   R4,X'FF'                                                 02-FASTC
²000484 A76A 00FF            000FF   459+         AHI   R6,X'FF'                                                 02-FASTC
²000488 4630 C45C            0047A   460+         BCT   R3,LP#2                                                  02-FASTC
²00048C 47F0 C478            00496   461+         B     SKIP#2                                                   02-FASTC
²000490 D200 4000 6000 00000 00000   462+REM#2    MVC   0(0,R4),0(R6)                                            02-FASTC
²                      00496         463+SKIP#2   EQU   *                                                        02-FASTC
²000496 0620                         464+         BCTR  R2,0                                                     02-FASTC
²000498 4420 C472            00490   465+         EX    R2,REM#2                                                 02-FASTC
²                                    466+         DROP  R5                                                       01-PSHST
²                                    467=*        PUT   DEBUG,(R3)
00049C 98EC D00C            0000C   468=         LM    R14,R12,12(R13)
²0004A0 4920 C14C            0016A   470=         CH    R2,SPACE#               IF LAST SYMBOL WAS A SPACE GOTO
0004A4 4780 C5D6            005F4   471=         BE    NXT#6                    JMP NXT#6
²0004A8 1821                         473=         LR    R2,R1
²0004AA 1B23                         474=         SR    R2,R3
²0004AC 1831                         475=         LR    R3,R1
²0004AE 4130 3001            00001   476=         LA    R3,1(,R3)
0004B2 1B42                         477=         SR    R4,R2
²0004B4 4440 C270            0028E   479=         EX    R4,PTRT
²0004B8 1851                         480=         LR    R5,R1
0004BA 1B53                         481=         SR    R5,R3
0004BC 47F0 C37A            00398   483=         B     INLP#30
²0004C0 D505 C269 B000 00287 00000   485=NXT#5    CLC   OUTPUT(6),LINE1
0004C6 4770 C5D6            005F4   486=         BNE   NXT#6
²0004CA 5860 A028            00028   488=         L     R6,RDNCB@
²                 R:6  00000         489=         USING DNCB,R6
²0004CE 0650                         490=         BCTR  R5,0                    R5:=R5-1; CAUSE OF EX MVC
²                                    491=*        PUT   DEBUG,(R3)
²0004D0 4180 6002            00002   492=         LA    R8,LIBRARY
²0004D4 4450 C276            00294   493=         EX    R5,PMVC                 COPY  NAME OF LIBRARY TO OUR REC
²0004D8 4150 5001            00001   494=         LA    R5,1(,R5)               R5:=R5+1 RESTORE REAL LENGTH
²0004DC 4050 6000            00000   495=         STH   R5,_LIBRARY             STORE LENGTH
                                    496=         DROP  R6                       PREPARED RECORD TO INSERT
²0004E0 1A31                         498=         AR    R3,R1
0004E2 1B41                         499=         SR    R4,R1
²0004E4 1821                         501=         LR    R2,R1
²0004E6 1B23                         502=         SR    R2,R3
²0004E8 1831                         503=         LR    R3,R1
²0004EA 4130 3001            00001   504=         LA    R3,1(,R3)
0004EE 1B42                         505=         SR    R4,R2
²0004F0 4440 C270            0028E   507=         EX    R4,PTRT
²0004F4 1851                         508=         LR    R5,R1
0004F6 1B53                         509=         SR    R5,R3
²                 R:6  00000         511=         USING DNCB,R6
i0004F8 0650                         512=         BCTR  R5,0                    R5:=R5-1; CAUSE OF EX MVC
²                                                                                                               Page   12
  Active Usings: DNCB,R6  USA,R10  DDATA1,R11  INPARSE+X'6',R12  INPARSE_SAVE,R13
  Loc  Object Code    Addr1 Addr2  Stmt   Source Statement                                  HLASM R6.0  2014/07/08 18.32
²                                    513=*        PUT   DEBUG,(R3)
²0004FA 4180 6030            00030   514=         LA    R8,MEMBER
²0004FE 4450 C276            00294   515=         EX    R5,PMVC                 COPY  NAME OF LIBRARY TO OUR REC
²000502 4150 5001            00001   516=         LA    R5,1(,R5)                R5:=R5+1 RESTORE REAL LENGTH
²000506 4050 602E            0002E   517=         STH   R5,_MEMBER
                                    518=         DROP  R6                       PREPARED RECORD TO INSERT
²00050A 90EC D00C            0000C   520=         STM   R14,R12,12(R13)
²00050E 5850 A024            00024   521=         L     R5,DNCB@
²                                    522=      PSHSTRCT DNCB,(R6),(R5)           INSERTING
²                                    523+*R0 R1 R2 R3 R4 R7 R8 R9 MAY CHANGE
²                                    524+*INSERTS &RECORD IN &LIST TYPE &STRUCTNAME
²                                    525+*&LIST MAY BE RECREATED
²                 R:5  00000         526+         USING CBHEAD,R5                                                01-PSHST
²000512 5830 5004            00004   527+         L     R3,POS               R3:=POS                             01-PSHST
²000516 5820 5000            00000   528+         L     R2,LENGTH            R2:=LENGTH                          01-PSHST
²00051A 1923                         529+         CR    R2,R3                IF POS=LENGTH THEN EXPAND AND COPY  01-PSHST
²00051C 4770 C57E            0059C   530+         BNE   COPY#2               ELSE COPY                           01-PSHST
²                      00520         531+EXP#2    EQU   *                                                        01-PSHST
²000520                              534+         CNOP  0,4                                                      02-WTO
²000520 A715 000B            00536   535+         BRAS  1,IHB0030A               BRANCH AROUND MESSAGE      @LCC 02-WTO
²000524 0011                         536+         DC    AL2(17)                  TEXT LENGTH            @YA17152 02-WTO
²000526 0000                         537+         DC    B'0000000000000000'      MCSFLAGS                        02-WTO
²000528 D3C9E2E340C5E7D7             538+         DC    C'LIST EXPANDED'         MESSAGE TEXT               @L6C 02-WTO
²000536                              539+IHB0030A DS    0H                                                       02-WTO
²000536 0A23                         540+         SVC   35                       ISSUE SVC 35               @L6A 02-WTO
²000538 8B20 0001            00001   541+         SLA   R2,1                 R2:=R2*2                            01-PSHST
²00053C 1842                         542+         LR    R4,R2                                                    01-PSHST
²00053E A72A 0008            00008   543+         AHI   R2,CBHEAD#           +HEADER                             01-PSHST
²000542 0700                         546+         CNOP  0,4                                                      02-GETMA
²000544 47F0 C52E            0054C   547+         B     IHB0032C           BRANCH AROUND DATA                    02-GETMA
²000548 00                           548+IHB0032F DC    BL1'00000000'                         Flags.        @L7C 02-GETMA
²000549 00                           549+         DC    AL1(0)             RESERVED                              02-GETMA
²00054A 00                           550+         DC    AL1(0)             SUBPOOL                               02-GETMA
²00054B 72                           551+         DC    BL1'01110010'                 MODE BYTE         @G860P30 02-GETMA
²00054C                              552+IHB0032C DS     0H                                                      02-GETMA
²00054C 1802                         553+         LR    0,R2               LOAD LENGTH                  @ZA07133 02-GETMA
²00054E 58F0 C52A            00548   554+         L     15,IHB0032F                       LOAD GETMAIN PARMS     02-GETMA
²000552 1B11                         555+         SR    1,1                     ZERO RESERVED REG 1              02-GETMA
²000554 0A78                         556+         SVC   120                     ISSUE GETMAIN SVC                02-GETMA
²000556 1891                         557+         LR    R9,R1                R9:=R1                              01-PSHST
²000558 5870 5000            00000   558+         L     R7,LENGTH                                                01-PSHST
²00055C A77A 0008            00008   559+         AHI   R7,CBHEAD#                                               01-PSHST
²                                    561+*R1 R2 R3 R8 R9 MAY CHANGE
²                                    562+*======================================================================
²000560 1837                         563+         LR    R3,R7                                                    02-FASTC
²000562 1722                         564+         XR    R2,R2                                                    02-FASTC
²000564 1711                         565+         XR    R1,R1                                                    02-FASTC
²000566 A718 00FF            000FF   566+         LHI   R1,X'FF'                                                 02-FASTC
²00056A 1D21                         567+         DR    R2,R1                 LENGTH - PAIR OF REGISTERS (E-O)   02-FASTC
²00056C 5930 C63E            0065C   568+         C     R3,=X'00000000'                                          02-FASTC
²000570 4780 C572            00590   569+         BE    SKIP#3                                                   02-FASTC
²                      00574         570+LP#3     EQU   *                                                        02-FASTC
²000574 D2FE 9000 5000 00000 00000   571+         MVC   0(255,R9),0(R5)                                          02-FASTC
i00057A A79A 00FF            000FF   572+         AHI   R9,X'FF'                                                 02-FASTC
²                                                                                                               Page   13
  Active Usings: CBHEAD,R5  USA,R10  DDATA1,R11  INPARSE+X'6',R12  INPARSE_SAVE,R13
  Loc  Object Code    Addr1 Addr2  Stmt   Source Statement                                  HLASM R6.0  2014/07/08 18.32
²00057E A75A 00FF            000FF   573+         AHI   R5,X'FF'                                                 02-FASTC
²000582 4630 C556            00574   574+         BCT   R3,LP#3                                                  02-FASTC
²000586 47F0 C572            00590   575+         B     SKIP#3                                                   02-FASTC
²00058A D200 9000 5000 00000 00000   576+REM#3    MVC   0(0,R9),0(R5)                                            02-FASTC
²                      00590         577+SKIP#3   EQU   *                                                        02-FASTC
²000590 0620                         578+         BCTR  R2,0                                                     02-FASTC
²000592 4420 C56C            0058A   579+         EX    R2,REM#3                                                 02-FASTC
²000596 1859                         580+         LR    R5,R9                 SET UP NEW LIST                    01-PSHST
²000598 5040 5000            00000   581+         ST    R4,LENGTH            LENGTH:=R4                          01-PSHST
²                      0059C         582+COPY#2   EQU   *                                                        01-PSHST
²00059C 5840 5004            00004   583+         L     R4,POS               R4:=POS                             01-PSHST
²0005A0 1834                         584+         LR    R3,R4                R3:=R4                              01-PSHST
²0005A2 A73A 0038            00038   585+         AHI   R3,DNCB#              R3:=R3+OFFSET FOR NEW MEMBER       01-PSHST
²0005A6 5030 5004            00004   586+         ST    R3,POS               POS:=R3                             01-PSHST
²0005AA 1A45                         587+         AR    R4,R5                 R4:=POS + ADDR OF LIST             01-PSHST
²0005AC A74A 0008            00008   588+         AHI   R4,CBHEAD#           ADD HEADER TO R4                    01-PSHST
²0005B0 1788                         589+         XR    R8,R8                R8:=0                               01-PSHST
²0005B2 A788 0038            00038   590+         LHI   R8,DNCB#              R8:=LENGTH OF RECORD               01-PSHST
²                                    592+*R1 R2 R3 R8 R9 MAY CHANGE
²                                    593+*======================================================================
²0005B6 1838                         594+         LR    R3,R8                                                    02-FASTC
²0005B8 1722                         595+         XR    R2,R2                                                    02-FASTC
²0005BA 1711                         596+         XR    R1,R1                                                    02-FASTC
²0005BC A718 00FF            000FF   597+         LHI   R1,X'FF'                                                 02-FASTC
²0005C0 1D21                         598+         DR    R2,R1                 LENGTH - PAIR OF REGISTERS (E-O)   02-FASTC
²0005C2 5930 C63E            0065C   599+         C     R3,=X'00000000'                                          02-FASTC
²0005C6 4780 C5C8            005E6   600+         BE    SKIP#4                                                   02-FASTC
²                      005CA         601+LP#4     EQU   *                                                        02-FASTC
²0005CA D2FE 4000 6000 00000 00000   602+         MVC   0(255,R4),0(R6)                                          02-FASTC
²0005D0 A74A 00FF            000FF   603+         AHI   R4,X'FF'                                                 02-FASTC
²0005D4 A76A 00FF            000FF   604+         AHI   R6,X'FF'                                                 02-FASTC
²0005D8 4630 C5AC            005CA   605+         BCT   R3,LP#4                                                  02-FASTC
²0005DC 47F0 C5C8            005E6   606+         B     SKIP#4                                                   02-FASTC
²0005E0 D200 4000 6000 00000 00000   607+REM#4    MVC   0(0,R4),0(R6)                                            02-FASTC
²                      005E6         608+SKIP#4   EQU   *                                                        02-FASTC
²0005E6 0620                         609+         BCTR  R2,0                                                     02-FASTC
²0005E8 4420 C5C2            005E0   610+         EX    R2,REM#4                                                 02-FASTC
²                                    611+         DROP  R5                                                       01-PSHST
0005EC 98EC D00C            0000C   612=         LM    R14,R12,12(R13)
0005F0 47F0 C5D6            005F4   614=         B     NXT#6
²                      005F4         616=NXT#6    EQU   *
²0005F4 47F0 C27E            0029C   617=         B     LOOP#31
²                      005F8         618=GEND     EQU   *
²0005F8 5860 B050            00050   619=         L     R6,RTOPM@1
²                                    620=      FREEMAIN RU,LV=DDATA1#,A=(R11)
²0005FC                              622+         CNOP  0,4                                                      01-FREEM
²0005FC 47F0 C5EA            00608   623+         B     *+12-4*0-2*0                BRANCH AROUND DATA @O2C      01-FREEM
²000600 00000054                     624+         DC    A(DDATA1#)                        LENGTH                 01-FREEM
²000604 00                           625+IHB0036F DC    BL1'00000000'            Flags              @O2A         01-FREEM
²000605 00                           626+         DC    AL1(0)                            RESERVED               01-FREEM
²000606 00                           627+         DC    AL1(0)                            SUBPOOL NUMBER         01-FREEM
²000607 03                           628+         DC    BL1'00000011'                     MODE BYTE              01-FREEM
i000608 5800 C5E2            00600   629+         L     0,*-8+2*0                         LOAD LENGTH            01-FREEM
²                                                                                                               Page   14
  Active Usings: USA,R10  DDATA1,R11  INPARSE+X'6',R12  INPARSE_SAVE,R13
  Loc  Object Code    Addr1 Addr2  Stmt   Source Statement                                  HLASM R6.0  2014/07/08 18.32
²00060C 181B                         630+         LR    1,R11                             LOAD AREA ADDRESS      01-FREEM
²00060E 58F0 C5E6            00604   631+         L     15,IHB0036F                       LOAD PARAMETERS        01-FREEM
²000612 0A78                         632+         SVC   120                               ISSUE FREEMAIN SVC     01-FREEM
²                                    633=         CLOSE ((R9)),MODE=31
²000614                              634+         CNOP  0,4                               ALIGN LIST TO HALFWORD 01-CLOSE
²000614 4D10 C602            00620   635+         BAS   1,*+12                       LOAD REG1 W/LIST ADDR. @L1A 01-CLOSE
²000618 00000000                     636+         DC    A(0)                              OPTION BYTE      @L1A  01-CLOSE
²00061C 00000000                     637+         DC    A(0)                              DCB ADDRESS      @L1A  01-CLOSE
²000620 5091 0004            00004   638+         ST    R9,4(1,0)                         STORE INTO LIST   @L1C 01-CLOSE
²000624 9280 1000      00000         639+         MVI   0(1),128                       MOVE IN OPTION BYTE  @L1C 01-CLOSE
²000628 1801                         640+         LR    0,1                            POINT REG0 TO PLIST  @L1A 01-CLOSE
²00062A 1B11                         641+         SR    1,1                            CLEAR REGISTER 1     @L1A 01-CLOSE
²00062C 0A14                         642+         SVC   20                                ISSUE CLOSE SVC        01-CLOSE
²                                    643=      FREEMAIN RU,LV=DCBLNGBS,A=(R9)
²00062E 0700                         645+         CNOP  0,4                                                      01-FREEM
²000630 47F0 C61E            0063C   646+         B     *+12-4*0-2*0                BRANCH AROUND DATA @O2C      01-FREEM
²000634 00000058                     647+         DC    A(DCBLNGBS)                       LENGTH                 01-FREEM
²000638 00                           648+IHB0039F DC    BL1'00000000'            Flags              @O2A         01-FREEM
²000639 00                           649+         DC    AL1(0)                            RESERVED               01-FREEM
²00063A 00                           650+         DC    AL1(0)                            SUBPOOL NUMBER         01-FREEM
²00063B 03                           651+         DC    BL1'00000011'                     MODE BYTE              01-FREEM
²00063C 5800 C616            00634   652+         L     0,*-8+2*0                         LOAD LENGTH            01-FREEM
²000640 1819                         653+         LR    1,R9                              LOAD AREA ADDRESS      01-FREEM
²000642 58F0 C61A            00638   654+         L     15,IHB0039F                       LOAD PARAMETERS        01-FREEM
²000646 0A78                         655+         SVC   120                               ISSUE FREEMAIN SVC     01-FREEM
²                                    656=         DROP  R10
²                                    657=         DROP  R11
²000648 1806                         658=         LR    R0,R6
²000000                00000 00054   659=DDATA1   DSECT
²000000                              660=LINE1    DS    CL80
²000050                              661=RTOPM@1  DS    F
                      00054         662=DDATA1#  EQU   *-LINE1
²                                    664=&CSECT   CSECT
²00064A                00018 0067A      +INPARSE  CSECT
²                                    665=INPARSE  PROCEND RC=(R15)
²00064A 47F0 C642            00660   666+         B     L#1                                                      01-PROCE
²000650                              667+         LTORG                                                          01-PROCE
²000650 00000001                     668                =XL4'00000001'
²000654 C4C3C2C5                     669                =CL4'DCBE'
²000658 40404040                     670                =C'    '
²00065C 00000000                     671                =X'00000000'
²                      00660         672+L#1      EQU   *                                                        01-PROCE
²000660 182D                         673+         LR    R2,R13                                                   01-PROCE
²000662 58D0 D004            00004   674+         L     R13,INPARSE_OLD_SAVE                                     01-PROCE
²000666 5000 D014            00014   675+         ST    R0,INPARSE_SAVE_R0                                       01-PROCE
²00066A 5010 D018            00018   676+         ST    R1,INPARSE_SAVE_R1                                       01-PROCE
²00066E 18FF                         677+         LR    R15,R15                                                  01-PROCE
²000670 50F0 D010            00010   678+         ST    R15,INPARSE_SAVE_R15                                     01-PROCE
²000674                              681+         CNOP  0,4                                                      02-FREEM
²000674 47F0 C662            00680   682+         B     *+12-4*0-2*0                BRANCH AROUND DATA @O2C      02-FREEM
²000678 00000048                     683+         DC    A(INPARSE_SAVELEN)                LENGTH                 02-FREEM
²00067C 00                           684+IHB0042F DC    BL1'00000000'            Flags              @O2A         02-FREEM
²00067D 00                           685+         DC    AL1(0)                            RESERVED               02-FREEM
i00067E 00                           686+         DC    AL1(0)                            SUBPOOL NUMBER         02-FREEM
²                                                                                                               Page   15
  Active Usings: INPARSE+X'6',R12  INPARSE_SAVE,R13
  Loc  Object Code    Addr1 Addr2  Stmt   Source Statement                                  HLASM R6.0  2014/07/08 18.32
²00067F 03                           687+         DC    BL1'00000011'                     MODE BYTE              02-FREEM
²000680 5800 C65A            00678   688+         L     0,*-8+2*0                         LOAD LENGTH            02-FREEM
²000684 1812                         689+         LR    1,R2                              LOAD AREA ADDRESS      02-FREEM
²000686 58F0 C65E            0067C   690+         L     15,IHB0042F                       LOAD PARAMETERS        02-FREEM
²00068A 0A78                         691+         SVC   120                               ISSUE FREEMAIN SVC     02-FREEM
²00068C 98EC D00C            0000C   692+         LM    R14,R12,12(R13)                                          01-PROCE
²                                    693+         DROP  R12                                                      01-PROCE
²                 R:C  00690         694+         USING *,R12                                                    01-PROCE
²                                    695+         DROP  R13                                                      01-PROCE
²000690 07FE                         696+         BR    14                                                       01-PROCE
²                                    697          COPY  BPARM                                                    00080700
²                                    698=BLDPRM   PROCBGN
²                 R:D  00000         699+         USING BLDPRM_SAVE,R13             SET SA ADDRESSATION          01-PROCB
²000698                00698 00106   700+BLDPRM   CSECT                                                          01-PROCB
²                                    701+BLDPRM   AMODE 31                                                       01-PROCB
²                                    702+BLDPRM   RMODE 24                                                       01-PROCB
²000698 90EC D00C            0000C   703+         STM   R14,R12,12(R13)             STORE REGISTERS              01-PROCB
²00069C 0DC0                         704+         BASR  R12,0                                                    01-PROCB
²                 R:C  0069E         705+         USING *,R12                       SET ADDRESSATION             01-PROCB
²00069E 0700                         708+         CNOP  0,4                                                      02-GETMA
²0006A0 47F0 C00E            006AC   709+         B     IHB0045C           BRANCH AROUND DATA                    02-GETMA
²0006A4 00000048                     710+IHB0045L DC    A(BLDPRM_SAVELEN)  LENGTH                                02-GETMA
²0006A8 00                           711+IHB0045F DC    BL1'00000000'                         Flags.        @L7C 02-GETMA
²0006A9 00                           712+         DC    AL1(0)             RESERVED                              02-GETMA
²0006AA 00                           713+         DC    AL1(0)             SUBPOOL                               02-GETMA
²0006AB 72                           714+         DC    BL1'01110010'                 MODE BYTE         @G860P30 02-GETMA
²0006AC                              715+IHB0045C DS     0H                                                      02-GETMA
²0006AC 5800 C006            006A4   716+         L     0,IHB0045L         LOAD LENGTH                           02-GETMA
²0006B0 58F0 C00A            006A8   717+         L     15,IHB0045F                       LOAD GETMAIN PARMS     02-GETMA
²0006B4 1B11                         718+         SR    1,1                     ZERO RESERVED REG 1              02-GETMA
²0006B6 0A78                         719+         SVC   120                     ISSUE GETMAIN SVC                02-GETMA
²0006B8 1831                         720+         LR    R3,R1                       R3:=R1                       01-PROCB
²0006BA 5800 D014            00014   721+         L     R0,BLDPRM_SAVE_R0                                        01-PROCB
²0006BE 5810 D018            00018   722+         L     R1,BLDPRM_SAVE_R1                                        01-PROCB
²0006C2 58F0 D010            00010   723+         L     R15,BLDPRM_SAVE_R15         RESTORE R0,R1,R15            01-PROCB
²0006C6 50D3 0004            00004   724+         ST    R13,4(R3)                   STORE OLD SA                 01-PROCB
²0006CA 182D                         725+         LR    R2,R13                                                   01-PROCB
²0006CC 18D3                         726+         LR    R13,R3                      SET NEW SA                   01-PROCB
²0006CE 50D2 0008            00008   727+         ST    R13,8(R2)                   STORE ADDR OF NEW SA TO OLD  01-PROCB
²                                    728+*CREATE DSECT FOR SAVEAREA
²000000                00000 00048   729+BLDPRM_SAVE  DSECT                                                      01-PROCB
²000000                              730+BLDPRM_SAVE_AREA  DS 0C                                                 01-PROCB
²000000                              731+BLDPRM_RESERVED   DS 1F                                                 01-PROCB
²000004                              732+BLDPRM_OLD_SAVE   DS A                                                  01-PROCB
²000008                              733+BLDPRM_NEW_SAVE   DS A                                                  01-PROCB
²00000C                              734+BLDPRM_SAVE_R14   DS 1F                                                 01-PROCB
²000010                              735+BLDPRM_SAVE_R15   DS 1F                                                 01-PROCB
²000014                              736+BLDPRM_SAVE_R0   DS 1F                                                  01-PROCB
²000018                              737+BLDPRM_SAVE_R1   DS 1F                                                  01-PROCB
²00001C                              738+BLDPRM_SAVE_R2   DS 1F                                                  01-PROCB
²000020                              739+BLDPRM_SAVE_R3   DS 1F                                                  01-PROCB
²000024                              740+BLDPRM_SAVE_R4   DS 1F                                                  01-PROCB
²000028                              741+BLDPRM_SAVE_R5   DS 1F                                                  01-PROCB
²00002C                              742+BLDPRM_SAVE_R6   DS 1F                                                  01-PROCB
i000030                              743+BLDPRM_SAVE_R7   DS 1F                                                  01-PROCB
²                                                                                                               Page   16
  Active Usings: BLDPRM+X'6',R12  BLDPRM_SAVE,R13
D-Loc  Object Code    Addr1 Addr2  Stmt   Source Statement                                  HLASM R6.0  2014/07/08 18.32
²000034                              744+BLDPRM_SAVE_R8   DS 1F                                                  01-PROCB
²000038                              745+BLDPRM_SAVE_R9   DS 1F                                                  01-PROCB
²00003C                              746+BLDPRM_SAVE_R10  DS 1F                                                  01-PROCB
²000040                              747+BLDPRM_SAVE_R11  DS 1F                                                  01-PROCB
²000044                              748+BLDPRM_SAVE_R12  DS 1F                                                  01-PROCB
²                      00048         749+BLDPRM_SAVELEN  EQU *-BLDPRM_SAVE_AREA                                  01-PROCB
²0006D2                00698 00106   750+BLDPRM   CSECT                                                          01-PROCB
²                                    751=*GOT IN R0 ADDR OF LIBRARY NAME IN PARM FORMAT
²                                    752=*GOT IN R1 ADDR OF MODULE NAME IN PARM FORMAT
²                                    753=*RETURNS IN R0 POINTER TO MEMORY AREA, WHICH CONTAINS
²                                    754=*CONCATENATED DATASET NAME IN PARM FORMAT
²0006D2 1860                         755=         LR    R6,R0
0006D4 A76A 0002            00002   756=         AHI   R6,X'0002'      R6:=ADDR OF LIBRARY NAME START
²0006D8 1871                         758=         LR    R7,R1
0006DA A77A 0002            00002   759=         AHI   R7,X'0002'      R7:=ADDR OF MODULE NAME START
²0006DE 1722                         761=         XR    R2,R2           R2:=0
²0006E0 1733                         762=         XR    R3,R3           R3:=0
0006E2 1744                         763=         XR    R4,R4           R4:=0
²0006E4 18A0                         765=         LR    R10,R0          R10:=R0 TO AVOID ERROR WITH R0
²0006E6 4830 A000            00000   766=         LH    R3,0(,R10)       R3:= SIZE OF LIBRARY NAME
0006EA 4840 1000            00000   767=         LH    R4,0(,R1)       R4:= SIZE OF MODULE NAME
²0006EE 1823                         769=         LR    R2,R3
²0006F0 1A24                         770=         AR    R2,R4           R2:=R3+R4
0006F2 4120 2004            00004   771=         LA    R2,4(,R2)       R2:=R2+4 PARENTHESES AND LENGTH
²                                    773=       GETMAIN RU,LV=(R2),LOC=ANY
²0006F6 0700                         775+         CNOP  0,4                                                      01-GETMA
²0006F8 47F0 C062            00700   776+         B     IHB0047C           BRANCH AROUND DATA                    01-GETMA
²0006FC 00                           777+IHB0047F DC    BL1'00000000'                         Flags.        @L7C 01-GETMA
²0006FD 00                           778+         DC    AL1(0)             RESERVED                              01-GETMA
²0006FE 00                           779+         DC    AL1(0)             SUBPOOL                               01-GETMA
²0006FF 72                           780+         DC    BL1'01110010'                 MODE BYTE         @G860P30 01-GETMA
²000700                              781+IHB0047C DS     0H                                                      01-GETMA
²000700 1802                         782+         LR    0,R2               LOAD LENGTH                  @ZA07133 01-GETMA
²000702 58F0 C05E            006FC   783+         L     15,IHB0047F                       LOAD GETMAIN PARMS     01-GETMA
²000706 1B11                         784+         SR    1,1                     ZERO RESERVED REG 1              01-GETMA
000708 0A78                         785+         SVC   120                     ISSUE GETMAIN SVC                01-GETMA
00070A 1881                         787=         LR    R8,R1           R8:= RESULT MEM AREA
²00070C 47F0 C07C            0071A   789=         B     SKPMVC#1
²000710 00                           790=PARL#2   DC    X'00'
²000711 4D                           791=         DC    C'('
²000712 00                           792=PARR#2   DC    X'00'
²000713 5D                           793=         DC    C')'
²000714 D200 8000 6000 00000 00000   794=BLDMVC   MVC   0(0,R8),0(R6)
                      0071A         795=SKPMVC#1 EQU   *
²00071A 0620                         797=         BCTR  R2,0
²00071C 0620                         798=         BCTR  R2,0            R2:=R2-2
i00071E 4020 8000            00000   799=         STH   R2,0(,R8)       STORE R2    - TOTAL LENGTH
²                                                                                                               Page   17
  Active Usings: BLDPRM+X'6',R12  BLDPRM_SAVE,R13
  Loc  Object Code    Addr1 Addr2  Stmt   Source Statement                                  HLASM R6.0  2014/07/08 18.32
²000722 1898                         801=         LR    R9,R8           SAVE RESULT MEMAREA
000724 4180 8002            00002   802=         LA    R8,2(,R8)       R8:=R8+2
²000728 0630                         804=         BCTR  R3,0
00072A 4430 C076            00714   805=         EX    R3,BLDMVC       COPY LIB NAME TO (R8) LENGTH R3
²00072E 4130 3001            00001   807=         LA    R3,1(,R3)
000732 1A83                         808=         AR    R8,R3           R8:=R8+LENGTH OF LIB NAME
²000734 1711                         810=         XR    R1,R1
²000736 4810 C072            00710   811=         LH    R1,PARL#2       0(R8):=(
00073A 4210 8000            00000   812=         STC   R1,0(,R8)
00073E 4180 8001            00001   814=         LA    R8,1(,R8)
²000742 1867                         816=         LR    R6,R7           R6:= ADDR OF MODULE NAME START
²000744 0640                         817=         BCTR  R4,0
000746 4440 C076            00714   818=         EX    R4,BLDMVC       COPY MODULE NAME TO (R8) LENGTH R4
²00074A 4140 4001            00001   820=         LA    R4,1(,R4)
00074E 1A84                         821=         AR    R8,R4
²000750 1711                         823=         XR    R1,R1
²000752 4810 C074            00712   824=         LH    R1,PARR#2
000756 4210 8000            00000   825=         STC   R1,0(,R8)       0(R8):=)
00075A 1809                         827=         LR    R0,R9           RETURN RESULT MEMAREA
²00075C 58F0 C0CA            00768   829=         L     R15,=X'00001222'
²                      00760         830=DATA#3   EQU   *
²                                    831=BLDPRM   PROCEND RC=(R15)
²000760 47F0 C0CE            0076C   832+         B     L#2                                                      01-PROCE
²000768                              833+         LTORG                                                          01-PROCE
²000768 00001222                     834                =X'00001222'
²                      0076C         835+L#2      EQU   *                                                        01-PROCE
²00076C 182D                         836+         LR    R2,R13                                                   01-PROCE
²00076E 58D0 D004            00004   837+         L     R13,BLDPRM_OLD_SAVE                                      01-PROCE
²000772 5000 D014            00014   838+         ST    R0,BLDPRM_SAVE_R0                                        01-PROCE
²000776 5010 D018            00018   839+         ST    R1,BLDPRM_SAVE_R1                                        01-PROCE
²00077A 18FF                         840+         LR    R15,R15                                                  01-PROCE
²00077C 50F0 D010            00010   841+         ST    R15,BLDPRM_SAVE_R15                                      01-PROCE
²000780                              844+         CNOP  0,4                                                      02-FREEM
²000780 47F0 C0EE            0078C   845+         B     *+12-4*0-2*0                BRANCH AROUND DATA @O2C      02-FREEM
²000784 00000048                     846+         DC    A(BLDPRM_SAVELEN)                 LENGTH                 02-FREEM
²000788 00                           847+IHB0050F DC    BL1'00000000'            Flags              @O2A         02-FREEM
²000789 00                           848+         DC    AL1(0)                            RESERVED               02-FREEM
²00078A 00                           849+         DC    AL1(0)                            SUBPOOL NUMBER         02-FREEM
²00078B 03                           850+         DC    BL1'00000011'                     MODE BYTE              02-FREEM
²00078C 5800 C0E6            00784   851+         L     0,*-8+2*0                         LOAD LENGTH            02-FREEM
²000790 1812                         852+         LR    1,R2                              LOAD AREA ADDRESS      02-FREEM
²000792 58F0 C0EA            00788   853+         L     15,IHB0050F                       LOAD PARAMETERS        02-FREEM
²000796 0A78                         854+         SVC   120                               ISSUE FREEMAIN SVC     02-FREEM
²000798 98EC D00C            0000C   855+         LM    R14,R12,12(R13)                                          01-PROCE
²                                    856+         DROP  R12                                                      01-PROCE
i                 R:C  0079C         857+         USING *,R12                                                    01-PROCE
²                                                                                                               Page   18
  Active Usings: BLDPRM+X'104',R12
  Loc  Object Code    Addr1 Addr2  Stmt   Source Statement                                  HLASM R6.0  2014/07/08 18.32
²                                    858+         DROP  R13                                                      01-PROCE
00079C 07FE                         859+         BR    14                                                       01-PROCE
²                                    861          COPY  DALLOC                                                   00080800
²                                    862=DALLOC   PROCBGN                                                        00094700
²                 R:D  00000         863+         USING DALLOC_SAVE,R13             SET SA ADDRESSATION          01-PROCB
²0007A0                007A0 00406   864+DALLOC   CSECT                                                          01-PROCB
²                                    865+DALLOC   AMODE 31                                                       01-PROCB
²                                    866+DALLOC   RMODE 24                                                       01-PROCB
²0007A0 90EC D00C            0000C   867+         STM   R14,R12,12(R13)             STORE REGISTERS              01-PROCB
²0007A4 0DC0                         868+         BASR  R12,0                                                    01-PROCB
²                 R:C  007A6         869+         USING *,R12                       SET ADDRESSATION             01-PROCB
²0007A6 0700                         872+         CNOP  0,4                                                      02-GETMA
²0007A8 47F0 C00E            007B4   873+         B     IHB0053C           BRANCH AROUND DATA                    02-GETMA
²0007AC 00000048                     874+IHB0053L DC    A(DALLOC_SAVELEN)  LENGTH                                02-GETMA
²0007B0 00                           875+IHB0053F DC    BL1'00000000'                         Flags.        @L7C 02-GETMA
²0007B1 00                           876+         DC    AL1(0)             RESERVED                              02-GETMA
²0007B2 00                           877+         DC    AL1(0)             SUBPOOL                               02-GETMA
²0007B3 72                           878+         DC    BL1'01110010'                 MODE BYTE         @G860P30 02-GETMA
²0007B4                              879+IHB0053C DS     0H                                                      02-GETMA
²0007B4 5800 C006            007AC   880+         L     0,IHB0053L         LOAD LENGTH                           02-GETMA
²0007B8 58F0 C00A            007B0   881+         L     15,IHB0053F                       LOAD GETMAIN PARMS     02-GETMA
²0007BC 1B11                         882+         SR    1,1                     ZERO RESERVED REG 1              02-GETMA
²0007BE 0A78                         883+         SVC   120                     ISSUE GETMAIN SVC                02-GETMA
²0007C0 1831                         884+         LR    R3,R1                       R3:=R1                       01-PROCB
²0007C2 5800 D014            00014   885+         L     R0,DALLOC_SAVE_R0                                        01-PROCB
²0007C6 5810 D018            00018   886+         L     R1,DALLOC_SAVE_R1                                        01-PROCB
²0007CA 58F0 D010            00010   887+         L     R15,DALLOC_SAVE_R15         RESTORE R0,R1,R15            01-PROCB
²0007CE 50D3 0004            00004   888+         ST    R13,4(R3)                   STORE OLD SA                 01-PROCB
²0007D2 182D                         889+         LR    R2,R13                                                   01-PROCB
²0007D4 18D3                         890+         LR    R13,R3                      SET NEW SA                   01-PROCB
²0007D6 50D2 0008            00008   891+         ST    R13,8(R2)                   STORE ADDR OF NEW SA TO OLD  01-PROCB
²                                    892+*CREATE DSECT FOR SAVEAREA
²000000                00000 00048   893+DALLOC_SAVE  DSECT                                                      01-PROCB
²000000                              894+DALLOC_SAVE_AREA  DS 0C                                                 01-PROCB
²000000                              895+DALLOC_RESERVED   DS 1F                                                 01-PROCB
²000004                              896+DALLOC_OLD_SAVE   DS A                                                  01-PROCB
²000008                              897+DALLOC_NEW_SAVE   DS A                                                  01-PROCB
²00000C                              898+DALLOC_SAVE_R14   DS 1F                                                 01-PROCB
²000010                              899+DALLOC_SAVE_R15   DS 1F                                                 01-PROCB
²000014                              900+DALLOC_SAVE_R0   DS 1F                                                  01-PROCB
²000018                              901+DALLOC_SAVE_R1   DS 1F                                                  01-PROCB
²00001C                              902+DALLOC_SAVE_R2   DS 1F                                                  01-PROCB
²000020                              903+DALLOC_SAVE_R3   DS 1F                                                  01-PROCB
²000024                              904+DALLOC_SAVE_R4   DS 1F                                                  01-PROCB
²000028                              905+DALLOC_SAVE_R5   DS 1F                                                  01-PROCB
²00002C                              906+DALLOC_SAVE_R6   DS 1F                                                  01-PROCB
²000030                              907+DALLOC_SAVE_R7   DS 1F                                                  01-PROCB
²000034                              908+DALLOC_SAVE_R8   DS 1F                                                  01-PROCB
²000038                              909+DALLOC_SAVE_R9   DS 1F                                                  01-PROCB
²00003C                              910+DALLOC_SAVE_R10  DS 1F                                                  01-PROCB
²000040                              911+DALLOC_SAVE_R11  DS 1F                                                  01-PROCB
²000044                              912+DALLOC_SAVE_R12  DS 1F                                                  01-PROCB
²                      00048         913+DALLOC_SAVELEN  EQU *-DALLOC_SAVE_AREA                                  01-PROCB
i0007DA                007A0 00406   914+DALLOC   CSECT                                                          01-PROCB
²                                                                                                               Page   19
  Active Usings: DALLOC+X'6',R12  DALLOC_SAVE,R13
  Loc  Object Code    Addr1 Addr2  Stmt   Source Statement                                  HLASM R6.0  2014/07/08 18.32
²                                    915=*R0 ADDR OF PARM AREA, R1 ADDR OF 8-BYTE DDNAME                         00094800
²                                    916=*IN R0 RETURNS ADDR TO S99TXTPP                                         00094900
²0007DA 1830                         917=         LR    R3,R0                                                    00095000
²0007DC 1851                         918=         LR    R5,R1                                                    00095100
²                                    919=*        WTO   'CALLED DYN ALLOC'                                       00095200
²                                    920=       GETMAIN RU,LV=20,LOC=ANY         GET MEMORY FOR S99RB            00095300
²0007DE 0700                         922+         CNOP  0,4                                                      01-GETMA
²0007E0 47F0 C046            007EC   923+         B     IHB0055C           BRANCH AROUND DATA                    01-GETMA
²0007E4 00000014                     924+IHB0055L DC    A(20)              LENGTH                                01-GETMA
²0007E8 00                           925+IHB0055F DC    BL1'00000000'                         Flags.        @L7C 01-GETMA
²0007E9 00                           926+         DC    AL1(0)             RESERVED                              01-GETMA
²0007EA 00                           927+         DC    AL1(0)             SUBPOOL                               01-GETMA
²0007EB 72                           928+         DC    BL1'01110010'                 MODE BYTE         @G860P30 01-GETMA
²0007EC                              929+IHB0055C DS     0H                                                      01-GETMA
²0007EC 5800 C03E            007E4   930+         L     0,IHB0055L         LOAD LENGTH                           01-GETMA
²0007F0 58F0 C042            007E8   931+         L     15,IHB0055F                       LOAD GETMAIN PARMS     01-GETMA
²0007F4 1B11                         932+         SR    1,1                     ZERO RESERVED REG 1              01-GETMA
²0007F6 0A78                         933+         SVC   120                     ISSUE GETMAIN SVC                01-GETMA
²0007F8 18A1                         934=         LR    R10,R1                  R10:=R1                          00095400
                 R:A  00000         935=         USING S99RB,R10               S99RB~R10                        00095500
²0007FA 1711                         937=         XR    R1,R1                                                    00095700
²0007FC 501A 0000            00000   938=         ST    R1,0(R10)                                                00095800
000800 D20F A004 A000 00004 00000   939=         MVC   4(16,R10),0(R10)                                         00095900
²000806 A718 0014            00014   941=         LHI   R1,X'0014'                                               00096100
00080A 4210 A000            00000   942=         STC   R1,S99RBLN              SET S99RB LENGTH                 00096200
00080E 9601 A001      00001         944=         OI    S99VERB,S99VRBAL        SET ACTION ALLOCATE              00096400
²                                    946=       GETMAIN RU,LV=16,LOC=ANY        GET MEMORY FOR TEXT POINTER LIST 00096600
²000812 0700                         948+         CNOP  0,4                                                      01-GETMA
²000814 47F0 C07A            00820   949+         B     IHB0057C           BRANCH AROUND DATA                    01-GETMA
²000818 00000010                     950+IHB0057L DC    A(16)              LENGTH                                01-GETMA
²00081C 00                           951+IHB0057F DC    BL1'00000000'                         Flags.        @L7C 01-GETMA
²00081D 00                           952+         DC    AL1(0)             RESERVED                              01-GETMA
²00081E 00                           953+         DC    AL1(0)             SUBPOOL                               01-GETMA
²00081F 72                           954+         DC    BL1'01110010'                 MODE BYTE         @G860P30 01-GETMA
²000820                              955+IHB0057C DS     0H                                                      01-GETMA
²000820 5800 C072            00818   956+         L     0,IHB0057L         LOAD LENGTH                           01-GETMA
²000824 58F0 C076            0081C   957+         L     15,IHB0057F                       LOAD GETMAIN PARMS     01-GETMA
²000828 1B11                         958+         SR    1,1                     ZERO RESERVED REG 1              01-GETMA
²00082A 0A78                         959+         SVC   120                     ISSUE GETMAIN SVC                01-GETMA
00082C 1891                         960=         LR    R9,R1                   S99TXTP~R9                       00096700
²00082E 5090 A008            00008   962=         ST    R9,S99TXTPP             SET TEXT POINTER LIST            00096900
²000832 47F0 C19C            00942   963=         B     SCTB                                                     00097000
²000836 F0                           964=LEFT     DC    CL1'00'                                                  00097100
²000837 4D                           965=         DC    CL1'('                                                   00097200
²000838 F0                           966=COMMA    DC    CL1'00'                                                  00097300
²000839 6B                           967=         DC    CL1','                                                   00097400
²00083A F0                           968=SPACE    DC    CL1'00'                                                  00097500
²00083B 40                           969=         DC    CL1' '                                                   00097600
²00083C 0000000000000000             970=SCANTAB  DC    256X'00'            SCANTAB SET                          00097700
i00093C                0093C 00889   971=         ORG   SCANTAB+C'('                                             00097800
²                                                                                                               Page   20
  Active Usings: S99RB,R10  DALLOC+X'6',R12  DALLOC_SAVE,R13
  Loc  Object Code    Addr1 Addr2  Stmt   Source Statement                                  HLASM R6.0  2014/07/08 18.32
²000889 4D                           972=         DC    C'('                                                     00097900
²00088A                0088A 008A7   973=         ORG   SCANTAB+C','                                             00098000
²0008A7 6B                           974=         DC    C','                                                     00098100
²0008A8                008A8 0087C   975=         ORG   SCANTAB+C' '                                             00098200
²00087C 40                           976=         DC    C' '                                                     00098300
²00087D                0087D 0093C   977=         ORG                                                            00098400
²00093C DD00 3002 C096 00002 0083C   978=MYTRT    TRT   2(0,R3),SCANTAB        GET IN R1 ADDR OF (               00098500
                      00942         979=SCTB     EQU   *                                                        00098600
²000942 DD07 5000 C096 00000 0083C   981=         TRT   0(8,R5),SCANTAB       SEEK SPACE                         00098801
²000948 4770 C1B0            00956   982=         BC    B'0111',EXAUS                                            00098901
²00094C 1711                         983=         XR    R1,R1                                                    00099001
²00094E A718 0008            00008   984=         LHI   R1,X'0008'                                               00099101
²000952 47F0 C1B2            00958   985=         B     ENDIF#90                                                 00099200
²                      00956         986=EXAUS    EQU   *                                                        00099300
²000956 1B15                         987=         SR    R1,R5                  R1:=SPACE ADDR-FIRST SYM ADDR     00099400
                      00958         988=ENDIF#90 EQU   *                                                        00099500
²000958 1871                         990=         LR    R7,R1                  R7:=R1                            00099700
²00095A 90E6 D00C            0000C   991=         STM   R14,R6,12(R13)                                           00099800
²                                    992=      TEXTUNIT UTYPE=DDNAME,PARM=(R5),PARMLENGTH=(R7),LAST=FALSE        00099900
²                                    993+*CHANGES R1,R2,R3    RETURNS S99TXTP IN R8
²                                    994+*DYNAMICALLY YOU CAN PASS ONLY DATASET NAME OR MEMBER NAME
²00095E 1837                         995+         LR    R3,R7                                                    01-TEXTU
²000960 A73A 0006            00006   996+         AHI   R3,X'0006'                                               01-TEXTU
²000964                              999+         CNOP  0,4                                                      02-GETMA
²000964 47F0 C1C6            0096C  1000+         B     IHB0060C           BRANCH AROUND DATA                    02-GETMA
²000968 00                          1001+IHB0060F DC    BL1'00000000'                         Flags.        @L7C 02-GETMA
²000969 00                          1002+         DC    AL1(0)             RESERVED                              02-GETMA
²00096A 00                          1003+         DC    AL1(0)             SUBPOOL                               02-GETMA
²00096B 72                          1004+         DC    BL1'01110010'                 MODE BYTE         @G860P30 02-GETMA
²00096C                             1005+IHB0060C DS     0H                                                      02-GETMA
²00096C 1803                        1006+         LR    0,R3               LOAD LENGTH                  @ZA07133 02-GETMA
²00096E 58F0 C1C2            00968  1007+         L     15,IHB0060F                       LOAD GETMAIN PARMS     02-GETMA
²000972 1B11                        1008+         SR    1,1                     ZERO RESERVED REG 1              02-GETMA
²000974 0A78                        1009+         SVC   120                     ISSUE GETMAIN SVC                02-GETMA
²000976 1881                        1010+         LR    R8,R1                                                    01-TEXTU
²                 R:8  00000        1011+         USING S99TUNIT,R8                                              01-TEXTU
²000978 1711                        1012+         XR    R1,R1                                                    01-TEXTU
²00097A 1711                        1013+         XR    R1,R1                                                    01-TEXTU
²00097C A718 0001            00001  1014+         LHI   R1,DALDDNAM                                              01-TEXTU
²000980 4010 8000            00000  1015+         STH   R1,S99TUKEY             DDNAME KEY SETTED                01-TEXTU
²000984 1711                        1016+         XR    R1,R1                                                    01-TEXTU
²000986 A718 0001            00001  1017+         LHI   R1,X'0001'                                               01-TEXTU
²00098A 4010 8002            00002  1018+         STH   R1,S99TUNUM                                              01-TEXTU
²00098E 4070 8004            00004  1019+         STH   R7,S99TULNG                                              01-TEXTU
²000992 47F0 C1F6            0099C  1020+         B     S1                                                       01-TEXTU
²000996 D200 8006 5000 00006 00000  1021+SND1     MVC   S99TUPAR(0),0(R5)                                        01-TEXTU
²00099C 0670                        1022+S1       BCTR  R7,0                                                     01-TEXTU
²00099E 4470 C1F0            00996  1023+         EX    R7,SND1                                                  01-TEXTU
²0009A2 98E6 D00C            0000C  1024=         LM    R14,R6,12(R13)                                           00100000
0009A6 5080 9000            00000  1025=         ST    R8,0(,R9)                                                00100100
²0009AA 90E6 D00C            0000C  1027=         STM   R14,R6,12(R13)                                           00100300
i                                   1028=      TEXTUNIT UTYPE=DISP,PARM=SHR,PARMLENGTH=X'0001',LAST=FALSE        00100400
²                                                                                                               Page   21
  Active Usings: S99TUNIT,R8  S99RB,R10  DALLOC+X'6',R12  DALLOC_SAVE,R13
  Loc  Object Code    Addr1 Addr2  Stmt   Source Statement                                  HLASM R6.0  2014/07/08 18.32
²                                   1029+*CHANGES R1,R2,R3    RETURNS S99TXTP IN R8
²                                   1030+*DYNAMICALLY YOU CAN PASS ONLY DATASET NAME OR MEMBER NAME
²0009AE 1722                        1031+         XR    R2,R2                                                    01-TEXTU
²0009B0 A728 0001            00001  1032+         LHI   R2,X'0001'                                               01-TEXTU
²0009B4 1832                        1033+         LR    R3,R2                                                    01-TEXTU
²0009B6 A73A 0006            00006  1034+         AHI   R3,X'0006'                                               01-TEXTU
²0009BA 0700                        1037+         CNOP  0,4                                                      02-GETMA
²0009BC 47F0 C21E            009C4  1038+         B     IHB0063C           BRANCH AROUND DATA                    02-GETMA
²0009C0 00                          1039+IHB0063F DC    BL1'00000000'                         Flags.        @L7C 02-GETMA
²0009C1 00                          1040+         DC    AL1(0)             RESERVED                              02-GETMA
²0009C2 00                          1041+         DC    AL1(0)             SUBPOOL                               02-GETMA
²0009C3 72                          1042+         DC    BL1'01110010'                 MODE BYTE         @G860P30 02-GETMA
²0009C4                             1043+IHB0063C DS     0H                                                      02-GETMA
²0009C4 1803                        1044+         LR    0,R3               LOAD LENGTH                  @ZA07133 02-GETMA
²0009C6 58F0 C21A            009C0  1045+         L     15,IHB0063F                       LOAD GETMAIN PARMS     02-GETMA
²0009CA 1B11                        1046+         SR    1,1                     ZERO RESERVED REG 1              02-GETMA
²0009CC 0A78                        1047+         SVC   120                     ISSUE GETMAIN SVC                02-GETMA
²0009CE 1881                        1048+         LR    R8,R1                                                    01-TEXTU
²                 R:8  00000        1049+         USING S99TUNIT,R8                                              01-TEXTU
²0009D0 1711                        1050+         XR    R1,R1                                                    01-TEXTU
²0009D2 A718 0004            00004  1051+         LHI   R1,DALSTATS                                              01-TEXTU
²0009D6 4010 8000            00000  1052+         STH   R1,S99TUKEY             DISP   KEY SETTED                01-TEXTU
²0009DA 47F0 C23A            009E0  1053+         B     SKIP2                                                    01-TEXTU
²0009DE 08                          1054+TEMP2    DC    X'08'                                                    01-TEXTU
²0009DF 00
²0009E0                             1055+         DC    0F                                                       01-TEXTU
²                      009E0        1056+SKIP2    EQU   *                                                        01-TEXTU
²0009E0 4130 C238            009DE  1057+         LA    R3,TEMP2                                                 01-TEXTU
²0009E4 1711                        1058+         XR    R1,R1                                                    01-TEXTU
²0009E6 A718 0001            00001  1059+         LHI   R1,X'0001'                                               01-TEXTU
²0009EA 4010 8002            00002  1060+         STH   R1,S99TUNUM                                              01-TEXTU
²0009EE 4020 8004            00004  1061+         STH   R2,S99TULNG                                              01-TEXTU
²0009F2 47F0 C256            009FC  1062+         B     S2                                                       01-TEXTU
²0009F6 D200 8006 3000 00006 00000  1063+SND2     MVC   S99TUPAR(0),0(R3)                                        01-TEXTU
²0009FC 0620                        1064+S2       BCTR  R2,0                                                     01-TEXTU
²0009FE 4420 C250            009F6  1065+         EX    R2,SND2                                                  01-TEXTU
²000A02 98E6 D00C            0000C  1066=         LM    R14,R6,12(R13)                                           00100500
000A06 5080 9004            00004  1067=         ST    R8,4(,R9)                                                00100600
²000A0A 1755                        1069=         XR    R5,R5                                                    00100800
²000A0C 1722                        1070=         XR    R2,R2                                                    00100900
²000A0E 4850 3000            00000  1071=         LH    R5,0(,R3)                                                00101000
²000A12 4450 C196            0093C  1072=         EX    R5,MYTRT                SEEK (                           00101100
²000A16 5920 C3CA            00B70  1073=         C     R2,=X'00000000'                                          00101200
²000A1A 4770 C2D8            00A7E  1074=         BNE   MEMBR                   NOT FOUND                        00101300
²                                   1075=*        WTO   'NOT MEMBER'                                             00101402
²000A1E 1843                        1076=         LR    R4,R3                                                    00101500
²000A20 A74A 0002            00002  1077=         AHI   R4,X'0002'                                               00101603
²000A24 90E6 D00C            0000C  1078=         STM   R14,R6,12(R13)                                           00101700
²                                   1079=      TEXTUNIT UTYPE=DSNAME,PARM=(R4),PARMLENGTH=(R5),LAST=TRUE         00101800
²                                   1080+*CHANGES R1,R2,R3    RETURNS S99TXTP IN R8
²                                   1081+*DYNAMICALLY YOU CAN PASS ONLY DATASET NAME OR MEMBER NAME
²000A28 1835                        1082+         LR    R3,R5                                                    01-TEXTU
²000A2A A73A 0006            00006  1083+         AHI   R3,X'0006'                                               01-TEXTU
i000A2E 0700                        1086+         CNOP  0,4                                                      02-GETMA
²                                                                                                               Page   22
  Active Usings: S99TUNIT,R8  S99RB,R10  DALLOC+X'6',R12  DALLOC_SAVE,R13
  Loc  Object Code    Addr1 Addr2  Stmt   Source Statement                                  HLASM R6.0  2014/07/08 18.32
²000A30 47F0 C292            00A38  1087+         B     IHB0066C           BRANCH AROUND DATA                    02-GETMA
²000A34 00                          1088+IHB0066F DC    BL1'00000000'                         Flags.        @L7C 02-GETMA
²000A35 00                          1089+         DC    AL1(0)             RESERVED                              02-GETMA
²000A36 00                          1090+         DC    AL1(0)             SUBPOOL                               02-GETMA
²000A37 72                          1091+         DC    BL1'01110010'                 MODE BYTE         @G860P30 02-GETMA
²000A38                             1092+IHB0066C DS     0H                                                      02-GETMA
²000A38 1803                        1093+         LR    0,R3               LOAD LENGTH                  @ZA07133 02-GETMA
²000A3A 58F0 C28E            00A34  1094+         L     15,IHB0066F                       LOAD GETMAIN PARMS     02-GETMA
²000A3E 1B11                        1095+         SR    1,1                     ZERO RESERVED REG 1              02-GETMA
²000A40 0A78                        1096+         SVC   120                     ISSUE GETMAIN SVC                02-GETMA
²000A42 1881                        1097+         LR    R8,R1                                                    01-TEXTU
²                 R:8  00000        1098+         USING S99TUNIT,R8                                              01-TEXTU
²000A44 1711                        1099+         XR    R1,R1                                                    01-TEXTU
²000A46 1711                        1100+         XR    R1,R1                                                    01-TEXTU
²000A48 A718 0002            00002  1101+         LHI   R1,DALDSNAM                                              01-TEXTU
²000A4C 4010 8000            00000  1102+         STH   R1,S99TUKEY             DSNAME KEY SETTED                01-TEXTU
²000A50 1711                        1103+         XR    R1,R1                                                    01-TEXTU
²000A52 A718 0001            00001  1104+         LHI   R1,X'0001'                                               01-TEXTU
²000A56 4010 8002            00002  1105+         STH   R1,S99TUNUM                                              01-TEXTU
²000A5A 4050 8004            00004  1106+         STH   R5,S99TULNG                                              01-TEXTU
²000A5E 47F0 C2C2            00A68  1107+         B     S3                                                       01-TEXTU
²000A62 D200 8006 4000 00006 00000  1108+SND3     MVC   S99TUPAR(0),0(R4)                                        01-TEXTU
²000A68 0650                        1109+S3       BCTR  R5,0                                                     01-TEXTU
²000A6A 4450 C2BC            00A62  1110+         EX    R5,SND3                                                  01-TEXTU
²000A6E A58A 8000            08000  1111+         OILH  R8,X'8000'                                               01-TEXTU
²000A72 98E6 D00C            0000C  1112=         LM    R14,R6,12(R13)                                           00101900
²000A76 5080 9008            00008  1113=         ST    R8,8(,R9)                                                00102000
²000A7A 47F0 C39C            00B42  1114=         B     ENDIF                                                    00102100
²                      00A7E        1115=MEMBR    EQU   *                                                        00102200
²                                   1116=*        WTO   'MEMBER PRESENTS'                                        00102302
²000A7E 1843                        1117=         LR    R4,R3                                                    00102400
²000A80 A74A 0002            00002  1118=         AHI   R4,X'0002'                                               00102500
²000A84 1861                        1119=         LR    R6,R1                   R6:=R1 - ADDR OF (               00102600
²000A86 1856                        1120=         LR    R5,R6                   R5:=R6                           00102700
²000A88 1B54                        1121=         SR    R5,R4                   R5:=R5-R3                        00102800
²000A8A 90E6 D00C            0000C  1122=         STM   R14,R6,12(R13)                                           00102900
²                                   1123=      TEXTUNIT UTYPE=DSNAME,PARM=(R4),PARMLENGTH=(R5),LAST=FALSE        00103000
²                                   1124+*CHANGES R1,R2,R3    RETURNS S99TXTP IN R8
²                                   1125+*DYNAMICALLY YOU CAN PASS ONLY DATASET NAME OR MEMBER NAME
²000A8E 1835                        1126+         LR    R3,R5                                                    01-TEXTU
²000A90 A73A 0006            00006  1127+         AHI   R3,X'0006'                                               01-TEXTU
²000A94                             1130+         CNOP  0,4                                                      02-GETMA
²000A94 47F0 C2F6            00A9C  1131+         B     IHB0069C           BRANCH AROUND DATA                    02-GETMA
²000A98 00                          1132+IHB0069F DC    BL1'00000000'                         Flags.        @L7C 02-GETMA
²000A99 00                          1133+         DC    AL1(0)             RESERVED                              02-GETMA
²000A9A 00                          1134+         DC    AL1(0)             SUBPOOL                               02-GETMA
²000A9B 72                          1135+         DC    BL1'01110010'                 MODE BYTE         @G860P30 02-GETMA
²000A9C                             1136+IHB0069C DS     0H                                                      02-GETMA
²000A9C 1803                        1137+         LR    0,R3               LOAD LENGTH                  @ZA07133 02-GETMA
²000A9E 58F0 C2F2            00A98  1138+         L     15,IHB0069F                       LOAD GETMAIN PARMS     02-GETMA
²000AA2 1B11                        1139+         SR    1,1                     ZERO RESERVED REG 1              02-GETMA
²000AA4 0A78                        1140+         SVC   120                     ISSUE GETMAIN SVC                02-GETMA
²000AA6 1881                        1141+         LR    R8,R1                                                    01-TEXTU
²                 R:8  00000        1142+         USING S99TUNIT,R8                                              01-TEXTU
i000AA8 1711                        1143+         XR    R1,R1                                                    01-TEXTU
²                                                                                                               Page   23
  Active Usings: S99TUNIT,R8  S99RB,R10  DALLOC+X'6',R12  DALLOC_SAVE,R13
  Loc  Object Code    Addr1 Addr2  Stmt   Source Statement                                  HLASM R6.0  2014/07/08 18.32
²000AAA 1711                        1144+         XR    R1,R1                                                    01-TEXTU
²000AAC A718 0002            00002  1145+         LHI   R1,DALDSNAM                                              01-TEXTU
²000AB0 4010 8000            00000  1146+         STH   R1,S99TUKEY             DSNAME KEY SETTED                01-TEXTU
²000AB4 1711                        1147+         XR    R1,R1                                                    01-TEXTU
²000AB6 A718 0001            00001  1148+         LHI   R1,X'0001'                                               01-TEXTU
²000ABA 4010 8002            00002  1149+         STH   R1,S99TUNUM                                              01-TEXTU
²000ABE 4050 8004            00004  1150+         STH   R5,S99TULNG                                              01-TEXTU
²000AC2 47F0 C326            00ACC  1151+         B     S4                                                       01-TEXTU
²000AC6 D200 8006 4000 00006 00000  1152+SND4     MVC   S99TUPAR(0),0(R4)                                        01-TEXTU
²000ACC 0650                        1153+S4       BCTR  R5,0                                                     01-TEXTU
²000ACE 4450 C320            00AC6  1154+         EX    R5,SND4                                                  01-TEXTU
²000AD2 98E6 D00C            0000C  1155=         LM    R14,R6,12(R13)                                           00103100
000AD6 5080 9008            00008  1156=         ST    R8,8(,R9)                                                00103200
²000ADA 1777                        1158=         XR    R7,R7                                                    00103400
000ADC 4870 3000            00000  1159=         LH    R7,0(,R3)               R7:=LENGTH OF PARM               00103500
²000AE0 1856                        1161=         LR    R5,R6                  R5:=ADDR OF (                     00103700
000AE2 1B54                        1162=         SR    R5,R4                  R5:=LENGTH FROM START TO (        00103800
²000AE4 1B75                        1164=         SR    R7,R5                  R7:=LENGTH FROM ( TO END          00104000
²000AE6 0670                        1165=         BCTR  R7,0                   GET OUT (                         00104100
²000AE8 0670                        1166=         BCTR  R7,0                   GET OUT )                         00104200
000AEA A76A 0001            00001  1167=         AHI   R6,X'0001'             MAKE OFFSET                       00104300
²000AEE 90E6 D00C            0000C  1169=         STM   R14,R6,12(R13)                                           00104500
²                                   1170=      TEXTUNIT UTYPE=MEMBER,PARM=(R6),PARMLENGTH=(R7),LAST=TRUE         00104600
²                                   1171+*CHANGES R1,R2,R3    RETURNS S99TXTP IN R8
²                                   1172+*DYNAMICALLY YOU CAN PASS ONLY DATASET NAME OR MEMBER NAME
²000AF2 1837                        1173+         LR    R3,R7                                                    01-TEXTU
²000AF4 A73A 0006            00006  1174+         AHI   R3,X'0006'                                               01-TEXTU
²000AF8                             1177+         CNOP  0,4                                                      02-GETMA
²000AF8 47F0 C35A            00B00  1178+         B     IHB0072C           BRANCH AROUND DATA                    02-GETMA
²000AFC 00                          1179+IHB0072F DC    BL1'00000000'                         Flags.        @L7C 02-GETMA
²000AFD 00                          1180+         DC    AL1(0)             RESERVED                              02-GETMA
²000AFE 00                          1181+         DC    AL1(0)             SUBPOOL                               02-GETMA
²000AFF 72                          1182+         DC    BL1'01110010'                 MODE BYTE         @G860P30 02-GETMA
²000B00                             1183+IHB0072C DS     0H                                                      02-GETMA
²000B00 1803                        1184+         LR    0,R3               LOAD LENGTH                  @ZA07133 02-GETMA
²000B02 58F0 C356            00AFC  1185+         L     15,IHB0072F                       LOAD GETMAIN PARMS     02-GETMA
²000B06 1B11                        1186+         SR    1,1                     ZERO RESERVED REG 1              02-GETMA
²000B08 0A78                        1187+         SVC   120                     ISSUE GETMAIN SVC                02-GETMA
²000B0A 1881                        1188+         LR    R8,R1                                                    01-TEXTU
²                 R:8  00000        1189+         USING S99TUNIT,R8                                              01-TEXTU
²000B0C 1711                        1190+         XR    R1,R1                                                    01-TEXTU
²000B0E 1711                        1191+         XR    R1,R1                                                    01-TEXTU
²000B10 A718 0003            00003  1192+         LHI   R1,DALMEMBR                                              01-TEXTU
²000B14 4010 8000            00000  1193+         STH   R1,S99TUKEY             MEMBR  KEY SETTED                01-TEXTU
²000B18 1711                        1194+         XR    R1,R1                                                    01-TEXTU
²000B1A A718 0001            00001  1195+         LHI   R1,X'0001'                                               01-TEXTU
²000B1E 4010 8002            00002  1196+         STH   R1,S99TUNUM                                              01-TEXTU
²000B22 4070 8004            00004  1197+         STH   R7,S99TULNG                                              01-TEXTU
²000B26 47F0 C38A            00B30  1198+         B     S5                                                       01-TEXTU
²000B2A D200 8006 6000 00006 00000  1199+SND5     MVC   S99TUPAR(0),0(R6)                                        01-TEXTU
i000B30 0670                        1200+S5       BCTR  R7,0                                                     01-TEXTU
²                                                                                                               Page   24
  Active Usings: S99TUNIT,R8  S99RB,R10  DALLOC+X'6',R12  DALLOC_SAVE,R13
  Loc  Object Code    Addr1 Addr2  Stmt   Source Statement                                  HLASM R6.0  2014/07/08 18.32
²000B32 4470 C384            00B2A  1201+         EX    R7,SND5                                                  01-TEXTU
²000B36 A58A 8000            08000  1202+         OILH  R8,X'8000'                                               01-TEXTU
²000B3A 98E6 D00C            0000C  1203=         LM    R14,R6,12(R13)                                           00104700
000B3E 5080 900C            0000C  1204=         ST    R8,12(,R9)                                               00104800
²                      00B42        1206=ENDIF    EQU   *                                                        00105000
²                                   1207=       GETMAIN RU,LV=4,LOC=ANY                                          00105100
²000B42 0700                        1209+         CNOP  0,4                                                      01-GETMA
²000B44 47F0 C3AA            00B50  1210+         B     IHB0074C           BRANCH AROUND DATA                    01-GETMA
²000B48 00000004                    1211+IHB0074L DC    A(4)               LENGTH                                01-GETMA
²000B4C 00                          1212+IHB0074F DC    BL1'00000000'                         Flags.        @L7C 01-GETMA
²000B4D 00                          1213+         DC    AL1(0)             RESERVED                              01-GETMA
²000B4E 00                          1214+         DC    AL1(0)             SUBPOOL                               01-GETMA
²000B4F 72                          1215+         DC    BL1'01110010'                 MODE BYTE         @G860P30 01-GETMA
²000B50                             1216+IHB0074C DS     0H                                                      01-GETMA
²000B50 5800 C3A2            00B48  1217+         L     0,IHB0074L         LOAD LENGTH                           01-GETMA
²000B54 58F0 C3A6            00B4C  1218+         L     15,IHB0074F                       LOAD GETMAIN PARMS     01-GETMA
²000B58 1B11                        1219+         SR    1,1                     ZERO RESERVED REG 1              01-GETMA
²000B5A 0A78                        1220+         SVC   120                     ISSUE GETMAIN SVC                01-GETMA
²000B5C 182A                        1221=         LR    R2,R10                                                   00105200
²000B5E A52A 8000            08000  1222=         OILH  R2,X'8000'              SET END OF POINTER BLOCK         00105300
²000B62 5020 1000            00000  1223=         ST    R2,0(,R1)                                                00105400
²000B66 18B1                        1224=         LR    R11,R1                                                   00105500
²                                   1225=      DYNALLOC ,                                                        00105600
²                                   1226+*        MACDATE Y-2 73082
²000B68 0A63                        1227+         SVC   99 CALL DYNAMIC ALLOCATION                               01-DYNAL
²000B6A 180B                        1228=GOOD     LR    R0,R11                  RETURN ADDR FOR ALL STRUCTURE    00105700
²                                   1229=         DROP  R10                                                      00106500
²                                   1230=DALLOC   PROCEND                                                        00106600
²000B6C 47F0 C3CE            00B74  1231+         B     L#3                                                      01-PROCE
²000B70                             1232+         LTORG                                                          01-PROCE
²000B70 00000000                    1233                =X'00000000'
²                      00B74        1234+L#3      EQU   *                                                        01-PROCE
²000B74 182D                        1235+         LR    R2,R13                                                   01-PROCE
²000B76 58D0 D004            00004  1236+         L     R13,DALLOC_OLD_SAVE                                      01-PROCE
²000B7A 5000 D014            00014  1237+         ST    R0,DALLOC_SAVE_R0                                        01-PROCE
²000B7E 5010 D018            00018  1238+         ST    R1,DALLOC_SAVE_R1                                        01-PROCE
²000B82 18FF                        1239+         LR    R15,R15                                                  01-PROCE
²000B84 50F0 D010            00010  1240+         ST    R15,DALLOC_SAVE_R15                                      01-PROCE
²000B88                             1243+         CNOP  0,4                                                      02-FREEM
²000B88 47F0 C3EE            00B94  1244+         B     *+12-4*0-2*0                BRANCH AROUND DATA @O2C      02-FREEM
²000B8C 00000048                    1245+         DC    A(DALLOC_SAVELEN)                 LENGTH                 02-FREEM
²000B90 00                          1246+IHB0078F DC    BL1'00000000'            Flags              @O2A         02-FREEM
²000B91 00                          1247+         DC    AL1(0)                            RESERVED               02-FREEM
²000B92 00                          1248+         DC    AL1(0)                            SUBPOOL NUMBER         02-FREEM
²000B93 03                          1249+         DC    BL1'00000011'                     MODE BYTE              02-FREEM
²000B94 5800 C3E6            00B8C  1250+         L     0,*-8+2*0                         LOAD LENGTH            02-FREEM
²000B98 1812                        1251+         LR    1,R2                              LOAD AREA ADDRESS      02-FREEM
²000B9A 58F0 C3EA            00B90  1252+         L     15,IHB0078F                       LOAD PARAMETERS        02-FREEM
²000B9E 0A78                        1253+         SVC   120                               ISSUE FREEMAIN SVC     02-FREEM
²000BA0 98EC D00C            0000C  1254+         LM    R14,R12,12(R13)                                          01-PROCE
²                                   1255+         DROP  R12                                                      01-PROCE
²                 R:C  00BA4        1256+         USING *,R12                                                    01-PROCE
²                                   1257+         DROP  R13                                                      01-PROCE
i000BA4 07FE                        1258+         BR    14                                                       01-PROCE
²                                                                                                               Page   25
  Active Usings: S99TUNIT,R8  DALLOC+X'404',R12
  Loc  Object Code    Addr1 Addr2  Stmt   Source Statement                                  HLASM R6.0  2014/07/08 18.32
²                                   1260          COPY  DUNALLOC                                                 00080900
²                                   1261=DUNALLOC PROCBGN                                                        00106800
²                 R:D  00000        1262+         USING DUNALLOC_SAVE,R13           SET SA ADDRESSATION          01-PROCB
²000BA8                00BA8 00186  1263+DUNALLOC CSECT                                                          01-PROCB
²                                   1264+DUNALLOC AMODE 31                                                       01-PROCB
²                                   1265+DUNALLOC RMODE 24                                                       01-PROCB
²000BA8 90EC D00C            0000C  1266+         STM   R14,R12,12(R13)             STORE REGISTERS              01-PROCB
²000BAC 0DC0                        1267+         BASR  R12,0                                                    01-PROCB
²                 R:C  00BAE        1268+         USING *,R12                       SET ADDRESSATION             01-PROCB
²000BAE 0700                        1271+         CNOP  0,4                                                      02-GETMA
²000BB0 47F0 C00E            00BBC  1272+         B     IHB0081C           BRANCH AROUND DATA                    02-GETMA
²000BB4 00000048                    1273+IHB0081L DC    A(DUNALLOC_SAVELEN)                                     X02-GETMA
²                                       +                                  LENGTH
²000BB8 00                          1274+IHB0081F DC    BL1'00000000'                         Flags.        @L7C 02-GETMA
²000BB9 00                          1275+         DC    AL1(0)             RESERVED                              02-GETMA
²000BBA 00                          1276+         DC    AL1(0)             SUBPOOL                               02-GETMA
²000BBB 72                          1277+         DC    BL1'01110010'                 MODE BYTE         @G860P30 02-GETMA
²000BBC                             1278+IHB0081C DS     0H                                                      02-GETMA
²000BBC 5800 C006            00BB4  1279+         L     0,IHB0081L         LOAD LENGTH                           02-GETMA
²000BC0 58F0 C00A            00BB8  1280+         L     15,IHB0081F                       LOAD GETMAIN PARMS     02-GETMA
²000BC4 1B11                        1281+         SR    1,1                     ZERO RESERVED REG 1              02-GETMA
²000BC6 0A78                        1282+         SVC   120                     ISSUE GETMAIN SVC                02-GETMA
²000BC8 1831                        1283+         LR    R3,R1                       R3:=R1                       01-PROCB
²000BCA 5800 D014            00014  1284+         L     R0,DUNALLOC_SAVE_R0                                      01-PROCB
²000BCE 5810 D018            00018  1285+         L     R1,DUNALLOC_SAVE_R1                                      01-PROCB
²000BD2 58F0 D010            00010  1286+         L     R15,DUNALLOC_SAVE_R15       RESTORE R0,R1,R15            01-PROCB
²000BD6 50D3 0004            00004  1287+         ST    R13,4(R3)                   STORE OLD SA                 01-PROCB
²000BDA 182D                        1288+         LR    R2,R13                                                   01-PROCB
²000BDC 18D3                        1289+         LR    R13,R3                      SET NEW SA                   01-PROCB
²000BDE 50D2 0008            00008  1290+         ST    R13,8(R2)                   STORE ADDR OF NEW SA TO OLD  01-PROCB
²                                   1291+*CREATE DSECT FOR SAVEAREA
²000000                00000 00048  1292+DUNALLOC_SAVE DSECT                                                     01-PROCB
²000000                             1293+DUNALLOC_SAVE_AREA DS 0C                                                01-PROCB
²000000                             1294+DUNALLOC_RESERVED DS 1F                                                 01-PROCB
²000004                             1295+DUNALLOC_OLD_SAVE DS A                                                  01-PROCB
²000008                             1296+DUNALLOC_NEW_SAVE DS A                                                  01-PROCB
²00000C                             1297+DUNALLOC_SAVE_R14 DS 1F                                                 01-PROCB
²000010                             1298+DUNALLOC_SAVE_R15 DS 1F                                                 01-PROCB
²000014                             1299+DUNALLOC_SAVE_R0 DS 1F                                                  01-PROCB
²000018                             1300+DUNALLOC_SAVE_R1 DS 1F                                                  01-PROCB
²00001C                             1301+DUNALLOC_SAVE_R2 DS 1F                                                  01-PROCB
²000020                             1302+DUNALLOC_SAVE_R3 DS 1F                                                  01-PROCB
²000024                             1303+DUNALLOC_SAVE_R4 DS 1F                                                  01-PROCB
²000028                             1304+DUNALLOC_SAVE_R5 DS 1F                                                  01-PROCB
²00002C                             1305+DUNALLOC_SAVE_R6 DS 1F                                                  01-PROCB
²000030                             1306+DUNALLOC_SAVE_R7 DS 1F                                                  01-PROCB
²000034                             1307+DUNALLOC_SAVE_R8 DS 1F                                                  01-PROCB
²000038                             1308+DUNALLOC_SAVE_R9 DS 1F                                                  01-PROCB
²00003C                             1309+DUNALLOC_SAVE_R10 DS 1F                                                 01-PROCB
²000040                             1310+DUNALLOC_SAVE_R11 DS 1F                                                 01-PROCB
²000044                             1311+DUNALLOC_SAVE_R12 DS 1F                                                 01-PROCB
²                      00048        1312+DUNALLOC_SAVELEN EQU *-DUNALLOC_SAVE_AREA                               01-PROCB
²000BE2                00BA8 00186  1313+DUNALLOC CSECT                                                          01-PROCB
²                                   1314=*GETS IN R0 TOKEN OF STRUCTURE, GENERATED BY DALLOC                     00106913
i000BE2 18B0                        1315=         LR    R11,R0                  IN R11 ADDR TO POINTER TO RB     00107000
²                                                                                                               Page   26
  Active Usings: S99TUNIT,R8  DUNALLOC+X'6',R12  DUNALLOC_SAVE,R13
  Loc  Object Code    Addr1 Addr2  Stmt   Source Statement                                  HLASM R6.0  2014/07/08 18.32
²000BE4 5820 B000            00000  1316=         L     R2,0(,R11)              IN R2 POINTER TO RB              00107100
                 R:2  00000        1317=         USING S99RB,R2                                                 00107200
²000BE8 1711                        1319=         XR    R1,R1                                                    00107400
²000BEA 4210 2001            00001  1320=         STC   R1,S99VERB                                               00107500
²000BEE 9602 2001      00001        1321=         OI    S99VERB,S99VRBUN        SET DEALLOC                      00107600
000BF2 5830 2008            00008  1322=         L     R3,S99TXTPP             IN R3 POINTER TO LIST OF TXTUNTS 00107700
²000BF6 5840 3000            00000  1324=         L     R4,0(,R3)               TXT UNIT 1                       00107900
²000BFA A54A 8000            08000  1325=         OILH  R4,X'8000'                                               00108000
000BFE 5040 3000            00000  1326=         ST    R4,0(,R3)               SET AS AD LAST TUNIT             00108100
²000C02 181B                        1328=         LR    R1,R11                                                   00108300
²                                   1329=      DYNALLOC ,                                                        00108400
²                                   1330+*        MACDATE Y-2 73082
²000C04 0A63                        1331+         SVC   99 CALL DYNAMIC ALLOCATION                               01-DYNAL
²000C06 5840 3000            00000  1332=         L     R4,0(,R3)               TXT UNIT 1                       00108500
²000C0A A546 7FFF            07FFF  1333=         NILH  R4,B'0111111111111111'                                   00108600
²000C0E 5850 3004            00004  1334=         L     R5,4(,R3)               TXT UNIT 2                       00108700
000C12 5860 3008            00008  1335=         L     R6,8(,R3)               TXT UNIT 3                       00108800
000C16 1799                        1337=         XR    R9,R9                                                    00109000
²000C18 5960 C14A            00CF8  1339=         C     R6,=X'80000000'         IF R6<80000000 THEN LEN4         00109200
000C1C 4740 C092            00C40  1340=         BL    LEN4                                                     00109300
²000C20 A566 7FFF            07FFF  1342=         NILH  R6,B'0111111111111111'                                   00109500
²                                   1343=      FREEMAIN RU,LV=12,A=(R3)                                          00109600
²000C24                             1345+         CNOP  0,4                                                      01-FREEM
²000C24 47F0 C082            00C30  1346+         B     *+12-4*0-2*0                BRANCH AROUND DATA @O2C      01-FREEM
²000C28 0000000C                    1347+         DC    A(12)                             LENGTH                 01-FREEM
²000C2C 00                          1348+IHB0084F DC    BL1'00000000'            Flags              @O2A         01-FREEM
²000C2D 00                          1349+         DC    AL1(0)                            RESERVED               01-FREEM
²000C2E 00                          1350+         DC    AL1(0)                            SUBPOOL NUMBER         01-FREEM
²000C2F 03                          1351+         DC    BL1'00000011'                     MODE BYTE              01-FREEM
²000C30 5800 C07A            00C28  1352+         L     0,*-8+2*0                         LOAD LENGTH            01-FREEM
²000C34 1813                        1353+         LR    1,R3                              LOAD AREA ADDRESS      01-FREEM
²000C36 58F0 C07E            00C2C  1354+         L     15,IHB0084F                       LOAD PARAMETERS        01-FREEM
²000C3A 0A78                        1355+         SVC   120                               ISSUE FREEMAIN SVC     01-FREEM
000C3C 47F0 C0CA            00C78  1356=         B     ENDIF#10                                                 00109700
²                      00C40        1358=LEN4     EQU   *                                                        00109900
²000C40 5870 300C            0000C  1359=         L     R7,12(,R3)              TXT UNIT 4                       00110000
²000C44 A576 7FFF            07FFF  1360=         NILH  R7,B'0111111111111111'                                   00110100
²000C48 4890 7004            00004  1361=         LH    R9,4(,R7)                                                00110200
²                                   1362=      FREEMAIN RU,LV=(R9),A=(R7)                                        00110315
²000C4C                             1364+         CNOP  0,4                                                      01-FREEM
²000C4C 47F0 C0A6            00C54  1365+         B     *+12-4*1-2*0                BRANCH AROUND DATA @O2C      01-FREEM
²000C50 00                          1366+IHB0086F DC    BL1'00000000'            Flags              @O2A         01-FREEM
²000C51 00                          1367+         DC    AL1(0)                            RESERVED               01-FREEM
²000C52 00                          1368+         DC    AL1(0)                            SUBPOOL NUMBER         01-FREEM
²000C53 03                          1369+         DC    BL1'00000011'                     MODE BYTE              01-FREEM
²000C54 1809                        1370+         LR    0,R9                              LOAD LENGTH            01-FREEM
²000C56 1817                        1371+         LR    1,R7                              LOAD AREA ADDRESS      01-FREEM
i000C58 58F0 C0A2            00C50  1372+         L     15,IHB0086F                       LOAD PARAMETERS        01-FREEM
²                                                                                                               Page   27
  Active Usings: S99RB,R2  S99TUNIT,R8  DUNALLOC+X'6',R12  DUNALLOC_SAVE,R13
  Loc  Object Code    Addr1 Addr2  Stmt   Source Statement                                  HLASM R6.0  2014/07/08 18.32
²000C5C 0A78                        1373+         SVC   120                               ISSUE FREEMAIN SVC     01-FREEM
²                                   1374=      FREEMAIN RU,LV=16,A=(R3)                                          00110415
²000C5E 0700                        1376+         CNOP  0,4                                                      01-FREEM
²000C60 47F0 C0BE            00C6C  1377+         B     *+12-4*0-2*0                BRANCH AROUND DATA @O2C      01-FREEM
²000C64 00000010                    1378+         DC    A(16)                             LENGTH                 01-FREEM
²000C68 00                          1379+IHB0088F DC    BL1'00000000'            Flags              @O2A         01-FREEM
²000C69 00                          1380+         DC    AL1(0)                            RESERVED               01-FREEM
²000C6A 00                          1381+         DC    AL1(0)                            SUBPOOL NUMBER         01-FREEM
²000C6B 03                          1382+         DC    BL1'00000011'                     MODE BYTE              01-FREEM
²000C6C 5800 C0B6            00C64  1383+         L     0,*-8+2*0                         LOAD LENGTH            01-FREEM
²000C70 1813                        1384+         LR    1,R3                              LOAD AREA ADDRESS      01-FREEM
²000C72 58F0 C0BA            00C68  1385+         L     15,IHB0088F                       LOAD PARAMETERS        01-FREEM
²000C76 0A78                        1386+         SVC   120                               ISSUE FREEMAIN SVC     01-FREEM
²                      00C78        1387=ENDIF#10 EQU   *                                                        00110500
²                                   1388=      FREEMAIN RU,LV=4,A=(R11)                                          00110615
²000C78                             1390+         CNOP  0,4                                                      01-FREEM
²000C78 47F0 C0D6            00C84  1391+         B     *+12-4*0-2*0                BRANCH AROUND DATA @O2C      01-FREEM
²000C7C 00000004                    1392+         DC    A(4)                              LENGTH                 01-FREEM
²000C80 00                          1393+IHB0090F DC    BL1'00000000'            Flags              @O2A         01-FREEM
²000C81 00                          1394+         DC    AL1(0)                            RESERVED               01-FREEM
²000C82 00                          1395+         DC    AL1(0)                            SUBPOOL NUMBER         01-FREEM
²000C83 03                          1396+         DC    BL1'00000011'                     MODE BYTE              01-FREEM
²000C84 5800 C0CE            00C7C  1397+         L     0,*-8+2*0                         LOAD LENGTH            01-FREEM
²000C88 181B                        1398+         LR    1,R11                             LOAD AREA ADDRESS      01-FREEM
²000C8A 58F0 C0D2            00C80  1399+         L     15,IHB0090F                       LOAD PARAMETERS        01-FREEM
²000C8E 0A78                        1400+         SVC   120                               ISSUE FREEMAIN SVC     01-FREEM
²                                   1401=      FREEMAIN RU,LV=20,A=(R2)                                          00110715
²000C90                             1403+         CNOP  0,4                                                      01-FREEM
²000C90 47F0 C0EE            00C9C  1404+         B     *+12-4*0-2*0                BRANCH AROUND DATA @O2C      01-FREEM
²000C94 00000014                    1405+         DC    A(20)                             LENGTH                 01-FREEM
²000C98 00                          1406+IHB0092F DC    BL1'00000000'            Flags              @O2A         01-FREEM
²000C99 00                          1407+         DC    AL1(0)                            RESERVED               01-FREEM
²000C9A 00                          1408+         DC    AL1(0)                            SUBPOOL NUMBER         01-FREEM
²000C9B 03                          1409+         DC    BL1'00000011'                     MODE BYTE              01-FREEM
²000C9C 5800 C0E6            00C94  1410+         L     0,*-8+2*0                         LOAD LENGTH            01-FREEM
²000CA0 1812                        1411+         LR    1,R2                              LOAD AREA ADDRESS      01-FREEM
²000CA2 58F0 C0EA            00C98  1412+         L     15,IHB0092F                       LOAD PARAMETERS        01-FREEM
²000CA6 0A78                        1413+         SVC   120                               ISSUE FREEMAIN SVC     01-FREEM
²000CA8 1799                        1414=         XR    R9,R9                                                    00110800
²000CAA 4890 4004            00004  1415=         LH    R9,4(,R4)                                                00110900
²                                   1416=      FREEMAIN RU,LV=(R9),A=(R4)                                        00111015
²000CAE 0700                        1418+         CNOP  0,4                                                      01-FREEM
²000CB0 47F0 C10A            00CB8  1419+         B     *+12-4*1-2*0                BRANCH AROUND DATA @O2C      01-FREEM
²000CB4 00                          1420+IHB0094F DC    BL1'00000000'            Flags              @O2A         01-FREEM
²000CB5 00                          1421+         DC    AL1(0)                            RESERVED               01-FREEM
²000CB6 00                          1422+         DC    AL1(0)                            SUBPOOL NUMBER         01-FREEM
²000CB7 03                          1423+         DC    BL1'00000011'                     MODE BYTE              01-FREEM
²000CB8 1809                        1424+         LR    0,R9                              LOAD LENGTH            01-FREEM
²000CBA 1814                        1425+         LR    1,R4                              LOAD AREA ADDRESS      01-FREEM
²000CBC 58F0 C106            00CB4  1426+         L     15,IHB0094F                       LOAD PARAMETERS        01-FREEM
²000CC0 0A78                        1427+         SVC   120                               ISSUE FREEMAIN SVC     01-FREEM
²000CC2 4890 5004            00004  1428=         LH    R9,4(,R5)                                                00111100
²                                   1429=      FREEMAIN RU,LV=(R9),A=(R5)                                        00111215
²000CC6 0700                        1431+         CNOP  0,4                                                      01-FREEM
i000CC8 47F0 C122            00CD0  1432+         B     *+12-4*1-2*0                BRANCH AROUND DATA @O2C      01-FREEM
²                                                                                                               Page   28
  Active Usings: S99RB,R2  S99TUNIT,R8  DUNALLOC+X'6',R12  DUNALLOC_SAVE,R13
  Loc  Object Code    Addr1 Addr2  Stmt   Source Statement                                  HLASM R6.0  2014/07/08 18.32
²000CCC 00                          1433+IHB0096F DC    BL1'00000000'            Flags              @O2A         01-FREEM
²000CCD 00                          1434+         DC    AL1(0)                            RESERVED               01-FREEM
²000CCE 00                          1435+         DC    AL1(0)                            SUBPOOL NUMBER         01-FREEM
²000CCF 03                          1436+         DC    BL1'00000011'                     MODE BYTE              01-FREEM
²000CD0 1809                        1437+         LR    0,R9                              LOAD LENGTH            01-FREEM
²000CD2 1815                        1438+         LR    1,R5                              LOAD AREA ADDRESS      01-FREEM
²000CD4 58F0 C11E            00CCC  1439+         L     15,IHB0096F                       LOAD PARAMETERS        01-FREEM
²000CD8 0A78                        1440+         SVC   120                               ISSUE FREEMAIN SVC     01-FREEM
²000CDA 4890 6004            00004  1441=         LH    R9,4(,R6)                                                00111300
²                                   1442=      FREEMAIN RU,LV=(R9),A=(R6)                                        00111415
²000CDE 0700                        1444+         CNOP  0,4                                                      01-FREEM
²000CE0 47F0 C13A            00CE8  1445+         B     *+12-4*1-2*0                BRANCH AROUND DATA @O2C      01-FREEM
²000CE4 00                          1446+IHB0098F DC    BL1'00000000'            Flags              @O2A         01-FREEM
²000CE5 00                          1447+         DC    AL1(0)                            RESERVED               01-FREEM
²000CE6 00                          1448+         DC    AL1(0)                            SUBPOOL NUMBER         01-FREEM
²000CE7 03                          1449+         DC    BL1'00000011'                     MODE BYTE              01-FREEM
²000CE8 1809                        1450+         LR    0,R9                              LOAD LENGTH            01-FREEM
²000CEA 1816                        1451+         LR    1,R6                              LOAD AREA ADDRESS      01-FREEM
²000CEC 58F0 C136            00CE4  1452+         L     15,IHB0098F                       LOAD PARAMETERS        01-FREEM
²000CF0 0A78                        1453+         SVC   120                               ISSUE FREEMAIN SVC     01-FREEM
²                                   1454=         DROP  R2                                                       00111500
²                                   1455=DUNALLOC PROCEND                                                        00111600
²000CF2 47F0 C14E            00CFC  1456+         B     L#4                                                      01-PROCE
²000CF8                             1457+         LTORG                                                          01-PROCE
²000CF8 80000000                    1458                =X'80000000'
²                      00CFC        1459+L#4      EQU   *                                                        01-PROCE
²000CFC 182D                        1460+         LR    R2,R13                                                   01-PROCE
²000CFE 58D0 D004            00004  1461+         L     R13,DUNALLOC_OLD_SAVE                                    01-PROCE
²000D02 5000 D014            00014  1462+         ST    R0,DUNALLOC_SAVE_R0                                      01-PROCE
²000D06 5010 D018            00018  1463+         ST    R1,DUNALLOC_SAVE_R1                                      01-PROCE
²000D0A 18FF                        1464+         LR    R15,R15                                                  01-PROCE
²000D0C 50F0 D010            00010  1465+         ST    R15,DUNALLOC_SAVE_R15                                    01-PROCE
²000D10                             1468+         CNOP  0,4                                                      02-FREEM
²000D10 47F0 C16E            00D1C  1469+         B     *+12-4*0-2*0                BRANCH AROUND DATA @O2C      02-FREEM
²000D14 00000048                    1470+         DC    A(DUNALLOC_SAVELEN)               LENGTH                 02-FREEM
²000D18 00                          1471+IHB0101F DC    BL1'00000000'            Flags              @O2A         02-FREEM
²000D19 00                          1472+         DC    AL1(0)                            RESERVED               02-FREEM
²000D1A 00                          1473+         DC    AL1(0)                            SUBPOOL NUMBER         02-FREEM
²000D1B 03                          1474+         DC    BL1'00000011'                     MODE BYTE              02-FREEM
²000D1C 5800 C166            00D14  1475+         L     0,*-8+2*0                         LOAD LENGTH            02-FREEM
²000D20 1812                        1476+         LR    1,R2                              LOAD AREA ADDRESS      02-FREEM
²000D22 58F0 C16A            00D18  1477+         L     15,IHB0101F                       LOAD PARAMETERS        02-FREEM
²000D26 0A78                        1478+         SVC   120                               ISSUE FREEMAIN SVC     02-FREEM
²000D28 98EC D00C            0000C  1479+         LM    R14,R12,12(R13)                                          01-PROCE
²                                   1480+         DROP  R12                                                      01-PROCE
²                 R:C  00D2C        1481+         USING *,R12                                                    01-PROCE
²                                   1482+         DROP  R13                                                      01-PROCE
²000D2C 07FE                        1483+         BR    14                                                       01-PROCE
²                                   1484          COPY  CNVTOHEX                                                 00081016
²                                   1485=CNVTOHEX PROCBGN
²                 R:D  00000        1486+         USING CNVTOHEX_SAVE,R13           SET SA ADDRESSATION          01-PROCB
²000D30                00D30 001CE  1487+CNVTOHEX CSECT                                                          01-PROCB
²                                   1488+CNVTOHEX AMODE 31                                                       01-PROCB
²                                   1489+CNVTOHEX RMODE 24                                                       01-PROCB
i000D30 90EC D00C            0000C  1490+         STM   R14,R12,12(R13)             STORE REGISTERS              01-PROCB
²                                                                                                               Page   29
  Active Usings: S99TUNIT,R8  DUNALLOC+X'184',R12  CNVTOHEX_SAVE,R13
  Loc  Object Code    Addr1 Addr2  Stmt   Source Statement                                  HLASM R6.0  2014/07/08 18.32
²000D34 0DC0                        1491+         BASR  R12,0                                                    01-PROCB
²                 R:C  00D36        1492+         USING *,R12                       SET ADDRESSATION             01-PROCB
²000D36 0700                        1495+         CNOP  0,4                                                      02-GETMA
²000D38 47F0 C00E            00D44  1496+         B     IHB0104C           BRANCH AROUND DATA                    02-GETMA
²000D3C 00000048                    1497+IHB0104L DC    A(CNVTOHEX_SAVELEN)                                     X02-GETMA
²                                       +                                  LENGTH
²000D40 00                          1498+IHB0104F DC    BL1'00000000'                         Flags.        @L7C 02-GETMA
²000D41 00                          1499+         DC    AL1(0)             RESERVED                              02-GETMA
²000D42 00                          1500+         DC    AL1(0)             SUBPOOL                               02-GETMA
²000D43 72                          1501+         DC    BL1'01110010'                 MODE BYTE         @G860P30 02-GETMA
²000D44                             1502+IHB0104C DS     0H                                                      02-GETMA
²000D44 5800 C006            00D3C  1503+         L     0,IHB0104L         LOAD LENGTH                           02-GETMA
²000D48 58F0 C00A            00D40  1504+         L     15,IHB0104F                       LOAD GETMAIN PARMS     02-GETMA
²000D4C 1B11                        1505+         SR    1,1                     ZERO RESERVED REG 1              02-GETMA
²000D4E 0A78                        1506+         SVC   120                     ISSUE GETMAIN SVC                02-GETMA
²000D50 1831                        1507+         LR    R3,R1                       R3:=R1                       01-PROCB
²000D52 5800 D014            00014  1508+         L     R0,CNVTOHEX_SAVE_R0                                      01-PROCB
²000D56 5810 D018            00018  1509+         L     R1,CNVTOHEX_SAVE_R1                                      01-PROCB
²000D5A 58F0 D010            00010  1510+         L     R15,CNVTOHEX_SAVE_R15       RESTORE R0,R1,R15            01-PROCB
²000D5E 50D3 0004            00004  1511+         ST    R13,4(R3)                   STORE OLD SA                 01-PROCB
²000D62 182D                        1512+         LR    R2,R13                                                   01-PROCB
²000D64 18D3                        1513+         LR    R13,R3                      SET NEW SA                   01-PROCB
²000D66 50D2 0008            00008  1514+         ST    R13,8(R2)                   STORE ADDR OF NEW SA TO OLD  01-PROCB
²                                   1515+*CREATE DSECT FOR SAVEAREA
²000000                00000 00048  1516+CNVTOHEX_SAVE DSECT                                                     01-PROCB
²000000                             1517+CNVTOHEX_SAVE_AREA DS 0C                                                01-PROCB
²000000                             1518+CNVTOHEX_RESERVED DS 1F                                                 01-PROCB
²000004                             1519+CNVTOHEX_OLD_SAVE DS A                                                  01-PROCB
²000008                             1520+CNVTOHEX_NEW_SAVE DS A                                                  01-PROCB
²00000C                             1521+CNVTOHEX_SAVE_R14 DS 1F                                                 01-PROCB
²000010                             1522+CNVTOHEX_SAVE_R15 DS 1F                                                 01-PROCB
²000014                             1523+CNVTOHEX_SAVE_R0 DS 1F                                                  01-PROCB
²000018                             1524+CNVTOHEX_SAVE_R1 DS 1F                                                  01-PROCB
²00001C                             1525+CNVTOHEX_SAVE_R2 DS 1F                                                  01-PROCB
²000020                             1526+CNVTOHEX_SAVE_R3 DS 1F                                                  01-PROCB
²000024                             1527+CNVTOHEX_SAVE_R4 DS 1F                                                  01-PROCB
²000028                             1528+CNVTOHEX_SAVE_R5 DS 1F                                                  01-PROCB
²00002C                             1529+CNVTOHEX_SAVE_R6 DS 1F                                                  01-PROCB
²000030                             1530+CNVTOHEX_SAVE_R7 DS 1F                                                  01-PROCB
²000034                             1531+CNVTOHEX_SAVE_R8 DS 1F                                                  01-PROCB
²000038                             1532+CNVTOHEX_SAVE_R9 DS 1F                                                  01-PROCB
²00003C                             1533+CNVTOHEX_SAVE_R10 DS 1F                                                 01-PROCB
²000040                             1534+CNVTOHEX_SAVE_R11 DS 1F                                                 01-PROCB
²000044                             1535+CNVTOHEX_SAVE_R12 DS 1F                                                 01-PROCB
²                      00048        1536+CNVTOHEX_SAVELEN EQU *-CNVTOHEX_SAVE_AREA                               01-PROCB
²000D6A                00D30 001CE  1537+CNVTOHEX CSECT                                                          01-PROCB
²                                   1538=*IN RO GETS POINTER TO STRING
²                                   1539=*IN R1 GETS LENGTH (FROM 1)
²                                   1540=*IN R0 RETURNS 64-BIT NUMBER
²000D6A 47F0 C13E            00E74  1541=         B     SKIP#61
²000D6E 0000000000000000            1542=SCTB3    DC    256X'00'            SCANTAB SET
²000E6E                00E6E 00E5E  1543=         ORG   SCTB3+C'0'
²000E5E 0001020304050607            1544=         DC    X'00010203040506070809'
²000E68                00E68 00E2F  1545=         ORG   SCTB3+C'A'
i000E2F 0A0B0C0D0E0F                1546=         DC    X'0A0B0C0D0E0F'
²                                                                                                               Page   30
  Active Usings: S99TUNIT,R8  CNVTOHEX+X'6',R12  CNVTOHEX_SAVE,R13
  Loc  Object Code    Addr1 Addr2  Stmt   Source Statement                                  HLASM R6.0  2014/07/08 18.32
²000E35                00E35 00DAE  1547=         ORG   SCTB3+C' '
²000DAE 40                          1548=         DC    X'40'
000DAF                00DAF 00E6E  1549=         ORG
²000E6E DC00 2000 C038 00000 00D6E  1551=TR1      TR    0(0,R2),SCTB3
²                      00E74        1552=SKIP#61  EQU   *
²000E74 1820                        1553=         LR    R2,R0             R2:=ADDR OF STRING
000E76 18A1                        1554=         LR    R10,R1
²000E78 06A0                        1556=         BCTR  R10,0                DEC(R1) BECAUSE OF EX TR
000E7A 44A0 C138            00E6E  1557=         EX    R10,TR1              REPLACE CODES TO HEX
²000E7E 5840 C192            00EC8  1559=         L     R4,=X'00000001'     R4:=1;
²000E82 1852                        1560=         LR    R5,R2
000E84 1A5A                        1561=         AR    R5,R10               R5:=POS+LEN
²000E86 B982 0066                   1563=         XGR   R6,R6
²000E8A E360 2000 0077       00000  1564=         LGB   R6,0(,R2)           R6:=FIRST SYMBOL
000E90 A72A 0001            00001  1565=         AHI   R2,X'0001'          R2:=R2+1
²000E94 1925                        1567=         CR    R2,R5               IF R2=R5 THEN ONESYMB
000E96 4720 C184            00EBA  1568=         BH    ONESYMB
²000E9A B982 0099                   1570=         XGR   R9,R9
²                                   1571=*=============================================
²                      00E9E        1572=LOOP#61  EQU   *
000E9E E390 2000 0077       00000  1573=         LGB   R9,0(,R2)           R6:=R6*16
²000EA4 A79E 0040            00040  1575=         CHI   R9,X'0040'
²000EA8 4780 C180            00EB6  1576=         BE    SKPSPC
²000EAC EB66 0004 000B       00004  1577=         SLAG  R6,R6,4
000EB2 B908 0069                   1578=         AGR   R6,R9
                      00EB6        1580=SKPSPC   EQU   *
²000EB6 8724 C168            00E9E  1582=         BXLE  R2,R4,LOOP#61
²                                   1583=*=============================================
²                      00EBA        1584=ONESYMB  EQU   *
²000EBA B904 0006                   1585=         LGR   R0,R6
²                                   1586=CNVTOHEX PROCEND RC=(R15)
²000EBE 47F0 C196            00ECC  1587+         B     L#5                                                      01-PROCE
²000EC8                             1588+         LTORG                                                          01-PROCE
²000EC8 00000001                    1589                =X'00000001'
²                      00ECC        1590+L#5      EQU   *                                                        01-PROCE
²000ECC 182D                        1591+         LR    R2,R13                                                   01-PROCE
²000ECE 58D0 D004            00004  1592+         L     R13,CNVTOHEX_OLD_SAVE                                    01-PROCE
²000ED2 5000 D014            00014  1593+         ST    R0,CNVTOHEX_SAVE_R0                                      01-PROCE
²000ED6 5010 D018            00018  1594+         ST    R1,CNVTOHEX_SAVE_R1                                      01-PROCE
²000EDA 18FF                        1595+         LR    R15,R15                                                  01-PROCE
²000EDC 50F0 D010            00010  1596+         ST    R15,CNVTOHEX_SAVE_R15                                    01-PROCE
²000EE0                             1599+         CNOP  0,4                                                      02-FREEM
²000EE0 47F0 C1B6            00EEC  1600+         B     *+12-4*0-2*0                BRANCH AROUND DATA @O2C      02-FREEM
²000EE4 00000048                    1601+         DC    A(CNVTOHEX_SAVELEN)               LENGTH                 02-FREEM
²000EE8 00                          1602+IHB0107F DC    BL1'00000000'            Flags              @O2A         02-FREEM
i000EE9 00                          1603+         DC    AL1(0)                            RESERVED               02-FREEM
²                                                                                                               Page   31
  Active Usings: S99TUNIT,R8  CNVTOHEX+X'6',R12  CNVTOHEX_SAVE,R13
  Loc  Object Code    Addr1 Addr2  Stmt   Source Statement                                  HLASM R6.0  2014/07/08 18.32
²000EEA 00                          1604+         DC    AL1(0)                            SUBPOOL NUMBER         02-FREEM
²000EEB 03                          1605+         DC    BL1'00000011'                     MODE BYTE              02-FREEM
²000EEC 5800 C1AE            00EE4  1606+         L     0,*-8+2*0                         LOAD LENGTH            02-FREEM
²000EF0 1812                        1607+         LR    1,R2                              LOAD AREA ADDRESS      02-FREEM
²000EF2 58F0 C1B2            00EE8  1608+         L     15,IHB0107F                       LOAD PARAMETERS        02-FREEM
²000EF6 0A78                        1609+         SVC   120                               ISSUE FREEMAIN SVC     02-FREEM
²000EF8 98EC D00C            0000C  1610+         LM    R14,R12,12(R13)                                          01-PROCE
²                                   1611+         DROP  R12                                                      01-PROCE
²                 R:C  00EFC        1612+         USING *,R12                                                    01-PROCE
²                                   1613+         DROP  R13                                                      01-PROCE
²000EFC 07FE                        1614+         BR    14                                                       01-PROCE
²                                   1615 *=====================================================================  00081100
²                                   1616 SPZPGEN  PROCBGN                                                        00081200
²                 R:D  00000        1617+         USING SPZPGEN_SAVE,R13            SET SA ADDRESSATION          01-PROCB
²000F00                00F00 002C2  1618+SPZPGEN  CSECT                                                          01-PROCB
²                                   1619+SPZPGEN  AMODE 31                                                       01-PROCB
²                                   1620+SPZPGEN  RMODE 24                                                       01-PROCB
²000F00 90EC D00C            0000C  1621+         STM   R14,R12,12(R13)             STORE REGISTERS              01-PROCB
²000F04 0DC0                        1622+         BASR  R12,0                                                    01-PROCB
²                 R:C  00F06        1623+         USING *,R12                       SET ADDRESSATION             01-PROCB
²000F06 0700                        1626+         CNOP  0,4                                                      02-GETMA
²000F08 47F0 C00E            00F14  1627+         B     IHB0110C           BRANCH AROUND DATA                    02-GETMA
²000F0C 00000048                    1628+IHB0110L DC    A(SPZPGEN_SAVELEN) LENGTH                                02-GETMA
²000F10 00                          1629+IHB0110F DC    BL1'00000000'                         Flags.        @L7C 02-GETMA
²000F11 00                          1630+         DC    AL1(0)             RESERVED                              02-GETMA
²000F12 00                          1631+         DC    AL1(0)             SUBPOOL                               02-GETMA
²000F13 72                          1632+         DC    BL1'01110010'                 MODE BYTE         @G860P30 02-GETMA
²000F14                             1633+IHB0110C DS     0H                                                      02-GETMA
²000F14 5800 C006            00F0C  1634+         L     0,IHB0110L         LOAD LENGTH                           02-GETMA
²000F18 58F0 C00A            00F10  1635+         L     15,IHB0110F                       LOAD GETMAIN PARMS     02-GETMA
²000F1C 1B11                        1636+         SR    1,1                     ZERO RESERVED REG 1              02-GETMA
²000F1E 0A78                        1637+         SVC   120                     ISSUE GETMAIN SVC                02-GETMA
²000F20 1831                        1638+         LR    R3,R1                       R3:=R1                       01-PROCB
²000F22 5800 D014            00014  1639+         L     R0,SPZPGEN_SAVE_R0                                       01-PROCB
²000F26 5810 D018            00018  1640+         L     R1,SPZPGEN_SAVE_R1                                       01-PROCB
²000F2A 58F0 D010            00010  1641+         L     R15,SPZPGEN_SAVE_R15        RESTORE R0,R1,R15            01-PROCB
²000F2E 50D3 0004            00004  1642+         ST    R13,4(R3)                   STORE OLD SA                 01-PROCB
²000F32 182D                        1643+         LR    R2,R13                                                   01-PROCB
²000F34 18D3                        1644+         LR    R13,R3                      SET NEW SA                   01-PROCB
²000F36 50D2 0008            00008  1645+         ST    R13,8(R2)                   STORE ADDR OF NEW SA TO OLD  01-PROCB
²                                   1646+*CREATE DSECT FOR SAVEAREA
²000000                00000 00048  1647+SPZPGEN_SAVE DSECT                                                      01-PROCB
²000000                             1648+SPZPGEN_SAVE_AREA DS 0C                                                 01-PROCB
²000000                             1649+SPZPGEN_RESERVED  DS 1F                                                 01-PROCB
²000004                             1650+SPZPGEN_OLD_SAVE  DS A                                                  01-PROCB
²000008                             1651+SPZPGEN_NEW_SAVE  DS A                                                  01-PROCB
²00000C                             1652+SPZPGEN_SAVE_R14  DS 1F                                                 01-PROCB
²000010                             1653+SPZPGEN_SAVE_R15  DS 1F                                                 01-PROCB
²000014                             1654+SPZPGEN_SAVE_R0  DS 1F                                                  01-PROCB
²000018                             1655+SPZPGEN_SAVE_R1  DS 1F                                                  01-PROCB
²00001C                             1656+SPZPGEN_SAVE_R2  DS 1F                                                  01-PROCB
²000020                             1657+SPZPGEN_SAVE_R3  DS 1F                                                  01-PROCB
²000024                             1658+SPZPGEN_SAVE_R4  DS 1F                                                  01-PROCB
²000028                             1659+SPZPGEN_SAVE_R5  DS 1F                                                  01-PROCB
i00002C                             1660+SPZPGEN_SAVE_R6  DS 1F                                                  01-PROCB
²                                                                                                               Page   32
  Active Usings: S99TUNIT,R8  SPZPGEN+X'6',R12  SPZPGEN_SAVE,R13
D-Loc  Object Code    Addr1 Addr2  Stmt   Source Statement                                  HLASM R6.0  2014/07/08 18.32
²000030                             1661+SPZPGEN_SAVE_R7  DS 1F                                                  01-PROCB
²000034                             1662+SPZPGEN_SAVE_R8  DS 1F                                                  01-PROCB
²000038                             1663+SPZPGEN_SAVE_R9  DS 1F                                                  01-PROCB
²00003C                             1664+SPZPGEN_SAVE_R10 DS 1F                                                  01-PROCB
²000040                             1665+SPZPGEN_SAVE_R11 DS 1F                                                  01-PROCB
²000044                             1666+SPZPGEN_SAVE_R12 DS 1F                                                  01-PROCB
²                      00048        1667+SPZPGEN_SAVELEN EQU *-SPZPGEN_SAVE_AREA                                 01-PROCB
²000F3A                00F00 002C2  1668+SPZPGEN  CSECT                                                          01-PROCB
²                                   1669 *IT IS A TEMP ROUTINE                                                   00081300
²                                   1670 *TO GENERATE PARAMS DATASET FOR SUPERZAP SYSIN                          00081400
²                                   1671 *RETURNS DDNAME IN R0                                                   00081500
²000F3A 4100 C13A            01040  1672          LA    R0,TSPZP                                                 00081800
²000F3E 4110 C151            01057  1673          LA    R1,TDDSPZP                                               00081900
²                                   1674       PROCCALL NAME=DALLOC,(R11)                                        00082000
²000F42 18BE                        1675+         LR    R11,R14                                                  01-PROCC
²000F44 58F0 C282            01188  1676+         L     R15,=A(DALLOC)                                           01-PROCC
²000F48 0DEF                        1677+         BASR  R14,R15                                                  01-PROCC
²000F4A 18EB                        1678+         LR    R14,R11                                                  01-PROCC
²000F4C 90E9 D00C            0000C  1679          STM   R14,R9,12(R13)                                           00082700
²                                   1680        PREPDCB PARM=PUT,TDDSPZP,(R10)                                   00082800
²                                   1681+*CHANGES R1,R2,R3,R4 R5
²000F50                             1684+         CNOP  0,4                                                      02-WTO
²000F50 A715 000A            00F64  1685+         BRAS  1,IHB0114A               BRANCH AROUND MESSAGE      @LCC 02-WTO
²000F54 000F                        1686+         DC    AL2(15)                  TEXT LENGTH            @YA17152 02-WTO
²000F56 0000                        1687+         DC    B'0000000000000000'      MCSFLAGS                        02-WTO
²000F58 C3D9C5C1E3C5C440            1688+         DC    C'CREATED DCB'           MESSAGE TEXT               @L6C 02-WTO
²000F64                             1689+IHB0114A DS    0H                                                       02-WTO
²000F64 0A23                        1690+         SVC   35                       ISSUE SVC 35               @L6A 02-WTO
²                                   1691+*ELSE   FLD
²000F66 4130 C151            01057  1692+         LA    R3,TDDSPZP                                               01-PREPD
²000F6A 1722                        1693+         XR    R2,R2                                                    01-PREPD
²000F6C A728 0058            00058  1694+         LHI   R2,DCBLNGBS                                              01-PREPD
²000F70                             1697+         CNOP  0,4                                                      02-GETMA
²000F70 47F0 C072            00F78  1698+         B     IHB0116C           BRANCH AROUND DATA                    02-GETMA
²000F74 00                          1699+IHB0116F DC    BL1'00000000'                         Flags.        @L7C 02-GETMA
²000F75 00                          1700+         DC    AL1(0)             RESERVED                              02-GETMA
²000F76 00                          1701+         DC    AL1(0)             SUBPOOL                               02-GETMA
²000F77 12                          1702+         DC    BL1'00010010'                 MODE BYTE         @G860P30 02-GETMA
²000F78                             1703+IHB0116C DS     0H                                                      02-GETMA
²000F78 1802                        1704+         LR    0,R2               LOAD LENGTH                  @ZA07133 02-GETMA
²000F7A 58F0 C06E            00F74  1705+         L     15,IHB0116F                       LOAD GETMAIN PARMS     02-GETMA
²000F7E 1B11                        1706+         SR    1,1                     ZERO RESERVED REG 1              02-GETMA
²000F80 0A78                        1707+         SVC   120                     ISSUE GETMAIN SVC                02-GETMA
²000F82 1841                        1708+         LR    R4,R1                                                    01-PREPD
²                 R:4  00000        1709+         USING IHADCB,R4                        SET R4  TO IHADCB       01-PREPD
²000F84 1711                        1710+         XR    R1,R1                                                    01-PREPD
²000F86 5010 4000            00000  1711+         ST    R1,IHADCB                                                01-PREPD
²000F8A D256 4001 4000 00001 00000  1712+         MVC   IHADCB+1(DCBLNGBS-1),IHADCB       ZERIONG DATA AREA      01-PREPD
²000F90 D207 4028 3000 00028 00000  1713+         MVC   DCBDDNAM(8),0(R3)                 SET DDNAME             01-PREPD
²000F96 9650 4033      00033        1714+         OI    DCBMACR2,DCBMRPUT+DCBMRMVP        PUT                    01-PREPD
²000F9A 9650 4032      00032        1715+         OI    DCBMACR1,DCBMRGET+DCBMRMVG        OTHER FLAGS            01-PREPD
²000F9E 9640 401A      0001A        1716+         OI    DCBDSORG,DCBDSGPS                                        01-PREPD
²000FA2 9602 4030      00030        1717+         OI    DCBOFLGS,DCBOFUEX                                        01-PREPD
²000FA6 D203 4014 C286 00014 0118C  1718+         MVC   DCBBUFCB(4),=XL4'00000001'                               01-PREPD
i000FAC D203 401C C286 0001C 0118C  1719+         MVC   DCBIOBAD(4),=XL4'00000001'                               01-PREPD
²                                                                                                               Page   33
  Active Usings: IHADCB,R4  S99TUNIT,R8  SPZPGEN+X'6',R12  SPZPGEN_SAVE,R13
  Loc  Object Code    Addr1 Addr2  Stmt   Source Statement                                  HLASM R6.0  2014/07/08 18.32
²000FB2 D203 4034 C286 00034 0118C  1720+         MVC   DCBGERR(4),=XL4'00000001'                                01-PREPD
²000FB8 D203 4038 C286 00038 0118C  1721+         MVC   DCBSYNAD(4),=XL4'00000001'                               01-PREPD
²000FBE D203 4044 C286 00044 0118C  1722+         MVC   DCBCICB(4),=XL4'00000001'                                01-PREPD
²000FC4 D203 4048 C286 00048 0118C  1723+         MVC   DCBEOBR(4),=XL4'00000001'                                01-PREPD
²000FCA D203 404C C286 0004C 0118C  1724+         MVC   DCBEOBW(4),=XL4'00000001'                                01-PREPD
²                                   1725+         DROP  R4                                                       01-PREPD
000FD0 18A4                        1726+         LR    R10,R4                                                   01-PREPD
²000FD2 98E9 D00C            0000C  1728          LM    R14,R9,12(R13)    DCB ALLOCATION                         00083000
²                                   1729          OPEN  ((R10),OUTPUT),MODE=31                                   00083111
²000FD6 0700                        1730+         CNOP  0,4                          ALIGN LIST TO HALFWORD @L1A 01-OPEN
²000FD8 4D10 C0DE            00FE4  1731+         BAS   1,*+12                       LOAD REG1 W/LIST ADDR.      01-OPEN
²000FDC 00000000                    1732+         DC    A(0)                         OPTION BYTE            @L1A 01-OPEN
²000FE0 00000000                    1733+         DC    A(0)                         DCB ADDRESS            @L1A 01-OPEN
²000FE4 50A1 0004            00004  1734+         ST    R10,4(1,0)                   STORE INTO LIST        @L1C 01-OPEN
²000FE8 928F 1000      00000        1735+         MVI   0(1),143                     MOVE IN OPTION BYTE         01-OPEN
²000FEC 1801                        1736+         LR    0,1                          POINT REG0 TO PLIST    @L1A 01-OPEN
²000FEE 1B11                        1737+         SR    1,1                          CLEAR REGISTER 1       @L1A 01-OPEN
²000FF0 0A13                        1738+         SVC   19                           ISSUE OPEN SVC              01-OPEN
²                                   1739          PUT   (R10),SZ1         SET SUPERZAP OPSIONS                   00083200
²000FF2 181A                        1741+         LR    1,R10                             LOAD PARAMETER REG 1   02-IHBIN
²000FF4 4100 C159            0105F  1742+         LA    0,SZ1                             LOAD PARAMETER REG 0   02-IHBIN
²000FF8 1FFF                        1743+         SLR   15,15                    CLEAR REGISTER             @L1A 01-PUT
²000FFA BFF7 1031            00031  1744+         ICM   15,7,49(1)               LOAD PUT ROUTINE ADDR      @L1C 01-PUT
²000FFE 05EF                        1745+         BALR  14,15                    LINK TO PUT ROUTINE             01-PUT
²                                   1746          PUT   (R10),SZ2                                                00083300
²001000 181A                        1748+         LR    1,R10                             LOAD PARAMETER REG 1   02-IHBIN
²001002 4100 C1A9            010AF  1749+         LA    0,SZ2                             LOAD PARAMETER REG 0   02-IHBIN
²001006 1FFF                        1750+         SLR   15,15                    CLEAR REGISTER             @L1A 01-PUT
²001008 BFF7 1031            00031  1751+         ICM   15,7,49(1)               LOAD PUT ROUTINE ADDR      @L1C 01-PUT
²00100C 05EF                        1752+         BALR  14,15                    LINK TO PUT ROUTINE             01-PUT
²                                   1753          PUT   (R10),SZ3                                                00083400
²00100E 181A                        1755+         LR    1,R10                             LOAD PARAMETER REG 1   02-IHBIN
²001010 4100 C1F9            010FF  1756+         LA    0,SZ3                             LOAD PARAMETER REG 0   02-IHBIN
²001014 1FFF                        1757+         SLR   15,15                    CLEAR REGISTER             @L1A 01-PUT
²001016 BFF7 1031            00031  1758+         ICM   15,7,49(1)               LOAD PUT ROUTINE ADDR      @L1C 01-PUT
²00101A 05EF                        1759+         BALR  14,15                    LINK TO PUT ROUTINE             01-PUT
²                                   1760          CLOSE ((R10)),MODE=31                                          00083511
²00101C                             1761+         CNOP  0,4                               ALIGN LIST TO HALFWORD 01-CLOSE
²00101C 4D10 C122            01028  1762+         BAS   1,*+12                       LOAD REG1 W/LIST ADDR. @L1A 01-CLOSE
²001020 00000000                    1763+         DC    A(0)                              OPTION BYTE      @L1A  01-CLOSE
²001024 00000000                    1764+         DC    A(0)                              DCB ADDRESS      @L1A  01-CLOSE
²001028 50A1 0004            00004  1765+         ST    R10,4(1,0)                        STORE INTO LIST   @L1C 01-CLOSE
²00102C 9280 1000      00000        1766+         MVI   0(1),128                       MOVE IN OPTION BYTE  @L1C 01-CLOSE
²001030 1801                        1767+         LR    0,1                            POINT REG0 TO PLIST  @L1A 01-CLOSE
²001032 1B11                        1768+         SR    1,1                            CLEAR REGISTER 1     @L1A 01-CLOSE
001034 0A14                        1769+         SVC   20                                ISSUE CLOSE SVC        01-CLOSE
²001036 1722                        1771          XR    R2,R2                                                    00083700
²001038 A728 0058            00058  1772          LHI   R2,DCBLNGBS                                              00083800
²00103C 47F0 C24A            01150  1773          B     SKIP#90                                                  00083900
²001040                             1774          DS    0F                                                       00084000
²001040 0015                        1775 TSPZP    DC    X'0015'                                                  00084100
²001042 C5D4C3D7D9D6D14B            1776          DC    CL21'EMCPROJ.OUTPUT(SZTBL)'                              00084200
i001057 E2D7E9D7C4404040            1777 TDDSPZP  DC    CL8'SPZPD   '                                            00084300
²                                                                                                               Page   34
  Active Usings: S99TUNIT,R8  SPZPGEN+X'6',R12  SPZPGEN_SAVE,R13
  Loc  Object Code    Addr1 Addr2  Stmt   Source Statement                                  HLASM R6.0  2014/07/08 18.32
²00105F D5C1D4C540404040            1778 SZ1      DC    CL80'NAME     SAMPLE   SAMPLE'                           00084400
²0010AF C2C1E2C540404040            1779 SZ2      DC    CL80'BASE     000000'                                    00084500
²0010FF D9C5D74040404040            1780 SZ3      DC    CL80'REP      000006   00'                               00084600
²001150                             1781          DS    0F                                                       00084700
²                      01150        1782 SKIP#90  EQU   *                                                        00084800
²                                   1783       FREEMAIN RU,LV=(R2),A=(R10)  DESTROY DCB                          00084900
²001150                             1785+         CNOP  0,4                                                      01-FREEM
²001150 47F0 C252            01158  1786+         B     *+12-4*1-2*0                BRANCH AROUND DATA @O2C      01-FREEM
²001154 00                          1787+IHB0126F DC    BL1'00000000'            Flags              @O2A         01-FREEM
²001155 00                          1788+         DC    AL1(0)                            RESERVED               01-FREEM
²001156 00                          1789+         DC    AL1(0)                            SUBPOOL NUMBER         01-FREEM
²001157 03                          1790+         DC    BL1'00000011'                     MODE BYTE              01-FREEM
²001158 1802                        1791+         LR    0,R2                              LOAD LENGTH            01-FREEM
²00115A 181A                        1792+         LR    1,R10                             LOAD AREA ADDRESS      01-FREEM
²00115C 58F0 C24E            01154  1793+         L     15,IHB0126F                       LOAD PARAMETERS        01-FREEM
²001160 0A78                        1794+         SVC   120                               ISSUE FREEMAIN SVC     01-FREEM
²                                   1795        GETMAIN RU,LV=8,LOC=ANY                                          00085000
²001162 0700                        1797+         CNOP  0,4                                                      01-GETMA
²001164 47F0 C26A            01170  1798+         B     IHB0128C           BRANCH AROUND DATA                    01-GETMA
²001168 00000008                    1799+IHB0128L DC    A(8)               LENGTH                                01-GETMA
²00116C 00                          1800+IHB0128F DC    BL1'00000000'                         Flags.        @L7C 01-GETMA
²00116D 00                          1801+         DC    AL1(0)             RESERVED                              01-GETMA
²00116E 00                          1802+         DC    AL1(0)             SUBPOOL                               01-GETMA
²00116F 72                          1803+         DC    BL1'01110010'                 MODE BYTE         @G860P30 01-GETMA
²001170                             1804+IHB0128C DS     0H                                                      01-GETMA
²001170 5800 C262            01168  1805+         L     0,IHB0128L         LOAD LENGTH                           01-GETMA
²001174 58F0 C266            0116C  1806+         L     15,IHB0128F                       LOAD GETMAIN PARMS     01-GETMA
²001178 1B11                        1807+         SR    1,1                     ZERO RESERVED REG 1              01-GETMA
²00117A 0A78                        1808+         SVC   120                     ISSUE GETMAIN SVC                01-GETMA
²00117C D207 1000 C151 00000 01057  1809          MVC   0(8,R1),TDDSPZP                                          00085100
²001182 1801                        1810          LR    R0,R1                                                    00085200
²                                   1811 SPZPGEN  PROCEND                                                        00086000
²001184 47F0 C28A            01190  1812+         B     L#6                                                      01-PROCE
²001188                             1813+         LTORG                                                          01-PROCE
²001188 000007A0                    1814                =A(DALLOC)
²00118C 00000001                    1815                =XL4'00000001'
²                      01190        1816+L#6      EQU   *                                                        01-PROCE
²001190 182D                        1817+         LR    R2,R13                                                   01-PROCE
²001192 58D0 D004            00004  1818+         L     R13,SPZPGEN_OLD_SAVE                                     01-PROCE
²001196 5000 D014            00014  1819+         ST    R0,SPZPGEN_SAVE_R0                                       01-PROCE
²00119A 5010 D018            00018  1820+         ST    R1,SPZPGEN_SAVE_R1                                       01-PROCE
²00119E 18FF                        1821+         LR    R15,R15                                                  01-PROCE
²0011A0 50F0 D010            00010  1822+         ST    R15,SPZPGEN_SAVE_R15                                     01-PROCE
²0011A4                             1825+         CNOP  0,4                                                      02-FREEM
²0011A4 47F0 C2AA            011B0  1826+         B     *+12-4*0-2*0                BRANCH AROUND DATA @O2C      02-FREEM
²0011A8 00000048                    1827+         DC    A(SPZPGEN_SAVELEN)                LENGTH                 02-FREEM
²0011AC 00                          1828+IHB0131F DC    BL1'00000000'            Flags              @O2A         02-FREEM
²0011AD 00                          1829+         DC    AL1(0)                            RESERVED               02-FREEM
²0011AE 00                          1830+         DC    AL1(0)                            SUBPOOL NUMBER         02-FREEM
²0011AF 03                          1831+         DC    BL1'00000011'                     MODE BYTE              02-FREEM
²0011B0 5800 C2A2            011A8  1832+         L     0,*-8+2*0                         LOAD LENGTH            02-FREEM
²0011B4 1812                        1833+         LR    1,R2                              LOAD AREA ADDRESS      02-FREEM
²0011B6 58F0 C2A6            011AC  1834+         L     15,IHB0131F                       LOAD PARAMETERS        02-FREEM
²0011BA 0A78                        1835+         SVC   120                               ISSUE FREEMAIN SVC     02-FREEM
i0011BC 98EC D00C            0000C  1836+         LM    R14,R12,12(R13)                                          01-PROCE
²                                                                                                               Page   35
  Active Usings: S99TUNIT,R8  SPZPGEN_SAVE,R13
  Loc  Object Code    Addr1 Addr2  Stmt   Source Statement                                  HLASM R6.0  2014/07/08 18.32
²                                   1837+         DROP  R12                                                      01-PROCE
²                 R:C  011C0        1838+         USING *,R12                                                    01-PROCE
²                                   1839+         DROP  R13                                                      01-PROCE
²0011C0 07FE                        1840+         BR    14                                                       01-PROCE
²                                   1841 *====================================================================== 00087015
²                                   1842 BLDRECB  PROCBGN                                                        00088015
²                 R:D  00000        1843+         USING BLDRECB_SAVE,R13            SET SA ADDRESSATION          01-PROCB
²0011C8                011C8 0049A  1844+BLDRECB  CSECT                                                          01-PROCB
²                                   1845+BLDRECB  AMODE 31                                                       01-PROCB
²                                   1846+BLDRECB  RMODE 24                                                       01-PROCB
²0011C8 90EC D00C            0000C  1847+         STM   R14,R12,12(R13)             STORE REGISTERS              01-PROCB
²0011CC 0DC0                        1848+         BASR  R12,0                                                    01-PROCB
²                 R:C  011CE        1849+         USING *,R12                       SET ADDRESSATION             01-PROCB
²0011CE 0700                        1852+         CNOP  0,4                                                      02-GETMA
²0011D0 47F0 C00E            011DC  1853+         B     IHB0134C           BRANCH AROUND DATA                    02-GETMA
²0011D4 00000048                    1854+IHB0134L DC    A(BLDRECB_SAVELEN) LENGTH                                02-GETMA
²0011D8 00                          1855+IHB0134F DC    BL1'00000000'                         Flags.        @L7C 02-GETMA
²0011D9 00                          1856+         DC    AL1(0)             RESERVED                              02-GETMA
²0011DA 00                          1857+         DC    AL1(0)             SUBPOOL                               02-GETMA
²0011DB 72                          1858+         DC    BL1'01110010'                 MODE BYTE         @G860P30 02-GETMA
²0011DC                             1859+IHB0134C DS     0H                                                      02-GETMA
²0011DC 5800 C006            011D4  1860+         L     0,IHB0134L         LOAD LENGTH                           02-GETMA
²0011E0 58F0 C00A            011D8  1861+         L     15,IHB0134F                       LOAD GETMAIN PARMS     02-GETMA
²0011E4 1B11                        1862+         SR    1,1                     ZERO RESERVED REG 1              02-GETMA
²0011E6 0A78                        1863+         SVC   120                     ISSUE GETMAIN SVC                02-GETMA
²0011E8 1831                        1864+         LR    R3,R1                       R3:=R1                       01-PROCB
²0011EA 5800 D014            00014  1865+         L     R0,BLDRECB_SAVE_R0                                       01-PROCB
²0011EE 5810 D018            00018  1866+         L     R1,BLDRECB_SAVE_R1                                       01-PROCB
²0011F2 58F0 D010            00010  1867+         L     R15,BLDRECB_SAVE_R15        RESTORE R0,R1,R15            01-PROCB
²0011F6 50D3 0004            00004  1868+         ST    R13,4(R3)                   STORE OLD SA                 01-PROCB
²0011FA 182D                        1869+         LR    R2,R13                                                   01-PROCB
²0011FC 18D3                        1870+         LR    R13,R3                      SET NEW SA                   01-PROCB
²0011FE 50D2 0008            00008  1871+         ST    R13,8(R2)                   STORE ADDR OF NEW SA TO OLD  01-PROCB
²                                   1872+*CREATE DSECT FOR SAVEAREA
²000000                00000 00048  1873+BLDRECB_SAVE DSECT                                                      01-PROCB
²000000                             1874+BLDRECB_SAVE_AREA DS 0C                                                 01-PROCB
²000000                             1875+BLDRECB_RESERVED  DS 1F                                                 01-PROCB
²000004                             1876+BLDRECB_OLD_SAVE  DS A                                                  01-PROCB
²000008                             1877+BLDRECB_NEW_SAVE  DS A                                                  01-PROCB
²00000C                             1878+BLDRECB_SAVE_R14  DS 1F                                                 01-PROCB
²000010                             1879+BLDRECB_SAVE_R15  DS 1F                                                 01-PROCB
²000014                             1880+BLDRECB_SAVE_R0  DS 1F                                                  01-PROCB
²000018                             1881+BLDRECB_SAVE_R1  DS 1F                                                  01-PROCB
²00001C                             1882+BLDRECB_SAVE_R2  DS 1F                                                  01-PROCB
²000020                             1883+BLDRECB_SAVE_R3  DS 1F                                                  01-PROCB
²000024                             1884+BLDRECB_SAVE_R4  DS 1F                                                  01-PROCB
²000028                             1885+BLDRECB_SAVE_R5  DS 1F                                                  01-PROCB
²00002C                             1886+BLDRECB_SAVE_R6  DS 1F                                                  01-PROCB
²000030                             1887+BLDRECB_SAVE_R7  DS 1F                                                  01-PROCB
²000034                             1888+BLDRECB_SAVE_R8  DS 1F                                                  01-PROCB
²000038                             1889+BLDRECB_SAVE_R9  DS 1F                                                  01-PROCB
²00003C                             1890+BLDRECB_SAVE_R10 DS 1F                                                  01-PROCB
²000040                             1891+BLDRECB_SAVE_R11 DS 1F                                                  01-PROCB
²000044                             1892+BLDRECB_SAVE_R12 DS 1F                                                  01-PROCB
i                      00048        1893+BLDRECB_SAVELEN EQU *-BLDRECB_SAVE_AREA                                 01-PROCB
²                                                                                                               Page   36
  Active Usings: S99TUNIT,R8  BLDRECB+X'6',R12  BLDRECB_SAVE,R13
  Loc  Object Code    Addr1 Addr2  Stmt   Source Statement                                  HLASM R6.0  2014/07/08 18.32
²001202                011C8 0049A  1894+BLDRECB  CSECT                                                          01-PROCB
²                                   1895 *GETS USA IN R0 AND POS OF MODULE NAME IN R1                            00088115
²                                   1896 *FILLS RECB STRUCT FOR LAST MODULE IN TOPM                              00088215
²001202 47F0 C0EB            012B9  1897          B     SKIP#62                                                  00088815
²** ASMA212W Branch address alignment for SKIP#62 unfavorable
²** ASMA435I Record 72 in EMCPROJ.SRC(SPYM) on volume: ZAIMS1
                                   1898 DEBUG    DCB   DDNAME=DEBUG,DSORG=PS,MACRF=(PM)                         00088917
²                                   1901+*                       DATA CONTROL BLOCK
²                                   1902+*
²001206 0000
²001208                             1903+DEBUG    DC    0F'0'          ORIGIN ON WORD BOUNDARY                   01-DCB
²                                   1904+*                       DIRECT ACCESS DEVICE INTERFACE
²001208 0000000000000000            1905+         DC    BL16'0'        FDAD, DVTBL                               01-DCB
²001218 00000000                    1906+         DC    A(0)           KEYLEN, DEVT, TRBAL                       01-DCB
²                                   1907+*                       COMMON ACCESS METHOD INTERFACE
²00121C 00                          1908+         DC    AL1(0)         BUFNO, NUMBER OF BUFFERS                  01-DCB
²00121D 000001                      1909+         DC    AL3(1)         BUFCB, BUFFER POOL CONTROL BLOCK          01-DCB
²001220 0000                        1910+         DC    AL2(0)         BUFL, BUFFER LENGTH                       01-DCB
²001222 4000                        1911+         DC    BL2'0100000000000000' DSORG, DATA SET ORGANIZATION       01-DCB
²001224 00000001                    1912+         DC    A(1)           IOBAD FOR EXCP OR RESERVED                01-DCB
²                                   1913+*                       FOUNDATION EXTENSION
²001228 00                          1914+         DC    BL1'00000000'  BFTEK, BFALN, DCBE INDICATORS             01-DCB
²001229 000001                      1915+         DC    AL3(1)         EODAD (END OF DATA ROUTINE ADDRESS)       01-DCB
²00122C 00                          1916+         DC    BL1'00000000'  RECFM (RECORD FORMAT)                     01-DCB
²00122D 000000                      1917+         DC    AL3(0)         EXLST (EXIT LIST ADDRESS)                 01-DCB
²                                   1918+*                       FOUNDATION BLOCK
²001230 C4C5C2E4C7404040            1919+         DC    CL8'DEBUG'     DDNAME                                    01-DCB
²001238 02                          1920+         DC    BL1'00000010'  OFLGS (OPEN FLAGS)                        01-DCB
²001239 00                          1921+         DC    BL1'00000000'  IFLGS (IOS FLAGS)                         01-DCB
²00123A 0050                        1922+         DC    BL2'0000000001010000' MACR (MACRO FORMAT)                01-DCB
²                                   1923+*                       BSAM-BPAM-QSAM INTERFACE
²00123C 00                          1924+         DC    BL1'00000000'  OPTCD, OPTION CODES                       01-DCB
²00123D 000001                      1925+         DC    AL3(1)         CHECK OR INTERNAL QSAM SYNCHRONIZING RTN. 01-DCB
²001240 00000001                    1926+         DC    A(1)           SYNAD, SYNCHRONOUS ERROR RTN. (3 BYTES)   01-DCB
²001244 0000                        1927+         DC    H'0'           INTERNAL ACCESS METHOD FLAGS              01-DCB
²001246 0000                        1928+         DC    AL2(0)         BLKSIZE, BLOCK SIZE                       01-DCB
²001248 00000000                    1929+         DC    F'0'           INTERNAL ACCESS METHOD FLAGS              01-DCB
²00124C 00000001                    1930+         DC    A(1)           INTERNAL ACCESS METHOD USE                01-DCB
²                                   1931+*                            QSAM INTERFACE
²001250 00000001                    1932+         DC    A(1)           EOBAD                                     01-DCB
²001254 00000001                    1933+         DC    A(1)           RECAD                                     01-DCB
²001258 0000                        1934+         DC    H'0'           QSWS (FLAGS) AND EITHER DIRCT OR BUFOFF   01-DCB
²00125A 0000                        1935+         DC    AL2(0)         LRECL                                     01-DCB
²00125C 00                          1936+         DC    BL1'00000000'  EROPT, ERROR OPTION                       01-DCB
²00125D 000001                      1937+         DC    AL3(1)         CNTRL                                     01-DCB
²001260 00000000                    1938+         DC    H'0,0'         RESERVED AND PRECL                        01-DCB
²001264 00000001                    1939+         DC    A(1)           EOB, INTERNAL ACCESS METHOD FIELD         01-DCB
²001268                             1940 SR1      DS    18F                                                      00089017
²0012B0 D3C9E2E3C4C44040            1941 LISTDD   DC    CL8'LISTDD  '                                            00089117
²0012B8 8B                          1942 LISTSTRT DC    CL1'¯'                                                   00089217
                      012B9        1943 SKIP#62  EQU   *                                                        00089315
²0012B9 00
i0012BA 18A0                        1945          LR    R10,R0                                                   00089515
²                                                                                                               Page   37
  Active Usings: S99TUNIT,R8  USA,R10  BLDRECB+X'6',R12  BLDRECB_SAVE,R13
  Loc  Object Code    Addr1 Addr2  Stmt   Source Statement                                  HLASM R6.0  2014/07/08 18.32
                 R:A  00000        1946          USING USA,R10                                                  00089615
²0012BC 1831                        1948          LR    R3,R1                                                    00089815
²                                   1949        GETMAIN RU,LV=DDATA2#,LOC=ANY                                    00089915
²0012BE 0700                        1951+         CNOP  0,4                                                      01-GETMA
²0012C0 47F0 C0FE            012CC  1952+         B     IHB0138C           BRANCH AROUND DATA                    01-GETMA
²0012C4 00000018                    1953+IHB0138L DC    A(DDATA2#)         LENGTH                                01-GETMA
²0012C8 00                          1954+IHB0138F DC    BL1'00000000'                         Flags.        @L7C 01-GETMA
²0012C9 00                          1955+         DC    AL1(0)             RESERVED                              01-GETMA
²0012CA 00                          1956+         DC    AL1(0)             SUBPOOL                               01-GETMA
²0012CB 72                          1957+         DC    BL1'01110010'                 MODE BYTE         @G860P30 01-GETMA
²0012CC                             1958+IHB0138C DS     0H                                                      01-GETMA
²0012CC 5800 C0F6            012C4  1959+         L     0,IHB0138L         LOAD LENGTH                           01-GETMA
²0012D0 58F0 C0FA            012C8  1960+         L     15,IHB0138F                       LOAD GETMAIN PARMS     01-GETMA
²0012D4 1B11                        1961+         SR    1,1                     ZERO RESERVED REG 1              01-GETMA
²0012D6 0A78                        1962+         SVC   120                     ISSUE GETMAIN SVC                01-GETMA
²0012D8 18B1                        1963          LR    R11,R1           SET OUR DATA AREA                       00090015
                 R:B  00000        1964          USING DDATA2,R11                                               00090115
²0012DA 5820 A018            00018  1966          L     R2,ICB@                                                  00090315
0012DE 5020 B094            00094  1967          ST    R2,ICB@L         STORE GOAL ICB                          00090415
²0012E2 5820 A014            00014  1969          L     R2,RRECB@                                                00090617
0012E6 5020 B09C            0009C  1970          ST    R2,RRECB@L       STORE GOAL RRECB                        00090717
0012EA 50A0 B090            00090  1972          ST    R10,USA@L        STORE GOAL USA                          00090915
²0012EE 5820 A00C            0000C  1974          L     R2,RECB@         FIND GOAL RECB IN CHAIN WITH ID=R1      00091117
²                                   1975          USING R2,CBHEAD                                                00091215
²** ASMA305E Operand 1 does not refer to location within reference control section
²** ASMA435I Record 96 in EMCPROJ.SRC(SPYM) on volume: ZAIMS1
²0012F2 5920 C44A            01618  1976 LOOP#63  C     R2,=X'00000000'                                          00091315
²0012F6 4780 C13C            0130A  1977          BE    ENDL#63F                                                 00091415
²0012FA 0000 0000            00000  1978          C     R3,ID@                                                   00091517
²** ASMA307E No active USING for operand ID@
²** ASMA435I Record 99 in EMCPROJ.SRC(SPYM) on volume: ZAIMS1
²0012FE 4780 C164            01332  1979          BE    ENDL#63T                                                 00091615
²001302 0000 0000            00000  1980          L     R2,NEXT@                                                 00091715
²** ASMA307E No active USING for operand NEXT@
²** ASMA435I Record 101 in EMCPROJ.SRC(SPYM) on volume: ZAIMS1
²001306 47F0 C124            012F2  1981          B     LOOP#63                                                  00091815
²                      0130A        1982 ENDL#63F EQU   *                                                        00091915
²                                   1983          WTO   'MODULE FOR SCAN IS NOT EXIST'                           00092015
²00130A 0700                        1985+         CNOP  0,4                                                      01-WTO
²00130C A715 0012            01330  1986+         BRAS  1,IHB0140A               BRANCH AROUND MESSAGE      @LCC 01-WTO
²001310 0020                        1987+         DC    AL2(32)                  TEXT LENGTH            @YA17152 01-WTO
²001312 0000                        1988+         DC    B'0000000000000000'      MCSFLAGS                        01-WTO
²001314 D4D6C4E4D3C540C6            1989+         DC    C'MODULE FOR SCAN IS NOT EXIST'                         X01-WTO
²00131C D6D940E2C3C1D540                +                                        MESSAGE TEXT               @L6C
²001330                             1990+IHB0140A DS    0H                                                       01-WTO
²001330 0A23                        1991+         SVC   35                       ISSUE SVC 35               @L6A 01-WTO
²                      01332        1992 ENDL#63T EQU   *                                                        00092115
²001332 5020 B098            00098  1993          ST    R2,RECB@L                                                00092215
²                      01336        1994 ENDL#63  EQU   *                                                        00092315
i                                   1995          DROP  R3               STORE GOAL RECB                         00092416
²                                                                                                               Page   38
  Active Usings: S99TUNIT,R8  USA,R10  DDATA2,R11  BLDRECB+X'6',R12  BLDRECB_SAVE,R13
  Loc  Object Code    Addr1 Addr2  Stmt   Source Statement                                  HLASM R6.0  2014/07/08 18.32
²** ASMA045W Register or label not previously used - R3
** ASMA435I Record 108 in EMCPROJ.SRC(SPYM) on volume: ZAIMS1
²001336 4100 A068            00068  1997          LA    R0,_LPDSN        R0:=LISTING LIBRARY PARM FIELD          00092615
²                                   1998          DROP  R10                                                      00092715
00133A 1813                        1999          LR    R1,R3            R1:=ADDR OF MODULE NAME                 00092817
²                                   2001       PROCCALL NAME=BLDPRM,(R9)                                         00093015
²00133C 189E                        2002+         LR    R9,R14                                                   01-PROCC
²00133E 58F0 C44E            0161C  2003+         L     R15,=A(BLDPRM)                                           01-PROCC
²001342 0DEF                        2004+         BASR  R14,R15                                                  01-PROCC
001344 18E9                        2005+         LR    R14,R9                                                   01-PROCC
²001346 4110 C0E2            012B0  2007          LA    R1,LISTDD                                                00093215
²                                   2008       PROCCALL NAME=DALLOC,(R9)                                         00093315
²00134A 189E                        2009+         LR    R9,R14                                                   01-PROCC
²00134C 58F0 C452            01620  2010+         L     R15,=A(DALLOC)                                           01-PROCC
²001350 0DEF                        2011+         BASR  R14,R15                                                  01-PROCC
²001352 18E9                        2012+         LR    R14,R9                                                   01-PROCC
001354 5000 B08C            0008C  2013          ST    R0,DNSTRCT@                                              00093415
²                                   2015        PREPDCB PARM=GET,LISTDD,EODAD=NO,(R10)                           00093617
²                                   2016+*CHANGES R1,R2,R3,R4 R5
²001358                             2019+         CNOP  0,4                                                      02-WTO
²001358 A715 000A            0136C  2020+         BRAS  1,IHB0145A               BRANCH AROUND MESSAGE      @LCC 02-WTO
²00135C 000F                        2021+         DC    AL2(15)                  TEXT LENGTH            @YA17152 02-WTO
²00135E 0000                        2022+         DC    B'0000000000000000'      MCSFLAGS                        02-WTO
²001360 C3D9C5C1E3C5C440            2023+         DC    C'CREATED DCB'           MESSAGE TEXT               @L6C 02-WTO
²00136C                             2024+IHB0145A DS    0H                                                       02-WTO
²00136C 0A23                        2025+         SVC   35                       ISSUE SVC 35               @L6A 02-WTO
²                                   2026+*ELSE   FLD
²00136E 4130 C0E2            012B0  2027+         LA    R3,LISTDD                                                01-PREPD
²001372 1722                        2028+         XR    R2,R2                                                    01-PREPD
²001374 A728 0058            00058  2029+         LHI   R2,DCBLNGBS                                              01-PREPD
²001378                             2032+         CNOP  0,4                                                      02-GETMA
²001378 47F0 C1B2            01380  2033+         B     IHB0147C           BRANCH AROUND DATA                    02-GETMA
²00137C 00                          2034+IHB0147F DC    BL1'00000000'                         Flags.        @L7C 02-GETMA
²00137D 00                          2035+         DC    AL1(0)             RESERVED                              02-GETMA
²00137E 00                          2036+         DC    AL1(0)             SUBPOOL                               02-GETMA
²00137F 12                          2037+         DC    BL1'00010010'                 MODE BYTE         @G860P30 02-GETMA
²001380                             2038+IHB0147C DS     0H                                                      02-GETMA
²001380 1802                        2039+         LR    0,R2               LOAD LENGTH                  @ZA07133 02-GETMA
²001382 58F0 C1AE            0137C  2040+         L     15,IHB0147F                       LOAD GETMAIN PARMS     02-GETMA
²001386 1B11                        2041+         SR    1,1                     ZERO RESERVED REG 1              02-GETMA
²001388 0A78                        2042+         SVC   120                     ISSUE GETMAIN SVC                02-GETMA
²00138A 1841                        2043+         LR    R4,R1                                                    01-PREPD
²                 R:4  00000        2044+         USING IHADCB,R4                        SET R4  TO IHADCB       01-PREPD
²00138C 1711                        2045+         XR    R1,R1                                                    01-PREPD
²00138E 5010 4000            00000  2046+         ST    R1,IHADCB                                                01-PREPD
²001392 D256 4001 4000 00001 00000  2047+         MVC   IHADCB+1(DCBLNGBS-1),IHADCB       ZERIONG DATA AREA      01-PREPD
²001398 D207 4028 3000 00028 00000  2048+         MVC   DCBDDNAM(8),0(R3)                 SET DDNAME             01-PREPD
²00139E 9650 4032      00032        2049+         OI    DCBMACR1,DCBMRGET+DCBMRMVG        GET                    01-PREPD
²0013A2 9650 4032      00032        2050+         OI    DCBMACR1,DCBMRGET+DCBMRMVG        OTHER FLAGS            01-PREPD
²0013A6 9640 401A      0001A        2051+         OI    DCBDSORG,DCBDSGPS                                        01-PREPD
i0013AA 9602 4030      00030        2052+         OI    DCBOFLGS,DCBOFUEX                                        01-PREPD
²                                                                                                               Page   39
  Active Usings: IHADCB,R4  S99TUNIT,R8  DDATA2,R11  BLDRECB+X'6',R12  BLDRECB_SAVE,R13
  Loc  Object Code    Addr1 Addr2  Stmt   Source Statement                                  HLASM R6.0  2014/07/08 18.32
²0013AE D203 4014 C456 00014 01624  2053+         MVC   DCBBUFCB(4),=XL4'00000001'                               01-PREPD
²0013B4 D203 401C C456 0001C 01624  2054+         MVC   DCBIOBAD(4),=XL4'00000001'                               01-PREPD
²0013BA D203 4034 C456 00034 01624  2055+         MVC   DCBGERR(4),=XL4'00000001'                                01-PREPD
²0013C0 D203 4038 C456 00038 01624  2056+         MVC   DCBSYNAD(4),=XL4'00000001'                               01-PREPD
²0013C6 D203 4044 C456 00044 01624  2057+         MVC   DCBCICB(4),=XL4'00000001'                                01-PREPD
²0013CC D203 4048 C456 00048 01624  2058+         MVC   DCBEOBR(4),=XL4'00000001'                                01-PREPD
²0013D2 D203 404C C456 0004C 01624  2059+         MVC   DCBEOBW(4),=XL4'00000001'                                01-PREPD
²                                   2060+         DROP  R4                                                       01-PREPD
²0013D8 18A4                        2061+         LR    R10,R4                                                   01-PREPD
²0013DA 50A0 B088            00088  2062          ST    R10,DCB@                                                 00093715
²                                   2063          OPEN  ((R10),INPUT),MODE=31                                    00093815
²0013DE 0700                        2064+         CNOP  0,4                          ALIGN LIST TO HALFWORD @L1A 01-OPEN
²0013E0 4D10 C21E            013EC  2065+         BAS   1,*+12                       LOAD REG1 W/LIST ADDR.      01-OPEN
²0013E4 00000000                    2066+         DC    A(0)                         OPTION BYTE            @L1A 01-OPEN
²0013E8 00000000                    2067+         DC    A(0)                         DCB ADDRESS            @L1A 01-OPEN
²0013EC 50A1 0004            00004  2068+         ST    R10,4(1,0)                   STORE INTO LIST        @L1C 01-OPEN
²0013F0 9280 1000      00000        2069+         MVI   0(1),128                     MOVE IN OPTION BYTE         01-OPEN
²0013F4 1801                        2070+         LR    0,1                          POINT REG0 TO PLIST    @L1A 01-OPEN
²0013F6 1B11                        2071+         SR    1,1                          CLEAR REGISTER 1       @L1A 01-OPEN
0013F8 0A13                        2072+         SVC   19                           ISSUE OPEN SVC              01-OPEN
²                                   2074      SKIPBLOCK (R10),LINE2,LISTSTRT                                     00094017
²                                   2075+*SKIPS BLOCK  OF LISTING
²                      013FA        2076+SKIPLIN1    EQU   *                                                     01-00006
²0013FA 181A                        2079+         LR    1,R10                             LOAD PARAMETER REG 1   03-IHBIN
²0013FC 4100 B000            00000  2080+         LA    0,LINE2                           LOAD PARAMETER REG 0   03-IHBIN
²001400 1FFF                        2081+         SLR   15,15                    CLEAR REGISTER             @L1A 02-GET
²001402 BFF7 1031            00031  2082+         ICM   15,7,49(1)               LOAD GET ROUTINE ADDR      @L1C 02-GET
²001406 05EF                        2083+         BALR  14,15                    LINK TO GET ROUTINE             02-GET
²001408 D500 B000 C0EA 00000 012B8  2084+         CLC   LINE2(1),LISTSTRT                                        01-00008
²00140E 4770 C22C            013FA  2085+         BNE   SKIPLIN1                                                 01-00009
²                                   2086      SKIPBLOCK (R10),LINE2,LISTSTRT                                     00094117
²                                   2087+*SKIPS BLOCK  OF LISTING
²                      01412        2088+SKIPLIN2    EQU   *                                                     01-00006
²001412 181A                        2091+         LR    1,R10                             LOAD PARAMETER REG 1   03-IHBIN
²001414 4100 B000            00000  2092+         LA    0,LINE2                           LOAD PARAMETER REG 0   03-IHBIN
²001418 1FFF                        2093+         SLR   15,15                    CLEAR REGISTER             @L1A 02-GET
²00141A BFF7 1031            00031  2094+         ICM   15,7,49(1)               LOAD GET ROUTINE ADDR      @L1C 02-GET
²00141E 05EF                        2095+         BALR  14,15                    LINK TO GET ROUTINE             02-GET
²001420 D500 B000 C0EA 00000 012B8  2096+         CLC   LINE2(1),LISTSTRT                                        01-00008
²001426 4770 C244            01412  2097+         BNE   SKIPLIN2                                                 01-00009
²                                   2098      SKIPBLOCK (R10),LINE2,LISTSTRT                                     00094217
²                                   2099+*SKIPS BLOCK  OF LISTING
²                      0142A        2100+SKIPLIN3    EQU   *                                                     01-00006
²00142A 181A                        2103+         LR    1,R10                             LOAD PARAMETER REG 1   03-IHBIN
²00142C 4100 B000            00000  2104+         LA    0,LINE2                           LOAD PARAMETER REG 0   03-IHBIN
²001430 1FFF                        2105+         SLR   15,15                    CLEAR REGISTER             @L1A 02-GET
²001432 BFF7 1031            00031  2106+         ICM   15,7,49(1)               LOAD GET ROUTINE ADDR      @L1C 02-GET
²001436 05EF                        2107+         BALR  14,15                    LINK TO GET ROUTINE             02-GET
²001438 D500 B000 C0EA 00000 012B8  2108+         CLC   LINE2(1),LISTSTRT                                        01-00008
00143E 4770 C25C            0142A  2109+         BNE   SKIPLIN3                                                 01-00009
²001442 0000 0000            00000  2111          L     R6,ICB@                                                  00095817
i** ASMA307E No active USING for operand ICB@
²                                                                                                               Page   40
  Active Usings: S99TUNIT,R8  DDATA2,R11  BLDRECB+X'6',R12  BLDRECB_SAVE,R13
  Loc  Object Code    Addr1 Addr2  Stmt   Source Statement                                  HLASM R6.0  2014/07/08 18.32
²** ASMA435I Record 128 in EMCPROJ.SRC(SPYM) on volume: ZAIMS1
²                 R:6  00000        2112          USING CBHEAD,R6                                                00095917
²001446 5850 6004            00004  2113          L     R5,POS                                                   00096017
²00144A A75A FFF8           FFFFF8  2114          AHI   R5,-ICB#         R5:=POS OF LAST ICB                     00096117
²                                   2115          DROP  R6                                                       00096217
²00144E A76A 0008            00008  2116          AHI   R6,CBHEAD#       R6:=ADDR OF FIRST ICB                   00096317
²                      01452        2117 LOOP#62  EQU   *                                                        00096417
²                                   2118          GET   (R10),LINE2                                              00096517
²001452 181A                        2120+         LR    1,R10                             LOAD PARAMETER REG 1   02-IHBIN
²001454 4100 B000            00000  2121+         LA    0,LINE2                           LOAD PARAMETER REG 0   02-IHBIN
²001458 1FFF                        2122+         SLR   15,15                    CLEAR REGISTER             @L1A 01-GET
²00145A BFF7 1031            00031  2123+         ICM   15,7,49(1)               LOAD GET ROUTINE ADDR      @L1C 01-GET
²00145E 05EF                        2124+         BALR  14,15                    LINK TO GET ROUTINE             01-GET
²001460 D500 B000 C0EA 00000 012B8  2125          CLC   LINE2(1),LISTSTRT                                        00096617
001466 4780 C3EE            015BC  2126          BE    ENDLP                                                    00096717
²00146A 1777                        2128          XR    R7,R7                                                    00096917
²00146C 1788                        2129          XR    R8,R8                                                    00097017
²00146E 4870 B032            00032  2130          LH    R7,LINE2+50      LOAD 2 BYTES TO R7                      00097117
001472 5880 B034            00034  2131          L     R8,LINE2+52      LOAD 4 BYTES TO R8                      00097217
001476 1733                        2133          XR    R3,R3            SET COUNTER FOR ICB                     00097417
²001478 1744                        2135          XR    R4,R4                                                    00097617
00147A A748 0008            00008  2136          LHI   R4,ICB#          SET INCREMENTOR FOR ICB                 00097717
²                      0147E        2138 LOOP#64  EQU   *                                                        00097917
²00147E 1755                        2139          XR    R5,R5                                                    00098017
²001480 4854 6002            00002  2140          LH    R5,2(R4,R6)                                              00098117
²001484 1957                        2141          CR    R5,R7                                                    00098217
²001486 4770 C3E6            015B4  2142          BNE   NO1                                                      00098317
²00148A 5854 6004            00004  2143          L     R5,4(R4,R6)                                              00098417
²00148E 1958                        2144          CR    R5,R8                                                    00098517
²001490 4770 C3E6            015B4  2145          BNE   NO1                                                      00098617
²                                   2146 *CONSTRUCT RECB RECORD FROM STRING                                      00098717
²001494 5830 B09C            0009C  2147          L     R3,RRECB@L                                               00098817
                 R:3  00000        2148          USING RECB,R3                                                  00098917
²001498 4100 B001            00001  2150          LA    R0,LINE2+1                                               00099117
²00149C 1711                        2151          XR    R1,R1                                                    00099217
²00149E A718 0006            00006  2152          LHI   R1,X'0006'                                               00099317
²                                   2153       PROCCALL NAME=CNVTOHEX,(R9)                                       00099417
²0014A2 189E                        2154+         LR    R9,R14                                                   01-PROCC
²0014A4 58F0 C45A            01628  2155+         L     R15,=A(CNVTOHEX)                                         01-PROCC
²0014A8 0DEF                        2156+         BASR  R14,R15                                                  01-PROCC
²0014AA 18E9                        2157+         LR    R14,R9                                                   01-PROCC
0014AC 5000 3000            00000  2158          ST    R0,OFFSET                                                00099517
²0014B0 4100 B008            00008  2160          LA    R0,LINE2+8                                               00099717
²0014B4 1711                        2161          XR    R1,R1                                                    00099817
²0014B6 A718 000E            0000E  2162          LHI   R1,X'000E'                                               00099917
²                                   2163       PROCCALL NAME=CNVTOHEX,(R9)                                       00100017
²0014BA 189E                        2164+         LR    R9,R14                                                   01-PROCC
²0014BC 58F0 C45A            01628  2165+         L     R15,=A(CNVTOHEX)                                         01-PROCC
i0014C0 0DEF                        2166+         BASR  R14,R15                                                  01-PROCC
²                                                                                                               Page   41
  Active Usings: RECB,R3  S99TUNIT,R8  DDATA2,R11  BLDRECB+X'6',R12  BLDRECB_SAVE,R13
  Loc  Object Code    Addr1 Addr2  Stmt   Source Statement                                  HLASM R6.0  2014/07/08 18.32
²0014C2 18E9                        2167+         LR    R14,R9                                                   01-PROCC
0014C4 E300 3008 0024       00008  2168          STG   R0,INSTR                                                 00100117
²0014CA 90EC D00C            0000C  2170          STM   R14,R12,12(R13)                                          00100317
²0014CE 1853                        2171          LR    R5,R3                                                    00100417
²0014D0 5860 B098            00098  2172          L     R6,RECB@L                                                00100517
²                                   2173       PSHSTRCT RECB,(R5),(R6)                                           00100617
²                                   2174+*R0 R1 R2 R3 R4 R7 R8 R9 MAY CHANGE
²                                   2175+*INSERTS &RECORD IN &LIST TYPE &STRUCTNAME
²                                   2176+*&LIST MAY BE RECREATED
²                 R:6  00000        2177+         USING CBHEAD,R6                                                01-PSHST
²0014D4 5830 6004            00004  2178+         L     R3,POS               R3:=POS                             01-PSHST
²0014D8 5820 6000            00000  2179+         L     R2,LENGTH            R2:=LENGTH                          01-PSHST
²0014DC 1923                        2180+         CR    R2,R3                IF POS=LENGTH THEN EXPAND AND COPY  01-PSHST
²0014DE 4770 C392            01560  2181+         BNE   COPY#3               ELSE COPY                           01-PSHST
²                      014E2        2182+EXP#3    EQU   *                                                        01-PSHST
²0014E2 0700                        2185+         CNOP  0,4                                                      02-WTO
²0014E4 A715 000B            014FA  2186+         BRAS  1,IHB0164A               BRANCH AROUND MESSAGE      @LCC 02-WTO
²0014E8 0011                        2187+         DC    AL2(17)                  TEXT LENGTH            @YA17152 02-WTO
²0014EA 0000                        2188+         DC    B'0000000000000000'      MCSFLAGS                        02-WTO
²0014EC D3C9E2E340C5E7D7            2189+         DC    C'LIST EXPANDED'         MESSAGE TEXT               @L6C 02-WTO
²0014FA                             2190+IHB0164A DS    0H                                                       02-WTO
²0014FA 0A23                        2191+         SVC   35                       ISSUE SVC 35               @L6A 02-WTO
²0014FC 8B20 0001            00001  2192+         SLA   R2,1                 R2:=R2*2                            01-PSHST
²001500 1842                        2193+         LR    R4,R2                                                    01-PSHST
²001502 A72A 0010            00010  2194+         AHI   R2,CBHEADE#          +HEADER                             01-PSHST
²001506 0700                        2197+         CNOP  0,4                                                      02-GETMA
²001508 47F0 C342            01510  2198+         B     IHB0166C           BRANCH AROUND DATA                    02-GETMA
²00150C 00                          2199+IHB0166F DC    BL1'00000000'                         Flags.        @L7C 02-GETMA
²00150D 00                          2200+         DC    AL1(0)             RESERVED                              02-GETMA
²00150E 00                          2201+         DC    AL1(0)             SUBPOOL                               02-GETMA
²00150F 72                          2202+         DC    BL1'01110010'                 MODE BYTE         @G860P30 02-GETMA
²001510                             2203+IHB0166C DS     0H                                                      02-GETMA
²001510 1802                        2204+         LR    0,R2               LOAD LENGTH                  @ZA07133 02-GETMA
²001512 58F0 C33E            0150C  2205+         L     15,IHB0166F                       LOAD GETMAIN PARMS     02-GETMA
²001516 1B11                        2206+         SR    1,1                     ZERO RESERVED REG 1              02-GETMA
²001518 0A78                        2207+         SVC   120                     ISSUE GETMAIN SVC                02-GETMA
²00151A 1891                        2208+         LR    R9,R1                R9:=R1                              01-PSHST
²00151C 5870 6000            00000  2209+         L     R7,LENGTH                                                01-PSHST
²001520 A77A 0010            00010  2210+         AHI   R7,CBHEADE#                                              01-PSHST
²                                   2212+*R1 R2 R3 R8 R9 MAY CHANGE
²                                   2213+*======================================================================
²001524 1837                        2214+         LR    R3,R7                                                    02-FASTC
²001526 1722                        2215+         XR    R2,R2                                                    02-FASTC
²001528 1711                        2216+         XR    R1,R1                                                    02-FASTC
²00152A A718 00FF            000FF  2217+         LHI   R1,X'FF'                                                 02-FASTC
²00152E 1D21                        2218+         DR    R2,R1                 LENGTH - PAIR OF REGISTERS (E-O)   02-FASTC
²001530 5930 C44A            01618  2219+         C     R3,=X'00000000'                                          02-FASTC
²001534 4780 C386            01554  2220+         BE    SKIP#5                                                   02-FASTC
²                      01538        2221+LP#5     EQU   *                                                        02-FASTC
²001538 D2FE 9000 6000 00000 00000  2222+         MVC   0(255,R9),0(R6)                                          02-FASTC
²00153E A79A 00FF            000FF  2223+         AHI   R9,X'FF'                                                 02-FASTC
²001542 A76A 00FF            000FF  2224+         AHI   R6,X'FF'                                                 02-FASTC
²001546 4630 C36A            01538  2225+         BCT   R3,LP#5                                                  02-FASTC
i00154A 47F0 C386            01554  2226+         B     SKIP#5                                                   02-FASTC
²                                                                                                               Page   42
  Active Usings: RECB,R3  CBHEAD,R6  S99TUNIT,R8  DDATA2,R11  BLDRECB+X'6',R12  BLDRECB_SAVE,R13
  Loc  Object Code    Addr1 Addr2  Stmt   Source Statement                                  HLASM R6.0  2014/07/08 18.32
²00154E D200 9000 6000 00000 00000  2227+REM#5    MVC   0(0,R9),0(R6)                                            02-FASTC
²                      01554        2228+SKIP#5   EQU   *                                                        02-FASTC
²001554 0620                        2229+         BCTR  R2,0                                                     02-FASTC
²001556 4420 C380            0154E  2230+         EX    R2,REM#5                                                 02-FASTC
²00155A 1869                        2231+         LR    R6,R9                 SET UP NEW LIST                    01-PSHST
²00155C 5040 6000            00000  2232+         ST    R4,LENGTH            LENGTH:=R4                          01-PSHST
²                      01560        2233+COPY#3   EQU   *                                                        01-PSHST
²001560 5840 6004            00004  2234+         L     R4,POS               R4:=POS                             01-PSHST
²001564 1834                        2235+         LR    R3,R4                R3:=R4                              01-PSHST
²001566 A73A 0010            00010  2236+         AHI   R3,RECB#              R3:=R3+OFFSET FOR NEW MEMBER       01-PSHST
²00156A 5030 6004            00004  2237+         ST    R3,POS               POS:=R3                             01-PSHST
²00156E 1A46                        2238+         AR    R4,R6                 R4:=POS + ADDR OF LIST             01-PSHST
²001570 A74A 0010            00010  2239+         AHI   R4,CBHEADE#          ADD HEADER TO R4                    01-PSHST
²001574 1788                        2240+         XR    R8,R8                R8:=0                               01-PSHST
²001576 A788 0010            00010  2241+         LHI   R8,RECB#              R8:=LENGTH OF RECORD               01-PSHST
²                                   2243+*R1 R2 R3 R8 R9 MAY CHANGE
²                                   2244+*======================================================================
²00157A 1838                        2245+         LR    R3,R8                                                    02-FASTC
²00157C 1722                        2246+         XR    R2,R2                                                    02-FASTC
²00157E 1711                        2247+         XR    R1,R1                                                    02-FASTC
²001580 A718 00FF            000FF  2248+         LHI   R1,X'FF'                                                 02-FASTC
²001584 1D21                        2249+         DR    R2,R1                 LENGTH - PAIR OF REGISTERS (E-O)   02-FASTC
²001586 5930 C44A            01618  2250+         C     R3,=X'00000000'                                          02-FASTC
²00158A 4780 C3DC            015AA  2251+         BE    SKIP#6                                                   02-FASTC
²                      0158E        2252+LP#6     EQU   *                                                        02-FASTC
²00158E D2FE 4000 5000 00000 00000  2253+         MVC   0(255,R4),0(R5)                                          02-FASTC
²001594 A74A 00FF            000FF  2254+         AHI   R4,X'FF'                                                 02-FASTC
²001598 A75A 00FF            000FF  2255+         AHI   R5,X'FF'                                                 02-FASTC
²00159C 4630 C3C0            0158E  2256+         BCT   R3,LP#6                                                  02-FASTC
²0015A0 47F0 C3DC            015AA  2257+         B     SKIP#6                                                   02-FASTC
²0015A4 D200 4000 5000 00000 00000  2258+REM#6    MVC   0(0,R4),0(R5)                                            02-FASTC
²                      015AA        2259+SKIP#6   EQU   *                                                        02-FASTC
²0015AA 0620                        2260+         BCTR  R2,0                                                     02-FASTC
²0015AC 4420 C3D6            015A4  2261+         EX    R2,REM#6                                                 02-FASTC
²                                   2262+         DROP  R6                                                       01-PSHST
0015B0 98EC D00C            0000C  2263          LM    R14,R12,12(R13)                                          00100717
²                                   2265          DROP  R3                                                       00100917
²                      015B4        2266 NO1      EQU   *                                                        00101017
0015B4 8734 C2B0            0147E  2267          BXLE  R3,R4,LOOP#64                                            00101117
0015B8 47F0 C284            01452  2269          B     LOOP#62                                                  00101317
                      015BC        2271 ENDLP    EQU   *                                                        00101517
²                                   2273          CLOSE ((R10))                                                  00101717
²0015BC                             2274+         CNOP  0,4                               ALIGN LIST TO FULLWORD 01-CLOSE
²0015BC 4510 C3F6            015C4  2275+         BAL   1,*+8                        LOAD REG1 W/LIST ADDR. @L2A 01-CLOSE
²0015C0 00000000                    2276+         DC    A(0)                              OPT BYTE AND DCB ADDR. 01-CLOSE
²0015C4 50A1 0000            00000  2277+         ST    R10,0(1,0)                        STORE INTO LIST   @L1C 01-CLOSE
²0015C8 9280 1000      00000        2278+         MVI   0(1),128                       MOVE IN OPTION BYTE  @L1C 01-CLOSE
²0015CC 0A14                        2279+         SVC   20                                ISSUE CLOSE SVC        01-CLOSE
²                 R:A  00000        2280          USING IHADCB,R10                                               00101817
²0015CE 5890 A000            00000  2281          L     R9,DCBDCBE          FOR DESTRUCTING OF R9                00101917
i                                   2282       FREEMAIN RU,LV=DCBLNGBS,A=(R10)                                   00102017
²                                                                                                               Page   43
  Active Usings: S99TUNIT,R8  IHADCB,R10  DDATA2,R11  BLDRECB+X'6',R12  BLDRECB_SAVE,R13
  Loc  Object Code    Addr1 Addr2  Stmt   Source Statement                                  HLASM R6.0  2014/07/08 18.32
²0015D2 0700                        2284+         CNOP  0,4                                                      01-FREEM
²0015D4 47F0 C412            015E0  2285+         B     *+12-4*0-2*0                BRANCH AROUND DATA @O2C      01-FREEM
²0015D8 00000058                    2286+         DC    A(DCBLNGBS)                       LENGTH                 01-FREEM
²0015DC 00                          2287+IHB0171F DC    BL1'00000000'            Flags              @O2A         01-FREEM
²0015DD 00                          2288+         DC    AL1(0)                            RESERVED               01-FREEM
²0015DE 00                          2289+         DC    AL1(0)                            SUBPOOL NUMBER         01-FREEM
²0015DF 03                          2290+         DC    BL1'00000011'                     MODE BYTE              01-FREEM
²0015E0 5800 C40A            015D8  2291+         L     0,*-8+2*0                         LOAD LENGTH            01-FREEM
²0015E4 181A                        2292+         LR    1,R10                             LOAD AREA ADDRESS      01-FREEM
²0015E6 58F0 C40E            015DC  2293+         L     15,IHB0171F                       LOAD PARAMETERS        01-FREEM
²0015EA 0A78                        2294+         SVC   120                               ISSUE FREEMAIN SVC     01-FREEM
²                                   2295       FREEMAIN RU,LV=DCBEMINL,A=(R9)                                    00102117
²0015EC                             2297+         CNOP  0,4                                                      01-FREEM
²0015EC 47F0 C42A            015F8  2298+         B     *+12-4*0-2*0                BRANCH AROUND DATA @O2C      01-FREEM
²0015F0 00000038                    2299+         DC    A(DCBEMINL)                       LENGTH                 01-FREEM
²0015F4 00                          2300+IHB0173F DC    BL1'00000000'            Flags              @O2A         01-FREEM
²0015F5 00                          2301+         DC    AL1(0)                            RESERVED               01-FREEM
²0015F6 00                          2302+         DC    AL1(0)                            SUBPOOL NUMBER         01-FREEM
²0015F7 03                          2303+         DC    BL1'00000011'                     MODE BYTE              01-FREEM
²0015F8 5800 C422            015F0  2304+         L     0,*-8+2*0                         LOAD LENGTH            01-FREEM
²0015FC 1819                        2305+         LR    1,R9                              LOAD AREA ADDRESS      01-FREEM
²0015FE 58F0 C426            015F4  2306+         L     15,IHB0173F                       LOAD PARAMETERS        01-FREEM
²001602 0A78                        2307+         SVC   120                               ISSUE FREEMAIN SVC     01-FREEM
²001604 5800 B08C            0008C  2308          L     R0,DNSTRCT@                                              00102217
²                                   2309       PROCCALL NAME=DUNALLOC,(R10)                                      00102317
²001608 18AE                        2310+         LR    R10,R14                                                  01-PROCC
²00160A 58F0 C45E            0162C  2311+         L     R15,=A(DUNALLOC)                                         01-PROCC
²00160E 0DEF                        2312+         BASR  R14,R15                                                  01-PROCC
²001610 18EA                        2313+         LR    R14,R10                                                  01-PROCC
²                                   2314          DROP  R11                                                      00102417
²                                   2315          DROP  R10                                                      00102517
²000000                00000 000A0  2316 DDATA2   DSECT                                                          00102617
²000000                             2317 LINE2    DS    CL133                                                    00102717
²000088                             2318 DCB@     DS    F                                                        00102817
²00008C                             2319 DNSTRCT@ DS    F                                                        00102917
²000090                             2320 USA@L    DS    F                                                        00103017
²000094                             2321 ICB@L    DS    F                                                        00103117
²000098                             2322 RECB@L   DS    F                                                        00103217
²00009C                             2323 RRECB@L  DS    F                                                        00103317
                      00018        2324 DDATA2#  EQU   *-DCB@                                                   00103417
²                                   2326 &CSECT   CSECT                                                          00103617
²001612                011C8 0049A      +BLDRECB  CSECT                                                          00103617
²                                   2327 BLDRECB  PROCEND RC=(R15)                                               00104017
²001612 47F0 C462            01630  2328+         B     L#7                                                      01-PROCE
²001618                             2329+         LTORG                                                          01-PROCE
²001618 00000000                    2330                =X'00000000'
²00161C 00000698                    2331                =A(BLDPRM)
²001620 000007A0                    2332                =A(DALLOC)
²001624 00000001                    2333                =XL4'00000001'
²001628 00000D30                    2334                =A(CNVTOHEX)
²00162C 00000BA8                    2335                =A(DUNALLOC)
²                      01630        2336+L#7      EQU   *                                                        01-PROCE
²001630 182D                        2337+         LR    R2,R13                                                   01-PROCE
i001632 58D0 D004            00004  2338+         L     R13,BLDRECB_OLD_SAVE                                     01-PROCE
²                                                                                                               Page   44
  Active Usings: S99TUNIT,R8  BLDRECB+X'6',R12  BLDRECB_SAVE,R13
  Loc  Object Code    Addr1 Addr2  Stmt   Source Statement                                  HLASM R6.0  2014/07/08 18.32
²001636 5000 D014            00014  2339+         ST    R0,BLDRECB_SAVE_R0                                       01-PROCE
²00163A 5010 D018            00018  2340+         ST    R1,BLDRECB_SAVE_R1                                       01-PROCE
²00163E 18FF                        2341+         LR    R15,R15                                                  01-PROCE
²001640 50F0 D010            00010  2342+         ST    R15,BLDRECB_SAVE_R15                                     01-PROCE
²001644                             2345+         CNOP  0,4                                                      02-FREEM
²001644 47F0 C482            01650  2346+         B     *+12-4*0-2*0                BRANCH AROUND DATA @O2C      02-FREEM
²001648 00000048                    2347+         DC    A(BLDRECB_SAVELEN)                LENGTH                 02-FREEM
²00164C 00                          2348+IHB0177F DC    BL1'00000000'            Flags              @O2A         02-FREEM
²00164D 00                          2349+         DC    AL1(0)                            RESERVED               02-FREEM
²00164E 00                          2350+         DC    AL1(0)                            SUBPOOL NUMBER         02-FREEM
²00164F 03                          2351+         DC    BL1'00000011'                     MODE BYTE              02-FREEM
²001650 5800 C47A            01648  2352+         L     0,*-8+2*0                         LOAD LENGTH            02-FREEM
²001654 1812                        2353+         LR    1,R2                              LOAD AREA ADDRESS      02-FREEM
²001656 58F0 C47E            0164C  2354+         L     15,IHB0177F                       LOAD PARAMETERS        02-FREEM
²00165A 0A78                        2355+         SVC   120                               ISSUE FREEMAIN SVC     02-FREEM
²00165C 98EC D00C            0000C  2356+         LM    R14,R12,12(R13)                                          01-PROCE
²                                   2357+         DROP  R12                                                      01-PROCE
²                 R:C  01660        2358+         USING *,R12                                                    01-PROCE
²                                   2359+         DROP  R13                                                      01-PROCE
²001660 07FE                        2360+         BR    14                                                       01-PROCE
²                                   2361 *====================================================================== 00110016
²                                   2362 PREPMDL  PROCBGN                                                        00111800
²                 R:D  00000        2363+         USING PREPMDL_SAVE,R13            SET SA ADDRESSATION          01-PROCB
²001668                01668 004BE  2364+PREPMDL  CSECT                                                          01-PROCB
²                                   2365+PREPMDL  AMODE 31                                                       01-PROCB
²                                   2366+PREPMDL  RMODE 24                                                       01-PROCB
²001668 90EC D00C            0000C  2367+         STM   R14,R12,12(R13)             STORE REGISTERS              01-PROCB
²00166C 0DC0                        2368+         BASR  R12,0                                                    01-PROCB
²                 R:C  0166E        2369+         USING *,R12                       SET ADDRESSATION             01-PROCB
²00166E 0700                        2372+         CNOP  0,4                                                      02-GETMA
²001670 47F0 C00E            0167C  2373+         B     IHB0180C           BRANCH AROUND DATA                    02-GETMA
²001674 00000048                    2374+IHB0180L DC    A(PREPMDL_SAVELEN) LENGTH                                02-GETMA
²001678 00                          2375+IHB0180F DC    BL1'00000000'                         Flags.        @L7C 02-GETMA
²001679 00                          2376+         DC    AL1(0)             RESERVED                              02-GETMA
²00167A 00                          2377+         DC    AL1(0)             SUBPOOL                               02-GETMA
²00167B 72                          2378+         DC    BL1'01110010'                 MODE BYTE         @G860P30 02-GETMA
²00167C                             2379+IHB0180C DS     0H                                                      02-GETMA
²00167C 5800 C006            01674  2380+         L     0,IHB0180L         LOAD LENGTH                           02-GETMA
²001680 58F0 C00A            01678  2381+         L     15,IHB0180F                       LOAD GETMAIN PARMS     02-GETMA
²001684 1B11                        2382+         SR    1,1                     ZERO RESERVED REG 1              02-GETMA
²001686 0A78                        2383+         SVC   120                     ISSUE GETMAIN SVC                02-GETMA
²001688 1831                        2384+         LR    R3,R1                       R3:=R1                       01-PROCB
²00168A 5800 D014            00014  2385+         L     R0,PREPMDL_SAVE_R0                                       01-PROCB
²00168E 5810 D018            00018  2386+         L     R1,PREPMDL_SAVE_R1                                       01-PROCB
²001692 58F0 D010            00010  2387+         L     R15,PREPMDL_SAVE_R15        RESTORE R0,R1,R15            01-PROCB
²001696 50D3 0004            00004  2388+         ST    R13,4(R3)                   STORE OLD SA                 01-PROCB
²00169A 182D                        2389+         LR    R2,R13                                                   01-PROCB
²00169C 18D3                        2390+         LR    R13,R3                      SET NEW SA                   01-PROCB
²00169E 50D2 0008            00008  2391+         ST    R13,8(R2)                   STORE ADDR OF NEW SA TO OLD  01-PROCB
²                                   2392+*CREATE DSECT FOR SAVEAREA
²000000                00000 00048  2393+PREPMDL_SAVE DSECT                                                      01-PROCB
²000000                             2394+PREPMDL_SAVE_AREA DS 0C                                                 01-PROCB
²000000                             2395+PREPMDL_RESERVED  DS 1F                                                 01-PROCB
²000004                             2396+PREPMDL_OLD_SAVE  DS A                                                  01-PROCB
i000008                             2397+PREPMDL_NEW_SAVE  DS A                                                  01-PROCB
²                                                                                                               Page   45
  Active Usings: S99TUNIT,R8  PREPMDL+X'6',R12  PREPMDL_SAVE,R13
D-Loc  Object Code    Addr1 Addr2  Stmt   Source Statement                                  HLASM R6.0  2014/07/08 18.32
²00000C                             2398+PREPMDL_SAVE_R14  DS 1F                                                 01-PROCB
²000010                             2399+PREPMDL_SAVE_R15  DS 1F                                                 01-PROCB
²000014                             2400+PREPMDL_SAVE_R0  DS 1F                                                  01-PROCB
²000018                             2401+PREPMDL_SAVE_R1  DS 1F                                                  01-PROCB
²00001C                             2402+PREPMDL_SAVE_R2  DS 1F                                                  01-PROCB
²000020                             2403+PREPMDL_SAVE_R3  DS 1F                                                  01-PROCB
²000024                             2404+PREPMDL_SAVE_R4  DS 1F                                                  01-PROCB
²000028                             2405+PREPMDL_SAVE_R5  DS 1F                                                  01-PROCB
²00002C                             2406+PREPMDL_SAVE_R6  DS 1F                                                  01-PROCB
²000030                             2407+PREPMDL_SAVE_R7  DS 1F                                                  01-PROCB
²000034                             2408+PREPMDL_SAVE_R8  DS 1F                                                  01-PROCB
²000038                             2409+PREPMDL_SAVE_R9  DS 1F                                                  01-PROCB
²00003C                             2410+PREPMDL_SAVE_R10 DS 1F                                                  01-PROCB
²000040                             2411+PREPMDL_SAVE_R11 DS 1F                                                  01-PROCB
²000044                             2412+PREPMDL_SAVE_R12 DS 1F                                                  01-PROCB
²                      00048        2413+PREPMDL_SAVELEN EQU *-PREPMDL_SAVE_AREA                                 01-PROCB
²0016A2                01668 004BE  2414+PREPMDL  CSECT                                                          01-PROCB
²                                   2415 *PREPMDL GETS USA INTO R0, RTOPM INTO R1                                00111900
²0016A2 18B0                        2416          LR    R11,R0                                                   00112000
                 R:B  00000        2417          USING USA,R11             SET ADDRESSABILITY TO USA            00112100
0016A4 1851                        2419          LR    R5,R1                                                    00112700
²0016A6 90EC D00C            0000C  2421          STM   R14,R12,12(R13)                                          00113600
0016AA 5860 B000            00000  2422          L     R6,TOPM@                                                 00113700
²                                   2424       PSHSTRCT TOPM,(R5),(R6)                                           00113903
²                                   2425+*R0 R1 R2 R3 R4 R7 R8 R9 MAY CHANGE
²                                   2426+*INSERTS &RECORD IN &LIST TYPE &STRUCTNAME
²                                   2427+*&LIST MAY BE RECREATED
²                 R:6  00000        2428+         USING CBHEAD,R6                                                01-PSHST
²0016AE 5830 6004            00004  2429+         L     R3,POS               R3:=POS                             01-PSHST
²0016B2 5820 6000            00000  2430+         L     R2,LENGTH            R2:=LENGTH                          01-PSHST
²0016B6 1923                        2431+         CR    R2,R3                IF POS=LENGTH THEN EXPAND AND COPY  01-PSHST
²0016B8 4770 C0CA            01738  2432+         BNE   COPY#4               ELSE COPY                           01-PSHST
²                      016BC        2433+EXP#4    EQU   *                                                        01-PSHST
²0016BC                             2436+         CNOP  0,4                                                      02-WTO
²0016BC A715 000B            016D2  2437+         BRAS  1,IHB0183A               BRANCH AROUND MESSAGE      @LCC 02-WTO
²0016C0 0011                        2438+         DC    AL2(17)                  TEXT LENGTH            @YA17152 02-WTO
²0016C2 0000                        2439+         DC    B'0000000000000000'      MCSFLAGS                        02-WTO
²0016C4 D3C9E2E340C5E7D7            2440+         DC    C'LIST EXPANDED'         MESSAGE TEXT               @L6C 02-WTO
²0016D2                             2441+IHB0183A DS    0H                                                       02-WTO
²0016D2 0A23                        2442+         SVC   35                       ISSUE SVC 35               @L6A 02-WTO
²0016D4 8B20 0001            00001  2443+         SLA   R2,1                 R2:=R2*2                            01-PSHST
²0016D8 1842                        2444+         LR    R4,R2                                                    01-PSHST
²0016DA A72A 0008            00008  2445+         AHI   R2,CBHEAD#           +HEADER                             01-PSHST
²0016DE 0700                        2448+         CNOP  0,4                                                      02-GETMA
²0016E0 47F0 C07A            016E8  2449+         B     IHB0185C           BRANCH AROUND DATA                    02-GETMA
²0016E4 00                          2450+IHB0185F DC    BL1'00000000'                         Flags.        @L7C 02-GETMA
²0016E5 00                          2451+         DC    AL1(0)             RESERVED                              02-GETMA
²0016E6 00                          2452+         DC    AL1(0)             SUBPOOL                               02-GETMA
²0016E7 72                          2453+         DC    BL1'01110010'                 MODE BYTE         @G860P30 02-GETMA
²0016E8                             2454+IHB0185C DS     0H                                                      02-GETMA
²0016E8 1802                        2455+         LR    0,R2               LOAD LENGTH                  @ZA07133 02-GETMA
i0016EA 58F0 C076            016E4  2456+         L     15,IHB0185F                       LOAD GETMAIN PARMS     02-GETMA
²                                                                                                               Page   46
  Active Usings: CBHEAD,R6  S99TUNIT,R8  USA,R11  PREPMDL+X'6',R12  PREPMDL_SAVE,R13
  Loc  Object Code    Addr1 Addr2  Stmt   Source Statement                                  HLASM R6.0  2014/07/08 18.32
²0016EE 1B11                        2457+         SR    1,1                     ZERO RESERVED REG 1              02-GETMA
²0016F0 0A78                        2458+         SVC   120                     ISSUE GETMAIN SVC                02-GETMA
²0016F2 1891                        2459+         LR    R9,R1                R9:=R1                              01-PSHST
²0016F4 5870 6000            00000  2460+         L     R7,LENGTH                                                01-PSHST
²0016F8 A77A 0008            00008  2461+         AHI   R7,CBHEAD#                                               01-PSHST
²                                   2463+*R1 R2 R3 R8 R9 MAY CHANGE
²                                   2464+*======================================================================
²0016FC 1837                        2465+         LR    R3,R7                                                    02-FASTC
²0016FE 1722                        2466+         XR    R2,R2                                                    02-FASTC
²001700 1711                        2467+         XR    R1,R1                                                    02-FASTC
²001702 A718 00FF            000FF  2468+         LHI   R1,X'FF'                                                 02-FASTC
²001706 1D21                        2469+         DR    R2,R1                 LENGTH - PAIR OF REGISTERS (E-O)   02-FASTC
²001708 5930 C472            01AE0  2470+         C     R3,=X'00000000'                                          02-FASTC
²00170C 4780 C0BE            0172C  2471+         BE    SKIP#7                                                   02-FASTC
²                      01710        2472+LP#7     EQU   *                                                        02-FASTC
²001710 D2FE 9000 6000 00000 00000  2473+         MVC   0(255,R9),0(R6)                                          02-FASTC
²001716 A79A 00FF            000FF  2474+         AHI   R9,X'FF'                                                 02-FASTC
²00171A A76A 00FF            000FF  2475+         AHI   R6,X'FF'                                                 02-FASTC
²00171E 4630 C0A2            01710  2476+         BCT   R3,LP#7                                                  02-FASTC
²001722 47F0 C0BE            0172C  2477+         B     SKIP#7                                                   02-FASTC
²001726 D200 9000 6000 00000 00000  2478+REM#7    MVC   0(0,R9),0(R6)                                            02-FASTC
²                      0172C        2479+SKIP#7   EQU   *                                                        02-FASTC
²00172C 0620                        2480+         BCTR  R2,0                                                     02-FASTC
²00172E 4420 C0B8            01726  2481+         EX    R2,REM#7                                                 02-FASTC
²001732 1869                        2482+         LR    R6,R9                 SET UP NEW LIST                    01-PSHST
²001734 5040 6000            00000  2483+         ST    R4,LENGTH            LENGTH:=R4                          01-PSHST
²                      01738        2484+COPY#4   EQU   *                                                        01-PSHST
²001738 5840 6004            00004  2485+         L     R4,POS               R4:=POS                             01-PSHST
²00173C 1834                        2486+         LR    R3,R4                R3:=R4                              01-PSHST
²00173E A73A 000A            0000A  2487+         AHI   R3,TOPM#              R3:=R3+OFFSET FOR NEW MEMBER       01-PSHST
²001742 5030 6004            00004  2488+         ST    R3,POS               POS:=R3                             01-PSHST
²001746 1A46                        2489+         AR    R4,R6                 R4:=POS + ADDR OF LIST             01-PSHST
²001748 A74A 0008            00008  2490+         AHI   R4,CBHEAD#           ADD HEADER TO R4                    01-PSHST
²00174C 1788                        2491+         XR    R8,R8                R8:=0                               01-PSHST
²00174E A788 000A            0000A  2492+         LHI   R8,TOPM#              R8:=LENGTH OF RECORD               01-PSHST
²                                   2494+*R1 R2 R3 R8 R9 MAY CHANGE
²                                   2495+*======================================================================
²001752 1838                        2496+         LR    R3,R8                                                    02-FASTC
²001754 1722                        2497+         XR    R2,R2                                                    02-FASTC
²001756 1711                        2498+         XR    R1,R1                                                    02-FASTC
²001758 A718 00FF            000FF  2499+         LHI   R1,X'FF'                                                 02-FASTC
²00175C 1D21                        2500+         DR    R2,R1                 LENGTH - PAIR OF REGISTERS (E-O)   02-FASTC
²00175E 5930 C472            01AE0  2501+         C     R3,=X'00000000'                                          02-FASTC
²001762 4780 C114            01782  2502+         BE    SKIP#8                                                   02-FASTC
²                      01766        2503+LP#8     EQU   *                                                        02-FASTC
²001766 D2FE 4000 5000 00000 00000  2504+         MVC   0(255,R4),0(R5)                                          02-FASTC
²00176C A74A 00FF            000FF  2505+         AHI   R4,X'FF'                                                 02-FASTC
²001770 A75A 00FF            000FF  2506+         AHI   R5,X'FF'                                                 02-FASTC
²001774 4630 C0F8            01766  2507+         BCT   R3,LP#8                                                  02-FASTC
²001778 47F0 C114            01782  2508+         B     SKIP#8                                                   02-FASTC
²00177C D200 4000 5000 00000 00000  2509+REM#8    MVC   0(0,R4),0(R5)                                            02-FASTC
²                      01782        2510+SKIP#8   EQU   *                                                        02-FASTC
²001782 0620                        2511+         BCTR  R2,0                                                     02-FASTC
²001784 4420 C10E            0177C  2512+         EX    R2,REM#8                                                 02-FASTC
i                                   2513+         DROP  R6                                                       01-PSHST
²                                                                                                               Page   47
  Active Usings: S99TUNIT,R8  USA,R11  PREPMDL+X'6',R12  PREPMDL_SAVE,R13
  Loc  Object Code    Addr1 Addr2  Stmt   Source Statement                                  HLASM R6.0  2014/07/08 18.32
²001788 98EC D00C            0000C  2514          LM    R14,R12,12(R13)     INSERT RTOPM IN LIST                 00114000
²                                   2515       FREEMAIN RU,LV=TOPM#,A=(R5)                                       00114100
²00178C                             2517+         CNOP  0,4                                                      01-FREEM
²00178C 47F0 C12A            01798  2518+         B     *+12-4*0-2*0                BRANCH AROUND DATA @O2C      01-FREEM
²001790 0000000A                    2519+         DC    A(TOPM#)                          LENGTH                 01-FREEM
²001794 00                          2520+IHB0189F DC    BL1'00000000'            Flags              @O2A         01-FREEM
²001795 00                          2521+         DC    AL1(0)                            RESERVED               01-FREEM
²001796 00                          2522+         DC    AL1(0)                            SUBPOOL NUMBER         01-FREEM
²001797 03                          2523+         DC    BL1'00000011'                     MODE BYTE              01-FREEM
²001798 5800 C122            01790  2524+         L     0,*-8+2*0                         LOAD LENGTH            01-FREEM
²00179C 1815                        2525+         LR    1,R5                              LOAD AREA ADDRESS      01-FREEM
²00179E 58F0 C126            01794  2526+         L     15,IHB0189F                       LOAD PARAMETERS        01-FREEM
²0017A2 0A78                        2527+         SVC   120                               ISSUE FREEMAIN SVC     01-FREEM
²                                   2528        CRTRECB (R6),RECB@          NOW WE HAVE ADDR OF LAST RECB IN R6  00114200
²                                   2529+*CREATES NEW RECB BLOCK AND RETURNS IT'S ADDRESS IN & RESULT
²                                   2530+*CHANGES R1,R2,R3,R4,R5
²                                   2531+*ELSE FLD
²0017A4 5830 B00C            0000C  2532+         L     R3,RECB@                                                 01-CRTRE
²0017A8 1722                        2533+         XR    R2,R2                                                    01-CRTRE
²0017AA A728 0400            00400  2534+         LHI   R2,RECBSZ                                                01-CRTRE
²0017AE A72A 0010            00010  2535+         AHI   R2,CBHEADE#                                              01-CRTRE
²0017B2 0700                        2538+         CNOP  0,4                                                      02-WTO
²0017B4 A715 000A            017C8  2539+         BRAS  1,IHB0192A               BRANCH AROUND MESSAGE      @LCC 02-WTO
²0017B8 0010                        2540+         DC    AL2(16)                  TEXT LENGTH            @YA17152 02-WTO
²0017BA 0000                        2541+         DC    B'0000000000000000'      MCSFLAGS                        02-WTO
²0017BC C3D9C5C1E3C5C440            2542+         DC    C'CREATED RECB'          MESSAGE TEXT               @L6C 02-WTO
²0017C8                             2543+IHB0192A DS    0H                                                       02-WTO
²0017C8 0A23                        2544+         SVC   35                       ISSUE SVC 35               @L6A 02-WTO
²0017CA 0700                        2547+         CNOP  0,4                                                      02-GETMA
²0017CC 47F0 C166            017D4  2548+         B     IHB0194C           BRANCH AROUND DATA                    02-GETMA
²0017D0 00                          2549+IHB0194F DC    BL1'00000000'                         Flags.        @L7C 02-GETMA
²0017D1 00                          2550+         DC    AL1(0)             RESERVED                              02-GETMA
²0017D2 00                          2551+         DC    AL1(0)             SUBPOOL                               02-GETMA
²0017D3 72                          2552+         DC    BL1'01110010'                 MODE BYTE         @G860P30 02-GETMA
²0017D4                             2553+IHB0194C DS     0H                                                      02-GETMA
²0017D4 1802                        2554+         LR    0,R2               LOAD LENGTH                  @ZA07133 02-GETMA
²0017D6 58F0 C162            017D0  2555+         L     15,IHB0194F                       LOAD GETMAIN PARMS     02-GETMA
²0017DA 1B11                        2556+         SR    1,1                     ZERO RESERVED REG 1              02-GETMA
²0017DC 0A78                        2557+         SVC   120                     ISSUE GETMAIN SVC                02-GETMA
²0017DE A72A FFF0           FFFFF0  2558+         AHI   R2,-CBHEADE#                                             01-CRTRE
²0017E2 5930 C472            01AE0  2559+         C     R3,=X'00000000'                                          01-CRTRE
²0017E6 4780 C1AC            0181A  2560+         BE    NCH#71               IF CHAIN<>0                         01-CRTRE
²0017EA 1833                        2561+         LR    R3,R3                SET ADDRESSABITILY TO CHAIN         01-CRTRE
²                 R:3  00000        2562+         USING CBHEAD,R3                                                01-CRTRE
²                      017EC        2563+LP#71    EQU   *                                                        01-CRTRE
²0017EC 1843                        2564+         LR    R4,R3                                                    01-CRTRE
²0017EE 5830 3008            00008  2565+         L     R3,NEXT@                                                 01-CRTRE
²0017F2 5930 C472            01AE0  2566+         C     R3,=X'00000000'                                          01-CRTRE
²0017F6 4770 C17E            017EC  2567+         BNE   LP#71                FIND LAST BLOCK                     01-CRTRE
²0017FA 1834                        2568+         LR    R3,R4                                                    01-CRTRE
²0017FC 5010 3008            00008  2569+         ST    R1,NEXT@             NEXT@:=R2                           01-CRTRE
²001800 1831                        2570+         LR    R3,R1                SELECT NEW RECB                     01-CRTRE
²001802 5020 3000            00000  2571+         ST    R2,LENGTH                                                01-CRTRE
²001806 1722                        2572+         XR    R2,R2                                                    01-CRTRE
i001808 5020 3004            00004  2573+         ST    R2,POS                                                   01-CRTRE
²                                                                                                               Page   48
  Active Usings: CBHEAD,R3  S99TUNIT,R8  USA,R11  PREPMDL+X'6',R12  PREPMDL_SAVE,R13
  Loc  Object Code    Addr1 Addr2  Stmt   Source Statement                                  HLASM R6.0  2014/07/08 18.32
²00180C 5020 300C            0000C  2574+         ST    R2,ID@                                                   01-CRTRE
²001810 1722                        2575+         XR    R2,R2                                                    01-CRTRE
²001812 5020 3008            00008  2576+         ST    R2,NEXT@             NEXT@:=0                            01-CRTRE
²001816 47F0 C1C2            01830  2577+         B     INS#81                                                   01-CRTRE
²                      0181A        2578+NCH#71   EQU   *                    ELSE CREATE CHAIN                   01-CRTRE
²00181A 1831                        2579+         LR    R3,R1                                                    01-CRTRE
²                 R:3  00000        2580+         USING CBHEAD,R3                                                01-CRTRE
²00181C 5020 3000            00000  2581+         ST    R2,LENGTH                                                01-CRTRE
²001820 1722                        2582+         XR    R2,R2                                                    01-CRTRE
²001822 5020 3004            00004  2583+         ST    R2,POS                                                   01-CRTRE
²001826 5020 300C            0000C  2584+         ST    R2,ID@                                                   01-CRTRE
²00182A 1831                        2585+         LR    R3,R1                                                    01-CRTRE
²00182C 5030 B00C            0000C  2586+         ST    R3,RECB@                                                 01-CRTRE
²                      01830        2587+INS#81   EQU   *                                                        01-CRTRE
²001830 1861                        2588+         LR    R6,R1                                                    01-CRTRE
²                                   2589+         DROP  R3                                                       01-CRTRE
²001832 58A0 B000            00000  2590          L     R10,TOPM@                                                00114900
²                 R:A  00000        2591          USING CBHEAD,R10                                               00115300
001836 5890 A004            00004  2592          L     R9,POS                                                   00115400
²00183A A79A FFF6           FFFFF6  2594          AHI   R9,-TOPM#                                                00115605
²00183E 1A9A                        2595          AR    R9,R10                                                   00115707
001840 A79A 0008            00008  2596          AHI   R9,CBHEAD#                                               00115807
²                                   2598          DROP  R10                 R9:=ADDR OF LAST MODULE IN TOPM      00116300
²                 R:6  00000        2599          USING CBHEAD,R6                                                00116500
²001844 5090 600C            0000C  2600          ST    R9,ID@                                                   00116600
²                                   2601          DROP  R6                  ID@ OF LAST RECB:= R9                00116700
²                                   2602 *STAT ANALYSIS                                                          00116800
²001848 58A0 B014            00014  2603          L     R10,RRECB@                                               00116900
²                 R:A  00000        2604          USING RECB,R10                                                 00117000
²00184C 5810 C476            01AE4  2605          L     R1,=X'00000006'                                          00117100
²001850 5010 A000            00000  2606          ST    R1,OFFSET                                                00117200
²001854 5810 C47A            01AE8  2607          L     R1,=X'47F0C00C'                                          00117300
²001858 5010 A008            00008  2608          ST    R1,INSTR                                                 00117400
                                   2609          DROP  R10                 WE SETTED TEST INSTR TO CHANGE       00117500
²00185C 90EC D00C            0000C  2611          STM   R14,R12,12(R13)                                          00117700
²                                   2612       PSHSTRCT RECB,(R10),(R6)                                          00117800
²                                   2613+*R0 R1 R2 R3 R4 R7 R8 R9 MAY CHANGE
²                                   2614+*INSERTS &RECORD IN &LIST TYPE &STRUCTNAME
²                                   2615+*&LIST MAY BE RECREATED
²                 R:6  00000        2616+         USING CBHEAD,R6                                                01-PSHST
²001860 5830 6004            00004  2617+         L     R3,POS               R3:=POS                             01-PSHST
²001864 5820 6000            00000  2618+         L     R2,LENGTH            R2:=LENGTH                          01-PSHST
²001868 1923                        2619+         CR    R2,R3                IF POS=LENGTH THEN EXPAND AND COPY  01-PSHST
²00186A 4770 C27E            018EC  2620+         BNE   COPY#5               ELSE COPY                           01-PSHST
²                      0186E        2621+EXP#5    EQU   *                                                        01-PSHST
²00186E 0700                        2624+         CNOP  0,4                                                      02-WTO
²001870 A715 000B            01886  2625+         BRAS  1,IHB0197A               BRANCH AROUND MESSAGE      @LCC 02-WTO
²001874 0011                        2626+         DC    AL2(17)                  TEXT LENGTH            @YA17152 02-WTO
²001876 0000                        2627+         DC    B'0000000000000000'      MCSFLAGS                        02-WTO
²001878 D3C9E2E340C5E7D7            2628+         DC    C'LIST EXPANDED'         MESSAGE TEXT               @L6C 02-WTO
²001886                             2629+IHB0197A DS    0H                                                       02-WTO
i001886 0A23                        2630+         SVC   35                       ISSUE SVC 35               @L6A 02-WTO
²                                                                                                               Page   49
  Active Usings: CBHEAD,R6  S99TUNIT,R8  USA,R11  PREPMDL+X'6',R12  PREPMDL_SAVE,R13
  Loc  Object Code    Addr1 Addr2  Stmt   Source Statement                                  HLASM R6.0  2014/07/08 18.32
²001888 8B20 0001            00001  2631+         SLA   R2,1                 R2:=R2*2                            01-PSHST
²00188C 1842                        2632+         LR    R4,R2                                                    01-PSHST
²00188E A72A 0010            00010  2633+         AHI   R2,CBHEADE#          +HEADER                             01-PSHST
²001892 0700                        2636+         CNOP  0,4                                                      02-GETMA
²001894 47F0 C22E            0189C  2637+         B     IHB0199C           BRANCH AROUND DATA                    02-GETMA
²001898 00                          2638+IHB0199F DC    BL1'00000000'                         Flags.        @L7C 02-GETMA
²001899 00                          2639+         DC    AL1(0)             RESERVED                              02-GETMA
²00189A 00                          2640+         DC    AL1(0)             SUBPOOL                               02-GETMA
²00189B 72                          2641+         DC    BL1'01110010'                 MODE BYTE         @G860P30 02-GETMA
²00189C                             2642+IHB0199C DS     0H                                                      02-GETMA
²00189C 1802                        2643+         LR    0,R2               LOAD LENGTH                  @ZA07133 02-GETMA
²00189E 58F0 C22A            01898  2644+         L     15,IHB0199F                       LOAD GETMAIN PARMS     02-GETMA
²0018A2 1B11                        2645+         SR    1,1                     ZERO RESERVED REG 1              02-GETMA
²0018A4 0A78                        2646+         SVC   120                     ISSUE GETMAIN SVC                02-GETMA
²0018A6 1891                        2647+         LR    R9,R1                R9:=R1                              01-PSHST
²0018A8 5870 6000            00000  2648+         L     R7,LENGTH                                                01-PSHST
²0018AC A77A 0010            00010  2649+         AHI   R7,CBHEADE#                                              01-PSHST
²                                   2651+*R1 R2 R3 R8 R9 MAY CHANGE
²                                   2652+*======================================================================
²0018B0 1837                        2653+         LR    R3,R7                                                    02-FASTC
²0018B2 1722                        2654+         XR    R2,R2                                                    02-FASTC
²0018B4 1711                        2655+         XR    R1,R1                                                    02-FASTC
²0018B6 A718 00FF            000FF  2656+         LHI   R1,X'FF'                                                 02-FASTC
²0018BA 1D21                        2657+         DR    R2,R1                 LENGTH - PAIR OF REGISTERS (E-O)   02-FASTC
²0018BC 5930 C472            01AE0  2658+         C     R3,=X'00000000'                                          02-FASTC
²0018C0 4780 C272            018E0  2659+         BE    SKIP#9                                                   02-FASTC
²                      018C4        2660+LP#9     EQU   *                                                        02-FASTC
²0018C4 D2FE 9000 6000 00000 00000  2661+         MVC   0(255,R9),0(R6)                                          02-FASTC
²0018CA A79A 00FF            000FF  2662+         AHI   R9,X'FF'                                                 02-FASTC
²0018CE A76A 00FF            000FF  2663+         AHI   R6,X'FF'                                                 02-FASTC
²0018D2 4630 C256            018C4  2664+         BCT   R3,LP#9                                                  02-FASTC
²0018D6 47F0 C272            018E0  2665+         B     SKIP#9                                                   02-FASTC
²0018DA D200 9000 6000 00000 00000  2666+REM#9    MVC   0(0,R9),0(R6)                                            02-FASTC
²                      018E0        2667+SKIP#9   EQU   *                                                        02-FASTC
²0018E0 0620                        2668+         BCTR  R2,0                                                     02-FASTC
²0018E2 4420 C26C            018DA  2669+         EX    R2,REM#9                                                 02-FASTC
²0018E6 1869                        2670+         LR    R6,R9                 SET UP NEW LIST                    01-PSHST
²0018E8 5040 6000            00000  2671+         ST    R4,LENGTH            LENGTH:=R4                          01-PSHST
²                      018EC        2672+COPY#5   EQU   *                                                        01-PSHST
²0018EC 5840 6004            00004  2673+         L     R4,POS               R4:=POS                             01-PSHST
²0018F0 1834                        2674+         LR    R3,R4                R3:=R4                              01-PSHST
²0018F2 A73A 0010            00010  2675+         AHI   R3,RECB#              R3:=R3+OFFSET FOR NEW MEMBER       01-PSHST
²0018F6 5030 6004            00004  2676+         ST    R3,POS               POS:=R3                             01-PSHST
²0018FA 1A46                        2677+         AR    R4,R6                 R4:=POS + ADDR OF LIST             01-PSHST
²0018FC A74A 0010            00010  2678+         AHI   R4,CBHEADE#          ADD HEADER TO R4                    01-PSHST
²001900 1788                        2679+         XR    R8,R8                R8:=0                               01-PSHST
²001902 A788 0010            00010  2680+         LHI   R8,RECB#              R8:=LENGTH OF RECORD               01-PSHST
²                                   2682+*R1 R2 R3 R8 R9 MAY CHANGE
²                                   2683+*======================================================================
²001906 1838                        2684+         LR    R3,R8                                                    02-FASTC
²001908 1722                        2685+         XR    R2,R2                                                    02-FASTC
²00190A 1711                        2686+         XR    R1,R1                                                    02-FASTC
²00190C A718 00FF            000FF  2687+         LHI   R1,X'FF'                                                 02-FASTC
²001910 1D21                        2688+         DR    R2,R1                 LENGTH - PAIR OF REGISTERS (E-O)   02-FASTC
i001912 5930 C472            01AE0  2689+         C     R3,=X'00000000'                                          02-FASTC
²                                                                                                               Page   50
  Active Usings: CBHEAD,R6  S99TUNIT,R8  USA,R11  PREPMDL+X'6',R12  PREPMDL_SAVE,R13
  Loc  Object Code    Addr1 Addr2  Stmt   Source Statement                                  HLASM R6.0  2014/07/08 18.32
²001916 4780 C2C8            01936  2690+         BE    SKIP#10                                                  02-FASTC
²                      0191A        2691+LP#10    EQU   *                                                        02-FASTC
²00191A D2FE 4000 A000 00000 00000  2692+         MVC   0(255,R4),0(R10)                                         02-FASTC
²001920 A74A 00FF            000FF  2693+         AHI   R4,X'FF'                                                 02-FASTC
²001924 A7AA 00FF            000FF  2694+         AHI   R10,X'FF'                                                02-FASTC
²001928 4630 C2AC            0191A  2695+         BCT   R3,LP#10                                                 02-FASTC
²00192C 47F0 C2C8            01936  2696+         B     SKIP#10                                                  02-FASTC
²001930 D200 4000 A000 00000 00000  2697+REM#10   MVC   0(0,R4),0(R10)                                           02-FASTC
²                      01936        2698+SKIP#10  EQU   *                                                        02-FASTC
²001936 0620                        2699+         BCTR  R2,0                                                     02-FASTC
²001938 4420 C2C2            01930  2700+         EX    R2,REM#10                                                02-FASTC
²                                   2701+         DROP  R6                                                       01-PSHST
²00193C 98EC D00C            0000C  2702          LM    R14,R12,12(R13)     INSERT RTOPM IN LIST                 00117900
²                                   2703 *SUPERZAP TABLE GENERATION. AFTER WE HAVE DCB TO TABLE   TEMP: SPZPD    00118000
²                                   2704       PROCCALL NAME=SPZPGEN,(R10)                                       00118100
²001940 18AE                        2705+         LR    R10,R14                                                  01-PROCC
²001942 58F0 C47E            01AEC  2706+         L     R15,=A(SPZPGEN)                                          01-PROCC
²001946 0DEF                        2707+         BASR  R14,R15                                                  01-PROCC
²001948 18EA                        2708+         LR    R14,R10                                                  01-PROCC
²                                   2709 *SUPERZAP CALLING. IN R9 WE HAVE ID OF MODULE IN RTOPM                  00118200
²00194A 1850                        2710          LR    R5,R0               IN R0 WE HAD DDNAME                  00118300
²                                   2711       CRSZPARM TDD,(R5),(R4)                                            00118400
²                                   2712+*CREATE SUPERZAP PARAMS. CHANGES R0,R1,R2,R3,R4,R15
²                                   2713+*IN &SYSIN GETS DD NAME OF PARAMS DDNAME
²                                   2714+*IN &SYSLIB GETS DD NAME OF DATASET WHAT WE NEED TO CHANGE
²                                   2715+*ELSE FLD
²00194C 4140 C350            019BE  2716+         LA    R4,TDD                                                   01-CRSZP
²001950                             2719+         CNOP  0,4                                                      02-GETMA
²001950 47F0 C2EE            0195C  2720+         B     IHB0205C           BRANCH AROUND DATA                    02-GETMA
²001954 00000032                    2721+IHB0205L DC    A(SPZPRM#)         LENGTH                                02-GETMA
²001958 00                          2722+IHB0205F DC    BL1'00000000'                         Flags.        @L7C 02-GETMA
²001959 00                          2723+         DC    AL1(0)             RESERVED                              02-GETMA
²00195A 00                          2724+         DC    AL1(0)             SUBPOOL                               02-GETMA
²00195B 12                          2725+         DC    BL1'00010010'                 MODE BYTE         @G860P30 02-GETMA
²00195C                             2726+IHB0205C DS     0H                                                      02-GETMA
²00195C 5800 C2E6            01954  2727+         L     0,IHB0205L         LOAD LENGTH                           02-GETMA
²001960 58F0 C2EA            01958  2728+         L     15,IHB0205F                       LOAD GETMAIN PARMS     02-GETMA
²001964 1B11                        2729+         SR    1,1                     ZERO RESERVED REG 1              02-GETMA
²001966 0A78                        2730+         SVC   120                     ISSUE GETMAIN SVC                02-GETMA
²001968 1821                        2731+         LR    R2,R1                                                    01-CRSZP
²                 R:2  00000        2732+         USING SPZPPRM,R2                                               01-CRSZP
²00196A 1711                        2733+         XR    R1,R1                                                    01-CRSZP
²00196C A718 0030            00030  2734+         LHI   R1,X'0030'                                               01-CRSZP
²001970 4010 2000            00000  2735+         STH   R1,DDLIST                 DDLIST:=48                     01-CRSZP
²001974 1711                        2736+         XR    R1,R1                                                    01-CRSZP
²001976 4210 2002            00002  2737+         STC   R1,NA1                                                   01-CRSZP
²00197A D22E 2003 2002 00003 00002  2738+         MVC   NA1+1(47),NA1                                            01-CRSZP
²001980 D207 201A 4000 0001A 00000  2739+         MVC   SYSLIB(8),0(R4)                                          01-CRSZP
²001986 D207 2022 5000 00022 00000  2740+         MVC   SYSIN(8),0(R5)                                           01-CRSZP
²                                   2741+         DROP  R2                                                       01-CRSZP
00198C 1842                        2742+         LR    R4,R2                                                    01-CRSZP
²                                   2744 *        OPEN  (DEBUG,OUTPUT)                                           00118608
²                                   2745 *        PUT   DEBUG,(R4)                                               00118708
i                                   2746 *        CLOSE (DEBUG)                                                  00118808
²                                                                                                               Page   51
  Active Usings: S99TUNIT,R8  USA,R11  PREPMDL+X'6',R12  PREPMDL_SAVE,R13
  Loc  Object Code    Addr1 Addr2  Stmt   Source Statement                                  HLASM R6.0  2014/07/08 18.32
²                                   2749       FREEMAIN RU,LV=8,A=(R5)                                           00119100
²00198E 0700                        2751+         CNOP  0,4                                                      01-FREEM
²001990 47F0 C32E            0199C  2752+         B     *+12-4*0-2*0                BRANCH AROUND DATA @O2C      01-FREEM
²001994 00000008                    2753+         DC    A(8)                              LENGTH                 01-FREEM
²001998 00                          2754+IHB0207F DC    BL1'00000000'            Flags              @O2A         01-FREEM
²001999 00                          2755+         DC    AL1(0)                            RESERVED               01-FREEM
²00199A 00                          2756+         DC    AL1(0)                            SUBPOOL NUMBER         01-FREEM
²00199B 03                          2757+         DC    BL1'00000011'                     MODE BYTE              01-FREEM
²00199C 5800 C326            01994  2758+         L     0,*-8+2*0                         LOAD LENGTH            01-FREEM
²0019A0 1815                        2759+         LR    1,R5                              LOAD AREA ADDRESS      01-FREEM
²0019A2 58F0 C32A            01998  2760+         L     15,IHB0207F                       LOAD PARAMETERS        01-FREEM
²0019A6 0A78                        2761+         SVC   120                               ISSUE FREEMAIN SVC     01-FREEM
²0019A8 4180 B030            00030  2762          LA    R8,_PDSN                                                 00119200
²                                   2763          WTO   'TEST'                                                   00119300
²0019AC                             2765+         CNOP  0,4                                                      01-WTO
²0019AC A715 0006            019B8  2766+         BRAS  1,IHB0209A               BRANCH AROUND MESSAGE      @LCC 01-WTO
²0019B0 0008                        2767+         DC    AL2(8)                   TEXT LENGTH            @YA17152 01-WTO
²0019B2 0000                        2768+         DC    B'0000000000000000'      MCSFLAGS                        01-WTO
²0019B4 E3C5E2E3                    2769+         DC    C'TEST'                  MESSAGE TEXT               @L6C 01-WTO
²0019B8                             2770+IHB0209A DS    0H                                                       01-WTO
0019B8 0A23                        2771+         SVC   35                       ISSUE SVC 35               @L6A 01-WTO
²                                   2773 *        LR    R0,R8                                                    00119511
²                                   2774 *        LR    R1,R9                                                    00119611
²                                   2775 *     PROCCALL NAME=BLDPRM,(R10)                                        00119711
                                   2776 *        LR    R2,R0                                                    00119811
²0019BA 47F0 C3DC            01A4A  2778          B     SKIP#70                                                  00120300
²0019BE C1D7D9D6C7404040            2779 TDD      DC    CL8'APROG   '                                            00120400
²                                   2780 *EBUG    DCB   DDNAME=DEBUG,DSORG=PS,MACRF=(PM)                         00120514
²                                   2781 *PZPD    DCB   DDNAME=SPZPD,DSORG=PS,MACRF=(GM)                         00120610
²0019C6                             2782 MSG      DS    CL80                                                     00120710
²001A16 0000
²001A18                             2783 ALIGN    DC    0F                                                       00120810
²001A18 0030                        2784 DDNAMLST DC    XL2'30'                                                  00120910
²001A1A 0000000000000000            2785          DC    XL8'00000000'                                            00121010
²001A22 0000000000000000            2786          DC    XL8'00000000'                                            00121110
²001A2A 0000000000000000            2787          DC    XL8'00000000'                                            00121210
²001A32 C1D7D9D6C7404040            2788          DC    CL8'APROG   '                                            00121310
²001A3A E2D7E9D7C4404040            2789          DC    CL8'SPZPD   '                                            00121410
²001A42 0000000000000000            2790          DC    XL8'00000000'                                            00121510
²                      01A4A        2791 SKIP#70  EQU   *                                                        00121600
²001A4A 1892                        2792          LR    R9,R2                                                    00121700
²                                   2793 *        OPEN  (DEBUG,OUTPUT),MODE=31                                   00121811
²                                   2794 *        PUT   DEBUG,(R2)                                               00121911
²                                   2795 *        CLOSE (DEBUG),MODE=31                                          00122011
²001A4C 1808                        2796          LR    R0,R8                                                    00122111
²001A4E 4110 C350            019BE  2797          LA    R1,TDD                                                   00122200
²                                   2798       PROCCALL NAME=DALLOC,(R10)                                        00122300
²001A52 18AE                        2799+         LR    R10,R14                                                  01-PROCC
²001A54 58F0 C482            01AF0  2800+         L     R15,=A(DALLOC)                                           01-PROCC
²001A58 0DEF                        2801+         BASR  R14,R15                                                  01-PROCC
²001A5A 18EA                        2802+         LR    R14,R10                                                  01-PROCC
²001A5C 18A0                        2803          LR    R10,R0                                                   00122407
i                                   2804          WTO   'DALLOCED'                                               00122500
²                                                                                                               Page   52
  Active Usings: S99TUNIT,R8  USA,R11  PREPMDL+X'6',R12  PREPMDL_SAVE,R13
  Loc  Object Code    Addr1 Addr2  Stmt   Source Statement                                  HLASM R6.0  2014/07/08 18.32
²001A5E 0700                        2806+         CNOP  0,4                                                      01-WTO
²001A60 A715 0008            01A70  2807+         BRAS  1,IHB0212A               BRANCH AROUND MESSAGE      @LCC 01-WTO
²001A64 000C                        2808+         DC    AL2(12)                  TEXT LENGTH            @YA17152 01-WTO
²001A66 0000                        2809+         DC    B'0000000000000000'      MCSFLAGS                        01-WTO
²001A68 C4C1D3D3D6C3C5C4            2810+         DC    C'DALLOCED'              MESSAGE TEXT               @L6C 01-WTO
²001A70                             2811+IHB0212A DS    0H                                                       01-WTO
001A70 0A23                        2812+         SVC   35                       ISSUE SVC 35               @L6A 01-WTO
²                                   2814 *        LA    R4,DDNAMLST                                              00122711
²                                   2815 *        OPEN  (DEBUG,OUTPUT)                                           00122813
²                                   2816 *        GET   DEBUG,(R4)                                               00122913
²                                   2817 *        CLOSE (DEBUG)                                                  00123013
²                                   2818          LINK  EP=AMASPZAP,PARAM=(0,(R4)),VL=1                          00123210
²001A72 5040 C41A            01A88  2822+         ST    (R4),IHB0216+4                    STORE INTO PARAM. LIST 02-IHBOP
²001A76 9680 C41A      01A88        2823+         OI    IHB0216+4,X'80'                   SET LAST BIT  @ZMC3742 02-IHBOP
²001A7A 0700                        2824+         CNOP  0,4                                                      02-IHBOP
²001A7C 4110 C416            01A84  2825+         LA    1,IHB0216                         LIST ADDRESS  @ZMC3742 02-IHBOP
²001A80 47F0 C41E            01A8C  2826+         B     IHB0216A                          BYPASS LIST   @ZMC3742 02-IHBOP
²                      01A84        2827+IHB0216  EQU   *                                                        02-IHBOP
²001A84 00000000                    2828+         DC    A(0)                PROB.PROG.PARAMETER                  02-IHBOP
²001A88 00000000                    2829+         DC    A(0)                              PROB. PROG. PARAMETER  02-IHBOP
²                      01A8C        2830+IHB0216A EQU   *                                                        02-IHBOP
²001A8C                             2833+         CNOP  0,4                                                      02-IHBIN
²001A8C 45F0 C432            01AA0  2834+         BAL   15,*+20            BRANCH AROUND CONSTANTS               02-IHBIN
²001A90 00001A98                    2835+         DC    A(*+8)             ADDR. OF PARM. LIST                   02-IHBIN
²001A94 00000000                    2836+         DC    A(0)                DCB ADDRESS PARAMETER                02-IHBIN
²001A98 C1D4C1E2D7E9C1D7            2837+         DC    CL8'AMASPZAP'       EP PARAMETER                         02-IHBIN
²001AA0 0A06                        2838+         SVC   6                   ISSUE LINK SVC              @G381P2A 01-LINK
²001AA2 1722                        2839          XR    R2,R2                      DELETE FORMED PARAM           00123300
²001AA4 4820 9000            00000  2840          LH    R2,0(,R9)                                                00123400
²001AA8 A72A 0002            00002  2841          AHI   R2,X'0002'                                               00123500
²                                   2842       FREEMAIN RU,LV=(R2),A=(R9)                                        00123600
²001AAC                             2844+         CNOP  0,4                                                      01-FREEM
²001AAC 47F0 C446            01AB4  2845+         B     *+12-4*1-2*0                BRANCH AROUND DATA @O2C      01-FREEM
²001AB0 00                          2846+IHB0220F DC    BL1'00000000'            Flags              @O2A         01-FREEM
²001AB1 00                          2847+         DC    AL1(0)                            RESERVED               01-FREEM
²001AB2 00                          2848+         DC    AL1(0)                            SUBPOOL NUMBER         01-FREEM
²001AB3 03                          2849+         DC    BL1'00000011'                     MODE BYTE              01-FREEM
²001AB4 1802                        2850+         LR    0,R2                              LOAD LENGTH            01-FREEM
²001AB6 1819                        2851+         LR    1,R9                              LOAD AREA ADDRESS      01-FREEM
²001AB8 58F0 C442            01AB0  2852+         L     15,IHB0220F                       LOAD PARAMETERS        01-FREEM
001ABC 0A78                        2853+         SVC   120                               ISSUE FREEMAIN SVC     01-FREEM
²                                   2855          WTO   'AP WAS ZAPPED'                                          00123800
²001ABE 0700                        2857+         CNOP  0,4                                                      01-WTO
²001AC0 A715 000B            01AD6  2858+         BRAS  1,IHB0222A               BRANCH AROUND MESSAGE      @LCC 01-WTO
²001AC4 0011                        2859+         DC    AL2(17)                  TEXT LENGTH            @YA17152 01-WTO
²001AC6 0000                        2860+         DC    B'0000000000000000'      MCSFLAGS                        01-WTO
²001AC8 C1D740E6C1E240E9            2861+         DC    C'AP WAS ZAPPED'         MESSAGE TEXT               @L6C 01-WTO
²001AD6                             2862+IHB0222A DS    0H                                                       01-WTO
²001AD6 0A23                        2863+         SVC   35                       ISSUE SVC 35               @L6A 01-WTO
²                                   2864          DROP  R11                                                      00123900
²                                   2865 PREPMDL  PROCEND                                                        00124000
²001AD8 47F0 C486            01AF4  2866+         B     L#8                                                      01-PROCE
i001AE0                             2867+         LTORG                                                          01-PROCE
²                                                                                                               Page   53
  Active Usings: S99TUNIT,R8  PREPMDL+X'6',R12  PREPMDL_SAVE,R13
  Loc  Object Code    Addr1 Addr2  Stmt   Source Statement                                  HLASM R6.0  2014/07/08 18.32
²001AE0 00000000                    2868                =X'00000000'
²001AE4 00000006                    2869                =X'00000006'
²001AE8 47F0C00C                    2870                =X'47F0C00C'
²001AEC 00000F00                    2871                =A(SPZPGEN)
²001AF0 000007A0                    2872                =A(DALLOC)
²                      01AF4        2873+L#8      EQU   *                                                        01-PROCE
²001AF4 182D                        2874+         LR    R2,R13                                                   01-PROCE
²001AF6 58D0 D004            00004  2875+         L     R13,PREPMDL_OLD_SAVE                                     01-PROCE
²001AFA 5000 D014            00014  2876+         ST    R0,PREPMDL_SAVE_R0                                       01-PROCE
²001AFE 5010 D018            00018  2877+         ST    R1,PREPMDL_SAVE_R1                                       01-PROCE
²001B02 18FF                        2878+         LR    R15,R15                                                  01-PROCE
²001B04 50F0 D010            00010  2879+         ST    R15,PREPMDL_SAVE_R15                                     01-PROCE
²001B08                             2882+         CNOP  0,4                                                      02-FREEM
²001B08 47F0 C4A6            01B14  2883+         B     *+12-4*0-2*0                BRANCH AROUND DATA @O2C      02-FREEM
²001B0C 00000048                    2884+         DC    A(PREPMDL_SAVELEN)                LENGTH                 02-FREEM
²001B10 00                          2885+IHB0225F DC    BL1'00000000'            Flags              @O2A         02-FREEM
²001B11 00                          2886+         DC    AL1(0)                            RESERVED               02-FREEM
²001B12 00                          2887+         DC    AL1(0)                            SUBPOOL NUMBER         02-FREEM
²001B13 03                          2888+         DC    BL1'00000011'                     MODE BYTE              02-FREEM
²001B14 5800 C49E            01B0C  2889+         L     0,*-8+2*0                         LOAD LENGTH            02-FREEM
²001B18 1812                        2890+         LR    1,R2                              LOAD AREA ADDRESS      02-FREEM
²001B1A 58F0 C4A2            01B10  2891+         L     15,IHB0225F                       LOAD PARAMETERS        02-FREEM
²001B1E 0A78                        2892+         SVC   120                               ISSUE FREEMAIN SVC     02-FREEM
²001B20 98EC D00C            0000C  2893+         LM    R14,R12,12(R13)                                          01-PROCE
²                                   2894+         DROP  R12                                                      01-PROCE
²                 R:C  01B24        2895+         USING *,R12                                                    01-PROCE
²                                   2896+         DROP  R13                                                      01-PROCE
001B24 07FE                        2897+         BR    14                                                       01-PROCE
²                                   2899 *====================================================================== 00124200
²                                   2900 GETINIT  PROCBGN                                                        00124300
²                 R:D  00000        2901+         USING GETINIT_SAVE,R13            SET SA ADDRESSATION          01-PROCB
²001B28                01B28 0024A  2902+GETINIT  CSECT                                                          01-PROCB
²                                   2903+GETINIT  AMODE 31                                                       01-PROCB
²                                   2904+GETINIT  RMODE 24                                                       01-PROCB
²001B28 90EC D00C            0000C  2905+         STM   R14,R12,12(R13)             STORE REGISTERS              01-PROCB
²001B2C 0DC0                        2906+         BASR  R12,0                                                    01-PROCB
²                 R:C  01B2E        2907+         USING *,R12                       SET ADDRESSATION             01-PROCB
²001B2E 0700                        2910+         CNOP  0,4                                                      02-GETMA
²001B30 47F0 C00E            01B3C  2911+         B     IHB0228C           BRANCH AROUND DATA                    02-GETMA
²001B34 00000048                    2912+IHB0228L DC    A(GETINIT_SAVELEN) LENGTH                                02-GETMA
²001B38 00                          2913+IHB0228F DC    BL1'00000000'                         Flags.        @L7C 02-GETMA
²001B39 00                          2914+         DC    AL1(0)             RESERVED                              02-GETMA
²001B3A 00                          2915+         DC    AL1(0)             SUBPOOL                               02-GETMA
²001B3B 72                          2916+         DC    BL1'01110010'                 MODE BYTE         @G860P30 02-GETMA
²001B3C                             2917+IHB0228C DS     0H                                                      02-GETMA
²001B3C 5800 C006            01B34  2918+         L     0,IHB0228L         LOAD LENGTH                           02-GETMA
²001B40 58F0 C00A            01B38  2919+         L     15,IHB0228F                       LOAD GETMAIN PARMS     02-GETMA
²001B44 1B11                        2920+         SR    1,1                     ZERO RESERVED REG 1              02-GETMA
²001B46 0A78                        2921+         SVC   120                     ISSUE GETMAIN SVC                02-GETMA
²001B48 1831                        2922+         LR    R3,R1                       R3:=R1                       01-PROCB
²001B4A 5800 D014            00014  2923+         L     R0,GETINIT_SAVE_R0                                       01-PROCB
²001B4E 5810 D018            00018  2924+         L     R1,GETINIT_SAVE_R1                                       01-PROCB
²001B52 58F0 D010            00010  2925+         L     R15,GETINIT_SAVE_R15        RESTORE R0,R1,R15            01-PROCB
i001B56 50D3 0004            00004  2926+         ST    R13,4(R3)                   STORE OLD SA                 01-PROCB
²                                                                                                               Page   54
  Active Usings: S99TUNIT,R8  GETINIT+X'6',R12  GETINIT_SAVE,R13
  Loc  Object Code    Addr1 Addr2  Stmt   Source Statement                                  HLASM R6.0  2014/07/08 18.32
²001B5A 182D                        2927+         LR    R2,R13                                                   01-PROCB
²001B5C 18D3                        2928+         LR    R13,R3                      SET NEW SA                   01-PROCB
²001B5E 50D2 0008            00008  2929+         ST    R13,8(R2)                   STORE ADDR OF NEW SA TO OLD  01-PROCB
²                                   2930+*CREATE DSECT FOR SAVEAREA
²000000                00000 00048  2931+GETINIT_SAVE DSECT                                                      01-PROCB
²000000                             2932+GETINIT_SAVE_AREA DS 0C                                                 01-PROCB
²000000                             2933+GETINIT_RESERVED  DS 1F                                                 01-PROCB
²000004                             2934+GETINIT_OLD_SAVE  DS A                                                  01-PROCB
²000008                             2935+GETINIT_NEW_SAVE  DS A                                                  01-PROCB
²00000C                             2936+GETINIT_SAVE_R14  DS 1F                                                 01-PROCB
²000010                             2937+GETINIT_SAVE_R15  DS 1F                                                 01-PROCB
²000014                             2938+GETINIT_SAVE_R0  DS 1F                                                  01-PROCB
²000018                             2939+GETINIT_SAVE_R1  DS 1F                                                  01-PROCB
²00001C                             2940+GETINIT_SAVE_R2  DS 1F                                                  01-PROCB
²000020                             2941+GETINIT_SAVE_R3  DS 1F                                                  01-PROCB
²000024                             2942+GETINIT_SAVE_R4  DS 1F                                                  01-PROCB
²000028                             2943+GETINIT_SAVE_R5  DS 1F                                                  01-PROCB
²00002C                             2944+GETINIT_SAVE_R6  DS 1F                                                  01-PROCB
²000030                             2945+GETINIT_SAVE_R7  DS 1F                                                  01-PROCB
²000034                             2946+GETINIT_SAVE_R8  DS 1F                                                  01-PROCB
²000038                             2947+GETINIT_SAVE_R9  DS 1F                                                  01-PROCB
²00003C                             2948+GETINIT_SAVE_R10 DS 1F                                                  01-PROCB
²000040                             2949+GETINIT_SAVE_R11 DS 1F                                                  01-PROCB
²000044                             2950+GETINIT_SAVE_R12 DS 1F                                                  01-PROCB
²                      00048        2951+GETINIT_SAVELEN EQU *-GETINIT_SAVE_AREA                                 01-PROCB
²001B62                01B28 0024A  2952+GETINIT  CSECT                                                          01-PROCB
²                                   2953 *INIT GETS ADDRESS OF PARM AREA INTO R1                                 00124400
²001B62 5860 1000            00000  2954          L     R6,0(,R1)                                                00124500
²001B66 A566 7FFF            07FFF  2955          NILH  R6,B'0111111111111111'                                   00124600
²                                   2956 *        GETM  RU,LV=4,LOC=ANY                                          00124700
²                                   2957 *        WTO   'HEY'                                                    00124800
²                                   2958 *        OPEN  (OUT,DEBUG)                                              00124900
²                                   2959 *        B     SKIP#45                                                  00125000
²                                   2960 *EMAR#45 DS    18F                                                      00125100
²                                   2961 *KIP#45  EQU   *                                                        00125200
²                                   2962 *       PUTINT DEBUG,(R3*                                               00125300
²                                   2963 *      GETMAIN RU,LV=400000,LOC=ANY                                     00125400
²                                   2964 *      GETMAIN RU,LV=400000,LOC=ANY                                     00125500
²                                   2965 *        DC    X'00000000'                                              00125600
²                                   2966        GETMAIN RU,LV=USA#,LOC=ANY         CREATE USA                    00125700
²001B6A 0700                        2968+         CNOP  0,4                                                      01-GETMA
²001B6C 47F0 C04A            01B78  2969+         B     IHB0230C           BRANCH AROUND DATA                    01-GETMA
²001B70 000000A0                    2970+IHB0230L DC    A(USA#)            LENGTH                                01-GETMA
²001B74 00                          2971+IHB0230F DC    BL1'00000000'                         Flags.        @L7C 01-GETMA
²001B75 00                          2972+         DC    AL1(0)             RESERVED                              01-GETMA
²001B76 00                          2973+         DC    AL1(0)             SUBPOOL                               01-GETMA
²001B77 72                          2974+         DC    BL1'01110010'                 MODE BYTE         @G860P30 01-GETMA
²001B78                             2975+IHB0230C DS     0H                                                      01-GETMA
²001B78 5800 C042            01B70  2976+         L     0,IHB0230L         LOAD LENGTH                           01-GETMA
²001B7C 58F0 C046            01B74  2977+         L     15,IHB0230F                       LOAD GETMAIN PARMS     01-GETMA
²001B80 1B11                        2978+         SR    1,1                     ZERO RESERVED REG 1              01-GETMA
²001B82 0A78                        2979+         SVC   120                     ISSUE GETMAIN SVC                01-GETMA
²001B84 18B1                        2980          LR    R11,R1                                                   00125800
i                 R:B  00000        2981          USING USA,R11           ESTABLISH ADDRESSABILITY               00125900
²                                                                                                               Page   55
  Active Usings: S99TUNIT,R8  USA,R11  GETINIT+X'6',R12  GETINIT_SAVE,R13
  Loc  Object Code    Addr1 Addr2  Stmt   Source Statement                                  HLASM R6.0  2014/07/08 18.32
²001B86 1722                        2983          XR    R2,R2                                                    00126100
²001B88 A728 0800            00800  2984          LHI   R2,TRTBLSZ        CREATE TRTBL                           00126200
²001B8C 1832                        2985          LR    R3,R2                                                    00126300
²001B8E A73A 0008            00008  2986          AHI   R3,CBHEAD#                                               00126400
²                                   2987        GETMAIN RU,LV=(R3),LOC=ANY                                       00126500
²001B92 0700                        2989+         CNOP  0,4                                                      01-GETMA
²001B94 47F0 C06E            01B9C  2990+         B     IHB0232C           BRANCH AROUND DATA                    01-GETMA
²001B98 00                          2991+IHB0232F DC    BL1'00000000'                         Flags.        @L7C 01-GETMA
²001B99 00                          2992+         DC    AL1(0)             RESERVED                              01-GETMA
²001B9A 00                          2993+         DC    AL1(0)             SUBPOOL                               01-GETMA
²001B9B 72                          2994+         DC    BL1'01110010'                 MODE BYTE         @G860P30 01-GETMA
²001B9C                             2995+IHB0232C DS     0H                                                      01-GETMA
²001B9C 1803                        2996+         LR    0,R3               LOAD LENGTH                  @ZA07133 01-GETMA
²001B9E 58F0 C06A            01B98  2997+         L     15,IHB0232F                       LOAD GETMAIN PARMS     01-GETMA
²001BA2 1B11                        2998+         SR    1,1                     ZERO RESERVED REG 1              01-GETMA
²001BA4 0A78                        2999+         SVC   120                     ISSUE GETMAIN SVC                01-GETMA
²001BA6 5010 B008            00008  3000          ST    R1,TRTBL@                                                00126600
²001BAA 5020 1000            00000  3001          ST    R2,0(,R1)         STORE LENGTH                           00126700
²001BAE 1722                        3002          XR    R2,R2                                                    00126800
001BB0 5021 0004            00004  3003          ST    R2,4(R1)          STORE POS                              00126900
²001BB4 1722                        3005          XR    R2,R2             RECB IS CREATED IN CREATERECB          00127100
001BB6 5020 B00C            0000C  3006          ST    R2,RECB@                                                 00127200
²001BBA 1722                        3008          XR    R2,R2                                                    00127400
²001BBC A728 0200            00200  3009          LHI   R2,ICBSZ          CREATE ICB                             00127500
²001BC0 1832                        3010          LR    R3,R2                                                    00127600
²001BC2 A73A 0008            00008  3011          AHI   R3,CBHEAD#                                               00127700
²                                   3012        GETMAIN RU,LV=(R3),LOC=ANY                                       00127800
²001BC6 0700                        3014+         CNOP  0,4                                                      01-GETMA
²001BC8 47F0 C0A2            01BD0  3015+         B     IHB0234C           BRANCH AROUND DATA                    01-GETMA
²001BCC 00                          3016+IHB0234F DC    BL1'00000000'                         Flags.        @L7C 01-GETMA
²001BCD 00                          3017+         DC    AL1(0)             RESERVED                              01-GETMA
²001BCE 00                          3018+         DC    AL1(0)             SUBPOOL                               01-GETMA
²001BCF 72                          3019+         DC    BL1'01110010'                 MODE BYTE         @G860P30 01-GETMA
²001BD0                             3020+IHB0234C DS     0H                                                      01-GETMA
²001BD0 1803                        3021+         LR    0,R3               LOAD LENGTH                  @ZA07133 01-GETMA
²001BD2 58F0 C09E            01BCC  3022+         L     15,IHB0234F                       LOAD GETMAIN PARMS     01-GETMA
²001BD6 1B11                        3023+         SR    1,1                     ZERO RESERVED REG 1              01-GETMA
²001BD8 0A78                        3024+         SVC   120                     ISSUE GETMAIN SVC                01-GETMA
²001BDA 5010 B018            00018  3025          ST    R1,ICB@                                                  00127900
²001BDE 5021 0000            00000  3026          ST    R2,0(R1)          STORE LENGTH                           00128000
²001BE2 1722                        3027          XR    R2,R2                                                    00128100
001BE4 5021 0004            00004  3028          ST    R2,4(R1)          STORE POS                              00128200
²001BE8 1722                        3030          XR    R2,R2                                                    00128400
²001BEA A728 0130            00130  3031          LHI   R2,RSA#           CREATE RSA                             00128500
²                                   3032        GETMAIN RU,LV=(R2),LOC=ANY                                       00128600
²001BEE 0700                        3034+         CNOP  0,4                                                      01-GETMA
²001BF0 47F0 C0CA            01BF8  3035+         B     IHB0236C           BRANCH AROUND DATA                    01-GETMA
²001BF4 00                          3036+IHB0236F DC    BL1'00000000'                         Flags.        @L7C 01-GETMA
²001BF5 00                          3037+         DC    AL1(0)             RESERVED                              01-GETMA
²001BF6 00                          3038+         DC    AL1(0)             SUBPOOL                               01-GETMA
²001BF7 72                          3039+         DC    BL1'01110010'                 MODE BYTE         @G860P30 01-GETMA
i001BF8                             3040+IHB0236C DS     0H                                                      01-GETMA
²                                                                                                               Page   56
  Active Usings: S99TUNIT,R8  USA,R11  GETINIT+X'6',R12  GETINIT_SAVE,R13
  Loc  Object Code    Addr1 Addr2  Stmt   Source Statement                                  HLASM R6.0  2014/07/08 18.32
²001BF8 1802                        3041+         LR    0,R2               LOAD LENGTH                  @ZA07133 01-GETMA
²001BFA 58F0 C0C6            01BF4  3042+         L     15,IHB0236F                       LOAD GETMAIN PARMS     01-GETMA
²001BFE 1B11                        3043+         SR    1,1                     ZERO RESERVED REG 1              01-GETMA
²001C00 0A78                        3044+         SVC   120                     ISSUE GETMAIN SVC                01-GETMA
001C02 5010 B020            00020  3045          ST    R1,RSA@                                                  00128700
²001C06 1722                        3047          XR    R2,R2                                                    00128900
²001C08 A728 0800            00800  3048          LHI   R2,TRTBLSZ        CREATE TOPM                            00129000
²001C0C 1832                        3049          LR    R3,R2                                                    00129100
²001C0E A73A 0008            00008  3050          AHI   R3,CBHEAD#                                               00129200
²                                   3051        GETMAIN RU,LV=(R3),LOC=ANY                                       00129300
²001C12 0700                        3053+         CNOP  0,4                                                      01-GETMA
²001C14 47F0 C0EE            01C1C  3054+         B     IHB0238C           BRANCH AROUND DATA                    01-GETMA
²001C18 00                          3055+IHB0238F DC    BL1'00000000'                         Flags.        @L7C 01-GETMA
²001C19 00                          3056+         DC    AL1(0)             RESERVED                              01-GETMA
²001C1A 00                          3057+         DC    AL1(0)             SUBPOOL                               01-GETMA
²001C1B 72                          3058+         DC    BL1'01110010'                 MODE BYTE         @G860P30 01-GETMA
²001C1C                             3059+IHB0238C DS     0H                                                      01-GETMA
²001C1C 1803                        3060+         LR    0,R3               LOAD LENGTH                  @ZA07133 01-GETMA
²001C1E 58F0 C0EA            01C18  3061+         L     15,IHB0238F                       LOAD GETMAIN PARMS     01-GETMA
²001C22 1B11                        3062+         SR    1,1                     ZERO RESERVED REG 1              01-GETMA
²001C24 0A78                        3063+         SVC   120                     ISSUE GETMAIN SVC                01-GETMA
²001C26 5010 B000            00000  3064          ST    R1,TOPM@                                                 00129400
²001C2A 5021 0000            00000  3065          ST    R2,0(R1)          STORE LENGTH                           00129500
²001C2E 1722                        3066          XR    R2,R2                                                    00129600
001C30 5021 0004            00004  3067          ST    R2,4(R1)          STORE POS                              00129700
²001C34 1722                        3069          XR    R2,R2                                                    00129900
²001C36 A728 0E00            00E00  3070          LHI   R2,DNCBSZ         CREATE DNCB                            00130004
²001C3A 1832                        3071          LR    R3,R2                                                    00130100
²001C3C A73A 0008            00008  3072          AHI   R3,CBHEAD#                                               00130200
²                                   3073        GETMAIN RU,LV=(R3),LOC=ANY                                       00130300
²001C40                             3075+         CNOP  0,4                                                      01-GETMA
²001C40 47F0 C11A            01C48  3076+         B     IHB0240C           BRANCH AROUND DATA                    01-GETMA
²001C44 00                          3077+IHB0240F DC    BL1'00000000'                         Flags.        @L7C 01-GETMA
²001C45 00                          3078+         DC    AL1(0)             RESERVED                              01-GETMA
²001C46 00                          3079+         DC    AL1(0)             SUBPOOL                               01-GETMA
²001C47 72                          3080+         DC    BL1'01110010'                 MODE BYTE         @G860P30 01-GETMA
²001C48                             3081+IHB0240C DS     0H                                                      01-GETMA
²001C48 1803                        3082+         LR    0,R3               LOAD LENGTH                  @ZA07133 01-GETMA
²001C4A 58F0 C116            01C44  3083+         L     15,IHB0240F                       LOAD GETMAIN PARMS     01-GETMA
²001C4E 1B11                        3084+         SR    1,1                     ZERO RESERVED REG 1              01-GETMA
²001C50 0A78                        3085+         SVC   120                     ISSUE GETMAIN SVC                01-GETMA
²001C52 5010 B024            00024  3086          ST    R1,DNCB@                                                 00130404
²001C56 5021 0000            00000  3087          ST    R2,0(R1)          STORE LENGTH                           00130500
²001C5A 1722                        3088          XR    R2,R2                                                    00130600
001C5C 5021 0004            00004  3089          ST    R2,4(R1)          STORE POS                              00130700
²001C60 1722                        3091          XR    R2,R2                                                    00130900
²001C62 A728 000A            0000A  3092          LHI   R2,TOPM#          CREATE TOPM RECORD                     00131000
²                                   3093        GETMAIN RU,LV=(R2),LOC=ANY                                       00131100
²001C66 0700                        3095+         CNOP  0,4                                                      01-GETMA
²001C68 47F0 C142            01C70  3096+         B     IHB0242C           BRANCH AROUND DATA                    01-GETMA
²001C6C 00                          3097+IHB0242F DC    BL1'00000000'                         Flags.        @L7C 01-GETMA
i001C6D 00                          3098+         DC    AL1(0)             RESERVED                              01-GETMA
²                                                                                                               Page   57
  Active Usings: S99TUNIT,R8  USA,R11  GETINIT+X'6',R12  GETINIT_SAVE,R13
  Loc  Object Code    Addr1 Addr2  Stmt   Source Statement                                  HLASM R6.0  2014/07/08 18.32
²001C6E 00                          3099+         DC    AL1(0)             SUBPOOL                               01-GETMA
²001C6F 72                          3100+         DC    BL1'01110010'                 MODE BYTE         @G860P30 01-GETMA
²001C70                             3101+IHB0242C DS     0H                                                      01-GETMA
²001C70 1802                        3102+         LR    0,R2               LOAD LENGTH                  @ZA07133 01-GETMA
²001C72 58F0 C13E            01C6C  3103+         L     15,IHB0242F                       LOAD GETMAIN PARMS     01-GETMA
²001C76 1B11                        3104+         SR    1,1                     ZERO RESERVED REG 1              01-GETMA
²001C78 0A78                        3105+         SVC   120                     ISSUE GETMAIN SVC                01-GETMA
001C7A 5010 B004            00004  3106          ST    R1,RTOPM@                                                00131200
²001C7E 1722                        3108          XR    R2,R2                                                    00131400
²001C80 A728 0010            00010  3109          LHI   R2,RECB#          CREATE RECB RECORD                     00131500
²                                   3110        GETMAIN RU,LV=(R2),LOC=ANY                                       00131600
²001C84                             3112+         CNOP  0,4                                                      01-GETMA
²001C84 47F0 C15E            01C8C  3113+         B     IHB0244C           BRANCH AROUND DATA                    01-GETMA
²001C88 00                          3114+IHB0244F DC    BL1'00000000'                         Flags.        @L7C 01-GETMA
²001C89 00                          3115+         DC    AL1(0)             RESERVED                              01-GETMA
²001C8A 00                          3116+         DC    AL1(0)             SUBPOOL                               01-GETMA
²001C8B 72                          3117+         DC    BL1'01110010'                 MODE BYTE         @G860P30 01-GETMA
²001C8C                             3118+IHB0244C DS     0H                                                      01-GETMA
²001C8C 1802                        3119+         LR    0,R2               LOAD LENGTH                  @ZA07133 01-GETMA
²001C8E 58F0 C15A            01C88  3120+         L     15,IHB0244F                       LOAD GETMAIN PARMS     01-GETMA
²001C92 1B11                        3121+         SR    1,1                     ZERO RESERVED REG 1              01-GETMA
²001C94 0A78                        3122+         SVC   120                     ISSUE GETMAIN SVC                01-GETMA
001C96 5010 B014            00014  3123          ST    R1,RRECB@                                                00131700
²001C9A 1722                        3125          XR    R2,R2                                                    00131900
²001C9C A728 0008            00008  3126          LHI   R2,ICB#           CREATE ICB  RECORD                     00132000
²                                   3127        GETMAIN RU,LV=(R2),LOC=ANY                                       00132100
²001CA0                             3129+         CNOP  0,4                                                      01-GETMA
²001CA0 47F0 C17A            01CA8  3130+         B     IHB0246C           BRANCH AROUND DATA                    01-GETMA
²001CA4 00                          3131+IHB0246F DC    BL1'00000000'                         Flags.        @L7C 01-GETMA
²001CA5 00                          3132+         DC    AL1(0)             RESERVED                              01-GETMA
²001CA6 00                          3133+         DC    AL1(0)             SUBPOOL                               01-GETMA
²001CA7 72                          3134+         DC    BL1'01110010'                 MODE BYTE         @G860P30 01-GETMA
²001CA8                             3135+IHB0246C DS     0H                                                      01-GETMA
²001CA8 1802                        3136+         LR    0,R2               LOAD LENGTH                  @ZA07133 01-GETMA
²001CAA 58F0 C176            01CA4  3137+         L     15,IHB0246F                       LOAD GETMAIN PARMS     01-GETMA
²001CAE 1B11                        3138+         SR    1,1                     ZERO RESERVED REG 1              01-GETMA
²001CB0 0A78                        3139+         SVC   120                     ISSUE GETMAIN SVC                01-GETMA
001CB2 5010 B01C            0001C  3140          ST    R1,RICB@                                                 00132200
²001CB6 1722                        3142          XR    R2,R2                                                    00132400
²001CB8 A728 0038            00038  3143          LHI   R2,DNCB#          CREATE DNCB   RECORD                   00132504
²                                   3144        GETMAIN RU,LV=(R2),LOC=ANY                                       00132600
²001CBC                             3146+         CNOP  0,4                                                      01-GETMA
²001CBC 47F0 C196            01CC4  3147+         B     IHB0248C           BRANCH AROUND DATA                    01-GETMA
²001CC0 00                          3148+IHB0248F DC    BL1'00000000'                         Flags.        @L7C 01-GETMA
²001CC1 00                          3149+         DC    AL1(0)             RESERVED                              01-GETMA
²001CC2 00                          3150+         DC    AL1(0)             SUBPOOL                               01-GETMA
²001CC3 72                          3151+         DC    BL1'01110010'                 MODE BYTE         @G860P30 01-GETMA
²001CC4                             3152+IHB0248C DS     0H                                                      01-GETMA
²001CC4 1802                        3153+         LR    0,R2               LOAD LENGTH                  @ZA07133 01-GETMA
²001CC6 58F0 C192            01CC0  3154+         L     15,IHB0248F                       LOAD GETMAIN PARMS     01-GETMA
²001CCA 1B11                        3155+         SR    1,1                     ZERO RESERVED REG 1              01-GETMA
i001CCC 0A78                        3156+         SVC   120                     ISSUE GETMAIN SVC                01-GETMA
²                                                                                                               Page   58
  Active Usings: S99TUNIT,R8  USA,R11  GETINIT+X'6',R12  GETINIT_SAVE,R13
  Loc  Object Code    Addr1 Addr2  Stmt   Source Statement                                  HLASM R6.0  2014/07/08 18.32
²001CCE 5010 B028            00028  3157          ST    R1,RDNCB@                                                00132704
                                   3158 *HERE WILL BE READER OF INSTRUCTIONS FROM DCB INTO ICB INSTEAD OF THIS: 00132900
²001CD2 47F0 C1DE            01D0C  3160          B     DATA#1                                                   00133100
²001CD8                             3161          DS    0F                                                       00133200
²001CD8 C8D6D3C1F1404040            3162 T1       DC    CL8'HOLA1   '                                            00133300
²001CE0 D3D6D3D2C1404040            3163 T2       DC    CL8'LOLKA   '                                            00133400
²001CE8 0005                        3164          DC    X'0005'                                                  00133500
²001CEA C4E3C5E2E3E3E3E3            3165 T3       DC    CL8'DTESTTTT'                                            00133600
²001CF2 0015                        3166 T4       DC    X'0015'                                                  00133700
²001CF4 C5D4C3D7D9D6D14B            3167          DC    CL21'EMCPROJ.OUTPUT(DEBUG)'                              00133800
²001D0C                             3168          DS    0F                                                       00133900
²001D0C                             3169          DS    0F                                                       00134100
²                                   3170 *EBUG    DCB   DDNAME=DEBUG,DSORG=PS,MACRF=(PM)                         00134217
                      01D0C        3171 DATA#1   EQU   *                                                        00134300
²                                   3173 *HERE WE WILL PREPARE MODULE TO PROCESSING                              00134500
²                                   3174 *SPZPGENTEST======================                                      00134600
²                                   3175 *     PROCCALL NAME=SPZPGEN,(R10)                                       00134700
²                                   3176 *        LR    R5,R0                                                    00134800
²                                   3177 *        OPEN  (DEBUG,OUTPUT)                                           00134900
²                                   3178 *        PUT   DEBUG,(R5)                                               00135000
²                                   3179 *        CLOSE (DEBUG)                                                  00135100
²                                   3180 *DYNAMICALLOCATIONTEST============                                      00135200
²                                   3181 *        LA    R0,T4                                                    00135300
²                                   3182 *        LA    R1,T3                                                    00135400
²                                   3183 *     PROCCALL NAME=DALLOC,(R10)                                        00135500
²                                   3184 *        LR    R5,R0                                                    00135600
²                                   3185 *        OPEN  (DEBUG,OUTPUT)                                           00135700
²                                   3186 *        PUT   DEBUG,T1                                                 00135800
²                                   3187 *        CLOSE (DEBUG)                                                  00135900
²                                   3188 *        LR    R0,R5                                                    00136000
²                                   3189 *     PROCCALL NAME=DUNALLOC,(R10)                                      00136100
²                                   3190 *CRSZTESTTEST=====================                                      00136200
²                                   3191 *     CRSZPARM 'TYTYTYTY',T2,(R9)                                       00136300
²                                   3192 *        OPEN  (DEBUG,OUTPUT)                                           00136400
²                                   3193 *        PUT   DEBUG,(R9)                                               00136500
²                                   3194 *        CLOSE (DEBUG)                                                  00136600
²                                   3195 *CREATERECBTEST===================                                      00136700
²                                   3196 *        OPEN  (DEBUG,OUTPUT)                                           00136800
²                                   3197 *        WTO   'BEFORE RECB'                                            00136900
²                                   3198 *        XR    R10,R10                                                  00137000
²                                   3199 *   CREATERECB (R7),(R10)                                               00137100
²                                   3200 *   CREATERECB (R7),(R10)                                               00137200
²                                   3201 *   CREATERECB (R7),(R10)                                               00137300
²                                   3202 *        USING CBHEAD,R10                                               00137400
²                                   3203 *        LR    R6,R10                                                   00137500
²                                   3204 *        PUT   DEBUG,(R6)                                               00137600
²                                   3205 *        L     R6,NEXT@                                                 00137700
²                                   3206 *        PUT   DEBUG,(R6)                                               00137800
²                                   3207 *        L     R6,NEXT@                                                 00137900
²                                   3208 *        PUT   DEBUG,(R6)                                               00138000
²                                   3209 *        CLOSE (DEBUG)                                                  00138100
²                                   3210 *        DROP  R6                                                       00138200
i                                   3211 *==================================                                     00138300
²                                                                                                               Page   59
  Active Usings: S99TUNIT,R8  USA,R11  GETINIT+X'6',R12  GETINIT_SAVE,R13
  Loc  Object Code    Addr1 Addr2  Stmt   Source Statement                                  HLASM R6.0  2014/07/08 18.32
²                                   3212 *COMMENTED PART                                                         00138400
²001D0C 180B                        3213          LR    R0,R11            PARSE SYSIN                            00138500
²                                   3214       PROCCALL NAME=INPARSE,(R10)                                       00138601
²001D0E 18AE                        3215+         LR    R10,R14                                                  01-PROCC
²001D10 58F0 C20A            01D38  3216+         L     R15,=A(INPARSE)                                          01-PROCC
²001D14 0DEF                        3217+         BASR  R14,R15                                                  01-PROCC
001D16 18EA                        3218+         LR    R14,R10                                                  01-PROCC
²001D18 1810                        3220          LR    R1,R0             PREPARE MAIN MODULE                    00139300
²001D1A 180B                        3221          LR    R0,R11                                                   00139400
²                                   3222       PROCCALL NAME=PREPMDL,(R10)                                       00139501
²001D1C 18AE                        3223+         LR    R10,R14                                                  01-PROCC
²001D1E 58F0 C20E            01D3C  3224+         L     R15,=A(PREPMDL)                                          01-PROCC
²001D22 0DEF                        3225+         BASR  R14,R15                                                  01-PROCC
²001D24 18EA                        3226+         LR    R14,R10                                                  01-PROCC
²001D26 5810 B014            00014  3227          L     R1,RRECB@                                                00139600
²001D2A 5010 B010            00010  3228          ST    R1,CRECB@                                                00139700
²                                   3229          DROP  R11                                                      00139800
²                                   3230 GETINIT  PROCEND RC=(R15)                                               00139900
²001D2E 47F0 C212            01D40  3231+         B     L#9                                                      01-PROCE
²001D38                             3232+         LTORG                                                          01-PROCE
²001D38 00000018                    3233                =A(INPARSE)
²001D3C 00001668                    3234                =A(PREPMDL)
²                      01D40        3235+L#9      EQU   *                                                        01-PROCE
²001D40 182D                        3236+         LR    R2,R13                                                   01-PROCE
²001D42 58D0 D004            00004  3237+         L     R13,GETINIT_OLD_SAVE                                     01-PROCE
²001D46 5000 D014            00014  3238+         ST    R0,GETINIT_SAVE_R0                                       01-PROCE
²001D4A 5010 D018            00018  3239+         ST    R1,GETINIT_SAVE_R1                                       01-PROCE
²001D4E 18FF                        3240+         LR    R15,R15                                                  01-PROCE
²001D50 50F0 D010            00010  3241+         ST    R15,GETINIT_SAVE_R15                                     01-PROCE
²001D54                             3244+         CNOP  0,4                                                      02-FREEM
²001D54 47F0 C232            01D60  3245+         B     *+12-4*0-2*0                BRANCH AROUND DATA @O2C      02-FREEM
²001D58 00000048                    3246+         DC    A(GETINIT_SAVELEN)                LENGTH                 02-FREEM
²001D5C 00                          3247+IHB0253F DC    BL1'00000000'            Flags              @O2A         02-FREEM
²001D5D 00                          3248+         DC    AL1(0)                            RESERVED               02-FREEM
²001D5E 00                          3249+         DC    AL1(0)                            SUBPOOL NUMBER         02-FREEM
²001D5F 03                          3250+         DC    BL1'00000011'                     MODE BYTE              02-FREEM
²001D60 5800 C22A            01D58  3251+         L     0,*-8+2*0                         LOAD LENGTH            02-FREEM
²001D64 1812                        3252+         LR    1,R2                              LOAD AREA ADDRESS      02-FREEM
²001D66 58F0 C22E            01D5C  3253+         L     15,IHB0253F                       LOAD PARAMETERS        02-FREEM
²001D6A 0A78                        3254+         SVC   120                               ISSUE FREEMAIN SVC     02-FREEM
²001D6C 98EC D00C            0000C  3255+         LM    R14,R12,12(R13)                                          01-PROCE
²                                   3256+         DROP  R12                                                      01-PROCE
²                 R:C  01D70        3257+         USING *,R12                                                    01-PROCE
²                                   3258+         DROP  R13                                                      01-PROCE
²001D70 07FE                        3259+         BR    14                                                       01-PROCE
²                                   3260 *====================================================================== 00140000
                      01D72        3261 RETRY    EQU   *                                                        00140100
²                                   3263 *TEMP AREA. HERE IS CONSTANTS FOR BETA VERSION OF PROGRAM               00140300
                                   3264 *LIST OF INTERRUPTED INSTRUCTIONS:SVC6,SVC7,SVC8,BALR,BCR               00140400
i                                   3266 *TEMR AREA END                                                          00140600
²                                                                                                               Page   60
  Active Usings: S99TUNIT,R8  GETINIT+X'248',R12
D-Loc  Object Code    Addr1 Addr2  Stmt   Source Statement                                  HLASM R6.0  2014/07/08 18.32
²000000                00000 00010  3269 CBHEAD   DSECT                                                          00140900
²000000                             3270 LENGTH   DS    F             LENGTH OF RECORDS                          00141000
²000004                             3271 POS      DS    F             POSITION FOR INSERTING OF RECORDS          00141100
²                      00008        3272 CBHEAD#  EQU   *-LENGTH      EXTENDED HEADER                            00141200
²000008                             3273 NEXT@    DS    F             NEXT CB                                    00141300
²00000C                             3274 ID@      DS    F             ID OF CURRENT MODULE(ADDR IN TOPM)         00141400
                      00010        3275 CBHEADE# EQU   *-LENGTH                                                 00141500
²000000                00000 00020  3277 TRTBL    DSECT                                                          00141704
²                                   3278 *HEADER                                                                 00141804
²                                   3279 *TRACE TABLE                                                            00141904
²000000                             3280 CRMN     DS    F             ADDR OF CURRENT MODULE IN TOPM             00142000
²000008                             3281 ADEP@    DS    FD            ADDR OF DEP POINT                          00142100
²000010                             3282 CDMN     DS    F             ADDR OF DESTINATION MODULE IN TOPM         00142200
²000018                             3283 ADNP     DS    FD            ADDR OF DEST POINT                         00142300
                      00020        3284 TRTBL#   EQU   *-CRMN                                                   00142400
²000000                00000 00130  3286 RSA      DSECT                                                          00142600
²                                   3287 *RETRY SUPPLY AREA                                                      00143004
²000000                             3288 PSW      DS    CL16          PSW                                        00150000
²000010                             3289 SAVEAREA DS    CL144         SAVEAREA                                   00160000
²0000A0                             3290 OLDREG   DS    CL144         REGISTERS FOR RESTORE                      00170000
                      00130        3291 RSA#     EQU   *-PSW                                                    00180000
²000000                00000 000A0  3293 USA      DSECT                                                          00200000
²                                   3294 *USER SUPPLIED AREA                                                     00201004
²000000                             3295 TOPM@    DS    F                                                        00210000
²000004                             3296 RTOPM@   DS    F                                                        00211000
²000008                             3297 TRTBL@   DS    F                                                        00220000
²00000C                             3298 RECB@    DS    F                                                        00230000
²000010                             3299 CRECB@   DS    F                                                        00231000
²000014                             3300 RRECB@   DS    F                                                        00232000
²000018                             3301 ICB@     DS    F                                                        00240000
²00001C                             3302 RICB@    DS    F                                                        00250000
²000020                             3303 RSA@     DS    F                                                        00260000
²000024                             3304 DNCB@    DS    F                                                        00261004
²000028                             3305 RDNCB@   DS    F                                                        00270004
²00002C                             3306 RETRY@   DS    F                                                        00271000
²000030                             3307 _PDSN    DS    H                  LENGTH OF PDSN                        00271100
²000032                             3308 PDSN     DS    CL54               PDSN IS LIBRARY FOR BINARIES OF AP    00272000
²000068                             3309 _LPDSN   DS    H                  LENGTH OF PDSN                        00273000
²00006A                             3310 LPDSN    DS    CL54              LPDSN IS LIBRARY FOR LISTINGS OF AP    00274000
                      000A0        3311 USA#     EQU   *-TOPM@                                                  00276000
²000000                00000 0000A  3313 TOPM     DSECT                                                          00280000
²                                   3314 *HEADER                                                                 00281000
²                                   3315 *TABLE OF PREPARED MODULES                                              00282004
²000000                             3316 _PMN     DS    H                  LENGTH OF MODULE NAME                 00283000
²000002                             3317 PMN      DS    CL8                MODULE NAME                           00290000
                      0000A        3318 TOPM#    EQU   *-_PMN                                                   00301000
²000000                00000 00038  3320 DNCB     DSECT                                                          00301204
²                                   3321 *HEADER                           DATA SET NAME CONTROL BLOCK           00301304
²000000                             3322 _LIBRARY DS    H                                                        00301400
i000002                             3323 LIBRARY  DS    CL44               REPRESENTATION OF DATA SET NAME       00301500
²                                                                                                               Page   61
  Active Usings: S99TUNIT,R8  GETINIT+X'248',R12
D-Loc  Object Code    Addr1 Addr2  Stmt   Source Statement                                  HLASM R6.0  2014/07/08 18.32
²00002E                             3324 _MEMBER  DS    H                                                        00301600
²000030                             3325 MEMBER   DS    CL8                                                      00301700
                      00038        3326 DNCB#    EQU   *-_LIBRARY                                               00301804
²000000                00000 00010  3328 RECB     DSECT                                                          00320000
²                                   3329 *EXTENDED HEADER                                                        00321000
²                                   3330 *RESTORE CONTROL BLOCK                                                  00322004
²000000                             3331 OFFSET   DS    FD                                                       00340000
²000008                             3332 INSTR    DS    FD                                                       00350000
                      00010        3333 RECB#    EQU   *-OFFSET                                                 00350100
²000000                00000 00008  3335 ICB      DSECT                                                          00360000
²                                   3336 *HEADER                                                                 00370000
²                                   3337 *INSTRUCTION CONTROL BLOCK                                              00371004
²000000                             3338 IC       DS    CL8                                                      00380015
                      00008        3339 ICB#     EQU   *-IC                                                     00381000
²                                   3341          LCLA  &SIZE                                                    00383000
²                                   3342 &SIZE    SETA  64*RECB#                                                 00384000
²                                   3343 RECBSZ   EQU   &SIZE                                                    00385000
                      00400            +RECBSZ   EQU   1024                                                     00385000
²                                   3345 &SIZE    SETA  64*ICB#                                                  00385200
²                                   3346 ICBSZ    EQU   &SIZE                                                    00386000
                      00200            +ICBSZ    EQU   512                                                      00386000
²                                   3348 &SIZE    SETA  64*TOPM#                                                 00387200
²                                   3349 TOPMSZ   EQU   &SIZE                                                    00388000
                      00280            +TOPMSZ   EQU   640                                                      00388000
²                                   3351 &SIZE    SETA  64*TRTBL#                                                00388200
²                                   3352 TRTBLSZ  EQU   &SIZE                                                    00389000
                      00800            +TRTBLSZ  EQU   2048                                                     00389000
²                                   3354 &SIZE    SETA  64*DNCB#                                                 00400004
²                                   3355 DNCBSZ   EQU   &SIZE                                                    00410004
                      00E00            +DNCBSZ   EQU   3584                                                     00410004
²000000                00000 00034  3358 SPZPPRM  DSECT                                                          00441000
²000000                             3359 DDLIST   DS    0H                                                       00441109
²000000                             3360          DS    H                                                        00442009
²000002                             3361 NA1      DS    XL8                                                      00443010
²00000A                             3362 NA2      DS    XL8                                                      00450010
²000012                             3363 NA3      DS    XL8                                                      00460010
²00001A                             3364 SYSLIB   DS    XL8                                                      00471010
²000022                             3365 SYSIN    DS    XL8                                                      00472010
²00002A                             3366 SYSPRINT DS    XL8                                                      00473010
²                      00032        3367 SPZPRM#  EQU   *-DDLIST                                                 00474009
²                                   3368 *E1      DCB   DDNAME=KKK,DSORG=PS,MACRF=(PM),DCBE=RE2                  00474110
²                                   3369 *E2      DCBE  EODAD=MAINLINE,RMODE31=BUFF                              00475010
²000034                             3370          DS    0F                                                       00476000
²                                   3371       IEFZB4D0 ,                                                        00476100
²                                   3372+**/
i                                   3373+*%S99PLS1: ;
²                                                                                                               Page   62
  Active Usings: S99TUNIT,R8  GETINIT+X'248',R12
D-Loc  Object Code    Addr1 Addr2  Stmt   Source Statement                                  HLASM R6.0  2014/07/08 18.32
²                                   3374+*/**START OF SPECIFICATIONS************************************* @L3C*/
²                                   3375+*/*                                                              @L3A*/
²                                   3376+*/*01* MACRO NAME: IEFZB4D0                                      @L3C*/
²                                   3377+*/*                                                              @L3A*/
²                                   3378+*/*01* ACRONYM:  S99PARMS                                        @L3A*/
²                                   3379+*/*                                                              @L3A*/
²                                   3380+*/*01* DESCRIPTIVE NAME:  Dynamic Allocation (SVC 99) Parameter  @L3C*/
²                                   3381+*/*                       List                                   @L3C*/
²                                   3382+*/*                                                              @L3A*/
²                                   3383+*/*01* PROPRIETARY STATEMENT=                                        */
²                                   3384+*/***PROPRIETARY_STATEMENT********************************************/
²                                   3385+*/*                                                                  */
²                                   3386+*/*                                                                  */
²                                   3387+*/* LICENSED MATERIALS - PROPERTY OF IBM                             */
²                                   3388+*/* 5694-A01 COPYRIGHT IBM CORP. 1974, 2007                          */
²                                   3389+*/*                                                                  */
²                                   3390+*/* STATUS= HBB7740                                                  */
²                                   3391+*/*                                                                  */
²                                   3392+*/***END_OF_PROPRIETARY_STATEMENT*************************************/
²                                   3393+*/*                                                              @L3A*/
²                                   3394+*/*01* EXTERNAL CLASSIFICATION:                                  @L3A*/
²                                   3395+*/*02* GUPI:  BASE                                               @L3A*/
²                                   3396+*/*02* DMTI:  FIELDS S99EMSGP                                    @L3A*/
²                                   3397+*/*01* END OF EXTERNAL CLASSIFICATION:                           @L3A*/
²                                   3398+*/*                                                              @L3A*/
²                                   3399+*/*01* DSECT NAME: S99RB, S99RBP, S99TUPL, S99TUNIT, S99TUFLD,   @L3A*/
²                                   3400+*/*                S99RBX                                        @L3A*/
²                                   3401+*/*                                                              @L3A*/
²                                   3402+*/*01* COMPONENT:  Allocation (SC1B4)                            @L3A*/
²                                   3403+*/*                                                              @L3A*/
²                                   3404+*/*01* EYE-CATCHER:  None                                        @L3A*/
²                                   3405+*/*02*  OFFSET:  n/a                                             @L3A*/
²                                   3406+*/*02*  LENGTH:  n/a                                             @L3A*/
²                                   3407+*/*                                                              @L3A*/
²                                   3408+*/*01* STORAGE ATTRIBUTES:                                       @L3A*/
²                                   3409+*/*02*  SUBPOOL:  User defined                                   @L3A*/
²                                   3410+*/*02*  KEY:  User's key                                         @L3A*/
²                                   3411+*/*02*  RESIDENCY:  Any                                          @L3A*/
²                                   3412+*/*02*  MAIN STORAGE:  No                                        @L3A*/
²                                   3413+*/*                                                              @L3A*/
²                                   3414+*/*01* SIZE:  S99RB:  20 bytes                                   @P3C*/
²                                   3415+*/*           S99RBX: 36 bytes                                   @L3A*/
²                                   3416+*/*                                                              @L3A*/
²                                   3417+*/*01* CREATED BY: Callers of dynamic allocation                 @L3A*/
²                                   3418+*/*                                                              @L3A*/
²                                   3419+*/*01* POINTED TO BY: Register 1 points to a pointer to this     @L3A*/
²                                   3420+*/*                   parameter list upon entry to SVC 99.       @L3A*/
²                                   3421+*/*                                                              @L3A*/
²                                   3422+*/*01* SERIALIZATION: None                                       @L3A*/
²                                   3423+*/*                                                              @L3A*/
²                                   3424+*/*01* FUNCTION: Input required by dynamic allocation,           @L3C*/
²                                   3425+*/*              specifically the dynamic allocation control     @L3C*/
²                                   3426+*/*              routine, IEFDB400.                              @L3C*/
²                                   3427+*/*                                                              @L3A*/
i                                   3428+*/*01* METHOD OF ACCESS =                                        @L3A*/
²                                                                                                               Page   63
  Active Usings: S99TUNIT,R8  GETINIT+X'248',R12
D-Loc  Object Code    Addr1 Addr2  Stmt   Source Statement                                  HLASM R6.0  2014/07/08 18.32
²                                   3429+*/*                                                              @L3A*/
²                                   3430+*/*  02* PL/AS INVOCATION =                                      @L3A*/
²                                   3431+*/*        %INCLUDE SYSLIB(IEFZB4D0)                             @L3A*/
²                                   3432+*/*                                                              @L3A*/
²                                   3433+*/*  02* BAL INVOCATION =                                        @L3A*/
²                                   3434+*/*                 IEFZB4D0                                     @L3A*/
²                                   3435+*/*                                                              @L3A*/
²                                   3436+*/*                                                              @L3A*/
²                                   3437+*/*01* DELETED BY: Callers of dynamic allocation                 @L3A*/
²                                   3438+*/*                                                              @L3A*/
²                                   3439+*/*01* DEPENDENCIES: None                                        @L3A*/
²                                   3440+*/*                                                              @L3A*/
²                                   3441+*/*01* DISTRIBUTION LIBRARY: SYS1.AMACLIB                        @L3A*/
²                                   3442+*/*                                                              @L3A*/
²                                   3443+*/*                                                                  */
²                                   3444+*/*                                                                  */
²                                   3445+*/* THE PARAMETER LIST CONSISTS OF:                                  */
²                                   3446+*/*                                                                  */
²                                   3447+*/* 1) A REQUEST BLOCK POINTER. THIS IS A FULLWORD CONTAINING THE    */
²                                   3448+*/*    ADDRESS OF THE DYNAMIC ALLOCATION REQUEST BLOCK. THE HIGH-    */
²                                   3449+*/*    ORDER BIT MUST BE ON. THIS WORD MUST BE LOCATED BY REG. ONE.  */
²                                   3450+*/*                                                                  */
²                                   3451+*/* 2) A REQUEST BLOCK. THIS BLOCK IS LOCATED BY THE REQUEST BLOCK   */
²                                   3452+*/*    POINTER AND CONTAINS:                                         */
²                                   3453+*/*    . A ONE BYTE FIELD CONTAINING THE LENGTH OF THIS REQUEST      */
²                                   3454+*/*      BLOCK. THE LENGTH IS IN BINARY AND HAS A VALUE OF 20.       */
²                                   3455+*/*    . A ONE BYTE FIELD CONTAINING A VERB CODE CORRESPONDING TO A  */
²                                   3456+*/*      DYNAMIC ALLOCATION FUNCTION. MNEMONIC NAMES FOR THE VERB    */
²                                   3457+*/*      CODES ARE CONTAINED IN THIS MACRO.                          */
²                                   3458+*/*    . TWO BYTES OF FLAGS WHICH MUST MAP DIRECTLY TO ALCFNCMAP     */
²                                   3459+*/*      (COMMON ALLOCATION FUNCTION MAP) IN IEFZB4D7.               */
²                                   3460+*/*    . TWO BYTES IN WHICH DYNAMIC ALLOCATION WILL RETURN AN ERROR  */
²                                   3461+*/*      REASON CODE.                                                */
²                                   3462+*/*    . TWO BYTES IN WHICH DYNAMIC ALLOCATION WILL RETURN AN        */
²                                   3463+*/*      INFORMATIONAL REASON CODE.                                  */
²                                   3464+*/*    . A FULLWORD CONTAINING THE ADDRESS OF A LIST OF POINTERS TO  */
²                                   3465+*/*      TEXT UNITS.                                                 */
²                                   3466+*/*    . A FULLWORD CONTAINING THE ADDRESS OF A REQUEST BLOCK    @L1C*/
²                                   3467+*/*      EXTENSION FOR MESSAGE PROCESSING OR ZERO.               @L1C*/
²                                   3468+*/*    . FOUR BYTES OF FLAGS FOR AUTHORIZED FUNCTIONS.               */
²                                   3469+*/*                                                                  */
²                                   3470+*/* 3) A LIST OF FULLWORDS CONTAINING THE ADDRESSES OF TEXT UNITS.   */
²                                   3471+*/*    A WORD WITH A VALUE OF ZERO IS IGNORED. THE LAST WORD IN THE  */
²                                   3472+*/*    LIST MUST HAVE THE HIGH ORDER BIT ON.                         */
²                                   3473+*/*                                                                  */
²                                   3474+*/* 4) TEXT UNITS. A TEXT UNIT CONSISTS OF:                          */
²                                   3475+*/*    . A TWO BYTE FIELD CONTAINING A KEY WHICH IDENTIFIES THE      */
²                                   3476+*/*      INFORMATION IN THIS TEXT UNIT. A TEXT UNIT HAVING A KEY     */
²                                   3477+*/*      WITH A VALUE OF ZERO IS IGNORED. THE MACRO IEFZB4D2 LISTS   */
²                                   3478+*/*      MNEMONIC NAMES FOR THE VALUES OF THE KEYS.                  */
²                                   3479+*/*    . A TWO BYTE FIELD WHICH CONTAINS THE NUMBER OF LENGTH/PARA-  */
²                                   3480+*/*      METER ENTRIES WHICH FOLLOW. A VALUE OF ZERO INDICATES NO    */
²                                   3481+*/*      ENTRIES FOLLOW.                                             */
²                                   3482+*/*    . A TWO BYTE FIELD WHICH CONTAINS THE LENGTH OF THE IMMED-    */
i                                   3483+*/*      IATELY FOLLOWING PARAMETER.                                 */
²                                                                                                               Page   64
  Active Usings: S99TUNIT,R8  GETINIT+X'248',R12
D-Loc  Object Code    Addr1 Addr2  Stmt   Source Statement                                  HLASM R6.0  2014/07/08 18.32
²                                   3484+*/*    . A PARAMETER.                                                */
²                                   3485+*/*                                                                  */
²                                   3486+*/* 5) A REQUEST BLOCK EXTENSION. THIS BLOCK IS LOCATED BY THE   @L1A*/
²                                   3487+*/*    POINTER (S99S99X) FOUND IN THE REQUEST BLOCK. IT IS       @L1A*/
²                                   3488+*/*    OPTIONAL AND CONTAINS:                                    @L1A*/
²                                   3489+*/*    . A SIX BYTE FIELD CONTAINING THE CONTROL BLOCK           @L1A*/
²                                   3490+*/*      IDENTIFIER 'S99RBX'.                                    @L1A*/
²                                   3491+*/*    . A ONE BYTE FIELD CONTAINING THE VERSION NUMBER.         @L1A*/
²                                   3492+*/*    . ONE BYTE OF FLAGS FOR MESSAGE PROCESSING OPTIONS        @L1A*/
²                                   3493+*/*    . A ONE BYTE FIELD CONTAINING THE SUBPOOL FOR MESSAGE     @L1A*/
²                                   3494+*/*      BLOCKS.                                                 @L1A*/
²                                   3495+*/*    . A ONE BYTE FIELD CONTAINING THE STORAGE KEY FOR         @L1A*/
²                                   3496+*/*      MESSAGE BLOCKS.                                         @L1A*/
²                                   3497+*/*    . A ONE BYTE FIELD CONTAINING THE SEVERITY LEVEL FOR      @L1A*/
²                                   3498+*/*      MESSAGE PROCESSING.                                     @L1A*/
²                                   3499+*/*    . A ONE BYTE FIELD CONTAINING THE NUMBER OF MESSAGE       @D1C*/
²                                   3500+*/*      BLOCKS RETURNED                                         @D1A*/
²                                   3501+*/*    . A FULLWORD CONTAINING THE ADDRESS OF CPPL.              @L1A*/
²                                   3502+*/*    . FOUR BYTES FOR MESSAGE SERVICE RETURN CODE.             @L1A*/
²                                   3503+*/*    . FOUR BYTES FOR PUTLINE/WTO RETURN CODE.                 @L1A*/
²                                   3504+*/*    . FOUR BYTES FOR MESSAGE BLOCK POINTER.                   @L1A*/
²                                   3505+*/*    . FOUR BYTES FOR INFORMATION RETRIEVAL RETURN CODE        @L1A*/
²                                   3506+*/*      (VERB 01 ONLY)                                          @L1A*/
²                                   3507+*/*    . FOUR BYTES FOR SMS ERROR REASON CODE.                   @02C*/
²                                   3508+*/*                                                                  */
²                                   3509+*/* CHANGE ACTIVITY:  OZ32641, OZ63125, L1, L2, D1               @D1C*/
²                                   3510+*/*                   OY27926, OY29243, T1, 01, 02               @02C*/
²                                   3511+*/*                                                                  */
²                                   3512+*/*The above section of the Change Activity is no longer updated @03A*/
²                                   3513+*/*                                                                  */
²                                   3514+*/* $L1= SMSSTG2 JBB2223 860523 PDM9: STOR MGMT SUBSYS STG2 SUP  @L1A*/
²                                   3515+*/* $L2= SMSSTG2 JBB2223 860820 PDV6: STOR MGMT SUBSYS STG2 SUP  @L2A*/
²                                   3516+*/* $D1= DC20061 JBB2223 871216 PDV6: ADD S99ENMSG FIELD         @D1A*/
²                                   3517+*/* $T1= OY26839 HBB3310 890831 PDE1: DD LIMIT SPE               @T1A*/
²                                   3518+*/* $01= OY42979 HBB4410 910419 PDCC: Allow message suppression  @01A*/
²                                   3519+*/* $02= OY32848 JBB2223 910101 PDHK: ADD SMS REASON CODE        @02A*/
²                                   3520+*/* $03= OY52645 HBB4410 911105 PDDU: Provide "do not recall         */
²                                   3521+*/*                                   migrated data set" option  @03A*/
²                                   3522+*/* $L3= UCBVP   HBB5520 940210 PDN1: Add S99ACUCB to enable         */
²                                   3523+*/*                                   requesting use of actual       */
²                                   3524+*/*                                   UCBs.                      @L3A*/
²                                   3525+*/* $L4= CLONE   HBB5520 940728 PDBN: System symbolics           @L4A*/
²                                   3526+*/* $P1= PN71391 HBB5520 940908 PDEM: Change S99ACUCB to         @P1A*/
²                                   3527+*/*                                   non-authorized             @P1A*/
²                                   3528+*/* $P2= PXD0099 HBB7703 991231 PDG5: Handle device allocated to @P2A*/
²                                   3529+*/*                                   ASID *UNKNOWN* during      @P2A*/
²                                   3530+*/*                                   VARY Offline. This change  @P2A*/
²                                   3531+*/*                                   is the result of multiple  @P2A*/
²                                   3532+*/*                                   customer system outage     @P2A*/
²                                   3533+*/*                                   PMRs.                      @P2A*/
²                                   3534+*/* $L5 = ODSLM  HBB7705 001031 PDOO: Open Data Set Limit Relief @L5A*/
²                                   3535+*/* $P3= ME05532 HBB7730 060131 PDHV: Add S99RBXLN               @P3A*/
²                                   3536+*/* $P4= ME09036 HBB7740 070126 PDTA: Add S99IGNCL               @P4A*/
²                                   3537+*/*                                   FIN of OA13643             @P4A*/
i                                   3538+*/*                                                                  */
²                                                                                                               Page   65
  Active Usings: S99TUNIT,R8  GETINIT+X'248',R12
D-Loc  Object Code    Addr1 Addr2  Stmt   Source Statement                                  HLASM R6.0  2014/07/08 18.32
²                                   3539+*/*                                                                  */
²                                   3540+*/**END OF SPECIFICATIONS**************************************  @L3C*/
²                                   3541+*/* IEFZB4D0 - Added S99IGNCL to S99FLG22.  When this flag is        */
²                                   3542+*/*            set, dynamic allocation should ignore the             */
²                                   3543+*/*            control limit.  This flag is intended to be used      */
²                                   3544+*/*            for system program use only.                      @P4A*/
²                                   3545+*/* IEFZB4D0 - Added S99RBXLN to S99RBX to make it easier to         */
²                                   3546+*/*            determine the declared length of the S99RBX.          */
²                                   3547+*/*            Also corrected prolog (S99RB size).               @P3A*/
²                                   3548+*/* IEFZB4D0 - Added S99DSABA to S99FLG12 (unauthorized function).   */
²                                   3549+*/*            When = 1, DSAB for this dynamic allocation will       */
²                                   3550+*/*            be placed above the 16MB line.                    @L5A*/
²                                   3551+*/* IEFZB4D0 - Added S99ASERR to S99FLG22 (Under S99FLAGS2 for       */
²                                   3552+*/*            authorized functions). When = 1, Unit Unallocation    */
²                                   3553+*/*            service IEFDB440 should ignore coupling facility      */
²                                   3554+*/*            READ and WRITE errors for the RELEASE function on an  */
²                                   3555+*/*            Autoswitchable device.                            @P2A*/
²                                   3556+*/*          - Changed S99FLG22 masks to recognize S99ASERR as a     */
²                                   3557+*/*            valid authorized flag (bit position X'08').       @P2A*/
²                                   3558+*/*          - Changed S99NOT22 to no longer flag bit position       */
²                                   3559+*/*            X'08' (now used for S99ASERR) as invalid.         @P2A*/
²                                   3560+*/* IEFZB4D0 - Changed SVC99 S99ACUCB bit from authorized to         */
²                                   3561+*/*            non-authorized.                                       */
²                                   3562+*/*          - Change S99FLG22 masks to remove the S99ACUCB          */
²                                   3563+*/*            flag.                                                 */
²                                   3564+*/*          - Change S99FLG12 masks so that the new non-authorized  */
²                                   3565+*/*            S99ACUCB flag can be recognized as a valid flag.  @P1A*/
²                                   3566+*/* IEFZB4D0 - Add a new SVC 99 input request bit S99NOSYM to        */
²                                   3567+*/*            indicate that Allocation should not resolve           */
²                                   3568+*/*            system symbolics.                                     */
²                                   3569+*/*          - Change S99FLG12 masks so that the new flag            */
²                                   3570+*/*            can be recognized as a valid flag.                @L4A*/
²                                   3571+*/* IEFZB4D0 - Add a new SVC 99 input request bit to indicate        */
²                                   3572+*/*            that actual UCBs should be utilized.                  */
²                                   3573+*/*          - Change S99FLG22 masks so that the new flag            */
²                                   3574+*/*            can be recognized as a valid flag.                @L3A*/
²                                   3575+*/* IEFZB4D0 - Add a new SVC 99 input request bit to indicate        */
²                                   3576+*/*            that no recall will be performed on migrated          */
²                                   3577+*/*            data sets.                                        @03A*/
²                                   3578+*/*          - Change S99FLG11 masks so that the new flag            */
²                                   3579+*/*            can be recognized as a valid flag.                @03A*/
²                                   3580+*/* IEFZB4D0 - ADD S99ERSN TO REQUEST BLOCK EXTENSION WHICH          */
²                                   3581+*/*            CONTAINS THE SMS REASON CODE.                     @02A*/
²                                   3582+*/* IEFZB4D0 - A - S99MSGL0 indicates that Allocation should act as if
²                                   3583+*                  Allocation's MSGLEVEL was 0 for this Allocation
²                                   3584+*                  only.  S99ERSVM is defined to allow checking
²                                   3585+*                  of the Request Block Extension.               @01A*/
²                                   3586+*/* IEFZB4D0 - ADDED S99TIOEX IN S99FLG22                        @T1A*/
²                                   3587+*/* IEFZB4D0 - ADDED DECLARES FOR S99FLAGS BIT MASKS             @T1A*/
²                                   3588+*/* IEFZB4D0 - DELETED EQUATE FOR S99RBID                    @YD29243*/
²                                   3589+*/* IEFZB4D0 - ADDED EQUATE FOR S99RBID WHICH WAS MISSING    @YA27926*/
²                                   3590+*/* IEFZB4D0 - ADDED NUMBER OF MESSAGE BLOCKS FIELD (S99EMSG)    @D1A*/
²                                   3591+*/* IEFZB4D0 - ADDED A FLAG (S99EWTP) TO THE EXTENSION THAT
²                                   3592+*              INDICATES A WTO IS TO BE USED FOR MESSAGE OUTPUT  @L2A*/
i                                   3593+*/* IEFZB4D0 - CHANGE SEVERITY LEVEL, SUBPOOL, STORAGE KEY, AND
²                                                                                                               Page   66
  Active Usings: S99TUNIT,R8  GETINIT+X'248',R12
D-Loc  Object Code    Addr1 Addr2  Stmt   Source Statement                                  HLASM R6.0  2014/07/08 18.32
²                                   3594+*              MESSAGE PROCESSING RETURN CODES FROM CHAR(1) TO
²                                   3595+*              FIXED(8).                                         @L2A*/
²                                   3596+*/* IEFZB4D0 - ADDED CONSTANTS FOR THE MESSAGE SEVERITIES        @L2A*/
²                                   3597+*/* IEFZB4D0 - CHANGED FOUR RESERVED BYTES IN SVC 99 REQUEST BLOCK   */
²                                   3598+*/*            TO POINTER TO SVC 99 REQUEST BLOCK EXTENSION      @L1A*/
²                                   3599+*/* IEFZB4D0 - DEFINE SVC 99 REQUEST BLOCK EXTENSION WHICH CONTAINS  */
²                                   3600+*/*            INFORMATION FOR MESSAGE PROCESSING                @L1A*/
²                                   3601+*        %GOTO S99PLS2;                /*
²                                   3602+***********************************************************************
²                                   3603+*                SVC 99 INPUT REQUEST BLOCK
²                                   3604+***********************************************************************
²000000                00000 00004  3605+S99RBP   DSECT                                                          01-IEFZB
²000000                             3606+S99RBPTR DS     F                      REQUEST BLOCK POINTER            01-IEFZB
²                      00080        3607+S99RBPND EQU    X'80'                  LAST POINTER INDICATOR           01-IEFZB
²000000                00000 00014  3608+S99RB    DSECT                         REQUEST BLOCK                    01-IEFZB
²000000                             3609+         DS     0F                                                      01-IEFZB
²000000                             3610+S99RBLN  DS     CL1                    LENGTH OF REQUEST BLOCK          01-IEFZB
²000001                             3611+S99VERB  DS     CL1                    VERB CODE                        01-IEFZB
²                      00001        3612+S99VRBAL EQU    X'01'                  ALLOCATION                       01-IEFZB
²                      00002        3613+S99VRBUN EQU    X'02'                  UNALLOCATION                     01-IEFZB
²                      00003        3614+S99VRBCC EQU    X'03'                  CONCATENATION                    01-IEFZB
²                      00004        3615+S99VRBDC EQU    X'04'                  DECONCATENATION                  01-IEFZB
²                      00005        3616+S99VRBRI EQU    X'05'                  REMOVE IN-USE                    01-IEFZB
²                      00006        3617+S99VRBDN EQU    X'06'                  DDNAME ALLOCATION                01-IEFZB
²                      00007        3618+S99VRBIN EQU    X'07'                  INFORMATION RETRIEVAL            01-IEFZB
²000002                             3619+S99FLAG1 DS     0CL2                   FLAGS                            01-IEFZB
²000002                             3620+S99FLG11 DS     CL1                    FIRST FLAGS BYTE                 01-IEFZB
²                      00080        3621+S99ONCNV EQU    X'80'                  ALLOC FUNCTION-DO NOT USE AN     01-IEFZB
²                                   3622+*                                      EXISTING ALLOCATION THAT DOES
²                                   3623+*                                      NOT HAVE THE CONVERTIBLE
²                                   3624+*                                      ATTRIBUTE TO SATISFY A REQUEST
²                      00040        3625+S99NOCNV EQU    X'40'                  ALLOC FUNCTION-DO NOT USE AN     01-IEFZB
²                                   3626+*                                      EXISTING ALLOCATION TO SATISFY
²                                   3627+*                                      THE REQUEST
²                      00020        3628+S99NOMNT EQU    X'20'                  ALLOC FUNCTION-DO NOT MOUNT      01-IEFZB
²                                   3629+*                                      VOLUMES OR CONSIDER OFFLINE
²                                   3630+*                                      UNITS (THIS FLAG OVERRIDES
²                                   3631+*                                      S99MOUNT AND S99OFFLN BELOW)
²                      00010        3632+S99JBSYS EQU    X'10'                  ALLOC FUNC-JOB RELATED SYSOUT    01-IEFZB
²                      00008        3633+S99CNENQ EQU    X'08'                  ALL FUNCTIONS-ISSUE A   @ZA32641 01-IEFZB
²                                   3634+*                                      CONDITIONAL ENQ ON TIOT @ZA32641
²                                   3635+*                                      RESOURCE. IF NOT        @ZA32641
²                                   3636+*                                      AVAILABLE, RETURN AN    @ZA32641
²                                   3637+*                                      ERROR CODE TO USER.     @ZA32641
²                      00004        3638+S99GDGNT EQU    X'04'                  ALLOC FUNCTION - IGNORE @YA10531 01-IEFZB
²                                   3639+*                                      THE GDG NAME TABLE AND  @YA10531
²                                   3640+*                                      PERFORM A LOCATE FOR    @YA10531
²                                   3641+*                                      THE GDG BASE LEVEL.     @YA10531
²                      00002        3642+S99MSGL0 EQU    X'02'                  All functions - ignore the  @01A 01-IEFZB
²                                   3643+*                                      MSGLEVEL parameter in the   @01A
²                                   3644+*                                      JCT and use MSGLEVEL=(,0)   @01A
²                      00001        3645+S99NOMIG EQU    X'01'                  ALLOC function - do not     @03A 01-IEFZB
²                                   3646+*                                      recall migrated data sets   @03A
²000003                             3647+S99FLG12 DS     CL1                    SECOND BYTE OF FLAGS             01-IEFZB
i                      00080        3648+S99NOSYM EQU    X'80'                  Allocate, unallocate, info       01-IEFZB
²                                                                                                               Page   67
  Active Usings: S99TUNIT,R8  GETINIT+X'248',R12
D-Loc  Object Code    Addr1 Addr2  Stmt   Source Statement                                  HLASM R6.0  2014/07/08 18.32
²                                   3649+*                                      retrieval - do not perform
²                                   3650+*                                      symbolic substitution       @L4A
²                      00040        3651+S99ACUCB EQU    X'40'                  Alloc function-use Actual        01-IEFZB
²                                   3652+*                                      UCB addresses               @P1C
²                      00020        3653+S99DSABA EQU    X'20'                  Request that the DSAB for        01-IEFZB
²                                   3654+*                                      this allocation be placed
²                                   3655+*                                      above the 16MB line.        @L5A
²000004                             3656+S99RSC   DS     0CL4                   REASON CODE FIELDS               01-IEFZB
²000004                             3657+S99ERROR DS     XL2                    ERROR REASON CODE                01-IEFZB
²000006                             3658+S99INFO  DS     XL2                    INFORMATION REASON CODE          01-IEFZB
²000008                             3659+S99TXTPP DS     F                      ADDR OF LIST OF TEXT UNIT PTRS   01-IEFZB
²00000C                             3660+S99S99X  DS     F                      ADDR OF REQ BLK EXTENSION  @L1C  01-IEFZB
²000010                             3661+S99FLAG2 DS     0CL4                   FLAGS FOR AUTHORIZED FUNCTIONS   01-IEFZB
²000010                             3662+S99FLG21 DS     CL1                    FIRST BYTE OF FLAGS              01-IEFZB
²                      00080        3663+S99WTVOL EQU    X'80'                  ALLOC FUNCTION-WAIT FOR          01-IEFZB
²                                   3664+*                                      VOLUMES
²                      00040        3665+S99WTDSN EQU    X'40'                  ALLOC FUNCTION-WAIT FOR DSNAME   01-IEFZB
²                      00020        3666+S99NORES EQU    X'20'                  ALLOC FUNCTION-DO NOT DO         01-IEFZB
²                                   3667+*                                      DATA SET RESERVATION
²                      00010        3668+S99WTUNT EQU    X'10'                  ALLOC FUNCTION-WAIT FOR UNITS    01-IEFZB
²                      00008        3669+S99OFFLN EQU    X'08'                  ALLOC FUNCTION-CONSIDER OFFLINE  01-IEFZB
²                                   3670+*                                      UNITS
²                      00004        3671+S99TIONQ EQU    X'04'                  ALL FUNCTIONS-TIOT ENQ ALREADY   01-IEFZB
²                                   3672+*                                      DONE
²                      00002        3673+S99CATLG EQU    X'02'                  ALLOC FUNCTION-SET SPECIAL       01-IEFZB
²                                   3674+*                                      CATALOG DATA SET INDICATORS
²                      00001        3675+S99MOUNT EQU    X'01'                  ALLOC FUNCTION-MAY MOUNT VOLUME  01-IEFZB
²000011                             3676+S99FLG22 DS     CL1                    SECOND BYTE OF FLAGS             01-IEFZB
²                      00080        3677+S99UDEVT EQU    X'80'                  ALLOCATION FUNCTION-UNIT NAME    01-IEFZB
²                                   3678+*                                      PARM IS A DEVICE TYPE
²                      00040        3679+S99PCINT EQU    X'40'                  ALLOC FUNCTION-ALLOC    @Y30QPPB 01-IEFZB
²                                   3680+*                                      PRIVATE CATALOG TO      @Y30QPPB
²                                   3681+*                                      INITIATOR               @Y30QPPB
²                      00020        3682+S99DYNDI EQU    X'20'                  ALLOC FUNCTION-NO JES3  @ZA63125 01-IEFZB
²                                   3683+*                                      DSN INTEGRITY PROCESS   @ZA63125
²                      00010        3684+S99TIOEX EQU    X'10'                  ALLOC FUNCTION - XTIOT           01-IEFZB
²                                   3685+*                                      ENTRY REQUESTED (FOR
²                                   3686+*                                      SYSTEM PROGRAM USE ONLY)    @T1A
²                      00008        3687+S99ASERR EQU    X'08'                  Unit Allocation / Unallocation   01-IEFZB
²                                   3688+*                                      Service (IEFAB4C1/IEFDB440) -
²                                   3689+*                                      Ignore Coupling Facility
²                                   3690+*                                      READ/WRITE failure when
²                                   3691+*                                      processing RELEASE function
²                                   3692+*                                      for Autoswitchable device
²                                   3693+*                                      (FOR SYSTEM PROGRAM USE
²                                   3694+*                                      ONLY)                       @P2A
²                      00004        3695+S99IGNCL EQU    X'04'                  Alloc function - ignore          01-IEFZB
²                                   3696+*                                      control limit.
²                                   3697+*                                      THIS FLAG IS FOR SYSTEM
²                                   3698+*                                      PROGRAM USE ONLY.           @P4A
²000012                             3699+S99FLG23 DS     CL1                    THIRD BYTE OF FLAGS              01-IEFZB
²000013                             3700+S99FLG24 DS     CL1                    FOURTH BYTE OF FLAGS             01-IEFZB
²                      00014        3701+S99RBEND EQU    *                      END MARKER                       01-IEFZB
²                                   3702+***********************************************************************
i                                   3703+* SVC 99 FLAG BIT MASKS                                            @T1A
²                                                                                                               Page   68
  Active Usings: S99TUNIT,R8  GETINIT+X'248',R12
D-Loc  Object Code    Addr1 Addr2  Stmt   Source Statement                                  HLASM R6.0  2014/07/08 18.32
²                                   3704+*   - A '1' DENOTES DEFINED BITS                                   @T1A
²                                   3705+*   - USED TO TEST FOR BIT SETTINGS                                @T1A
²                                   3706+***********************************************************************
²                      000FF        3707+S99MSK11 EQU    B'11111111'            BIT MASK FOR S99FLG11       @03C 01-IEFZB
²                      000E0        3708+S99MSK12 EQU    B'11100000'            BIT MASK FOR S99FLG12       @L5C 01-IEFZB
²                      000FF        3709+S99MSK21 EQU    B'11111111'            BIT MASK FOR S99FLG21       @T1A 01-IEFZB
²                      000FC        3710+S99MSK22 EQU    B'11111100'            BIT MASK FOR S99FLG22       @P4C 01-IEFZB
²                      00000        3711+S99MSK23 EQU    B'00000000'            BIT MASK FOR S99FLG23       @T1A 01-IEFZB
²                      00000        3712+S99MSK24 EQU    B'00000000'            BIT MASK FOR S99FLG24       @T1A 01-IEFZB
²                                   3713+***********************************************************************
²                                   3714+* SVC 99 FLAG RESERVED BIT MASKS                                   @T1A
²                                   3715+*   - A '1' DENOTES RESERVED BITS                                  @T1A
²                                   3716+*   - USED TO TEST FOR INVALID USE OF RESERVED FIELDS              @T1A
²                                   3717+***********************************************************************
²                      00000        3718+S99NOT11 EQU    B'00000000'           INVERSE BITMASK FOR S99FLG11 @03C 01-IEFZB
²                      0001F        3719+S99NOT12 EQU    B'00011111'           INVERSE BITMASK FOR S99FLG12 @L5C 01-IEFZB
²                      00000        3720+S99NOT21 EQU    B'00000000'           INVERSE BITMASK FOR S99FLG21 @T1A 01-IEFZB
²                      00003        3721+S99NOT22 EQU    B'00000011'           INVERSE BITMASK FOR S99FLG22 @P4C 01-IEFZB
²                      000FF        3722+S99NOT23 EQU    B'11111111'           INVERSE BITMASK FOR S99FLG23 @T1A 01-IEFZB
²                      000FF        3723+S99NOT24 EQU    B'11111111'           INVERSE BITMASK FOR S99FLG24 @T1A 01-IEFZB
²                                   3724+***********************************************************************
²                                   3725+* SVC 99 TEXT UNIT POINTER LIST
²                                   3726+***********************************************************************
²000000                00000 00004  3727+S99TUPL  DSECT                         TEXT UNIT POINTER LIST           01-IEFZB
²000000                             3728+S99TUPTR DS     F                      TEXT UNIT POINTER                01-IEFZB
²                      00080        3729+S99TUPLN EQU    X'80'                  LAST TEXT UNIT POINTER IN LIST   01-IEFZB
²                                   3730+***********************************************************************
²                                   3731+* SVC 99 TEXT UNIT
²                                   3732+***********************************************************************
²000000                00000 00007  3733+S99TUNIT DSECT                         TEXT UNIT                        01-IEFZB
²000000                             3734+S99TUKEY DS     XL2                    KEY                              01-IEFZB
²000002                             3735+S99TUNUM DS     XL2                    N0. OF LENGTH+PARAMETER ENTRIES  01-IEFZB
²000004                             3736+S99TUENT DS     0C                     ENTRY OF LENGTH+PARAMETER        01-IEFZB
²000004                             3737+S99TULNG DS     XL2                    LENGH OF 1ST (OR ONLY) PARAMETER 01-IEFZB
²000006                             3738+S99TUPAR DS     C                      1ST (OR ONLY) PARAMETER          01-IEFZB
²                                   3739+* THE FOLLOWING DSECT IS PROVIDED FOR USE WITH MULTIPLE
²                                   3740+* LENGTH/PARAMETER ENTRIES TO ALLOW ZERO DISPLACEMENT TO THE
²                                   3741+* LENGTH FIELD
²000000                00000 00003  3742+S99TUFLD DSECT                                                          01-IEFZB
²000000                             3743+S99TULEN DS     XL2                    LENGTH OF PARAMETER              01-IEFZB
²000002                             3744+S99TUPRM DS     C                      PARAMETER                        01-IEFZB
²                                   3745+****************************************************************** @L1A
²                                   3746+* SVC 99 REQUEST BLOCK EXTENSION                                   @L1A
²                                   3747+****************************************************************** @L1A
²000000                00000 00024  3748+S99RBX   DSECT                         REQUEST BLOCK EXTENSION     @L1A 01-IEFZB
²000000                             3749+S99EID   DS     CL6                    CONTROL BLOCK ID ='S99RBX'  @L1A 01-IEFZB
²000006                             3750+S99EVER  DS     CL1                    VERSION NUMBER              @L1A 01-IEFZB
²                      00001        3751+S99RBXVR EQU    X'01'                  CURRENT VERSION NUMBER      @L2A 01-IEFZB
²000007                             3752+S99EOPTS DS     CL1                    PROCESSING OPTIONS          @L1A 01-IEFZB
²                      00080        3753+S99EIMSG EQU    X'80'                  ISSUE MSG BEFORE RETURNING  @L1A 01-IEFZB
²                                   3754+*                                      TO CALLER                   @L1A
²                      00040        3755+S99ERMSG EQU    X'40'                  RETURN MSG TO CALLER        @L1A 01-IEFZB
²                      00020        3756+S99ELSTO EQU    X'20'                  USER STORAGE SHOULD BE      @L1A 01-IEFZB
²                                   3757+*                                      BELOW 16M BOUNDRY           @L1A
i                      00010        3758+S99EMKEY EQU    X'10'                  USER SPECIFIED STORAGE KEY  @L1A 01-IEFZB
²                                                                                                               Page   69
  Active Usings: S99TUNIT,R8  GETINIT+X'248',R12
D-Loc  Object Code    Addr1 Addr2  Stmt   Source Statement                                  HLASM R6.0  2014/07/08 18.32
²                                   3759+*                                      FOR MESSAGE BLOCKS          @L1A
²                      00008        3760+S99EMSUB EQU    X'08'                  USER SPECIFIED SUBPOOL FOR  @L1A 01-IEFZB
²                                   3761+*                                      MESSAGE BLOCKS              @L1A
²                      00004        3762+S99EWTP  EQU    X'04'                  USE WTO FOR MESSAGE OUTPUT  @L2A 01-IEFZB
²000008                             3763+S99ESUBP DS     CL1                    SUBPOOL FOR MESSAGE BLOCKS  @L1A 01-IEFZB
²000009                             3764+S99EKEY  DS     CL1                    STORAGE KEY FOR MESSAGE     @L1A 01-IEFZB
²                                   3765+*                                      BLOCKS                      @L1A
²00000A                             3766+S99EMGSV DS     CL1                    SEVERITY LEVEL FOR MESSAGES @L1A 01-IEFZB
²                                   3767+*                                      PROCESSING                  @L1A
²                      00000        3768+S99XINFO EQU    X'00'                  INFORMATIONAL MSG SEVERITY  @L2A 01-IEFZB
²                      00004        3769+S99XWARN EQU    X'04'                  WARNING MESSAGE SEVERITY    @L2A 01-IEFZB
²                      00008        3770+S99XSEVE EQU    X'08'                  SEVERE MESSAGE SEVERITY     @L2A 01-IEFZB
²00000B                             3771+S99ENMSG DS     CL1                    NUMBER OF MESSAGE BLOCKS         01-IEFZB
²                                   3772+*                                       RETURNED                   @D1C
²00000C                             3773+S99ECPPL DS     F                      ADDRESS OF CPPL             @L1A 01-IEFZB
²000010                             3774+S99EMRC  DS     0CL4                   MESSAGE SERVICE RETURN CODE @L1A 01-IEFZB
²000010                             3775+S99ERCR  DS     CL1                    RESERVED                    @L1A 01-IEFZB
²000011                             3776+S99ERCM  DS     CL1                    RESERVED                    @D1C 01-IEFZB
²000012                             3777+S99ERCO  DS     CL1                    RETURN CODE DEALING WITH    @L1A 01-IEFZB
²                                   3778+*                                      MESSAGE OUTPUT              @L1A
²000013                             3779+S99ERCF  DS     CL1                    RETURN CODE DEALING WITH    @L1A 01-IEFZB
²                                   3780+*                                      STORAGE FOR MESSAGE BLOCKS  @L1A
²000014                             3781+S99EWRC  DS     F                      PUTLINE/WTO RETURN CODE     @L1A 01-IEFZB
²000018                             3782+S99EMSGP DS     F                      MESSAGE BLOCK POINTER       @L1A 01-IEFZB
²00001C                             3783+S99ESIRC DS     0F                     INFORMATION RETRIEVAL       @L1A 01-IEFZB
²                                   3784+*                                      RETURN CODE FOR SJF KEYS    @L1A
²00001C                             3785+S99EERR  DS     XL2                    ERROR REASON CODE                01-IEFZB
²00001E                             3786+S99EINFO DS     XL2                    INFORMATION REASON CODE          01-IEFZB
²000020                             3787+S99ERSN  DS     XL4                    SMS REASON CODE             @02C 01-IEFZB
²                      00024        3788+S99RBXLN EQU    *-S99RBX               LENGTH OF DECLARED S99RBX   @P3A 01-IEFZB
²000024                             3789          DS    0F                                                       00476200
²                                   3790       IEFZB4D2 ,                                                        00477000
²                                   3791+*
²                                   3792+*/**** START OF SPECIFICATIONS ***************************************/
²                                   3793+*/*                                                                  */
²                                   3794+*/*01* MACRO NAME = IEFZB4D2                                         */
²                                   3795+*/*                                                                  */
²                                   3796+*/*01*  ACRONYM = N/A                                                */
²                                   3797+*/*                                                                  */
²                                   3798+*/*01* DESCRIPTIVE NAME = Dynamic Allocation Key Definition          */
²                                   3799+*/*                       Table                                      */
²                                   3800+*/*                                                                  */
²                                   3801+*/*01* PROPRIETARY STATEMENT=                                        */
²                                   3802+*/***PROPRIETARY_STATEMENT********************************************/
²                                   3803+*/*                                                                  */
²                                   3804+*/*                                                                  */
²                                   3805+*/* LICENSED MATERIALS - PROPERTY OF IBM                             */
²                                   3806+*/* 5694-A01 COPYRIGHT IBM CORP. 1983, 2007                          */
²                                   3807+*/*                                                                  */
²                                   3808+*/* STATUS= HBB7740                                                  */
²                                   3809+*/*                                                                  */
²                                   3810+*/***END_OF_PROPRIETARY_STATEMENT*************************************/
²                                   3811+*/*                                                              @L6M*/
²                                   3812+*/*01* DSECT NAME = SVC99KYS                                     @L6M*/
i                                   3813+*/*                                                              @L6M*/
²                                                                                                               Page   70
  Active Usings: S99TUNIT,R8  GETINIT+X'248',R12
D-Loc  Object Code    Addr1 Addr2  Stmt   Source Statement                                  HLASM R6.0  2014/07/08 18.32
²                                   3814+*/*01* COMPONENT = Allocation (SC1B4)                            @L6M*/
²                                   3815+*/*                                                              @L6M*/
²                                   3816+*/*01* EYE-CATCHER = None                                        @L6M*/
²                                   3817+*/*02*  OFFSET = N/A                                             @L6M*/
²                                   3818+*/*02*  LENGTH = N/A                                             @L6M*/
²                                   3819+*/*                                                              @L6M*/
²                                   3820+*/*01* STORAGE ATTRIBUTES =                                      @L6M*/
²                                   3821+*/*                                                              @L6M*/
²                                   3822+*/*02*   ALLOCATION METHOD = Data only macro                     @L6M*/
²                                   3823+*/*02*   SUBPOOL           = N/A                                 @L6M*/
²                                   3824+*/*02*   KEY               = N/A                                 @L6M*/
²                                   3825+*/*02*   RESIDENCY         = N/A                                 @L6M*/
²                                   3826+*/*02*   SIZE              = N/A                                 @L6M*/
²                                   3827+*/*02*   FREQUENCY         = N/A                                 @L6M*/
²                                   3828+*/*                                                              @L6M*/
²                                   3829+*/*01* CREATED BY = N/A                                          @L6M*/
²                                   3830+*/*                                                              @L6M*/
²                                   3831+*/*01* POINTED TO BY = N/A                                       @L6M*/
²                                   3832+*/*                                                              @L6M*/
²                                   3833+*/*01* DELETED BY = N/A                                          @L6M*/
²                                   3834+*/*                                                              @L6M*/
²                                   3835+*/*01* SERIALIZATION = None                                      @L6M*/
²                                   3836+*/*                                                              @L6M*/
²                                   3837+*/*01* FUNCTION =                                                @L6C*/
²                                   3838+*/*                                                                  */
²                                   3839+*/*02*   This macro defines the Dynamic Allocation keys for each @L6C*/
²                                   3840+*/*      of the Dynamic Allocation functions.  The keys are used     */
²                                   3841+*/*      in the text unit input to Dynamic Allocation.  A key        */
²                                   3842+*/*      identifies the information being passed in a particular     */
²                                   3843+*/*      text unit.  A key is two bytes in length.  The names        */
²                                   3844+*/*      for the keys consist of:                                    */
²                                   3845+*/*                                                                  */
²                                   3846+*/*      - The character 'D' representing Dynamic Allocation.        */
²                                   3847+*/*                                                                  */
²                                   3848+*/*      - Characters representing the Dynamic Allocation            */
²                                   3849+*/*        function.  The functions are represented by these         */
²                                   3850+*/*        characters:                                               */
²                                   3851+*/*                                                                  */
²                                   3852+*/*        - 'AL' for allocation,                                    */
²                                   3853+*/*        - 'UN' for unallocation,                                  */
²                                   3854+*/*        - 'CC' for concatenation,                                 */
²                                   3855+*/*        - 'DC' for deconcatenation,                               */
²                                   3856+*/*        - 'RI' for remove in-use,                                 */
²                                   3857+*/*        - 'DN' for ddname allocation,                             */
²                                   3858+*/*        - 'IN' for information retrieval input, and               */
²                                   3859+*/*        - 'INR' for information retrieval output.                 */
²                                   3860+*/*                                                                  */
²                                   3861+*/*      - Descriptive characters (up to five).                      */
²                                   3862+*/*                                                                  */
²                                   3863+*/*01* INVOCATION ****************************************************/
²                                   3864+*/*                                                                  */
²                                   3865+*/*01* METHOD OF ACCESS =                                        @L6C*/
²                                   3866+*/*                                                                  */
²                                   3867+*/*02*   PL/X Invocation =                                       @L6C*/
i                                   3868+*/*                                                                  */
²                                                                                                               Page   71
  Active Usings: S99TUNIT,R8  GETINIT+X'248',R12
D-Loc  Object Code    Addr1 Addr2  Stmt   Source Statement                                  HLASM R6.0  2014/07/08 18.32
²                                   3869+*/*        %INCLUDE SYSLIB(IEFZB4D2)                                 */
²                                   3870+*/*                                                                  */
²                                   3871+*/*                                                                  */
²                                   3872+*/*                                                                  */
²                                   3873+*/*------------------------------------------------------------------*/
²                                   3874+*/*                                                                  */
²                                   3875+*/*02*   BAL Invocation =                                        @L6C*/
²                                   3876+*/*                                                                  */
²                                   3877+*/*        b                   one or more blanks (up to nine)       */
²                                   3878+*/*        IEFZB4D2            should start in column 10             */
²                                   3879+*/*        b                   one or more blanks                    */
²                                   3880+*/*                                                                  */
²                                   3881+*/********************************************************************/
²                                   3882+*/*                                                                  */
²                                   3883+*/*01* NOTES =                                                   @L6M*/
²                                   3884+*/*                                                              @L6M*/
²                                   3885+*/*        Bilingual Mapping Macro (PL/X and BAL)                @L6M*/
²                                   3886+*/*                                                              @L6M*/
²                                   3887+*/*          All fields in this macro are General Use            @L6C*/
²                                   3888+*/*          Programming Interface (GUPI).                       @L6C*/
²                                   3889+*/*                                                              @L6M*/
²                                   3890+*/*01* DEPENDENCIES =                                            @L6M*/
²                                   3891+*/*                                                              @L6M*/
²                                   3892+*/*          The IEFSJDKY macro is updated when we add new JDT   @L6M*/
²                                   3893+*/*          defined keys.                                       @L6M*/
²                                   3894+*/*                                                              @L6M*/
²                                   3895+*/*01* RESTRICTIONS = None                                       @L6M*/
²                                   3896+*/*                                                              @L6M*/
²                                   3897+*/*01* DISTRIBUTION LIBRARY = AMACLIB                            @L6M*/
²                                   3898+*/*                                                                  */
²                                   3899+*/*01* EXTERNAL CLASSIFICATION: GUPI                             @L6A*/
²                                   3900+*/*01* END OF EXTERNAL CLASSIFICATION:                           @L6A*/
²                                   3901+*/*                                                                  */
²                                   3902+*/*01* CHANGE ACTIVITY = OZ25778, 0Z28413, G32HPPJ, G29AN2F,     @L9C*/
²                                   3903+*/*                                                                  */
²                                   3904+*/*                                                                  */
²                                   3905+*/*  $H1= EXTJCL   JBB2110 820605 PD2Q: SUPPORT FOR EXTENDED JCL @H1A*/
²                                   3906+*/*  $L1= ANSITAPE JBB2110 820605 PDD8: SUPPORT FOR ANSI LABELS  @L1A*/
²                                   3907+*/*  $D1= DEFERMNT JBB2110 820605 PDFR: DEFER MOUNT FOR DYNALLOC @D1A*/
²                                   3908+*/*  $L2= EXPDATE  JBB2220 860226 PDN2: 4 DIGIT YEAR EXPDT       @L2A*/
²                                   3909+*/*  $D2= DC20044  JBB2223 870522 PDN1: ADD SMS RELATED KEYS     @D2A*/
²                                   3910+*/*  $P1= PC20307  JBB2223 870703 PDV6: SUPPORT NEW INVOCATION   @P1A*/
²                                   3911+*/*                                     FOR IEFSJDKY MACRO       @P1A*/
²                                   3912+*/*  $L3= EMVS2    HBB4410 881205 PDEU: SPIN PROCESSING FOR      @L3A*/
²                                   3913+*/*                                     SYSOUT DATA SETS         @L3A*/
²                                   3914+*/*  $T1= OY13448  JBB1356 870703 PDV6: NEW DEVICE SUPPORT       @T1A*/
²                                   3915+*/*  $D3= DEO0284  HBB4410 891127 PDDU: New text unit support for    */
²                                   3916+*/*                                     browse token             @D3A*/
²                                   3917+*/*  $D4= DH30067  HBB4420 900430 PDAZ: Support of multiple      @D4A*/
²                                   3918+*/*                                     TSO/STC internal readers @D4A*/
²                                   3919+*/*  $L4= POSIX    HBB4430 920108 PDIO: OPEN/MVS Support         @L4A*/
²                                   3920+*/*  $L5= ATLIB    HBB4430 920624 PDNN: Tape Library Support     @L5A*/
²                                   3921+*/*  $P2= PKB2501  HBB4430 920731 PDNN: 10X Defect Elimination   @P2A*/
²                                   3922+*/*  $L6= ARM      HBB5520 940215 PDG5: ARM Support              @L6A*/
i                                   3923+*/*  $L7= PARMC    JBB6602 950921 PDNN: Parmlib Concatenation    @L7A*/
²                                                                                                               Page   72
  Active Usings: S99TUNIT,R8  GETINIT+X'248',R12
D-Loc  Object Code    Addr1 Addr2  Stmt   Source Statement                                  HLASM R6.0  2014/07/08 18.32
²                                   3924+*/*                                     Support                  @L7A*/
²                                   3925+*/*  $L8= BCPOP    HBB6605 970516 PDG5: Support for JES Open     @L8A*/
²                                   3926+*/*                                     Print Interface          @L8A*/
²                                   3927+*/*  $L9= GT32K    HBB7703 990831 PDFD: Greater than 32K Blksize @L9A*/
²                                   3928+*/*  $P3= PXD1020  HBB7703 000201 PDFD: Fix copyright            @P3A*/
²                                   3929+*/*  $LA= UASSReq  HBB7740 060930 PDHV: Unauthorized SSI request @LAA*/
²                                   3930+*/*  $P4= ME08484  HBB7740 070228 PDTY: CDPICHK and PROPCHK errors   */
²                                   3931+*/*                                                              @P4A*/
²                                   3932+*/*                                                                  */
²                                   3933+*/**** END OF SPECIFICATIONS *****************************************/
²                                   3934+*/*                                                                  */
²                                   3935+*/*  IEFZB4D2 C - Updated Copyright statement                    @P4A*/
²                                   3936+*/*  IEFZB4D2 A - Added a new text unit to allow spool file          */
²                                   3937+*/*               allocation by unauthorized invokers.           @LAA*/
²                                   3938+*/*  IEFZB4DS C - Fixed copyright/program number statements.     @P3A*/
²                                   3939+*/*  IEFZB4D2 A - Added new text units for BLKSIZE TYPES of KILOBYTE */
²                                   3940+*/*               (DALKILO), MEGABYTE (DALMEG), and GIGABYTE (DALGIG)*/
²                                   3941+*/*                                                              @L9A*/
²                                   3942+*/*  IEFZB4D2 A - Added a new text unit to return the Allocation @L8A*/
²                                   3943+*/*               Sysout Client Token (CTOKEN) associated with   @L8A*/
²                                   3944+*/*               the current Sysout Allocation.                 @L8A*/
²                                   3945+*/*  IEFZB4D2 A - Added a new text unit to return the first      @L7A*/
²                                   3946+*/*               volume serial number where an allocated data   @L7A*/
²                                   3947+*/*               set resides.                                   @L7A*/
²                                   3948+*/*  IEFZB4D2 A - Added a new text unit to indicate JES should   @L6A*/
²                                   3949+*/*               run all jobs, submitted via the dynamically-   @L6A*/
²                                   3950+*/*               allocated internal reader, on the same system  @L6A*/
²                                   3951+*/*               they were submitted on, overriding all system  @L6A*/
²                                   3952+*/*               affinities (DALOVAFF).                         @L6A*/
²                                   3953+*/*               Convert prolog to SHOWHDR format.              @L6A*/
²                                   3954+*/*  IEFZB4D2 A - Added a new text unit to define an overriding user */
²                                   3955+*/*               ID for unallocating a SYSOUT data set.         @P2A*/
²                                   3956+*/*  IEFZB4D2 A - Added a new text unit to define volume inter-  @L5A*/
²                                   3957+*/*               change attributes.                             @L5A*/
²                                   3958+*/*  IEFZB4D2 A - Added an invocation of IEFSJDKY for input keys     */
²                                   3959+*/*               to Information Retrieval                       @L4A*/
²                                   3960+*/*  IEFZB4D2 C - Changed prolog to meet format requirements     @L4A*/
²                                   3961+*/*  IEFZB4D2 C - Change the descriptive name into 'DYNAMIC      @D4A*/
²                                   3962+*/*               ALLOCATION DEFINITION KEY TABLE' to            @D4A*/
²                                   3963+*/*               differentiate itself from the descriptive name @D4A*/
²                                   3964+*/*               of IEFZB4D3                                    @D4A*/
²                                   3965+*/*  IEFZB4D2 C - Add a new text unit to define browse token     @D3A*/
²                                   3966+*/*  IEFZB4D2 C - CHANGED THE COMMENT FOR DALTRTCH               @T1A*/
²                                   3967+*/*  IEFZB4D2 C - SUPPORT FOR JDT DEFINED UNALLOCATION KEYS      @L3A*/
²                                   3968+*/*  IEFZB4D2 C - SUPPORT THE CHANGE OF IEFSJDKY TO AN EXECUTABLE    */
²                                   3969+*/*               MACRO                                          @P1A*/
²                                   3970+*/*  IEFZB4D2 C - INVOKE IEFSJDKY FOR SMS RELATED KEY DEFINITION @D2A*/
²                                   3971+*/*  IEFZB4D2 C - ADDED KEY FOR 4 DIGIT YEAR EXPIRATION DATE     @L2A*/
²                                   3972+*/*  IEFZB4D2 C - ADDED KEY FOR DEFER                            @D1A*/
²                                   3973+*/*  IEFZB4D2 C - ADDED KEY FOR LRECL IN NNNNNK FORMAT               */
²                                   3974+*/*                AND ACCODE                                    @L1A*/
²                                   3975+*/*  IEFZB4D2 C - ADDED SUPPORT FOR BURST, CHARS, COPY GROUPS,       */
²                                   3976+*/*               FLASH, MODIFY AND OUTPUT REFERENCE             @H1A*/
²                                   3977+*/*  IEFZB4D2 C - ADD DALUSRID FIELD IN ALLOCATION FUNCTION  @G860P44*/
i                                   3978+*/*  IEFZB4D2 C - SU29 VECTOR PROCESSING SUBSYSTEM SUPPORT   @G29AN2F*/
²                                                                                                               Page   73
  Active Usings: S99TUNIT,R8  GETINIT+X'248',R12
D-Loc  Object Code    Addr1 Addr2  Stmt   Source Statement                                  HLASM R6.0  2014/07/08 18.32
²                                   3979+*/*  IEFZB4D2 C - SU32 RACF PROTECT KEY SUPPORT              @G32HPPJ*/
²                                   3980+*/*  IEFZB4D2 C - MERGED BACK TO REL 3.7                     @ZA28413*/
²                                   3981+*/*  IEFZB4D2 C - ADD SUBSYSTEM ATTRIBUTE TEXT UNIT          @ZA25778*/
²                                   3982+*/*                                                                  */
²                                   3983+*/********************************************************************/
²                                   3984+*        %GOTO PLSS99K2;                                          /* *
²                                   3985+*
²000000                00000 00000  3986+SVC99KYS DSECT                                                          01-IEFZB
²                                   3987+***********************************************************************
²                                   3988+*
²                                   3989+* KEYS FOR ALLOCATION FUNCTION
²                                   3990+*
²                                   3991+***********************************************************************
²                      00001        3992+DALDDNAM EQU   X'0001'                 DDNAME                           01-IEFZB
²                      00002        3993+DALDSNAM EQU   X'0002'                 DSNAME                           01-IEFZB
²                      00003        3994+DALMEMBR EQU   X'0003'                 MEMBER NAME                      01-IEFZB
²                      00004        3995+DALSTATS EQU   X'0004'                 DATA SET STATUS                  01-IEFZB
²                      00005        3996+DALNDISP EQU   X'0005'                 DATA SET NORMAL DISPOSITION      01-IEFZB
²                      00006        3997+DALCDISP EQU   X'0006'                 DATA SET CONDITIONAL DISP        01-IEFZB
²                      00007        3998+DALTRK   EQU   X'0007'                 TRACK SPACE TYPE                 01-IEFZB
²                      00008        3999+DALCYL   EQU   X'0008'                 CYLINDER SPACE TYPE              01-IEFZB
²                      00009        4000+DALBLKLN EQU   X'0009'                 AVERAGE DATA BLOCK LENGTH        01-IEFZB
²                      0000A        4001+DALPRIME EQU   X'000A'                 PRIMARY SPACE QUANTITY           01-IEFZB
²                      0000B        4002+DALSECND EQU   X'000B'                 SECONDARY SPACE QUANTITY         01-IEFZB
²                      0000C        4003+DALDIR   EQU   X'000C'                 DIRECTORY SPACE QUANTITY         01-IEFZB
²                      0000D        4004+DALRLSE  EQU   X'000D'                 UNUSED SPACE RELEASE             01-IEFZB
²                      0000E        4005+DALSPFRM EQU   X'000E'                 CONTIG,MXIG,ALX SPACE FORMAT     01-IEFZB
²                      0000F        4006+DALROUND EQU   X'000F'                 WHOLE CYLINDER (ROUND) SPACE     01-IEFZB
²                      00010        4007+DALVLSER EQU   X'0010'                 VOLUME SERIAL                    01-IEFZB
²                      00011        4008+DALPRIVT EQU   X'0011'                 PRIVATE VOLUME                   01-IEFZB
²                      00012        4009+DALVLSEQ EQU   X'0012'                 VOL SEQUENCE NUMBER              01-IEFZB
²                      00013        4010+DALVLCNT EQU   X'0013'                 VOLUME COUNT                     01-IEFZB
²                      00014        4011+DALVLRDS EQU   X'0014'                 VOLUME REFERENCE TO DSNAME       01-IEFZB
²                      00015        4012+DALUNIT  EQU   X'0015'                 UNIT DESCRIPTION                 01-IEFZB
²                      00016        4013+DALUNCNT EQU   X'0016'                 UNIT COUNT                       01-IEFZB
²                      00017        4014+DALPARAL EQU   X'0017'                 PARALLEL MOUNT                   01-IEFZB
²                      00018        4015+DALSYSOU EQU   X'0018'                 SYSOUT                           01-IEFZB
²                      00019        4016+DALSPGNM EQU   X'0019'                 SYSOUT PROGRAM NAME              01-IEFZB
²                      0001A        4017+DALSFMNO EQU   X'001A'                 SYSOUT FORM NUMBER               01-IEFZB
²                      0001B        4018+DALOUTLM EQU   X'001B'                 OUTPUT LIMIT                     01-IEFZB
²                      0001C        4019+DALCLOSE EQU   X'001C'                 UNALLOCATE AT CLOSE              01-IEFZB
²                      0001D        4020+DALCOPYS EQU   X'001D'                 SYSOUT COPIES                    01-IEFZB
²                      0001E        4021+DALLABEL EQU   X'001E'                 LABEL TYPE                       01-IEFZB
²                      0001F        4022+DALDSSEQ EQU   X'001F'                 DATA SET SEQUENCE NUMBER         01-IEFZB
²                      00020        4023+DALPASPR EQU   X'0020'                 PASSWORD PROTECTION              01-IEFZB
²                      00021        4024+DALINOUT EQU   X'0021'                 INPUT ONLY OR OUTPUT ONLY        01-IEFZB
²                      00022        4025+DALEXPDT EQU   X'0022'                 2 DIGIT YEAR EXPIRATION DATE     01-IEFZB
²                      00023        4026+DALRETPD EQU   X'0023'                 RETENTION PERIOD                 01-IEFZB
²                      00024        4027+DALDUMMY EQU   X'0024'                 DUMMY ALLOCATION                 01-IEFZB
²                      00025        4028+DALFCBIM EQU   X'0025'                 FCB IMAGE-ID                     01-IEFZB
²                      00026        4029+DALFCBAV EQU   X'0026'                 FCB FORM ALIGNMENT,IMAGE VERIFY  01-IEFZB
²                      00027        4030+DALQNAME EQU   X'0027'                 QNAME ALLOCATION                 01-IEFZB
²                      00028        4031+DALTERM  EQU   X'0028'                 TERMINAL ALLOCATION              01-IEFZB
²                      00029        4032+DALUCS   EQU   X'0029'                 UNIVERSAL CHARACTER SET          01-IEFZB
i                      0002A        4033+DALUFOLD EQU   X'002A'                 UCS FOLD MODE                    01-IEFZB
²                                                                                                               Page   74
  Active Usings: S99TUNIT,R8  GETINIT+X'248',R12
D-Loc  Object Code    Addr1 Addr2  Stmt   Source Statement                                  HLASM R6.0  2014/07/08 18.32
²                      0002B        4034+DALUVRFY EQU   X'002B'                 UCS VERIFY CHARACTER SET         01-IEFZB
²                      0002C        4035+DALDCBDS EQU   X'002C'                 DCB DSNAME REFERENCE             01-IEFZB
²                      0002D        4036+DALDCBDD EQU   X'002D'                 DCB DDNAME REFERENCE             01-IEFZB
²                      0002E        4037+DALBFALN EQU   X'002E'                 BUFFER ALIGNMENT                 01-IEFZB
²                      0002F        4038+DALBFTEK EQU   X'002F'                 BUFFERING TECHNIQUE              01-IEFZB
²                      00030        4039+DALBLKSZ EQU   X'0030'                 BLOCKSIZE                        01-IEFZB
²                      00031        4040+DALBUFIN EQU   X'0031'                 NUMBER OF INPUT BUFFERS          01-IEFZB
²                      00032        4041+DALBUFL  EQU   X'0032'                 BUFFER LENGTH                    01-IEFZB
²                      00033        4042+DALBUFMX EQU   X'0033'                 MAXIMUM NUMBER OF BUFFERS        01-IEFZB
²                      00034        4043+DALBUFNO EQU   X'0034'                 NUMBER OF DCB BUFFERS            01-IEFZB
²                      00035        4044+DALBUFOF EQU   X'0035'                 BUFFER OFFSET                    01-IEFZB
²                      00036        4045+DALBUFOU EQU   X'0036'                 NUMBER OF OUTPUT BUFFERS         01-IEFZB
²                      00037        4046+DALBUFRQ EQU   X'0037'                 NUMBER OF GET MACRO BUFFERS      01-IEFZB
²                      00038        4047+DALBUFSZ EQU   X'0038'                 LINE BUFFER SIZE                 01-IEFZB
²                      00039        4048+DALCODE  EQU   X'0039'                 PAPER TAPE CODE                  01-IEFZB
²                      0003A        4049+DALCPRI  EQU   X'003A'                 SEND/RECEIVE PRIORITY            01-IEFZB
²                      0003B        4050+DALDEN   EQU   X'003B'                 TAPE DENSITY                     01-IEFZB
²                      0003C        4051+DALDSORG EQU   X'003C'                 DATA SET ORGANIZATION            01-IEFZB
²                      0003D        4052+DALEROPT EQU   X'003D'                 ERROR OPTIONS                    01-IEFZB
²                      0003E        4053+DALGNCP  EQU   X'003E'                 NO. OF GAM I/O BEFORE WAIT       01-IEFZB
²                      0003F        4054+DALINTVL EQU   X'003F'                 POLLING INTERVAL                 01-IEFZB
²                      00040        4055+DALKYLEN EQU   X'0040'                 DATA SET KEYS LENGTH             01-IEFZB
²                      00041        4056+DALLIMCT EQU   X'0041'                 SEARCH LIMIT                     01-IEFZB
²                      00042        4057+DALLRECL EQU   X'0042'                 LOGICAL RECORD  LENGTH           01-IEFZB
²                      00043        4058+DALMODE  EQU   X'0043'                 CARD READER/PUNCH MODE           01-IEFZB
²                      00044        4059+DALNCP   EQU   X'0044'                 NO. READ/WRITE BEFORE CHECK      01-IEFZB
²                      00045        4060+DALOPTCD EQU   X'0045'                 OPTIONAL SERVICES                01-IEFZB
²                      00046        4061+DALPCIR  EQU   X'0046'                 RECEIVING PCI                    01-IEFZB
²                      00047        4062+DALPCIS  EQU   X'0047'                 SENDING PCI                      01-IEFZB
²                      00048        4063+DALPRTSP EQU   X'0048'                 PRINTER LINE SPACING             01-IEFZB
²                      00049        4064+DALRECFM EQU   X'0049'                 RECORD FORMAT                    01-IEFZB
²                      0004A        4065+DALRSRVF EQU   X'004A'                 FIRST BUFFER RESERVE             01-IEFZB
²                      0004B        4066+DALRSRVS EQU   X'004B'                 SECONDARY BUFFER RESERVE         01-IEFZB
²                      0004C        4067+DALSOWA  EQU   X'004C'                 TCAM USER WORK AREA SIZE         01-IEFZB
²                      0004D        4068+DALSTACK EQU   X'004D'                 STACKER BIN                      01-IEFZB
²                      0004E        4069+DALTHRSH EQU   X'004E'                 MESSAGE QUEUE PERCENTAGE         01-IEFZB
²                      0004F        4070+DALTRTCH EQU   X'004F'                 TAPE RECORDING TECHNOLOGY @T1C   01-IEFZB
²                      00050        4071+DALPASSW EQU   X'0050'                 PASSWORD                         01-IEFZB
²                      00051        4072+DALIPLTX EQU   X'0051'                 IPL TEXT ID                      01-IEFZB
²                      00052        4073+DALPERMA EQU   X'0052'                 PERMANENTLY ALLOCATED ATTRIB     01-IEFZB
²                      00053        4074+DALCNVRT EQU   X'0053'                 CONVERTIBLE ATTRIBUTE            01-IEFZB
²                      00054        4075+DALDIAGN EQU   X'0054'                 OPEN/CLOSE/EOV DIAGNOSTIC TRACE  01-IEFZB
²                      00055        4076+DALRTDDN EQU   X'0055'                 RETURN DDNAME                    01-IEFZB
²                      00056        4077+DALRTDSN EQU   X'0056'                 RETURN DSNAME                    01-IEFZB
²                      00057        4078+DALRTORG EQU   X'0057'                 RETURN D.S. ORGANIZATION         01-IEFZB
²                      00058        4079+DALSUSER EQU   X'0058'                 SYSOUT REMOTE USER               01-IEFZB
²                      00059        4080+DALSHOLD EQU   X'0059'                 SYSOUT HOLD QUEUE                01-IEFZB
²                      0005A        4081+DALFUNC  EQU   X'005A'                 D.S. TYPE FOR 3525 CARD DEVICE   01-IEFZB
²                      0005B        4082+DALFRID  EQU   X'005B'                 IMAGELIB MEMBER FOR SHARK        01-IEFZB
²                      0005C        4083+DALSSREQ EQU   X'005C'                 SUBSYSTEM REQUEST                01-IEFZB
²                      0005D        4084+DALRTVOL EQU   X'005D'                 RETURN VOLUME SERIAL             01-IEFZB
²                      0005E        4085+DALMSVGP EQU   X'005E'                 MSVGP FOR 3330V        @Y30LPPD  01-IEFZB
²                      0005F        4086+DALSSNM  EQU   X'005F'                 SUBSYSTEM NAME REQUEST @G29AN2F  01-IEFZB
²                      00060        4087+DALSSPRM EQU   X'0060'                 SUBSYSTEM PARAMETERS   @G29AN2F  01-IEFZB
i                      00061        4088+DALPROT  EQU   X'0061'                 RACF PROTECT FEATURE   @G32HPPJ  01-IEFZB
²                                                                                                               Page   75
  Active Usings: S99TUNIT,R8  GETINIT+X'248',R12
D-Loc  Object Code    Addr1 Addr2  Stmt   Source Statement                                  HLASM R6.0  2014/07/08 18.32
²                      00062        4089+DALSSATT EQU   X'0062'                 SUBSYSTEM ATTRIBUTE    @ZA25778  01-IEFZB
²                      00063        4090+DALUSRID EQU   X'0063'                 SYSOUT USER ID         @G860P44  01-IEFZB
²                      00064        4091+DALBURST EQU   X'0064'                 BURSTER-TRIMMER-STACKER    @H1A  01-IEFZB
²                      00065        4092+DALCHARS EQU   X'0065'                 CHAR ARRANGEMENT TABLE     @H1A  01-IEFZB
²                      00066        4093+DALCOPYG EQU   X'0066'                 COPY GROUP VALUES          @H1A  01-IEFZB
²                      00067        4094+DALFFORM EQU   X'0067'                 FLASH FORMS OVERLAY        @H1A  01-IEFZB
²                      00068        4095+DALFCNT  EQU   X'0068'                 FLASH FORMS OVERLAY COUNT  @H1A  01-IEFZB
²                      00069        4096+DALMMOD  EQU   X'0069'                 COPY MODIFICATION MODULE   @H1A  01-IEFZB
²                      0006A        4097+DALMTRC  EQU   X'006A'                 TABLE REFERENCE CHARACTER  @H1A  01-IEFZB
²                      0006B        4098+DALLRECK EQU   X'006B'                 LRECL IN MULT OF 1K FORMAT @L1A  01-IEFZB
²                      0006C        4099+DALDEFER EQU   X'006C'                 DEFER MOUNT UNTIL OPEN     @D1A  01-IEFZB
²                      0006D        4100+DALEXPDL EQU   X'006D'                 4 DIGIT YEAR EXP. DATE     @L2A  01-IEFZB
²                      0006E        4101+DALBRTKN EQU   X'006E'                 Browse token supplied      @D3A  01-IEFZB
²                      0006F        4102+DALINCHG EQU   X'006F'                 Volume Interchange               01-IEFZB
²                                   4103+*                                      Attributes                 @L5A
²                      00070        4104+DALOVAFF EQU   X'0070'                 Tell JES to override       @L6A  01-IEFZB
²                                   4105+*                                      system affinity for INTRDR @L6A
²                      00071        4106+DALRTCTK EQU   X'0071'                 Return Allocation Sysout   @L8A  01-IEFZB
²                                   4107+*                                      Client Token               @L8A
²                      00072        4108+DALKILO  EQU   X'0072'                 BLKSIZE OF KILOBYTE        @L9A  01-IEFZB
²                      00073        4109+DALMEG   EQU   X'0073'                 BLKSIZE OF MEGABYTE        @L9A  01-IEFZB
²                      00074        4110+DALGIG   EQU   X'0074'                 BLKSIZE OF GIGABYTE        @L9A  01-IEFZB
²                      00075        4111+DALUASSR EQU   X'0075'                 Unauthorized subsystem     @LAA  01-IEFZB
²                                   4112+*                                      request                    @LAA
²                      08001        4113+DALACODE EQU   X'8001'                 ACCESSIBILITY CODE         @L1A  01-IEFZB
²                      08002        4114+DALOUTPT EQU   X'8002'                 OUTPUT REFERENCE           @H1A  01-IEFZB
²                                   4115+*  JDT defined Allocation keys
²                                   4117+*        SJF DD ALLOCATION KEYS                               *    @L3A
²                      08003        4118+DALCNTL    EQU   X'8003'        CNTL                               @D1A 02-IEFSJ
²                      08004        4119+DALSTCL    EQU   X'8004'        STORCLAS                                02-IEFSJ
²                      08005        4120+DALMGCL    EQU   X'8005'        MGMTCLAS                                02-IEFSJ
²                      08006        4121+DALDACL    EQU   X'8006'        DATACLAS                                02-IEFSJ
²                      0800B        4122+DALRECO    EQU   X'800B'        RECORG                                  02-IEFSJ
²                      0800C        4123+DALKEYO    EQU   X'800C'       KEYOFF                                   02-IEFSJ
²                      0800D        4124+DALREFD    EQU   X'800D'       REFDD                                    02-IEFSJ
²                      0800E        4125+DALSECM    EQU   X'800E'       SECMODEL                                 02-IEFSJ
²                      0800F        4126+DALLIKE    EQU   X'800F'        LIKE                                    02-IEFSJ
²                      08010        4127+DALAVGR    EQU   X'8010'        AVGREC                                  02-IEFSJ
²                      08012        4128+DALDSNT    EQU   X'8012'        DSNTYPE                          @L1A   02-IEFSJ
²                      08013        4129+DALSPIN    EQU   X'8013'        SPIN                             @L2A   02-IEFSJ
²                      08014        4130+DALSEGM    EQU   X'8014'        SEGMENT                          @L2A   02-IEFSJ
²                                   4131+*                                                                  @L4A
²                      08017        4132+DALPATH    EQU   X'8017'        PATH                               @L4A 02-IEFSJ
²                                   4133+*                                                                  @L4A
²                      08018        4134+DALPOPT    EQU   X'8018'        PATHOPTS                           @L4A 02-IEFSJ
²                      08019        4135+DALPMDE    EQU   X'8019'        PATHMODE                           @L4A 02-IEFSJ
²                      0801A        4136+DALPNDS    EQU   X'801A'        PATHDISP - Normal Disposition      @L4A 02-IEFSJ
²                      0801B        4137+DALPCDS    EQU   X'801B'        PATHDISP - Conditional Disposition @L4A 02-IEFSJ
²                      0801C        4138+DALRLS     EQU   X'801C'        RLS - Record Level Sharing         @L5A 02-IEFSJ
²                      0801D        4139+DALFDAT    EQU   X'801D'        FILEDATA - file organization       @L6A 02-IEFSJ
²                      0801F        4140+DALLGST    EQU   X'801F'        LGSTREAM                           @02A 02-IEFSJ
²                      08020        4141+DALDCCS    EQU   X'8020'        CCSID                              @03A 02-IEFSJ
²                      08022        4142+DALBSLM    EQU   X'8022'        BLKSZLIM                           @04A 02-IEFSJ
²                      08023        4143+DALKYL1    EQU   X'8023'        KEYLABL1                           @P7C 02-IEFSJ
i                      08024        4144+DALKYL2    EQU   X'8024'        KEYLABL2                           @P7C 02-IEFSJ
²                                                                                                               Page   76
  Active Usings: S99TUNIT,R8  GETINIT+X'248',R12
D-Loc  Object Code    Addr1 Addr2  Stmt   Source Statement                                  HLASM R6.0  2014/07/08 18.32
²                      08025        4145+DALKYC1    EQU   X'8025'        KEYENCD1                           @P7C 02-IEFSJ
²                      08026        4146+DALKYC2    EQU   X'8026'        KEYENCD2                           @P7C 02-IEFSJ
²                                   4147+**********************************************************************
²                                   4148+*
²                                   4149+* KEYS FOR CONCATENATION FUNCTION
²                                   4150+*
²                                   4151+**********************************************************************
²                      00001        4152+DCCDDNAM EQU   X'0001'                 DDNAMES                          01-IEFZB
²                      00004        4153+DCCPERMC EQU   X'0004'                 PERMANENTLY CONCATENATED         01-IEFZB
²                                   4154+**********************************************************************
²                                   4155+*
²                                   4156+* KEYS FOR DECONCATENATION FUNCTION
²                                   4157+*
²                                   4158+***********************************************************************
²                      00001        4159+DDCDDNAM EQU   X'0001'                 DDNAME                           01-IEFZB
²                                   4160+***********************************************************************
²                                   4161+*
²                                   4162+* KEYS FOR INFORMATION RETRIEVAL FUNCTION
²                                   4163+*
²                                   4164+***********************************************************************
²                      00001        4165+DINDDNAM EQU   X'0001'                 DDNAME                           01-IEFZB
²                      00002        4166+DINDSNAM EQU   X'0002'                 DSNAME                           01-IEFZB
²                      00004        4167+DINRTDDN EQU   X'0004'                 RETURN DDNAME                    01-IEFZB
²                      00005        4168+DINRTDSN EQU   X'0005'                 RETURN DSNAME                    01-IEFZB
²                      00006        4169+DINRTMEM EQU   X'0006'                 RETURN MEMBER NAME               01-IEFZB
²                      00007        4170+DINRTSTA EQU   X'0007'                 RETURN DATA SET STATUS           01-IEFZB
²                      00008        4171+DINRTNDP EQU   X'0008'                 RETURN NORMAL DISPOSITION        01-IEFZB
²                      00009        4172+DINRTCDP EQU   X'0009'                 RETURN CONDITIONAL DISP          01-IEFZB
²                      0000A        4173+DINRTORG EQU   X'000A'                 RETURN D.S. ORGANIZATION         01-IEFZB
²                      0000B        4174+DINRTLIM EQU   X'000B'                 RETURN # TO NOT-IN-USE LIMIT     01-IEFZB
²                      0000C        4175+DINRTATT EQU   X'000C'                 RETURN DYN. ALLOC ATTRIBUTES     01-IEFZB
²                      0000D        4176+DINRTLST EQU   X'000D'                 RETURN LAST ENTRY INDICATION     01-IEFZB
²                      0000E        4177+DINRTTYP EQU   X'000E'                 RETURN S.D. TYPE INDICATION      01-IEFZB
²                      0000F        4178+DINRELNO EQU   X'000F'                 RELATIVE REQUEST NUMBER          01-IEFZB
²                      00010        4179+DINRTVOL EQU   X'0010'                 Return First Volser        @L7A  01-IEFZB
²                                   4180+*  JDT defined Information Retrieval output keys
²                                   4182+*        SJF DD INFORMATION RETRIEVAL KEYS                    *    @L3A
²                      0C003        4183+DINRCNTL   EQU   X'C003'        CNTL                               @D1A 02-IEFSJ
²                      0C004        4184+DINRSTCL   EQU   X'C004'        STORCLAS                                02-IEFSJ
²                      0C005        4185+DINRMGCL   EQU   X'C005'        MGMTCLAS                                02-IEFSJ
²                      0C006        4186+DINRDACL   EQU   X'C006'        DATACLAS                                02-IEFSJ
²                      0C00B        4187+DINRRECO   EQU   X'C00B'        RECORG                                  02-IEFSJ
²                      0C00C        4188+DINRKEYO   EQU   X'C00C'        KEYOFF                                  02-IEFSJ
²                      0C00D        4189+DINRREFD   EQU   X'C00D'        REFDD                                   02-IEFSJ
²                      0C00E        4190+DINRSECM   EQU   X'C00E'        SECMODEL                                02-IEFSJ
²                      0C00F        4191+DINRLIKE   EQU   X'C00F'        LIKE                                    02-IEFSJ
²                      0C010        4192+DINRAVGR   EQU   X'C010'        AVGREC                                  02-IEFSJ
²                      0C012        4193+DINRDSNT   EQU   X'C012'        DSNTYPE                           @L1A  02-IEFSJ
²                      0C013        4194+DINRSPIN   EQU   X'C013'        SPIN                              @L2A  02-IEFSJ
²                      0C014        4195+DINRSEGM   EQU   X'C014'        SEGMENT                           @L2A  02-IEFSJ
²                      0C017        4196+DINRPATH   EQU   X'C017'        PATH                               @L4A 02-IEFSJ
²                      0C018        4197+DINRPOPT   EQU   X'C018'        PATHOPTS                           @L4A 02-IEFSJ
²                      0C019        4198+DINRPMDE   EQU   X'C019'        PATHMODE                           @L4A 02-IEFSJ
²                      0C01A        4199+DINRPNDS   EQU   X'C01A'        NORMAL PATHDISP                    @L4A 02-IEFSJ
i                      0C01B        4200+DINRCNDS   EQU   X'C01B'        CONDITIONAL PATHDISP               @L4A 02-IEFSJ
²                                                                                                               Page   77
  Active Usings: S99TUNIT,R8  GETINIT+X'248',R12
D-Loc  Object Code    Addr1 Addr2  Stmt   Source Statement                                  HLASM R6.0  2014/07/08 18.32
²                      0C01B        4201+DINRPCDS   EQU   X'C01B'        CONDITIONAL PATHDISP               @P5A 02-IEFSJ
²                      0C01D        4202+DINRFDAT   EQU   X'C01D'        FILEDATA                           @L6A 02-IEFSJ
²                                   4203+*  JDT defined Information Retrieval input keys
²                                   4205+*        SJF DD INFORMATION RETRIEVAL INPUT KEYS              *    @L4A
²                      08017        4206+DINPATH    EQU   X'8017'        PATH                               @L4A 02-IEFSJ
²                                   4207+**********************************************************************
²                                   4208+*
²                                   4209+* KEYS FOR REMOVE IN-USE FUNCTION
²                                   4210+*
²                                   4211+**********************************************************************
²                      00001        4212+DRITCBAD EQU   X'0001'                 TCB ADDRESS                      01-IEFZB
²                      00002        4213+DRICURNT EQU   X'0002'                 CURRENT TASK OPTION              01-IEFZB
²                                   4214+**********************************************************************
²                                   4215+*
²                                   4216+* KEYS FOR DDNAME ALLOCATION FUNCTION
²                                   4217+*
²                                   4218+**********************************************************************
²                      00001        4219+DDNDDNAM EQU   X'0001'                 DDNAME                           01-IEFZB
²                      00002        4220+DDNRTDUM EQU   X'0002'                 RETURN DUMMY D.S. INDICATION     01-IEFZB
²                                   4221+**********************************************************************
²                                   4222+*
²                                   4223+* KEYS FOR UNALLOCATION FUNCTION
²                                   4224+*
²                                   4225+**********************************************************************
²                      00001        4226+DUNDDNAM EQU   X'0001'                 DDNAME                           01-IEFZB
²                      00002        4227+DUNDSNAM EQU   X'0002'                 DSNAME                           01-IEFZB
²                      00003        4228+DUNMEMBR EQU   X'0003'                 MEMBER NAME                      01-IEFZB
²                      00005        4229+DUNOVDSP EQU   X'0005'                 OVERRIDING DISPOSITION           01-IEFZB
²                      00007        4230+DUNUNALC EQU   X'0007'                 UNALLOC OPTION                   01-IEFZB
²                      00008        4231+DUNREMOV EQU   X'0008'                 REMOVE OPTION                    01-IEFZB
²                      0000A        4232+DUNOVSNH EQU   X'000A'                 OVERRIDING SYSOUT NOHOLD         01-IEFZB
²                      00018        4233+DUNOVCLS EQU   X'0018'                 OVERRIDING SYSOUT CLASS          01-IEFZB
²                      00058        4234+DUNOVSUS EQU   X'0058'                 OVERRIDING SYSOUT NODE     @P2C  01-IEFZB
²                      00059        4235+DUNOVSHQ EQU   X'0059'                 OVERRIDING SYSOUT HOLD QUEUE     01-IEFZB
²                      00063        4236+DUNOVUID EQU   X'0063'                 Overriding SYSOUT User ID  @P2A  01-IEFZB
²                                   4237+*  JDT defined Unallocation keys                                  @L3A
²                                   4239+*        SJF DD UNALLOCATION KEYS                             *    @L3A
²                      08013        4240+DUNSPIN    EQU   X'8013'        SPIN                               @L3A 02-IEFSJ
²                                   4241+*
²                      08017        4242+DUNPATH    EQU   X'8017'        PATH                               @L4A 02-IEFSJ
²                                   4243+*
²                      0801A        4244+DUNOVPDS    EQU   X'801A'        PATHDISP - Override Disposition   @L4A 02-IEFSJ
²000000                             4245          DS    0F                                                       00480000
²                                   4246          DCBD  DSORG=(PS),DEVD=(DA)                                     00490000
²                                   4247+*                       DCB SYMBOLIC DEFINITION FOR
²                                   4248+*                       PHYSICAL SEQUENTIAL
²000000                00000 00060  4249+IHADCB   DSECT ,              DCBPTR                           @ZA05613 01-DCBD
²                                   4250+*
²                                   4251+***********************************************************************
²                                   4252+*DATA CONTROL BLOCK DEFINITION
²                                   4253+*
²                                   4254+*$MAC(DCBD):
²                                   4255+*
²                                   4256+*  STATUS - Z/OS DFSMS V1R10
i                                   4257+*
²                                                                                                               Page   78
  Active Usings: S99TUNIT,R8  GETINIT+X'248',R12
D-Loc  Object Code    Addr1 Addr2  Stmt   Source Statement                                  HLASM R6.0  2014/07/08 18.32
²                                   4258+***********************************************************************
²                      00080        4259+DCBBIT0  EQU   128                                             @ZA05613 01-DCBD
²                      00040        4260+DCBBIT1  EQU   64                                              @ZA05613 01-DCBD
²                      00020        4261+DCBBIT2  EQU   32                                              @ZA05613 01-DCBD
²                      00010        4262+DCBBIT3  EQU   16                                              @ZA05613 01-DCBD
²                      00008        4263+DCBBIT4  EQU   8                                               @ZA05613 01-DCBD
²                      00004        4264+DCBBIT5  EQU   4                                               @ZA05613 01-DCBD
²                      00002        4265+DCBBIT6  EQU   2                                               @ZA05613 01-DCBD
²                      00001        4266+DCBBIT7  EQU   1                                               @ZA05613 01-DCBD
²                                   4267+***********************************************************************
²                                   4268+***********************************************************************
²                                   4269+*                       DEVICE INTERFACES
²                                   4270+***********************************************************************
²                                   4271+***********************************************************************
²                                   4272+*                       DIRECT ACCESS DEVICES
²                                   4273+***********************************************************************
²000000                             4274+DCBDCBE  DS    A              DCBE ADDRESS ASSOCIATED WITH THIS    @L5A 01-DCBD
²                                   4275+*                             DCB IF A DCBE EXISTS. A DCBE EXISTS  @L5A
²                                   4276+*                             IF BOTH DCBH0 AND DCBH1 ARE SET ON.  @L5A
²                                   4277+*                             (DSORG=PS OR PO)                     @L5A
²000004                00004 00000  4278+         ORG   DCBDCBE                                             @L5A 01-DCBD
²000000                             4279+DCBRELAD DS    CL4        --- PARTITIONED ORGANIZATION DATA SET -       01-DCBD
²                                   4280+*                             ADDRESS (IN THE FORM TTRN) OF MEMBER
²                                   4281+*                             CURRENTLY USED (UNLESS A DCBE EXISTS
²                                   4282+*                             IN WHICH CASE THIS OFFSET POINTS TO  @L5A
²                                   4283+*                             THE DCBE, SEE DCBDCBE).              @L5A
²                                   4284+*                             IF A DCBE EXISTS, THE TTRN IS STORED @L5A
²                                   4285+*                             IN THE DCBE (DCBERELA). HIERARCHY    @L5A
²                                   4286+*                             BITS DEFINE THE EXISTENCE OF A DCBE. @L5A
²                                   4287+*                         --- SEQUENTIAL DATA SET - ADDRESS OF     @L5A
²                                   4288+*                             DCBE IF ONE EXISTS.                  @L5A
²000004                             4289+DCBKEYCN DS    FL1            KEYED BLOCK OVERHEAD CONSTANT             01-DCBD
²000005                             4290+DCBFDAD  DS    CL8            FULL DISK ADDRESS IN THE FORM OF MBBCCHHR 01-DCBD
²                                   4291+*                             OF RECORD THAT WAS JUST READ OR WRITTEN
²00000D                0000D 0000C  4292+         ORG   DCBFDAD+7                                                01-DCBD
²00000C                             4293+DCBDVTBL DS    0A             SAME AS DCBDVTBA BELOW                    01-DCBD
²00000C                             4294+         DS    X              LAST BYTE OF DCBFDAD                      01-DCBD
²00000D                             4295+DCBDVTBA DS    AL3            ADDRESS OF ENTRY IN I/O DEVICE            01-DCBD
²                                   4296+*                             CHARACTERISTICS TABLE FOR DEVICE BEING
²                                   4297+*                             USED
²000010                             4298+         DS    FL1            DCBKEYLE - KEY LENGTH OF DATA SET         01-DCBD
²000011                             4299+         DS    C              DCBDEVT - DEVICE TYPE                     01-DCBD
²                                   4300+*   FOR MASKS FOR ISAM DIRECT ACCESS, SEE DCBOVDEV IN ISAM SECTION
²                      00021        4301+DCBDV311 EQU   X'21'          2311 DISK STORAGE                @ZA46311 01-DCBD
²                      00022        4302+DCBDV301 EQU   X'22'          2301 PARALLEL DRUM                        01-DCBD
²                      00023        4303+DCBDV303 EQU   X'23'          2303 SERIAL DRUM                          01-DCBD
²                      00024        4304+DCBDV345 EQU   X'24'          9345 DISK STORAGE FACILITY(NO LONGER @11C 01-DCBD
²                                   4305+*                             FOR 2302 DISK STORAGE)               @11A
²                      00025        4306+DCBDV321 EQU   X'25'          2321 DATA CELL STORAGE           @ZA46311 01-DCBD
²                      00026        4307+DCBD1305 EQU   X'26'          2305 DRUM MODEL-1                @ZA46311 01-DCBD
²                      00027        4308+DCBDV305 EQU   X'27'          2305 DRUM MODEL-2                @ZA46311 01-DCBD
²                      00028        4309+DCBDV314 EQU   X'28'          2314/2319 DISK STORAGE FACILITY  @ZA46311 01-DCBD
²                      00029        4310+DCBDV330 EQU   X'29'          3330 DISK STORAGE FACILITY       @ZA46311 01-DCBD
²                                   4311+*                             3330 MODEL-1                     @ZA46311
i                                   4312+*                             3330 MODEL-2                     @ZA46311
²                                                                                                               Page   79
  Active Usings: S99TUNIT,R8  GETINIT+X'248',R12
D-Loc  Object Code    Addr1 Addr2  Stmt   Source Statement                                  HLASM R6.0  2014/07/08 18.32
²                                   4313+*                             3333 MODEL-1                     @ZA46311
²                      0002A        4314+DCBDV340 EQU   X'2A'          3340/3344 DISK STORAGE FACILITY  @ZA46311 01-DCBD
²                      0002B        4315+DCBDV350 EQU   X'2B'          3350 DISK STORAGE FACILITY       @ZA46311 01-DCBD
²                                   4316+*                             MODELS A2, B2, AND C2            @ZA46311
²                      0002C        4317+DCBDV375 EQU   X'2C'          3375 DISK STORAGE FACILITY           @01A 01-DCBD
²                      0002D        4318+DCBDV331 EQU   X'2D'          3330 MODEL-11 OR 3333 MODEL-11   @ZA46311 01-DCBD
²                                   4319+*                             DISK STORAGE FACILITY            @ZA46311
²                      0002E        4320+DCBDV380 EQU   X'2E'          3380 DISK STORAGE FACILITY           @01A 01-DCBD
²                      0002F        4321+DCBDV390 EQU   X'2F'          3390 DISK STORAGE FACILITY           @08A 01-DCBD
²000012                             4322+DCBTRBAL DS    H              CODE INDICATING CAPACITY REMAINING ON     01-DCBD
²                                   4323+*                             CURRENT TRACK AFTER A WRITE OPERATION.
²                                   4324+*                             VALID WHEN DCBOFLWR IS ON. FIELD IS
²                                   4325+*                             USED BY TRKCALC.                     @L5C
²                                   4326+***********************************************************************
²                                   4327+*                       ACCESS METHOD COMMON INTERFACE
²                                   4328+***********************************************************************
²000014                00014 00010  4329+         ORG   IHADCB+16                                                01-DCBD
²000010                             4330+DCBRELB  DS    0F             SAME AS DCBREL BELOW                      01-DCBD
²000010                             4331+DCBKEYLE DS    FL1            KEY LENGTH OF DATA SET                    01-DCBD
²000011                             4332+DCBDEVT  DS    0C             DEVICE TYPE                               01-DCBD
²                      0004F        4333+DCBDVTRM EQU   X'4F'          TERMINAL.  (DD CONTAINS TERM=TS)          01-DCBD
²000011                             4334+DCBREL   DS    FL3            NUMBER OF RELATIVE TRACKS OR BLOCKS IN    01-DCBD
²                                   4335+*                             THIS DATA SET (BDAM)
²000014                             4336+DCBBUFCB DS    0A             ADDRESS OF BUFFER POOL CONTROL BLOCK      01-DCBD
²000014                             4337+DCBBUFNO DS    FL1            NUMBER OF BUFFERS REQUIRED FOR THIS DATA  01-DCBD
²                                   4338+*                             SET.  MAY RANGE FROM 0 TO 255.  IF
²                                   4339+*                             UNBLOCKED SPANNED RECORDS ARE USED,
²                                   4340+*                             NUMBER OF SEGMENT WORK AREAS REQUIRED
²                                   4341+*                             FOR THIS DATA SET.
²000015                             4342+DCBBUFCA DS    AL3            ADDRESS OF BUFFER POOL CONTROL BLOCK      01-DCBD
²000018                             4343+DCBBUFL  DS    H              LENGTH OF BUFFER.  MAY RANGE FROM 0 TO    01-DCBD
²                                   4344+*                             32,760.                              @L5C
²00001A                             4345+DCBDSORG DS    0BL2           DATA SET ORGANIZATION BEING USED          01-DCBD
²00001A                             4346+DCBDSRG1 DS    BL1            FIRST BYTE OF DCBDSORG                    01-DCBD
²                      00080        4347+DCBDSGIS EQU   DCBBIT0        IS - INDEXED SEQUENTIAL ORGANIZATION      01-DCBD
²                                   4348+*                             NOTE - ISAM NO LONGER SUPPORTED      @LAA
²                      00040        4349+DCBDSGPS EQU   DCBBIT1        PS - PHYSICAL SEQUENTIAL ORGANIZATION     01-DCBD
²                      00020        4350+DCBDSGDA EQU   DCBBIT2        DA - DIRECT ORGANIZATION                  01-DCBD
²                      00010        4351+DCBDSGCX EQU   DCBBIT3        CX - BTAM OR QTAM LINE GROUP              01-DCBD
²                      00002        4352+DCBDSGPO EQU   DCBBIT6        PO - PARTITIONED ORGANIZATION             01-DCBD
²                      00001        4353+DCBDSGU  EQU   DCBBIT7        U  - UNMOVABLE, THE DATA CONTAINS         01-DCBD
²                                   4354+*                                  LOCATION DEPENDENT INFORMATION
²00001B                             4355+DCBDSRG2 DS    BL1            SECOND BYTE OF DCBDSORG                   01-DCBD
²                      00080        4356+DCBDSGGS EQU   DCBBIT0        GS - GRAPHICS ORGANIZATION                01-DCBD
²                      00040        4357+DCBDSGTX EQU   DCBBIT1        TX - TCAM LINE GROUP                      01-DCBD
²                      00020        4358+DCBDSGTQ EQU   DCBBIT2        TQ - TCAM MESSAGE QUEUE                   01-DCBD
²                      00008        4359+DCBACBM  EQU   DCBBIT4        ALWAYS 0 IN DCB. ALWAYS 1 IN ACB     @L5C 01-DCBD
²                      00004        4360+DCBDSGTR EQU   DCBBIT5        TR - TCAM 3705                            01-DCBD
²00001C                             4361+DCBIOBAD DS    0A             ADDRESS OF IOB WHEN CHAINED SCHEDULING IS 01-DCBD
²                                   4362+*                             USED OR FOR 1419/1275
²00001C                             4363+DCBICQE  DS    0A             ADDRESS OF ICQE                           01-DCBD
²00001C                             4364+DCBODEB  DS    0A             ADDRESS OF OLD DEB                        01-DCBD
²00001C                             4365+DCBLNP   DS    0FL1           3525 PRINTER LINE POSITION COUNTER        01-DCBD
²                                   4366+*                                                                  @07D
i00001C                             4367+DCBQSLM  DS    BL1            QSAM LOCATE MODE LOGICAL RECORD INTERFACE 01-DCBD
²                                                                                                               Page   80
  Active Usings: S99TUNIT,R8  GETINIT+X'248',R12
D-Loc  Object Code    Addr1 Addr2  Stmt   Source Statement                                  HLASM R6.0  2014/07/08 18.32
²                                   4368+*                             INDICATOR BYTE FOR UPDAT PROCESSING OF
²                                   4369+*                             SPANNED RECORDS
²                      00080        4370+DCB1DVDS EQU   DCBBIT0        ONLY ONE DEVICE IS ALLOCATED TO THIS      01-DCBD
²                                   4371+*                             DATA SET
²                      00040        4372+DCBUPDCM EQU   DCBBIT1        UPDATE COMPLETE, FREE OLD DEB             01-DCBD
²                      00030        4373+DCBUPDBT EQU   DCBBIT2+DCBBIT3   UPDATE BITS                            01-DCBD
²                      00020        4374+DCBUPDT  EQU   DCBBIT2        UPDATE TO TAKE PLACE                      01-DCBD
²                      00030        4375+DCBNUPD  EQU   DCBBIT2+DCBBIT3   NO UPDATE TO TAKE PLACE                01-DCBD
²                      00010        4376+DCBSVDEB EQU   DCBBIT3        OLD DEB ADDRESS MUST BE SAVED             01-DCBD
²00001D                             4377+DCBIOBAA DS    0AL3           SAME AS DCBIOBAD ABOVE                    01-DCBD
²00001D                             4378+DCBICQEA DS    0AL3           SAME AS DCBICQE ABOVE                     01-DCBD
²00001D                             4379+DCBODEBA DS    AL3            ADDRESS OF OLD DEB                        01-DCBD
²000020                00020 0001C  4380+         ORG   IHADCB+28                                                01-DCBD
²00001C                             4381+DCBSVCXL DS    0A             SAME AS DCBSVCXA BELOW                    01-DCBD
²00001C                             4382+         DS    X              RESERVED                                  01-DCBD
²00001D                             4383+DCBSVCXA DS    AL3            POINTER TO EXIT LIST OF JES               01-DCBD
²                                   4384+*                             C.I. INTERFACE CONTROL SVC
²                                   4385+***********************************************************************
²                                   4386+*                       FOUNDATION EXTENSION
²                                   4387+***********************************************************************
²000020                             4388+DCBEODAD DS    0A             SAME AS DCBEODA BELOW                     01-DCBD
²000020                             4389+DCBHIARC DS    0BL1           HIERARCHY BITS                            01-DCBD
²000020                             4390+DCBBFTEK DS    0BL1           BUFFERING TECHNIQUE BITS                  01-DCBD
²000020                             4391+DCBBFALN DS    BL1            BUFFER ALIGNMENT BITS                     01-DCBD
²                      00080        4392+DCBH1    EQU   DCBBIT0        HIERARCHY 1 MAIN STORAGE IF BIT5 IS ZERO. 01-DCBD
²                                   4393+*                             DCBE EXISTS IF BIT5 IS ON.           @L5A
²                                   4394+*              INTERPRETATION OF BITS DCBH1 AND DCBH0:             @L5A
²                                   4395+*                 DCBH1 DCBH0                                      @L5A
²                                   4396+*                   0     0   -  NO HIARCHY,  NO DCBE.             @L5A
²                                   4397+*                   1     0   -  HIARCHY=1,   NO DCBE.             @L5A
²                                   4398+*                   0     1   -  HIARCHY=0,   NO DCBE.             @L5A
²                                   4399+*                   1     1   -  NO HIARCHY,  DCBE EXISTS, POINTED @L5A
²                                   4400+*                                             TO BY DCBDCBE        @L5A
²                      00070        4401+DCBBFT   EQU   DCBBIT1+DCBBIT2+DCBBIT3 BUFFERING TECHNIQUE              01-DCBD
²                      00060        4402+DCBBFTA  EQU   DCBBIT1+DCBBIT2   QSAM LOCATE MODE PROCESSING OF SPANNED 01-DCBD
²                                   4403+*                             RECORDS - OPEN IS TO CONSTRUCT A RECORD
²                                   4404+*                             AREA IF IT AUTOMATICALLY CONSTRUCTS
²                                   4405+*                             BUFFERS
²                      00020        4406+DCBBFTR  EQU   DCBBIT2        FOR BSAM CREATE BDAM PROCESSING OF        01-DCBD
²                                   4407+*                             UNBLOCKED SPANNED RECORDS - SOFTWARE
²                                   4408+*                             TRACK OVERFLOW.  FOR BSAM INPUT
²                                   4409+*                             PROCESSING OF UNBLOCKED SPANNED RECORDS
²                                   4410+*                             WITH KEYS - RECORD OFFSET PROCESSING.
²                      00040        4411+DCBBFTS  EQU   DCBBIT1        SIMPLE BUFFERING - BIT 3 IS ZERO          01-DCBD
²                      00020        4412+DCBBFTKR EQU   DCBBIT2        UNBLOCKED SPANNED RECORDS - SOFTWARE      01-DCBD
²                                   4413+*                             TRACK OVERFLOW (BDAM)
²                      00010        4414+DCBBFTE  EQU   DCBBIT3        EXCHANGE BUFFERING - BIT 1 IS ZERO        01-DCBD
²                      00008        4415+DCBBFTKD EQU   DCBBIT4        DYNAMIC BUFFERING (BTAM)                  01-DCBD
²                      00008        4416+DCBBFTK  EQU   DCBBIT4        LRECL  IN 'K' UNITS FOR XLRI         @L2A 01-DCBD
²                      00068        4417+DCBBXLRI EQU   DCBBIT1+DCBBIT2+DCBBIT4   EXTENDED LOGICAL RECORD   @L2A 01-DCBD
²                                   4418+*                                      INTERFACE MODE FOR SPANNED  @L2A
²                                   4419+*                                      RECORDS GREATER THAN 32K -  @L2A
²                                   4420+*                                      ALL RECORDS TRANSFERRED TO  @L2A
²                                   4421+*                                      OR FROM THE RECORD AREA.    @L2A
i                      00004        4422+DCBH0    EQU   DCBBIT5        HIERARCHY 0 MAIN STORAGE IF BIT0 IS ZERO  01-DCBD
²                                                                                                               Page   81
  Active Usings: S99TUNIT,R8  GETINIT+X'248',R12
D-Loc  Object Code    Addr1 Addr2  Stmt   Source Statement                                  HLASM R6.0  2014/07/08 18.32
²                                   4423+*                             DCBE EXISTS IF BIT0 IS ON. SEE DCBH1 @L5A
²                      00003        4424+DCBBFA   EQU   DCBBIT6+DCBBIT7   BUFFER ALIGNMENT                       01-DCBD
²                      00002        4425+DCBBFAD  EQU   DCBBIT6        DOUBLEWORD BOUNDARY                       01-DCBD
²                      00001        4426+DCBBFAF1 EQU   DCBBIT7        FULLWORD NOT A DOUBLEWORD BOUNDARY,       01-DCBD
²                                   4427+*                             CODED IN DCB MACRO INSTRUCTION
²                      00003        4428+DCBBFAF2 EQU   DCBBIT6+DCBBIT7   FULLWORD NOT A DOUBLEWORD BOUNDARY,    01-DCBD
²                                   4429+*                             CODED IN DCB MACRO INSTRUCTION
²000021                             4430+DCBEODA  DS    AL3            ADDRESS OF A USER-PROVIDED ROUTINE TO     01-DCBD
²                                   4431+*                             HANDLE END-OF-DATA CONDITIONS
²000024                             4432+DCBEXLST DS    0A             ADDRESS OF USER-PROVIDED LIST OF EXITS    01-DCBD
²000024                             4433+DCBRECFM DS    BL1            RECORD FORMAT                             01-DCBD
²                      000E0        4434+DCBRECLA EQU   DCBBIT0+DCBBIT1+DCBBIT2 RECORD LENGTH INDICATOR - ASCII  01-DCBD
²                      00020        4435+DCBRECD  EQU   DCBBIT2        ASCII VARIABLE RECORD LENGTH              01-DCBD
²                      000C0        4436+DCBRECL  EQU   DCBBIT0+DCBBIT1   RECORD LENGTH INDICATOR                01-DCBD
²                      00080        4437+DCBRECF  EQU   DCBBIT0        FIXED RECORD LENGTH                       01-DCBD
²                      00040        4438+DCBRECV  EQU   DCBBIT1        VARIABLE RECORD LENGTH                    01-DCBD
²                      000C0        4439+DCBRECU  EQU   DCBBIT0+DCBBIT1   UNDEFINED RECORD LENGTH                01-DCBD
²                      00020        4440+DCBRECTO EQU   DCBBIT2        TRACK OVERFLOW                            01-DCBD
²                      00010        4441+DCBRECBR EQU   DCBBIT3        BLOCKED RECORDS                           01-DCBD
²                      00008        4442+DCBRECSB EQU   DCBBIT4        FOR FIXED LENGTH RECORD FORMAT - STANDARD 01-DCBD
²                                   4443+*                             BLOCKS.  FOR VARIABLE LENGTH RECORD
²                                   4444+*                             FORMAT - SPANNED RECORDS
²                      00006        4445+DCBRECCC EQU   DCBBIT5+DCBBIT6   CONTROL CHARACTER INDICATOR            01-DCBD
²                      00004        4446+DCBRECCA EQU   DCBBIT5        ASA CONTROL CHARACTER                     01-DCBD
²                      00002        4447+DCBRECCM EQU   DCBBIT6        MACHINE CONTROL CHARACTER                 01-DCBD
²                      00000        4448+DCBRECC  EQU   X'00'          NO CONTROL CHARACTER                      01-DCBD
²                      00001        4449+DCBRECKL EQU   DCBBIT7        KEY LENGTH (KEYLEN) WAS SPECIFIED IN DCB  01-DCBD
²                                   4450+*                             MACRO INSTRUCTION
²000025                             4451+DCBEXLSA DS    AL3            ADDRESS OF USER-PROVIDED LIST OF EXITS    01-DCBD
²                                   4452+***********************************************************************
²                                   4453+*                       FOUNDATION BEFORE OPEN
²                                   4454+***********************************************************************
²000028                00028 00028  4455+         ORG   IHADCB+40                                                01-DCBD
²000028                             4456+DCBDDNAM DS    CL8            NAME ON THE DD STATEMENT WHICH DEFINES    01-DCBD
²                                   4457+*                             THE DATA SET ASSOCIATED WITH THIS DCB
²000030                             4458+DCBOFLGS DS    BL1            FLAGS USED BY OPEN ROUTINE                01-DCBD
²                      00080        4459+DCBOFLWR EQU   DCBBIT0        IF ZERO, LAST I/O OPERATION WAS READ OR   01-DCBD
²                                   4460+*                             POINT.  IF ONE, LAST I/O OPERATION WAS
²                                   4461+*                             WRITE.
²                      00080        4462+DCBOFIOD EQU   DCBBIT0        DATA SET IS BEING OPENED FOR INPUT OR     01-DCBD
²                                   4463+*                             OUTPUT (BDAM)
²                      00040        4464+DCBOFLRB EQU   DCBBIT1        LAST I/O OPERATION WAS IN READ BACKWARD   01-DCBD
²                                   4465+*                             MODE
²                      00020        4466+DCBOFEOV EQU   DCBBIT2        SET TO 1 BY EOV WHEN IT CALLS CLOSE       01-DCBD
²                                   4467+*                             ROUTINE FOR CONCATENATION OF DATA SETS
²                                   4468+*                             WITH UNLIKE ATTRIBUTES
²                      00010        4469+DCBOFOPN EQU   DCBBIT3        AN OPEN HAS BEEN SUCCESSFULLY COMPLETED   01-DCBD
²                      00008        4470+DCBOFPPC EQU   DCBBIT4        SET TO 1 BY PROBLEM PROGRAM TO INDICATE A 01-DCBD
²                                   4471+*                             CONCATENATION OF UNLIKE ATTRIBUTES
²                      00004        4472+DCBOFTM  EQU   DCBBIT5        TAPE MARK HAS BEEN READ                   01-DCBD
²                      00002        4473+DCBOFUEX EQU   DCBBIT6        SET TO 0 BY AN I/O SUPPORT FUNCTION WHEN  01-DCBD
²                                   4474+*                             THAT FUNCTION TAKES A USER EXIT. SET TO 1
²                                   4475+*                             ON RETURN FROM USER EXIT TO THE I/O
²                                   4476+*                             SUPPORT FUNCTION WHICH TOOK THE EXIT.
i                      00002        4477+DCBOLOCK EQU   DCBOFUEX       SAME USE AS DCBOFUEX                 @LAA 01-DCBD
²                                                                                                               Page   82
  Active Usings: S99TUNIT,R8  GETINIT+X'248',R12
D-Loc  Object Code    Addr1 Addr2  Stmt   Source Statement                                  HLASM R6.0  2014/07/08 18.32
²                      00001        4478+DCBOFIOF EQU   DCBBIT7        SET TO 1 BY AN I/O SUPPORT FUNCTION IF    01-DCBD
²                                   4479+*                             DCB IS TO BE PROCESSED BY THAT FUNCTION
²                      00001        4480+DCBOBUSY EQU   DCBOFIOF       SAME USE AS DCBOFIOF                 @LAA 01-DCBD
²000031                             4481+DCBIFLG  DS    BL1            FLAGS USED BY IOS IN COMMUNICATING ERROR  01-DCBD
²                                   4482+*                             CONDITIONS AND IN DETERMINING CORRECTIVE
²                                   4483+*                             PROCEDURES
²                      000C0        4484+DCBIBEC  EQU   DCBBIT0+DCBBIT1   ERROR CORRECTION INDICATOR             01-DCBD
²                      00000        4485+DCBIFNEP EQU   X'00'          NOT IN ERROR PROCEDURE                    01-DCBD
²                      00040        4486+DCBEX    EQU   DCBBIT1        ERROR CORRECTION OR IOS PAGE FIX IN       01-DCBD
²                                   4487+*                             PROCESS
²                      000C0        4488+DCBIFPEC EQU   DCBBIT0+DCBBIT1   PERMANENT ERROR CORRECTION             01-DCBD
²                      00030        4489+DCBIBPCT EQU   DCBBIT2+DCBBIT3   PRINTER CARRIAGE TAPE PUNCH INDICATOR  01-DCBD
²                      00020        4490+DCBIFC9  EQU   DCBBIT2        CHANNEL 9 PRINTER CARRIAGE TAPE PUNCH     01-DCBD
²                                   4491+*                             SENSED
²                      00010        4492+DCBIFC12 EQU   DCBBIT3        CHANNEL 12 PRINTER CARRIAGE TAPE PUNCH    01-DCBD
²                                   4493+*                             SENSED
²                      0000C        4494+DCBIBIOE EQU   DCBBIT4+DCBBIT5   IOS ERROR ROUTINE USE INDICATOR        01-DCBD
²                      00000        4495+DCBIFER  EQU   X'00'          ALWAYS USE I/O SUPERVISOR ERROR ROUTINE   01-DCBD
²                      00004        4496+DCBIFNE1 EQU   DCBBIT5        NEVER USE I/O SUPERVISOR ERROR ROUTINE    01-DCBD
²                      00004        4497+DCBIFTIM EQU   DCBBIT5        TEST IOS MASK (IMSK) FOR ERROR PROCEDURE  01-DCBD
²                                   4498+*                             (BTAM)
²                      00008        4499+DCBIFNE2 EQU   DCBBIT4        NEVER USE I/O SUPERVISOR ERROR ROUTINE    01-DCBD
²                      0000C        4500+DCBIFNE3 EQU   DCBBIT4+DCBBIT5   NEVER USE I/O SUPERVISOR ERROR ROUTINE 01-DCBD
²000032                             4501+DCBMACR  DS    0BL2           MACRO INSTRUCTION REFERENCE               01-DCBD
²000032                             4502+DCBMACR1 DS    BL1            FIRST BYTE OF DCBMACR                     01-DCBD
²                      00080        4503+DCBMRECP EQU   DCBBIT0        EXECUTE CHANNEL PROGRAM (EXCP) ---        01-DCBD
²                                   4504+*                             ALWAYS ZERO (BSAM, QSAM, BPAM, BISAM,
²                                   4505+*                             QISAM, BDAM) --- RESERVED (QTAM, BTAM)
²                      00040        4506+DCBMRFE  EQU   DCBBIT1        FOUNDATION EXTENSION IS PRESENT (EXCP)    01-DCBD
²                      00040        4507+DCBMRGET EQU   DCBBIT1        GET (QSAM, QISAM, TCAM)                   01-DCBD
²                      00040        4508+DCBMRPTQ EQU   DCBBIT1        PUT FOR MESSAGE GROUP (QTAM) ---          01-DCBD
²                                   4509+*                             ALWAYS ZERO (BSAM, BPAM, BISAM, BDAM) ---
²                                   4510+*                             RESERVED (BTAM)
²                      00020        4511+DCBMRAPG EQU   DCBBIT2        APPENDAGES ARE REQUIRED (EXCP)            01-DCBD
²                      00020        4512+DCBMRRD  EQU   DCBBIT2        READ (BSAM, BPAM, BISAM, BDAM, BTAM)      01-DCBD
²                      00020        4513+DCBMRWRQ EQU   DCBBIT2        WRITE FOR LINE GROUP (QTAM) ---           01-DCBD
²                                   4514+*                             ALWAYS ZERO (QSAM, QISAM)
²                      00010        4515+DCBMRCI  EQU   DCBBIT3        COMMON INTERFACE (EXCP)                   01-DCBD
²                      00010        4516+DCBMRMVG EQU   DCBBIT3        MOVE MODE OF GET (QSAM, QISAM)            01-DCBD
²                      00010        4517+DCBMRRDK EQU   DCBBIT3        KEY SEGMENT WITH READ (BDAM) ---          01-DCBD
²                                   4518+*                             ALWAYS ZERO (BISAM) ---
²                                   4519+*                             RESERVED (BSAM, BPAM, QTAM, BTAM)
²                      00008        4520+DCBMRLCG EQU   DCBBIT4        LOCATE MODE OF GET (QSAM, QISAM)          01-DCBD
²                      00008        4521+DCBMRRDI EQU   DCBBIT4        ID ARGUMENT WITH READ (BDAM) ---          01-DCBD
²                                   4522+*                             ALWAYS ZERO (BISAM) ---
²                                   4523+*                             RESERVED (EXCP, BSAM, BPAM, QTAM, BTAM)
²                      00004        4524+DCBMRABC EQU   DCBBIT5        USER'S PROGRAM MAINTAINS ACCURATE BLOCK   01-DCBD
²                                   4525+*                             COUNT (EXCP)
²                      00004        4526+DCBMRPT1 EQU   DCBBIT5        POINT (WHICH IMPLIES NOTE) (BSAM, BPAM)   01-DCBD
²                      00004        4527+DCBMRSBG EQU   DCBBIT5        SUBSTITUTE MODE OF GET (QSAM)             01-DCBD
²                      00004        4528+DCBMRDBF EQU   DCBBIT5        DYNAMIC BUFFERING (BISAM, BDAM) ---       01-DCBD
²                                   4529+*                             ALWAYS ZERO (QISAM) ---
²                                   4530+*                             RESERVED (QTAM, BTAM)
²                      00002        4531+DCBPGFXA EQU   DCBBIT6        PAGE FIX APPENDAGE IS SPECIFIED (EXCP)    01-DCBD
i                      00002        4532+DCBMRCRL EQU   DCBBIT6        CNTRL (BSAM, QSAM)                        01-DCBD
²                                                                                                               Page   83
  Active Usings: S99TUNIT,R8  GETINIT+X'248',R12
D-Loc  Object Code    Addr1 Addr2  Stmt   Source Statement                                  HLASM R6.0  2014/07/08 18.32
²                      00002        4533+DCBMRCHK EQU   DCBBIT6        CHECK (BISAM)                             01-DCBD
²                      00002        4534+DCBMRRDX EQU   DCBBIT6        READ EXCLUSIVE (BDAM) ---                 01-DCBD
²                                   4535+*                             RESERVED (BPAM, QISAM, QTAM, BTAM)
²                      00001        4536+DCBMRDMG EQU   DCBBIT7        DATA MODE OF GET (QSAM)                   01-DCBD
²                      00001        4537+DCBMRCK  EQU   DCBBIT7        CHECK (BDAM) --- RESERVED (EXCP, BSAM,    01-DCBD
²                                   4538+*                             BPAM, BISAM, QISAM, QTAM, BTAM)
²000033                             4539+DCBMACR2 DS    BL1            SECOND BYTE OF DCBMACR                    01-DCBD
²                      00080        4540+DCBMRSTL EQU   DCBBIT0        SETL (QISAM) --- ALWAYS ZERO (BSAM, QSAM, 01-DCBD
²                                   4541+*                             BPAM, BISAM, BDAM) ---
²                                   4542+*                             RESERVED (EXCP, QTAM, BTAM)
²                      00040        4543+DCBMRPUT EQU   DCBBIT1        PUT (QSAM, TCAM) - PUT OR PUTX (QISAM)    01-DCBD
²                      00040        4544+DCBMRGTQ EQU   DCBBIT1        GET FOR MESSAGE GROUP (QTAM) ---          01-DCBD
²                                   4545+*                             ALWAYS ZERO (BSAM, BPAM, BISAM, BDAM) ---
²                                   4546+*                             RESERVED (EXCP, BTAM)
²                      00020        4547+DCBMRWRT EQU   DCBBIT2        WRITE (BSAM, BPAM, BISAM, BDAM, BTAM)     01-DCBD
²                      00020        4548+DCBMRRDQ EQU   DCBBIT2        READ FOR LINE GROUP (QTAM) ---            01-DCBD
²                                   4549+*                             ALWAYS ZERO (QSAM, QISAM) ---
²                                   4550+*                             RESERVED (EXCP)
²                      00010        4551+DCBMRMVP EQU   DCBBIT3        MOVE MODE OF PUT (QSAM, QISAM)            01-DCBD
²                      00010        4552+DCBMRWRK EQU   DCBBIT3        KEY SEGMENT WITH WRITE (BDAM) ---         01-DCBD
²                                   4553+*                             ALWAYS ZERO (BISAM) ---
²                                   4554+*                             RESERVED (EXCP, BSAM, BPAM, QTAM, BTAM)
²                      00008        4555+DCBMR5WD EQU   DCBBIT4        FIVE-WORD DEVICE INTERFACE (EXCP)         01-DCBD
²                      00008        4556+DCBMRLDM EQU   DCBBIT4        LOAD MODE BSAM (CREATE BDAM DATA SET)     01-DCBD
²                                   4557+*                             (BSAM)
²                      00008        4558+DCBMRLCP EQU   DCBBIT4        LOCATE MODE OF PUT (QSAM, QISAM)          01-DCBD
²                      00008        4559+DCBMRIDW EQU   DCBBIT4        ID ARGUMENT WITH WRITE (BDAM) ---         01-DCBD
²                                   4560+*                             ALWAYS ZERO (BISAM) ---
²                                   4561+*                             RESERVED (BPAM, QTAM, BTAM)
²                      00004        4562+DCBMR4WD EQU   DCBBIT5        FOUR-WORD DEVICE INTERFACE (EXCP)         01-DCBD
²                      00004        4563+DCBMRPT2 EQU   DCBBIT5        POINT (WHICH IMPLIES NOTE) (BSAM, BPAM)   01-DCBD
²                      00004        4564+DCBMRTMD EQU   DCBBIT5        SUBSTITUTE MODE (QSAM)                    01-DCBD
²                      00004        4565+DCBMRUIP EQU   DCBBIT5        UPDATE IN PLACE (PUTX) (QISAM) ---        01-DCBD
²                                   4566+*                             ALWAYS ZERO (BISAM) ---
²                                   4567+*                             RESERVED (BDAM, QTAM, BTAM)
²                      00002        4568+DCBMR3WD EQU   DCBBIT6        THREE-WORD DEVICE INTERFACE (EXCP)        01-DCBD
²                      00002        4569+DCBMRCTL EQU   DCBBIT6        CNTRL (BSAM, QSAM)                        01-DCBD
²                      00002        4570+DCBMRSTK EQU   DCBBIT6        SETL BY KEY (QISAM)                       01-DCBD
²                      00002        4571+DCBMRAWR EQU   DCBBIT6        ADD TYPE OF WRITE (BDAM) ---              01-DCBD
²                                   4572+*                             ALWAYS ZERO (BISAM) ---
²                                   4573+*                             RESERVED (BPAM, QTAM, BTAM)
²                      00001        4574+DCBMR1WD EQU   DCBBIT7        ONE-WORD DEVICE INTERFACE (EXCP)          01-DCBD
²                      00001        4575+DCBMRSWA EQU   DCBBIT7        USER'S PROGRAM HAS PROVIDED A SEGMENT     01-DCBD
²                                   4576+*                             WORK AREA POOL (BSAM CREATE BDAM, BDAM)
²                      00001        4577+DCBMRDMD EQU   DCBBIT7        DATA MODE (QSAM)                          01-DCBD
²                      00001        4578+DCBMRSTI EQU   DCBBIT7        SETL BY ID (QISAM) ---                    01-DCBD
²                                   4579+*                             ALWAYS ZERO (BISAM) ---
²                                   4580+*                             RESERVED (BPAM, QTAM, BTAM)
²                                   4581+*        AIF   (NOT &DSORGXE).C8A8                                 @L1A
²                      00034        4582+DCBLNGXE EQU   *-IHADCB       LENGTH OF DCB FOR EXCP WITH          @L1A 01-DCBD
²                                   4583+*                             EXTENSION INTERFACE                  @L1A
²                                   4584+***********************************************************************
²                                   4585+*                       FOUNDATION AFTER OPEN
²                                   4586+***********************************************************************
i000034                00034 00028  4587+         ORG   IHADCB+40                                                01-DCBD
²                                                                                                               Page   84
  Active Usings: S99TUNIT,R8  GETINIT+X'248',R12
D-Loc  Object Code    Addr1 Addr2  Stmt   Source Statement                                  HLASM R6.0  2014/07/08 18.32
²000028                             4588+DCBTIOT  DS    AL2            OFFSET FROM TIOT ORIGIN TO TIOELNGH FIELD 01-DCBD
²                                   4589+*                             IN TIOT ENTRY FOR DD STATEMENT ASSOCIATED
²                                   4590+*                             WITH THIS DCB
²00002A                             4591+DCBMACRF DS    0BL2           SAME AS DCBMACR BEFORE OPEN               01-DCBD
²00002A                             4592+DCBMACF1 DS    BL1            FIRST BYTE OF DCBMACRF                    01-DCBD
²00002B                             4593+DCBMACF2 DS    BL1            SECOND BYTE OF DCBMACRF                   01-DCBD
²00002C                             4594+DCBDEBAD DS    0A             ADDRESS OF ASSOCIATED DEB                 01-DCBD
²00002C                             4595+DCBIFLGS DS    BL1            SAME AS DCBIFLG BEFORE OPEN               01-DCBD
²                      000C0        4596+DCBIFEC  EQU   DCBBIT0+DCBBIT1   ERROR CORRECTION INDICATOR             01-DCBD
²                      00030        4597+DCBIFPCT EQU   DCBBIT2+DCBBIT3   PRINTER CARRIAGE TAPE PUNCH INDICATOR  01-DCBD
²                      0000C        4598+DCBIFIOE EQU   DCBBIT4+DCBBIT5   IOS ERROR ROUTINE USE INDICATOR        01-DCBD
²                      00002        4599+DCBIFLDT EQU   DCBBIT6        POSSIBLE LOST DATA CONDITION     @42480LP 01-DCBD
²                                   4600+*                             SUCH AS FOR A PRINTER            @42480LP
²00002D                             4601+DCBDEBA  DS    AL3            ADDRESS OF ASSOCIATED DEB                 01-DCBD
²000030                00030 00030  4602+         ORG   IHADCB+48                                                01-DCBD
²000030                             4603+DCBREAD  DS    0A             ADDRESS OF READ MODULE                    01-DCBD
²000030                             4604+DCBWRITE DS    0A             ADDRESS OF WRITE MODULE          @ZA11086 01-DCBD
²000030                             4605+DCBOFLG  DS    BL1            SAME AS DCBOFLGS BEFORE OPEN     @ZA11086 01-DCBD
²000031                             4606+DCBREADA DS    0AL3           ADDRESS OF READ MODULE           @ZA11086 01-DCBD
²000031                             4607+DCBWRITA DS    AL3            ADDRESS OF WRITE MODULE          @ZA11086 01-DCBD
²000034                00034 00030  4608+         ORG   IHADCB+48                                                01-DCBD
²000030                             4609+DCBGET   DS    0A             ADDRESS OF GET MODULE                     01-DCBD
²000030                             4610+DCBPUT   DS    0A             ADDRESS OF PUT MODULE            @ZA11086 01-DCBD
²000030                             4611+DCBOFLG1 DS    BL1            SAME AS DCBOFLGS BEFORE OPEN     @ZA14562 01-DCBD
²000031                             4612+DCBGETA  DS    0AL3           ADDRESS OF GET MODULE            @ZA11086 01-DCBD
²000031                             4613+DCBPUTA  DS    AL3            ADDRESS OF PUT MODULE            @ZA11086 01-DCBD
²                                   4614+***********************************************************************
²                                   4615+*                       QSAM-BSAM-BPAM COMMON INTERFACE
²                                   4616+***********************************************************************
²000034                00034 00034  4617+         ORG   IHADCB+52                                                01-DCBD
²000034                             4618+DCBGERR  DS    0A             ADDRESS OF SYNCHRONIZING ROUTINE FOR GET  01-DCBD
²000034                             4619+DCBPERR  DS    0A             ADDRESS OF SYNCHRONIZING ROUTINE FOR PUT  01-DCBD
²000034                             4620+DCBCHECK DS    0A             ADDRESS OF CHECK MODULE                   01-DCBD
²000034                             4621+DCBOPTCD DS    BL1            OPTION CODES                              01-DCBD
²                      00080        4622+DCBOPTW  EQU   DCBBIT0        WRITE VALIDITY CHECK (DASD)               01-DCBD
²                                   4623+*                             (BSAM, BPAM, QSAM, ISAM, BDAM)
²                      00040        4624+DCBOPTU  EQU   DCBBIT1        ALLOW DATA CHECK CAUSED BY INVALID        01-DCBD
²                                   4625+*                             CHARACTER (1403 PRINTER WITH UCS FEATURE)
²                                   4626+*                             (BSAM, QSAM)
²                                   4627+*                             MSS WINDOW PROCESSING REQUESTED  @ZA37313
²                                   4628+*                             (BSAM, QSAM)                     @ZA37313
²                      00020        4629+DCBOPTC  EQU   DCBBIT2        CHAINED SCHEDULING                        01-DCBD
²                                   4630+*                             (BSAM, BPAM, QSAM)
²                      00010        4631+DCBOPTH  EQU   DCBBIT3        1287/1288 OPTICAL READER - HOPPER EMPTY   01-DCBD
²                                   4632+*                             EXIT (BSAM, BPAM)
²                      00010        4633+DCBOPTO  EQU   DCBBIT3        1285/1287 OPTICAL READER - ON-LINE        01-DCBD
²                                   4634+*                             CORRECTION (QSAM)
²                      00010        4635+DCBBCKPT EQU   DCBBIT3        CHANNEL-END APPENDAGE IS TO BYPASS DOS    01-DCBD
²                                   4636+*                             EMBEDDED CHECKPOINT RECORDS ON TAPE
²                                   4637+*                             (BSAM, QSAM)
²                      00008        4638+DCBOPTQ  EQU   DCBBIT4        TRANSLATION TO OR FROM ASCII              01-DCBD
²                                   4639+*                             (BSAM, BPAM, QSAM)
²                      00004        4640+DCBOPTZ  EQU   DCBBIT5        MAGNETIC TAPE DEVICES - USE REDUCED ERROR 01-DCBD
²                                   4641+*                             RECOVERY PROCEDURE (EXCP, BSAM, BPAM,
i                                   4642+*                             QSAM)
²                                                                                                               Page   85
  Active Usings: S99TUNIT,R8  GETINIT+X'248',R12
D-Loc  Object Code    Addr1 Addr2  Stmt   Source Statement                                  HLASM R6.0  2014/07/08 18.32
²                      00004        4643+DCBSRCHD EQU   DCBBIT5        USE SEARCH DIRECT, INSTEAD OF SEARCH      01-DCBD
²                                   4644+*                             PREVIOUS, ON RECORD POSITION SENSING
²                                   4645+*                             DEVICE  (EXCP, BSAM, BPAM, QSAM)
²                      00002        4646+DCBOPTT  EQU   DCBBIT6        USER TOTALING (BSAM, QSAM)                01-DCBD
²                                   4647+*
²                                   4648+*
²                      00001        4649+DCBOPTJ  EQU   DCBBIT7        3800 PRINTER, OPTCD=J; (DYNAMIC  @Z40MSRZ 01-DCBD
²                                   4650+*                             SELECT OF TRANSLATE TABLES)      @Z40MSRZ
²000035                             4651+DCBGERRA DS    0AL3           ADDRESS OF SYNCHRONIZING ROUTINE FOR GET  01-DCBD
²000035                             4652+DCBPERRA DS    0AL3           ADDRESS OF SYNCHRONIZING ROUTINE FOR PUT  01-DCBD
²000035                             4653+DCBCHCKA DS    AL3            ADDRESS OF CHECK MODULE                   01-DCBD
²000038                             4654+DCBSYNAD DS    0A             ADDRESS OF USER-PROVIDED SYNAD ROUTINE    01-DCBD
²000038                             4655+DCBIOBL  DS    FL1            IOB LENGTH IN DOUBLE WORDS                01-DCBD
²000039                             4656+DCBSYNA  DS    AL3            ADDRESS OF USER-PROVIDED SYNAD ROUTINE    01-DCBD
²00003C                             4657+DCBFLAG1 DS    0BL1           TCAM APPLICATION PROGRAM FLAGS            01-DCBD
²                                   4658+*                             (BSAM, BPAM, QSAM)
²00003C                             4659+DCBCIND1 DS    BL1            CONDITION INDICATORS                      01-DCBD
²                      00080        4660+DCBCNTOV EQU   DCBBIT0        DIRECT ACCESS - TRACK OVERFLOW IN USE     01-DCBD
²                                   4661+*                             (BSAM, BPAM, QSAM)
²                                   4662+*                             2540 CARD PUNCH - DATA SET WAS OPENED BUT
²                                   4663+*                             NO DATA WAS WRITTEN (QSAM)
²                      00080        4664+DCBSTQCK EQU   DCBBIT0        STOP EQUAL QUICK WAS SPECIFIED FOR        01-DCBD
²                                   4665+*                             APPLICATION PROG. DCBS (TCAM)
²                      00040        4666+DCBSTFLS EQU   DCBBIT1        STOP EQUAL FLUSH WAS SPECIFIED FOR        01-DCBD
²                                   4667+*                             APPLICATION PROG. DCBS (TCAM)
²                      00040        4668+DCBCNSRD EQU   DCBBIT1        SEARCH DIRECT (BSAM, BPAM, QSAM)          01-DCBD
²                      00020        4669+DCBCNEVB EQU   DCBBIT2        END OF VOLUME - USED BY EOB ROUTINES      01-DCBD
²                                   4670+*                             (BSAM, BPAM, QSAM)
²                      00010        4671+DCBCNEVA EQU   DCBBIT3        END OF VOLUME - USED BY CHANNEL-END       01-DCBD
²                                   4672+*                             APPENDAGE ROUTINES (BSAM, BPAM, QSAM)
²                      00008        4673+DCBCNCI  EQU   DCBBIT4        SAM-SI COMPATABILITY INTERFACE (CI)       01-DCBD
²                                   4674+*                             PROCESSING HAS BEEN PERFORMED (BSAM,
²                                   4675+*                             QSAM)                                @04A
²                      00004        4676+DCBCNBRM EQU   DCBBIT5        BLOCKED RECORD BIT MODIFIED (BSAM,BPAM,   01-DCBD
²                                   4677+*                             QSAM)
²                      00002        4678+DCBCBNDF EQU   DCBBIT6 -      OPEN DEFAULTED BUFNO (QSAM)          @L7A 01-DCBD
²                      00001        4679+DCBCNEXB EQU   DCBBIT7        EXCHANGE BUFFERING SUPPORTED (QSAM)       01-DCBD
²                      00001        4680+DCBCDWDO EQU   DCBBIT7        INTERNAL USE ONLY, DCBOFFSW IS       @LBA 01-DCBD
²                                   4681+*                               DOUBLE-WORD OFFSET                 @LBA
²00003D                             4682+DCBCIND2 DS    BL1            CONDITION INDICATORS                      01-DCBD
²                      00080        4683+DCBCNSTO EQU   DCBBIT0        PARTITIONED DATA SET - STOW HAS BEEN      01-DCBD
²                                   4684+*                             PERFORMED (BSAM, BPAM, QSAM)
²                                   4685+*                             SEQUENTIAL DATA SET - UPDATE (BSAM, BPAM)
²                      00040        4686+DCBCNWR0 EQU   DCBBIT1        DIRECT ORGANIZATION DATA SET - LAST I/O   01-DCBD
²                                   4687+*                             WAS A WRITE RECORD ZERO
²                                   4688+*                             (BSAM, BPAM, QSAM)
²                                   4689+*                             SEQUENTIAL DATA SET - UPDATE EOF IS
²                                   4690+*                             INDICATED (BSAM, BPAM)
²                      00020        4691+DCBCNCLO EQU   DCBBIT2        CLOSE IN PROCESS (QSAM)                   01-DCBD
²                      00010        4692+DCBCNIOE EQU   DCBBIT3        PERMANENT I/O ERROR (BSAM, BPAM, QSAM)    01-DCBD
²                      00008        4693+DCBCNBFP EQU   DCBBIT4        OPEN ACQUIRED BUFFER POOL                 01-DCBD
²                                   4694+*                             (BSAM, BPAM, QSAM)
²                      00004        4695+DCBCNCHS EQU   DCBBIT5        CHAINED SCHEDULING BEING SUPPORTED        01-DCBD
²                                   4696+*                             (BSAM, BPAM, QSAM)
i                      00002        4697+DCBCNFEO EQU   DCBBIT6        FEOV BIT (BSAM, BPAM, QSAM)               01-DCBD
²                                                                                                               Page   86
  Active Usings: S99TUNIT,R8  GETINIT+X'248',R12
D-Loc  Object Code    Addr1 Addr2  Stmt   Source Statement                                  HLASM R6.0  2014/07/08 18.32
²                      00001        4698+DCBCNQSM EQU   DCBBIT7        ALWAYS ZERO (BSAM, BPAM)                  01-DCBD
²                                   4699+*                             THIS IS A QSAM DCB (QSAM)
²00003E                             4700+DCBBLKSI DS    H              MAXIMUM BLOCK SIZE                        01-DCBD
²000040                             4701+DCBWCPO  DS    AL1            OFFSET OF WRITE CHANNEL PROGRAM FROM THE  01-DCBD
²                                   4702+*                             START OF IOB
²000041                             4703+DCBWCPL  DS    FL1            LENGTH OF WRITE CHANNEL PROGRAM           01-DCBD
²000042                             4704+DCBOFFSR DS    AL1            OFFSET OF READ CCW FROM BSAM/BPAM PREFIX  01-DCBD
²                                   4705+*                             OF IOB
²000043                             4706+DCBOFFSW DS    AL1            OFFSET OF WRITE CCW FROM BSAM/BPAM PREFIX 01-DCBD
²                                   4707+*                             OF IOB
²000044                             4708+DCBIOBA  DS    A              FOR NORMAL SCHEDULING, ADDRESS OF QSAM OR 01-DCBD
²                                   4709+*                             BSAM/BPAM PREFIX OF IOB.  FOR CHAINED
²                                   4710+*                             SCHEDULING, ADDRESS OF ICB.  FOR
²                                   4711+*                             1419/1275, ADDRESS OF MAGNETIC INTERRUPT
²                                   4712+*                             CONTROL BLOCK (MICB) CURRENTLY BEING
²                                   4713+*                             PROCESSED BY READ ROUTINE.  FOR TSO
²                                   4714+*                             TERMINAL DATA SET OPENED FOR INPUT AND
²                                   4715+*                             FORMAT U, SIMULATED LOW-ORDER FOUR BYTES
²                                   4716+*                             OF IOBCSW
²000048                00048 00044  4717+         ORG   IHADCB+68                                           @L4A 01-DCBD
²000044                             4718+         DS    X                                                   @L4A 01-DCBD
²000045                             4719+DCBIOBB  DS    AL3            SAME AS DCBIOBA ABOVE                @L4A 01-DCBD
²000048                00048 00044  4720+         ORG   IHADCB+68                                                01-DCBD
²000044                             4721+DCBCICB  DS    0A             SAME AS DCBCICBA BELOW                    01-DCBD
²000044                             4722+         DS    X              INTERNAL ACCESS METHOD USE                01-DCBD
²000045                             4723+DCBCICBA DS    AL3            POINTER TO JES C.I.                       01-DCBD
²                                   4724+*                             CONTROL BLOCK (CICB)
²000048                00048 00050  4725+         ORG   IHADCB+80                                                01-DCBD
²000050                             4726+DCBDIRCT DS    0H             NUMBER OF BYTES USED IN LAST DIRECTORY    01-DCBD
²                                   4727+*                             BLOCK (RANGE 0-254)  (BSAM, BPAM)
²000050                             4728+DCBQSWS  DS    0BL1           FLAG BYTE                                 01-DCBD
²                      00004        4729+DCBPOPEN EQU   DCBBIT5        QSAM PARALLEL INPUT PROCESSING            01-DCBD
²000050                             4730+DCBUSASI DS    B              FLAG BYTE FOR ASCII TAPES                 01-DCBD
²                      00040        4731+DCBBLBP  EQU   DCBBIT1        BLOCK PREFIX IS FOUR BYTE FIELD           01-DCBD
²                                   4732+*                             CONTAINING BLOCK LENGTH IN UNPACKED
²                                   4733+*                             DECIMAL (SPECIFIED BY BUFFER=L).
²                      00038        4734+DCBQADFS EQU   DCBBIT2+DCBBIT3+DCBBIT4 USED TO PERFORM SEQUENCE         01-DCBD
²                                   4735+*                             CHECKING WITH MULTIPLE FUNCTION SUPPORT
²                                   4736+*                             FOR 3525 (BSAM, QSAM)
²                      00020        4737+DCBQADF1 EQU   DCBBIT2        FIRST BIT OF DCBQADFS                     01-DCBD
²                      00010        4738+DCBQADF2 EQU   DCBBIT3        SECOND BIT OF DCBQADFS                    01-DCBD
²                      00008        4739+DCBQADF3 EQU   DCBBIT4        THIRD BIT OF DCBQADFS                     01-DCBD
²                      00002        4740+DCB3525A EQU   DCBBIT6        DCB IS 3525 - ASSOCIATED DATA             01-DCBD
²                                   4741+*                             SETS EXIST
²                      00001        4742+DCBQSTRU EQU   DCBBIT7        TRUNC ENTRY POINT ENTERED (QSAM)          01-DCBD
²000051                             4743+DCBBUFOF DS    0FL1           BLOCK PREFIX LENGTH (0-99), SPECIFIED BY  01-DCBD
²                                   4744+*                             BUFOFF=N OR BUFOFF=L
²000051                             4745+DCBDIRCQ DS    FL1            NUMBER OF BYTES USED IN LAST DIRECTORY    01-DCBD
²                                   4746+*                             BLOCK (RANGE 0-254)  (QSAM)
²                                   4747+***********************************************************************
²                                   4748+*                       BSAM-BPAM INTERFACE
²                                   4749+***********************************************************************
²000052                00052 00048  4750+         ORG   IHADCB+72                                                01-DCBD
²000048                             4751+DCBEOBR  DS    0A             ADDRESS OF END-OF-BLOCK MODULE FOR READ   01-DCBD
i000048                             4752+DCBNCP   DS    FL1            NUMBER OF CHANNEL PROGRAMS.               01-DCBD
²                                                                                                               Page   87
  Active Usings: S99TUNIT,R8  GETINIT+X'248',R12
D-Loc  Object Code    Addr1 Addr2  Stmt   Source Statement                                  HLASM R6.0  2014/07/08 18.32
²                                   4753+*                             NUMBER OF READ OR WRITE REQUESTS WHICH
²                                   4754+*                             MAY BE ISSUED PRIOR TO A CHECK, NUMBER
²                                   4755+*                             OF IOB'S GENERATED.  (99 MAXIMUM)
²000049                             4756+DCBEOBRA DS    AL3            ADDRESS OF END-OF-BLOCK MODULE FOR READ   01-DCBD
²00004C                             4757+DCBEOBW  DS    A              ADDRESS OF END-OF-BLOCK MODULE FOR WRITE. 01-DCBD
²                                   4758+*                             FOR BSAM CREATE BDAM PROCESSING OF
²                                   4759+*                             UNBLOCKED SPANNED RECORDS WITH BKTEK=R
²                                   4760+*                             SPECIFIED, ADDRESS OF SEGMENT WORK AREA
²                                   4761+*                             CONTROL BLOCK
²000050                             4762+         DS    H              DCBDIRCT - NUMBER OF BYTES USED IN LAST   01-DCBD
²                                   4763+*                             DIRECTORY BLOCK  (RANGE 0-254)
²000052                             4764+DCBLRECL DS    H              LOGICAL RECORD LENGTH                     01-DCBD
²000054                             4765+DCBCNTRL DS    0A             ADDRESS OF CNTRL MODULE                   01-DCBD
²000054                             4766+DCBNOTE  DS    0A             ADDRESS OF NOTE/POINT MODULE              01-DCBD
²000054                             4767+DCBPOINT DS    A              ADDRESS OF NOTE/POINT MODULE              01-DCBD
²                      00058        4768+DCBLNGBS EQU   *-IHADCB       LENGTH OF DCB FOR BSAM INTERFACE     @L1A 01-DCBD
²                      00058        4769+DCBLNGPO EQU   *-IHADCB       LENGTH OF DCB FOR BPAM INTERFACE     @L1A 01-DCBD
²                                   4770+***********************************************************************
²                                   4771+*                       QSAM INTERFACE
²                                   4772+***********************************************************************
²000058                00058 00048  4773+         ORG   IHADCB+72                                                01-DCBD
²000048                             4774+DCBLCCW  DS    0A             FOR EXCHANGE BUFFERING, ADDRESS OF LAST   01-DCBD
²                                   4775+*                             CCW IN LIST
²000048                             4776+DCBEOBAD DS    A              FOR SIMPLE BUFFERING, ADDRESS OF LAST     01-DCBD
²                                   4777+*                             BYTE OF CURRENT BUFFER
²00004C                             4778+DCBCCCW  DS    0A             FOR EXCHANGE BUFFERING, ADDRESS OF        01-DCBD
²                                   4779+*                             CURRENT OR NEXT CCW
²00004C                             4780+DCBRECAD DS    0A             ADDRESS OF CURRENT OR NEXT LOGICAL RECORD 01-DCBD
²00004C                             4781+         DS    XL1 -          DCBRECBT DELETED                     @L7C 01-DCBD
²00004D                             4782+DCBRECA  DS    AL3            ADDRESS OF CURRENT OR NEXT LOGICAL RECORD 01-DCBD
²000050                             4783+         DS    B              DCBQSWS - FLAG BYTE                       01-DCBD
²000051                             4784+         DS    FL1            DCBDIRCQ - NUMBER OF BYTES USED IN LAST   01-DCBD
²                                   4785+*                             DIRECTORY BLOCK (RANGE 0-254)
²000052                             4786+         DS    H              DCBLRECL - LOGICAL RECORD LENGTH          01-DCBD
²000054                             4787+         DS    0A             DCBCNTRL - ADDRESS OF CNTRL MODULE        01-DCBD
²000054                             4788+DCBEROPT DS    BL1            ERROR OPTION                              01-DCBD
²                      00080        4789+DCBERACC EQU   DCBBIT0        ACCEPT PERMANENT ERROR                    01-DCBD
²                      00040        4790+DCBERSKP EQU   DCBBIT1        SKIP PERMANENT ERROR                      01-DCBD
²                      00020        4791+DCBERABE EQU   DCBBIT2        ABNORMAL END OF TASK                      01-DCBD
²                      00001        4792+DCBERBAM EQU   DCBBIT7        OPEN TURNED OFF BFTEK=A              @05A 01-DCBD
²000055                             4793+DCBXLREC DS    0AL3           LRECL WHEN IN XLRI MODE              @L2A 01-DCBD
²000055                             4794+         DS    AL3            DCBCNTRA  - ADDRESS OF CNTRL MODULE  @L2A 01-DCBD
²000058                             4795+         DS    XL2            RESERVED                                  01-DCBD
²00005A                             4796+DCBPRECL DS    H              FORMAT F RECORDS: BLOCK LENGTH            01-DCBD
²                                   4797+*                             FORMAT U RECORDS: MAXIMUM BLOCK LENGTH
²                                   4798+*                             FORMAT V RECORDS:
²                                   4799+*                               UNSPANNED RECORDS: MAXIMUM BLOCK LENGTH
²                                   4800+*                               SPANNED RECORDS:
²                                   4801+*                                 PUT, NOT DATA MODE:
²                                   4802+*                                   MAXIMUM BLOCK LENGTH
²                                   4803+*                                 PUT, DATA MODE:
²                                   4804+*                                   DATA LENGTH
²                                   4805+*                                 GET:
²                                   4806+*                                   SEGMENT CONTROL CODE OF PREVIOUS
i                                   4807+*                                   SEGMENT
²                                                                                                               Page   88
  Active Usings: S99TUNIT,R8  GETINIT+X'248',R12
D-Loc  Object Code    Addr1 Addr2  Stmt   Source Statement                                  HLASM R6.0  2014/07/08 18.32
²00005C                             4808+DCBEOB   DS    A              ADDRESS OF END OF BLOCK MODULE            01-DCBD
²                      00060        4809+DCBLNGQS EQU   *-IHADCB       LENGTH OF DCB WITH QSAM INTERFACE    @L1A 01-DCBD
²                      00060        4810+DCBLNGPS EQU   *-IHADCB       LENGTH OF DCB SUFFICIENT FOR QSAM OR @P2C 01-DCBD
²                                   4811+*                                 BSAM INTERFACE                   @P2A
²                                   4812        IHADCBE                                                          00491000
²000000                00000 00038  4813+DCBE     DSECT                                                          01-IHADC
²000000                             4814+         DS    0D                                                       01-IHADC
²000000                             4815+DCBEID   DS    CL4            DCBE eyecatcher 'DCBE'.                   01-IHADC
²000004                             4816+DCBELEN  DS    H              Length of DCBE.                           01-IHADC
²000006                             4817+DCBERSV1 DS    XL2            Reserved.                                 01-IHADC
²000008                             4818+DCBEDCB  DS    A              DCB address. Set by system.               01-IHADC
²                                   4819+*                              Must be zero when OPEN is
²                                   4820+*                              issued. Set to zero at CLOSE.
²00000C                             4821+DCBERELA DS    CL4            Partitioned data set - Address            01-IHADC
²                                   4822+*                              (in the form TTRN) of member
²                                   4823+*                              currently used.
²000010                             4824+DCBEFLG1 DS    B              Flags set by system.                      01-IHADC
²                      00080        4825+DCBEOPEN EQU   X'80'          DCBE has been successfully                01-IHADC
²                                   4826+*                              opened.
²                      00040        4827+DCBEMD31 EQU   X'40'          User may call access method in            01-IHADC
²                                   4828+*                              31-bit mode and, if QSAM, system
²                                   4829+*                              will honor DCBEBU31. Set by
²                                   4830+*                              system before DCB OPEN exit.
²                      00020        4831+DCBESLBI EQU   X'20'          Before DCB OPEN exit: SAM supports   @L2AX01-IHADC
²                                       +                               large block interface if requested. @L3CX
²                                       +                               After OPEN: User requested LBI and  @L3CX
²                                       +                               SAM supports it.                    @L3C
²                      00010        4832+DCBE_32BIT_INUSE EQU X'10'    Device using 32-bit block numbers,   @L3AX01-IHADC
²                                       +                               maybe due to CAPACITYMODE=XCAP      @L3A
²                      00008        4833+DCBEBENEFIX EQU   X'08'       Performance would be benefited if    @L6AX01-IHADC
²                                       +                               the application program were to set @L6AX
²                                       +                               DCBEBFXU and fix all data pages.    @L6AX
²                                       +                               Requires authorization.  Set by     @L6AX
²                                       +                               system before DCB OPEN exit         @L6A
²000011                             4834+DCBEFLG2 DS    B              Flags set by user.                        01-IHADC
²                      00080        4835+DCBEBU31 EQU   X'80'          RMODE31=BUFF.                             01-IHADC
²                                   4836+*                              QSAM buffers may be above 16MB
²                                   4837+*                              line and CLOSE will free them.
²                                   4838+*                              System may test this during
²                                   4839+*                              concatenation. This will be
²                                   4840+*                              ignored for BSAM and user
²                                   4841+*                              supplied buffers.
²                      00040        4842+DCBENEOD EQU   X'40'          PASTEOD=YES.                              01-IHADC
²                                   4843+*                              The HWM of the data set is to
²                                   4844+*                              be ignored on input for striped
²                                   4845+*                              data sets.
²                      00010        4846+DCBENVER EQU   X'10'          NOVER=YES.                                01-IHADC
²                                   4847+*                              OPEN is to bypass the verifica-
²                                   4848+*                              tion of consistent stripes of a
²                                   4849+*                              striped data set.
²                      00008        4850+DCBEGSIZ EQU   X'08'          GETSIZE=YES.                              01-IHADC
²                                   4851+*                              OPEN is to calculate the size of
²                                   4852+*                              the data set (RBNs) and store
i                                   4853+*                              this number in DCBESIZE.
²                                                                                                               Page   89
  Active Usings: S99TUNIT,R8  GETINIT+X'248',R12
D-Loc  Object Code    Addr1 Addr2  Stmt   Source Statement                                  HLASM R6.0  2014/07/08 18.32
²                      00004        4854+DCBEULBI EQU   X'04'          BLKSIZE specified on DCBE.  User     @L2AX01-IHADC
²                                       +                               requests SAM large block interface. @L2A
²                      00002        4855+DCBE_REQST_XCAP EQU X'02'     CAPACITYMODE=XCAP.  Extended         @L3AX01-IHADC
²                                       +                               capacity.  Device to use 32-bit     @L3AX
²                                       +                               block identifiers if supported.     @L3A
²                      00001        4856+DCBEEXPS EQU   X'01'          Bypass extended data integrity       @L4AX01-IHADC
²                                       +                               checking. user must be system key,  @L4AX
²                                       +                               supervisor state, or apf authorized @L4AX
²                                       +                               for this to have effect.            @L4A
²000012                             4857+DCBENSTR DS    H              The number of stripes for a               01-IHADC
²                                   4858+*                              striped data set. Zero if data
²                                   4859+*                              set is not striped. Set by OPEN
²                                   4860+*                              or when switching between data
²                                   4861+*                              sets in a concatenation. Set
²                                   4862+*                              before OPEN or EOV exit is
²                                   4863+*                              called.
²000014                             4864+DCBEFLG3 DS    B              Flags set by user                    @L3A 01-IHADC
²                      00080        4865+DCBELARGE EQU  X'80'          BLOCKTOKENSIZE=LARGE.  BSAM/BPAM:    @L5AX01-IHADC
²                                       +                               NOTE/POINT use 4 bytes, not 3.      @L5AX
²                                       +                               EXCP: Program can handle >64 K trks @L5A
²                      00040        4866+DCBEBFXU EQU   X'40'          FIXED=USER                                01-IHADC
²                                   4867+*                              No I/O pagefixing needed. User
²                                   4868+*                              is responsible for passing
²                                   4869+*                              fixed buffers. Auth callers only.   @L6C
²                      00020        4870+DCBEEADSCBOK EQU X'20'        User supports 28-bit cylinder             01-IHADC
²                                   4871+*                              addressing/extended attributes      @LVA
²                                   4872+* Two bits reserved.                                               @LVC
²                      00007        4873+DCBESYNC_NONE   EQU X'07'     SYNC=NONE if all three bits are 1    @L3A 01-IHADC
²                      00001        4874+DCBESYNC_SYSTEM EQU X'01'     SYNC=SYSTEM if low 3 bits are 001.   @L3AX01-IHADC
²                                       +                              Other combinations are reserved.     @L3A
²000015                             4875+DCBERSV3 DS    XL3            Reserved.                            @L2C 01-IHADC
²000018                             4876+DCBEBLKSI8 DS  0XL8           Block size in 8 bytes                @L2A 01-IHADC
²000018                             4877+         DS    F              Hi-order half of Block size          @L2A 01-IHADC
²00001C                             4878+DCBEBLKSI DS   F              Block size, valid only if            @L2A 01-IHADC
²                                   4879+*                              DCBESLBI is set.                    @L2A
²000020                             4880+DCBEXSIZ DS    0XL8           Number of blocks in current               01-IHADC
²                                   4881+*                              data set. Set by system when
²                                   4882+*                              DCBEGSIZ is set.                    @L1A
²000020                             4883+DCBESIZ0 DS    F              High order word of DCBEXSIZ.         @L1C 01-IHADC
²000024                             4884+DCBESIZE DS    F              Number of blocks in current               01-IHADC
²                                   4885+*                              data set. Set by system when
²                                   4886+*                              DCBEGSIZ is set.
²000028                             4887+DCBEEODA DS    A              Address of user provided end-             01-IHADC
²                                   4888+*                              of-data routine. May reside
²                                   4889+*                              above or below the line. Used
²                                   4890+*                              instead of DCBEODAD. Will be
²                                   4891+*                              zero if no address is given.
²00002C                             4892+DCBESYNA DS    A              Address of user provided SYNAD            01-IHADC
²                                   4893+*                              routine. May reside above or
²                                   4894+*                              below the line. Used instead of
²                                   4895+*                              DCBSYNAD. Will be zero if no address
²                                   4896+*                              is given.
²000030                             4897+DCBERSV4 DS    XL6            Reserved.                                 01-IHADC
²000036                             4898+DCBEMACC DS    XL1            Accumulation number multiplier.           01-IHADC
i000037                             4899+DCBEMSDN DS    XL1            Multiplier of System Determined NCP.      01-IHADC
²                                                                                                               Page   90
  Active Usings: S99TUNIT,R8  GETINIT+X'248',R12
D-Loc  Object Code    Addr1 Addr2  Stmt   Source Statement                                  HLASM R6.0  2014/07/08 18.32
²                      00038        4900+DCBEMINL EQU   *-DCBE         Minimum length of DCBE.  This label       01-IHADC
²                                   4901+*                              should never be moved.
²                      00038        4902+DCBEEND  EQU   *              End of DCBE. this label shows             01-IHADC
                                   4903+*                              the current length of a DCBE.
²                                   4905          END                                                            00510000
¯
                                                 Relocation Dictionary                                         Page   91
   Pos.Id   Rel.Id   Address  Type  Action                                                  HLASM R6.0  2014/07/08 18.32
²  00000002 0000000B 00000010   A 4     +
²  00000008 00000005 00001188   A 4     +
²  00000009 00000004 0000161C   A 4     +
²  00000009 00000005 00001620   A 4     +
²  00000009 00000006 0000162C   A 4     +
²  00000009 00000007 00001628   A 4     +
²  0000000A 00000005 00001AF0   A 4     +
²  0000000A 00000008 00001AEC   A 4     +
²  0000000A 0000000A 00001A90   A 4     +
²  0000000B 00000003 00001D38   A 4     +
²  0000000B 0000000A 00001D3C   A 4     +
¯
                               Ordinary Symbol and Literal Cross Reference                                     Page   92
Symbol   Length   Value     Id    R Type Asm  Program   Defn References                     HLASM R6.0  2014/07/08 18.32
²_LIBRARY      2 00000000 FFFFFFEF     H  H              3322  495M 3326
²_LPDSN        2 00000068 FFFFFFF1     H  H              3309  313M 1997
²_MEMBER       2 0000002E FFFFFFEF     H  H              3324  517M
²_PDSN         2 00000030 FFFFFFF1     H  H              3307  304M 2762
²_PMN          2 00000000 FFFFFFF0     H  H              3316  346M 3318
²BIN           6 0000026E 00000003     C  C               237  298
²BLDMVC        6 00000714 00000004     I                  794  805X  818X
²BLDPRM        1 00000698 00000004     J                  700  701   702   750  2331
²BLDPRM_OLD_SAVE
²              4 00000004 FFFFFFFD     A  A               732  837
²BLDPRM_SAVE
²              1 00000000 FFFFFFFD     J                  729  699U
²BLDPRM_SAVE_AREA
²              1 00000000 FFFFFFFD     C  C               730  749
²BLDPRM_SAVE_R0
²              4 00000014 FFFFFFFD     F  F               736  721   838M
²BLDPRM_SAVE_R1
²              4 00000018 FFFFFFFD     F  F               737  722   839M
²BLDPRM_SAVE_R15
²              4 00000010 FFFFFFFD     F  F               735  723   841M
²BLDPRM_SAVELEN
²              1 00000048 FFFFFFFD A   U                  749  710   846
²BLDRECB       1 000011C8 00000009     J                 1844 1845  1846  1894  2326
²BLDRECB_OLD_SAVE
²              4 00000004 FFFFFFF8     A  A              1876 2338
²BLDRECB_SAVE
²              1 00000000 FFFFFFF8     J                 1873 1843U
²BLDRECB_SAVE_AREA
²              1 00000000 FFFFFFF8     C  C              1874 1893
²BLDRECB_SAVE_R0
²              4 00000014 FFFFFFF8     F  F              1880 1865  2339M
²BLDRECB_SAVE_R1
²              4 00000018 FFFFFFF8     F  F              1881 1866  2340M
²BLDRECB_SAVE_R15
²              4 00000010 FFFFFFF8     F  F              1879 1867  2342M
²BLDRECB_SAVELEN
²              1 00000048 FFFFFFF8 A   U                 1893 1854  2347
²CBHEAD        1 00000000 FFFFFFF4     J                 3269  381U  526U 1975U 2112U 2177U 2428U 2562U 2580U 2591U 2599U
²                                                             2616U
²CBHEAD#       1 00000008 FFFFFFF4 A   U                 3272  398   414   443   543   559   588  2116  2445  2461  2490
²                                                             2596  2986  3011  3050  3072
²CBHEADE#      1 00000010 FFFFFFF4 A   U                 3275 2194  2210  2239  2535  2558  2633  2649  2678
²CMD           8 0000027F 00000003     C  C               240  356
²CNVTOHEX      1 00000D30 00000007     J                 1487 1488  1489  1537  2334
²CNVTOHEX_OLD_SAVE
²              4 00000004 FFFFFFFA     A  A              1519 1592
²CNVTOHEX_SAVE
²              1 00000000 FFFFFFFA     J                 1516 1486U
²CNVTOHEX_SAVE_AREA
²              1 00000000 FFFFFFFA     C  C              1517 1536
²CNVTOHEX_SAVE_R0
²              4 00000014 FFFFFFFA     F  F              1523 1508  1593M
²CNVTOHEX_SAVE_R1
²              4 00000018 FFFFFFFA     F  F              1524 1509  1594M
²CNVTOHEX_SAVE_R15
¯
                               Ordinary Symbol and Literal Cross Reference                                     Page   93
Symbol   Length   Value     Id    R Type Asm  Program   Defn References                     HLASM R6.0  2014/07/08 18.32
²              4 00000010 FFFFFFFA     F  F              1522 1510  1596M
²CNVTOHEX_SAVELEN
²              1 00000048 FFFFFFFA A   U                 1536 1497  1601
²COPY#1        1 0000044C 00000003     U                  437  385B
²COPY#2        1 0000059C 00000003     U                  582  530B
²COPY#3        1 00001560 00000009     U                 2233 2181B
²COPY#4        1 00001738 0000000A     U                 2484 2432B
²COPY#5        1 000018EC 0000000A     U                 2672 2620B
²CP1           1 000002E4 00000003     U                  287  271B
²CRECB@        4 00000010 FFFFFFF1     F  F              3299 3228M
²CRMN          4 00000000 FFFFFFF3     F  F              3280 3284
²DALDDNAM      1 00000001 FFFFFFE5 A   U                 3992 1014
²DALDSNAM      1 00000002 FFFFFFE5 A   U                 3993 1101  1145
²DALLOC        1 000007A0 00000005     J                  864  865   866   914  1814  2332  2872
²DALLOC_OLD_SAVE
²              4 00000004 FFFFFFFC     A  A               896 1236
²DALLOC_SAVE
²              1 00000000 FFFFFFFC     J                  893  863U
²DALLOC_SAVE_AREA
²              1 00000000 FFFFFFFC     C  C               894  913
²DALLOC_SAVE_R0
²              4 00000014 FFFFFFFC     F  F               900  885  1237M
²DALLOC_SAVE_R1
²              4 00000018 FFFFFFFC     F  F               901  886  1238M
²DALLOC_SAVE_R15
²              4 00000010 FFFFFFFC     F  F               899  887  1240M
²DALLOC_SAVELEN
²              1 00000048 FFFFFFFC A   U                  913  874  1245
²DALMEMBR      1 00000003 FFFFFFE5 A   U                 3994 1192
²DALSTATS      1 00000004 FFFFFFE5 A   U                 3995 1051
²DATA#1        1 00001D0C 0000000B     U                 3171 3160B
²DCB@          4 00000088 FFFFFFF7     F  F              2318 2062M 2324
²DCBBFALN      1 00000020 FFFFFFE4     B  B              4391  195M
²DCBBIT0       1 00000080 FFFFFFE4 A   U                 4259 4347  4356  4370  4392  4434  4436  4437  4439  4459  4462
²                                                             4484  4488  4503  4540  4596  4622  4660  4664  4683  4789
²DCBBIT1       1 00000040 FFFFFFE4 A   U                 4260 4349  4357  4372  4401  4402  4411  4417  4434  4436  4438
²                                                             4439  4464  4484  4486  4488  4506  4507  4508  4543  4544
²                                                             4596  4624  4666  4668  4686  4731  4790
²DCBBIT2       1 00000020 FFFFFFE4 A   U                 4261 4350  4358  4373  4374  4375  4401  4402  4406  4412  4417
²                                                             4434  4435  4440  4466  4489  4490  4511  4512  4513  4547
²                                                             4548  4597  4629  4669  4691  4734  4737  4791
²DCBBIT3       1 00000010 FFFFFFE4 A   U                 4262 4351  4373  4375  4376  4401  4414  4441  4469  4489  4492
²                                                             4515  4516  4517  4551  4552  4597  4631  4633  4635  4671
²                                                             4692  4734  4738
²DCBBIT4       1 00000008 FFFFFFE4 A   U                 4263 4359  4415  4416  4417  4442  4470  4494  4499  4500  4520
²                                                             4521  4555  4556  4558  4559  4598  4638  4673  4693  4734
²                                                             4739
²DCBBIT5       1 00000004 FFFFFFE4 A   U                 4264 4360  4422  4445  4446  4472  4494  4496  4497  4500  4524
²                                                             4526  4527  4528  4562  4563  4564  4565  4598  4640  4643
²                                                             4676  4695  4729
²DCBBIT6       1 00000002 FFFFFFE4 A   U                 4265 4352  4424  4425  4428  4445  4447  4473  4531  4532  4533
²                                                             4534  4568  4569  4570  4571  4599  4646  4678  4697  4740
²DCBBIT7       1 00000001 FFFFFFE4 A   U                 4266 4353  4424  4426  4428  4449  4478  4536  4537  4574  4575
²                                                             4577  4578  4649  4679  4680  4698  4742  4792
²DCBBUFCB      4 00000014 FFFFFFE4     A  A              4336  166M 1718M 2053M
¯
                               Ordinary Symbol and Literal Cross Reference                                     Page   94
Symbol   Length   Value     Id    R Type Asm  Program   Defn References                     HLASM R6.0  2014/07/08 18.32
²DCBCICB       4 00000044 FFFFFFE4     A  A              4721  170M 1722M 2057M
²DCBDCBE       4 00000000 FFFFFFE4     A  A              4274  196M 2281  4278
²DCBDDNAM      8 00000028 FFFFFFE4     C  C              4456  161M 1713M 2048M
²DCBDSGPS      1 00000040 FFFFFFE4 A   U                 4349  164  1716  2051
²DCBDSORG      2 0000001A FFFFFFE4     B  B              4345  164M 1716M 2051M
²DCBE          1 00000000 FFFFFFE3     J                 4813  189U 4900
²DCBEEODA      4 00000028 FFFFFFE3     A  A              4887  201M
²DCBEID        4 00000000 FFFFFFE3     C  C              4815  191M  192M  192   197M
²DCBELEN       2 00000004 FFFFFFE3     H  H              4816  193M
²DCBEMINL      1 00000038 FFFFFFE3 A   U                 4900  174   192  2299
²DCBEOBR       4 00000048 FFFFFFE4     A  A              4751  171M 1723M 2058M
²DCBEOBW       4 0000004C FFFFFFE4     A  A              4757  172M 1724M 2059M
²DCBEODAD      4 00000020 FFFFFFE4     A  A              4388  194M
²DCBFDAD       8 00000005 FFFFFFE4     C  C              4290 4292
²DCBGERR       4 00000034 FFFFFFE4     A  A              4618  168M 1720M 2055M
²DCBH0         1 00000004 FFFFFFE4 A   U                 4422  195
²DCBH1         1 00000080 FFFFFFE4 A   U                 4392  195
²DCBIOBAD      4 0000001C FFFFFFE4     A  A              4361  167M 1719M 2054M
²DCBLNGBS      1 00000058 FFFFFFE4 A   U                 4768  142   160   647  1694  1712  1772  2029  2047  2286
²DCBMACR1      1 00000032 FFFFFFE4     B  B              4502  162M  163M 1715M 2049M 2050M
²DCBMACR2      1 00000033 FFFFFFE4     B  B              4539 1714M
²DCBMRGET      1 00000040 FFFFFFE4 A   U                 4507  162   163  1715  2049  2050
²DCBMRMVG      1 00000010 FFFFFFE4 A   U                 4516  162   163  1715  2049  2050
²DCBMRMVP      1 00000010 FFFFFFE4 A   U                 4551 1714
²DCBMRPUT      1 00000040 FFFFFFE4 A   U                 4543 1714
²DCBOFIOF      1 00000001 FFFFFFE4 A   U                 4478 4480
²DCBOFLGS      1 00000030 FFFFFFE4     B  B              4458  165M 1717M 2052M
²DCBOFUEX      1 00000002 FFFFFFE4 A   U                 4473  165  1717  2052  4477
²DCBSYNAD      4 00000038 FFFFFFE4     A  A              4654  169M 1721M 2056M
²DDATA1        1 00000000 FFFFFFFE     J                  659  124U
²DDATA1#       1 00000054 FFFFFFFE A   U                  662  113   624
²DDATA2        1 00000000 FFFFFFF7     J                 2316 1964U
²DDATA2#       1 00000018 FFFFFFF7 A   U                 2324 1953
²DDLIST        2 00000000 FFFFFFEC     H  H              3359 2735M 3367
²DNCB          1 00000000 FFFFFFEF     J                 3320  489U  511U
²DNCB#         1 00000038 FFFFFFEF A   U                 3326  585   590  3143
²DNCB@         4 00000024 FFFFFFF1     F  F              3304  521  3086M
²DNCBSZ        1 00000E00 FFFFFFED A   U                 3355 3070
²DNM1          8 0000008A 00000003     C  C               138  140
²DNSTRCT@      4 0000008C FFFFFFF7     F  F              2319 2013M 2308
²DUNALLOC      1 00000BA8 00000006     J                 1263 1264  1265  1313  2335
²DUNALLOC_OLD_SAVE
²              4 00000004 FFFFFFFB     A  A              1295 1461
²DUNALLOC_SAVE
²              1 00000000 FFFFFFFB     J                 1292 1262U
²DUNALLOC_SAVE_AREA
²              1 00000000 FFFFFFFB     C  C              1293 1312
²DUNALLOC_SAVE_R0
²              4 00000014 FFFFFFFB     F  F              1299 1284  1462M
²DUNALLOC_SAVE_R1
²              4 00000018 FFFFFFFB     F  F              1300 1285  1463M
²DUNALLOC_SAVE_R15
²              4 00000010 FFFFFFFB     F  F              1298 1286  1465M
²DUNALLOC_SAVELEN
²              1 00000048 FFFFFFFB A   U                 1312 1273  1470
¯
                               Ordinary Symbol and Literal Cross Reference                                     Page   95
Symbol   Length   Value     Id    R Type Asm  Program   Defn References                     HLASM R6.0  2014/07/08 18.32
²ENDIF         1 00000B42 00000005     U                 1206 1114B
²ENDIF#10      1 00000C78 00000006     U                 1387 1356B
²ENDIF#90      1 00000958 00000005     U                  988  985B
²ENDL#63F      1 0000130A 00000009     U                 1982 1977B
²ENDL#63T      1 00001332 00000009     U                 1992 1979B
²ENDLP         1 000015BC 00000009     U                 2271 2126B
²EQUAL#1       1 0000016C 00000003     X  X               223  270
²EXAUS         1 00000956 00000005     U                  986  982B
²GEND          1 000005F8 00000003     U                  618  200   284B
²GETINIT       1 00001B28 0000000B     J                 2902   46  2903  2904  2952
²GETINIT_OLD_SAVE
²              4 00000004 FFFFFFF5     A  A              2934 3237
²GETINIT_SAVE
²              1 00000000 FFFFFFF5     J                 2931 2901U
²GETINIT_SAVE_AREA
²              1 00000000 FFFFFFF5     C  C              2932 2951
²GETINIT_SAVE_R0
²              4 00000014 FFFFFFF5     F  F              2938 2923  3238M
²GETINIT_SAVE_R1
²              4 00000018 FFFFFFF5     F  F              2939 2924  3239M
²GETINIT_SAVE_R15
²              4 00000010 FFFFFFF5     F  F              2937 2925  3241M
²GETINIT_SAVELEN
²              1 00000048 FFFFFFF5 A   U                 2951 2912  3246
²IC            8 00000000 FFFFFFED     C  C              3338  366  3339
²ICB           1 00000000 FFFFFFED     J                 3335  361U
²ICB#          1 00000008 FFFFFFED A   U                 3339  440   445  2114  2136  3126
²ICB@          4 00000018 FFFFFFF1     F  F              3301  376  1966  2111  3025M
²ICB@L         4 00000094 FFFFFFF7     F  F              2321 1967M
²ICBSZ         1 00000200 FFFFFFED A   U                 3346 3009
²ID@           4 0000000C FFFFFFF4     F  F              3274 1978  2574M 2584M 2600M
²IHADCB        1 00000000 FFFFFFE4     J                 4249  157U  159M  160M  160  1709U 1711M 1712M 1712  2044U 2046M
²                                                             2047M 2047  2280U 4329  4380  4455  4582  4587  4602  4608
²                                                             4617  4717  4720  4725  4750  4768  4769  4773  4809  4810
²IHB0004C      2 0000002C 00000003     H  H                68   62B
²IHB0004F      1 00000028 00000003     B  B                64   70
²IHB0004L      4 00000024 00000003     A  A                63   69
²IHB0006C      2 00000060 00000003     H  H               118  112B
²IHB0006F      1 0000005C 00000003     B  B               114  120
²IHB0006L      4 00000058 00000003     A  A               113  119
²IHB0009A      2 00000084 00000003     H  H               135  131B
²IHB0011C      2 000000A4 00000003     H  H               151  146B
²IHB0011F      1 000000A0 00000003     B  B               147  153
²IHB0013C      2 0000010C 00000003     H  H               183  178B
²IHB0013F      1 00000108 00000003     B  B               179  185
²IHB0018A      2 000002D8 00000003     H  H               280  276B
²IHB0020C      2 00000354 00000003     H  H               328  322B
²IHB0020F      1 00000350 00000003     B  B               324  330
²IHB0020L      4 0000034C 00000003     A  A               323  329
²IHB0023A      2 000003E6 00000003     H  H               394  390B
²IHB0025C      2 000003FC 00000003     H  H               407  402B
²IHB0025F      1 000003F8 00000003     B  B               403  409
²IHB0030A      2 00000536 00000003     H  H               539  535B
²IHB0032C      2 0000054C 00000003     H  H               552  547B
²IHB0032F      1 00000548 00000003     B  B               548  554
¯
                               Ordinary Symbol and Literal Cross Reference                                     Page   96
Symbol   Length   Value     Id    R Type Asm  Program   Defn References                     HLASM R6.0  2014/07/08 18.32
²IHB0036F      1 00000604 00000003     B  B               625  631
²IHB0039F      1 00000638 00000003     B  B               648  654
²IHB0042F      1 0000067C 00000003     B  B               684  690
²IHB0045C      2 000006AC 00000004     H  H               715  709B
²IHB0045F      1 000006A8 00000004     B  B               711  717
²IHB0045L      4 000006A4 00000004     A  A               710  716
²IHB0047C      2 00000700 00000004     H  H               781  776B
²IHB0047F      1 000006FC 00000004     B  B               777  783
²IHB0050F      1 00000788 00000004     B  B               847  853
²IHB0053C      2 000007B4 00000005     H  H               879  873B
²IHB0053F      1 000007B0 00000005     B  B               875  881
²IHB0053L      4 000007AC 00000005     A  A               874  880
²IHB0055C      2 000007EC 00000005     H  H               929  923B
²IHB0055F      1 000007E8 00000005     B  B               925  931
²IHB0055L      4 000007E4 00000005     A  A               924  930
²IHB0057C      2 00000820 00000005     H  H               955  949B
²IHB0057F      1 0000081C 00000005     B  B               951  957
²IHB0057L      4 00000818 00000005     A  A               950  956
²IHB0060C      2 0000096C 00000005     H  H              1005 1000B
²IHB0060F      1 00000968 00000005     B  B              1001 1007
²IHB0063C      2 000009C4 00000005     H  H              1043 1038B
²IHB0063F      1 000009C0 00000005     B  B              1039 1045
²IHB0066C      2 00000A38 00000005     H  H              1092 1087B
²IHB0066F      1 00000A34 00000005     B  B              1088 1094
²IHB0069C      2 00000A9C 00000005     H  H              1136 1131B
²IHB0069F      1 00000A98 00000005     B  B              1132 1138
²IHB0072C      2 00000B00 00000005     H  H              1183 1178B
²IHB0072F      1 00000AFC 00000005     B  B              1179 1185
²IHB0074C      2 00000B50 00000005     H  H              1216 1210B
²IHB0074F      1 00000B4C 00000005     B  B              1212 1218
²IHB0074L      4 00000B48 00000005     A  A              1211 1217
²IHB0078F      1 00000B90 00000005     B  B              1246 1252
²IHB0081C      2 00000BBC 00000006     H  H              1278 1272B
²IHB0081F      1 00000BB8 00000006     B  B              1274 1280
²IHB0081L      4 00000BB4 00000006     A  A              1273 1279
²IHB0084F      1 00000C2C 00000006     B  B              1348 1354
²IHB0086F      1 00000C50 00000006     B  B              1366 1372
²IHB0088F      1 00000C68 00000006     B  B              1379 1385
²IHB0090F      1 00000C80 00000006     B  B              1393 1399
²IHB0092F      1 00000C98 00000006     B  B              1406 1412
²IHB0094F      1 00000CB4 00000006     B  B              1420 1426
²IHB0096F      1 00000CCC 00000006     B  B              1433 1439
²IHB0098F      1 00000CE4 00000006     B  B              1446 1452
²IHB0101F      1 00000D18 00000006     B  B              1471 1477
²IHB0104C      2 00000D44 00000007     H  H              1502 1496B
²IHB0104F      1 00000D40 00000007     B  B              1498 1504
²IHB0104L      4 00000D3C 00000007     A  A              1497 1503
²IHB0107F      1 00000EE8 00000007     B  B              1602 1608
²IHB0110C      2 00000F14 00000008     H  H              1633 1627B
²IHB0110F      1 00000F10 00000008     B  B              1629 1635
²IHB0110L      4 00000F0C 00000008     A  A              1628 1634
²IHB0114A      2 00000F64 00000008     H  H              1689 1685B
²IHB0116C      2 00000F78 00000008     H  H              1703 1698B
²IHB0116F      1 00000F74 00000008     B  B              1699 1705
²IHB0126F      1 00001154 00000008     B  B              1787 1793
¯
                               Ordinary Symbol and Literal Cross Reference                                     Page   97
Symbol   Length   Value     Id    R Type Asm  Program   Defn References                     HLASM R6.0  2014/07/08 18.32
²IHB0128C      2 00001170 00000008     H  H              1804 1798B
²IHB0128F      1 0000116C 00000008     B  B              1800 1806
²IHB0128L      4 00001168 00000008     A  A              1799 1805
²IHB0131F      1 000011AC 00000008     B  B              1828 1834
²IHB0134C      2 000011DC 00000009     H  H              1859 1853B
²IHB0134F      1 000011D8 00000009     B  B              1855 1861
²IHB0134L      4 000011D4 00000009     A  A              1854 1860
²IHB0138C      2 000012CC 00000009     H  H              1958 1952B
²IHB0138F      1 000012C8 00000009     B  B              1954 1960
²IHB0138L      4 000012C4 00000009     A  A              1953 1959
²IHB0140A      2 00001330 00000009     H  H              1990 1986B
²IHB0145A      2 0000136C 00000009     H  H              2024 2020B
²IHB0147C      2 00001380 00000009     H  H              2038 2033B
²IHB0147F      1 0000137C 00000009     B  B              2034 2040
²IHB0164A      2 000014FA 00000009     H  H              2190 2186B
²IHB0166C      2 00001510 00000009     H  H              2203 2198B
²IHB0166F      1 0000150C 00000009     B  B              2199 2205
²IHB0171F      1 000015DC 00000009     B  B              2287 2293
²IHB0173F      1 000015F4 00000009     B  B              2300 2306
²IHB0177F      1 0000164C 00000009     B  B              2348 2354
²IHB0180C      2 0000167C 0000000A     H  H              2379 2373B
²IHB0180F      1 00001678 0000000A     B  B              2375 2381
²IHB0180L      4 00001674 0000000A     A  A              2374 2380
²IHB0183A      2 000016D2 0000000A     H  H              2441 2437B
²IHB0185C      2 000016E8 0000000A     H  H              2454 2449B
²IHB0185F      1 000016E4 0000000A     B  B              2450 2456
²IHB0189F      1 00001794 0000000A     B  B              2520 2526
²IHB0192A      2 000017C8 0000000A     H  H              2543 2539B
²IHB0194C      2 000017D4 0000000A     H  H              2553 2548B
²IHB0194F      1 000017D0 0000000A     B  B              2549 2555
²IHB0197A      2 00001886 0000000A     H  H              2629 2625B
²IHB0199C      2 0000189C 0000000A     H  H              2642 2637B
²IHB0199F      1 00001898 0000000A     B  B              2638 2644
²IHB0205C      2 0000195C 0000000A     H  H              2726 2720B
²IHB0205F      1 00001958 0000000A     B  B              2722 2728
²IHB0205L      4 00001954 0000000A     A  A              2721 2727
²IHB0207F      1 00001998 0000000A     B  B              2754 2760
²IHB0209A      2 000019B8 0000000A     H  H              2770 2766B
²IHB0212A      2 00001A70 0000000A     H  H              2811 2807B
²IHB0216       1 00001A84 0000000A     U                 2827 2822M 2823M 2825
²IHB0216A      1 00001A8C 0000000A     U                 2830 2826B
²IHB0220F      1 00001AB0 0000000A     B  B              2846 2852
²IHB0222A      2 00001AD6 0000000A     H  H              2862 2858B
²IHB0225F      1 00001B10 0000000A     B  B              2885 2891
²IHB0228C      2 00001B3C 0000000B     H  H              2917 2911B
²IHB0228F      1 00001B38 0000000B     B  B              2913 2919
²IHB0228L      4 00001B34 0000000B     A  A              2912 2918
²IHB0230C      2 00001B78 0000000B     H  H              2975 2969B
²IHB0230F      1 00001B74 0000000B     B  B              2971 2977
²IHB0230L      4 00001B70 0000000B     A  A              2970 2976
²IHB0232C      2 00001B9C 0000000B     H  H              2995 2990B
²IHB0232F      1 00001B98 0000000B     B  B              2991 2997
²IHB0234C      2 00001BD0 0000000B     H  H              3020 3015B
²IHB0234F      1 00001BCC 0000000B     B  B              3016 3022
²IHB0236C      2 00001BF8 0000000B     H  H              3040 3035B
¯
                               Ordinary Symbol and Literal Cross Reference                                     Page   98
Symbol   Length   Value     Id    R Type Asm  Program   Defn References                     HLASM R6.0  2014/07/08 18.32
²IHB0236F      1 00001BF4 0000000B     B  B              3036 3042
²IHB0238C      2 00001C1C 0000000B     H  H              3059 3054B
²IHB0238F      1 00001C18 0000000B     B  B              3055 3061
²IHB0240C      2 00001C48 0000000B     H  H              3081 3076B
²IHB0240F      1 00001C44 0000000B     B  B              3077 3083
²IHB0242C      2 00001C70 0000000B     H  H              3101 3096B
²IHB0242F      1 00001C6C 0000000B     B  B              3097 3103
²IHB0244C      2 00001C8C 0000000B     H  H              3118 3113B
²IHB0244F      1 00001C88 0000000B     B  B              3114 3120
²IHB0246C      2 00001CA8 0000000B     H  H              3135 3130B
²IHB0246F      1 00001CA4 0000000B     B  B              3131 3137
²IHB0248C      2 00001CC4 0000000B     H  H              3152 3147B
²IHB0248F      1 00001CC0 0000000B     B  B              3148 3154
²IHB0253F      1 00001D5C 0000000B     B  B              3247 3253
²INLP#30       1 00000398 00000003     U                  358  483B
²INPARSE       1 00000018 00000003     J                   53   54    55   103   664  3233
²INPARSE_OLD_SAVE
²              4 00000004 FFFFFFFF     A  A                85  674
²INPARSE_SAVE
²              1 00000000 FFFFFFFF     J                   82   52U
²INPARSE_SAVE_AREA
²              1 00000000 FFFFFFFF     C  C                83  102
²INPARSE_SAVE_R0
²              4 00000014 FFFFFFFF     F  F                89   74   675M
²INPARSE_SAVE_R1
²              4 00000018 FFFFFFFF     F  F                90   75   676M
²INPARSE_SAVE_R15
²              4 00000010 FFFFFFFF     F  F                88   76   678M
²INPARSE_SAVELEN
²              1 00000048 FFFFFFFF A   U                  102   63   683
²INS#81        1 00001830 0000000A     U                 2587 2577B
²INSTR         8 00000008 FFFFFFEE     F  FD             3332 2168M 2608M
²L#1           1 00000660 00000003     U                  672  666B
²L#2           1 0000076C 00000004     U                  835  832B
²L#3           1 00000B74 00000005     U                 1234 1231B
²L#4           1 00000CFC 00000006     U                 1459 1456B
²L#5           1 00000ECC 00000007     U                 1590 1587B
²L#6           1 00001190 00000008     U                 1816 1812B
²L#7           1 00001630 00000009     U                 2336 2328B
²L#8           1 00001AF4 0000000A     U                 2873 2866B
²L#9           1 00001D40 0000000B     U                 3235 3231B
²LENGTH        4 00000000 FFFFFFF4     F  F              3270  383   413   436M  528   558   581M 2179  2209  2232M 2430
²                                                             2460  2483M 2571M 2581M 2618  2648  2671M 3272  3275
²LEN4          1 00000C40 00000006     U                 1358 1340B
²LIBRARY      44 00000002 FFFFFFEF     C  C              3323  492
²LINE1        80 00000000 FFFFFFFE     C  C               660  298   307   316   356   485   662
²LINE2       133 00000000 FFFFFFF7     C  C              2317 2080  2084  2092  2096  2104  2108  2121  2125  2130  2131
²                                                             2150  2160
²LISTDD        8 000012B0 00000009     C  C              1941 2007  2027
²LISTSTRT      1 000012B8 00000009     C  C              1942 2084  2096  2108  2125
²LOOP#31       1 0000029C 00000003     U                  254  617B
²LOOP#61       1 00000E9E 00000007     U                 1572 1582B
²LOOP#62       1 00001452 00000009     U                 2117 2269B
²LOOP#63       4 000012F2 00000009     I                 1976 1981B
²LOOP#64       1 0000147E 00000009     U                 2138 2267B
¯
                               Ordinary Symbol and Literal Cross Reference                                     Page   99
Symbol   Length   Value     Id    R Type Asm  Program   Defn References                     HLASM R6.0  2014/07/08 18.32
²LP#1          1 00000424 00000003     U                  425  429B
²LP#10         1 0000191A 0000000A     U                 2691 2695B
²LP#2          1 0000047A 00000003     U                  456  460B
²LP#3          1 00000574 00000003     U                  570  574B
²LP#4          1 000005CA 00000003     U                  601  605B
²LP#5          1 00001538 00000009     U                 2221 2225B
²LP#6          1 0000158E 00000009     U                 2252 2256B
²LP#7          1 00001710 0000000A     U                 2472 2476B
²LP#71         1 000017EC 0000000A     U                 2563 2567B
²LP#8          1 00001766 0000000A     U                 2503 2507B
²LP#9          1 000018C4 0000000A     U                 2660 2664B
²LPDSN        54 0000006A FFFFFFF1     C  C              3310  310
²LST           7 00000274 00000003     C  C               238  307
²MAIN          4 0000027B 00000003     C  C               239  316
²MAINLINE      1 00000000 00000002     J                   32   33    34
²MEMBER        8 00000030 FFFFFFEF     C  C              3325  514
²MEMBR         1 00000A7E 00000005     U                 1115 1074B
²MYTRT         6 0000093C 00000005     I                  978 1072X
²NA1           8 00000002 FFFFFFEC     X  X              3361 2737M 2738M 2738
²NCH#71        1 0000181A 0000000A     U                 2578 2560B
²NEXT@         4 00000008 FFFFFFF4     F  F              3273 1980  2565  2569M 2576M
²NO1           1 000015B4 00000009     U                 2266 2142B 2145B
²NXT#2         6 00000318 00000003     I                  307  299B
²NXT#3         6 00000338 00000003     I                  316  308B
²NXT#4         6 0000038E 00000003     I                  356  317B
²NXT#5         6 000004C0 00000003     I                  485  357B
²NXT#6         1 000005F4 00000003     U                  616  305B  314B  354B  471B  486B  614B
²OFFSET        8 00000000 FFFFFFEE     F  FD             3331 2158M 2606M 3333
²ONESYMB       1 00000EBA 00000007     U                 1584 1568B
²OUTPUT        6 00000287 00000003     C  C               241  485
²PARL#2        1 00000710 00000004     X  X               790  811
²PARR#2        1 00000712 00000004     X  X               792  824
²PDSN         54 00000032 FFFFFFF1     C  C              3308  301
²PMN           8 00000002 FFFFFFF0     C  C              3317  343
²PMVC          6 00000294 00000003     I                  243  302X  311X  344X  369X  493X  515X
²POS           4 00000004 FFFFFFF4     F  F              3271  382   438   441M  527   583   586M 2113  2178  2234  2237M
²                                                             2429  2485  2488M 2573M 2583M 2592  2617  2673  2676M
²PREPMDL       1 00001668 0000000A     J                 2364 2365  2366  2414  3234
²PREPMDL_OLD_SAVE
²              4 00000004 FFFFFFF6     A  A              2396 2875
²PREPMDL_SAVE
²              1 00000000 FFFFFFF6     J                 2393 2363U
²PREPMDL_SAVE_AREA
²              1 00000000 FFFFFFF6     C  C              2394 2413
²PREPMDL_SAVE_R0
²              4 00000014 FFFFFFF6     F  F              2400 2385  2876M
²PREPMDL_SAVE_R1
²              4 00000018 FFFFFFF6     F  F              2401 2386  2877M
²PREPMDL_SAVE_R15
²              4 00000010 FFFFFFF6     F  F              2399 2387  2879M
²PREPMDL_SAVELEN
²              1 00000048 FFFFFFF6 A   U                 2413 2374  2884
²PSW          16 00000000 FFFFFFF2     C  C              3288 3291
²PTRT          6 0000028E 00000003     I                  242  269X  295X  479X  507X
²RDNCB@        4 00000028 FFFFFFF1     F  F              3305  488  3157M
¯
                               Ordinary Symbol and Literal Cross Reference                                     Page  100
Symbol   Length   Value     Id    R Type Asm  Program   Defn References                     HLASM R6.0  2014/07/08 18.32
²RECB          1 00000000 FFFFFFEE     J                 3328 2148U 2604U
²RECB#         1 00000010 FFFFFFEE A   U                 3333 2236  2241  2675  2680  3109
²RECB@         4 0000000C FFFFFFF1     F  F              3298 1974  2532  2586M 3006M
²RECB@L        4 00000098 FFFFFFF7     F  F              2322 1993M 2172
²RECBSZ        1 00000400 FFFFFFED A   U                 3343 2534
²REM#1         6 0000043A 00000003     I                  431  434X
²REM#10        6 00001930 0000000A     I                 2697 2700X
²REM#2         6 00000490 00000003     I                  462  465X
²REM#3         6 0000058A 00000003     I                  576  579X
²REM#4         6 000005E0 00000003     I                  607  610X
²REM#5         6 0000154E 00000009     I                 2227 2230X
²REM#6         6 000015A4 00000009     I                 2258 2261X
²REM#7         6 00001726 0000000A     I                 2478 2481X
²REM#8         6 0000177C 0000000A     I                 2509 2512X
²REM#9         6 000018DA 0000000A     I                 2666 2669X
²RICB@         4 0000001C FFFFFFF1     F  F              3302  360  3140M
²RRECB@        4 00000014 FFFFFFF1     F  F              3300 1969  2603  3123M 3227
²RRECB@L       4 0000009C FFFFFFF7     F  F              2323 1970M 2147
²RSA#          1 00000130 FFFFFFF2 A   U                 3291 3031
²RSA@          4 00000020 FFFFFFF1     F  F              3303 3045M
²RTOPM@        4 00000004 FFFFFFF1     F  F              3296 3106M
²RTOPM@1       4 00000050 FFFFFFFE     F  F               661  349M  619
²R0            1 00000000 00000001 A   U                   13   74M  106   318   339M  658M  675   721M  755   765   827M
²                                                              838   885M  917  1228M 1237  1284M 1315  1462  1508M 1553
²                                                             1585M 1593  1639M 1672M 1810M 1819  1865M 1945  1997M 2013
²                                                             2150M 2158  2160M 2168  2308M 2339  2385M 2416  2710  2796M
²                                                             2803  2876  2923M 3213M 3220  3221M 3238
²R1            1 00000001 00000001 A   U                   14   73    75M  123   156   158M  158   159   188   190M  190
²                                                              191   200M  201   289   291   296   333   335M  335   336
²                                                              412   420M  420   421M  422   451M  451   452M  453   473
²                                                              475   480   498   499   501   503   508   557   565M  565
²                                                              566M  567   596M  596   597M  598   676   720   722M  758
²                                                              767   787   810M  810   811M  812   823M  823   824M  825
²                                                              839   884   886M  918   934   937M  937   938   941M  942
²                                                              960   983M  983   984M  987M  990  1010  1012M 1012  1013M
²                                                             1013  1014M 1015  1016M 1016  1017M 1018  1048  1050M 1050
²                                                             1051M 1052  1058M 1058  1059M 1060  1097  1099M 1099  1100M
²                                                             1100  1101M 1102  1103M 1103  1104M 1105  1119  1141  1143M
²                                                             1143  1144M 1144  1145M 1146  1147M 1147  1148M 1149  1188
²                                                             1190M 1190  1191M 1191  1192M 1193  1194M 1194  1195M 1196
²                                                             1223  1224  1238  1283  1285M 1319M 1319  1320  1328M 1463
²                                                             1507  1509M 1554  1594  1638  1640M 1673M 1708  1710M 1710
²                                                             1711  1809  1810  1820  1864  1866M 1948  1963  1999M 2007M
²                                                             2043  2045M 2045  2046  2151M 2151  2152M 2161M 2161  2162M
²                                                             2208  2216M 2216  2217M 2218  2247M 2247  2248M 2249  2340
²                                                             2384  2386M 2419  2459  2467M 2467  2468M 2469  2498M 2498
²                                                             2499M 2500  2569  2570  2579  2585  2588  2605M 2606  2607M
²                                                             2608  2647  2655M 2655  2656M 2657  2686M 2686  2687M 2688
²                                                             2731  2733M 2733  2734M 2735  2736M 2736  2737  2797M 2877
²                                                             2922  2924M 2954  2980  3000  3001  3003  3025  3026  3028
²                                                             3045  3064  3065  3067  3086  3087  3089  3106  3123  3140
²                                                             3157  3220M 3227M 3228  3239
²R10           1 0000000A 00000001 A   U                   23  106M  107U  656D  765M  766   934M  935U  938   939   939
²                                                             1221  1229D 1554M 1556M 1557  1561  1726M 1734  1741  1748
²                                                             1755  1765  1792  1945M 1946U 1972  1998D 2061M 2062  2068
¯
                               Ordinary Symbol and Literal Cross Reference                                     Page  101
Symbol   Length   Value     Id    R Type Asm  Program   Defn References                     HLASM R6.0  2014/07/08 18.32
²                                                             2079  2091  2103  2120  2277  2280U 2292  2310M 2313  2315D
²                                                             2590M 2591U 2595  2598D 2603M 2604U 2609D 2692  2694M 2697
²                                                             2705M 2708  2799M 2802  2803M 3215M 3218  3223M 3226
²R11           1 0000000B 00000001 A   U                   24   40M   43   123M  124U  256   630   657D 1224M 1228  1315M
²                                                             1316  1328  1398  1675M 1678  1963M 1964U 2314D 2416M 2417U
²                                                             2864D 2980M 2981U 3213  3221  3229D
²R12           1 0000000C 00000001 A   U                   25   36M   37U   56    57M   58U  318   339M  374   468M  520
²                                                              612M  692M  693D  694U  703   704M  705U  855M  856D  857U
²                                                              867   868M  869U 1254M 1255D 1256U 1266  1267M 1268U 1479M
²                                                             1480D 1481U 1490  1491M 1492U 1610M 1611D 1612U 1621  1622M
²                                                             1623U 1836M 1837D 1838U 1847  1848M 1849U 2170  2263M 2356M
²                                                             2357D 2358U 2367  2368M 2369U 2421  2514M 2611  2702M 2893M
²                                                             2894D 2895U 2905  2906M 2907U 3255M 3256D 3257U
²R13           1 0000000D 00000001 A   U                   26   52U   56    77    78    79M   80   318   339   374   468
²                                                              520   612   673   674M  692   695D  699U  703   724   725
²                                                              726M  727   836   837M  855   858D  863U  867   888   889
²                                                              890M  891   991  1024  1027  1066  1078  1112  1122  1155
²                                                             1169  1203  1235  1236M 1254  1257D 1262U 1266  1287  1288
²                                                             1289M 1290  1460  1461M 1479  1482D 1486U 1490  1511  1512
²                                                             1513M 1514  1591  1592M 1610  1613D 1617U 1621  1642  1643
²                                                             1644M 1645  1679  1728  1817  1818M 1836  1839D 1843U 1847
²                                                             1868  1869  1870M 1871  2170  2263  2337  2338M 2356  2359D
²                                                             2363U 2367  2388  2389  2390M 2391  2421  2514  2611  2702
²                                                             2874  2875M 2893  2896D 2901U 2905  2926  2927  2928M 2929
²                                                             3236  3237M 3255  3258D
²R14           1 0000000E 00000001 A   U                   27   40    42M   43M   44B   56   374   468M  520   612M  692M
²                                                              703   855M  867   991  1024M 1027  1066M 1078  1112M 1122
²                                                             1155M 1169  1203M 1254M 1266  1479M 1490  1610M 1621  1675
²                                                             1677M 1678M 1679  1728M 1836M 1847  2002  2004M 2005M 2009
²                                                             2011M 2012M 2154  2156M 2157M 2164  2166M 2167M 2170  2263M
²                                                             2310  2312M 2313M 2356M 2367  2421  2514M 2611  2702M 2705
²                                                             2707M 2708M 2799  2801M 2802M 2893M 2905  3215  3217M 3218M
²                                                             3223  3225M 3226M 3255M
²R15           1 0000000F 00000001 A   U                   28   41M   42B   76M  282M  282   283M  333M  336   337   337
²                                                              340   677M  677   678   723M  829M  840M  840   841   887M
²                                                             1239M 1239  1240  1286M 1464M 1464  1465  1510M 1595M 1595
²                                                             1596  1641M 1676M 1677B 1821M 1821  1822  1867M 2003M 2004B
²                                                             2010M 2011B 2155M 2156B 2165M 2166B 2311M 2312B 2341M 2341
²                                                             2342  2387M 2706M 2707B 2800M 2801B 2878M 2878  2879  2925M
²                                                             3216M 3217B 3224M 3225B 3240M 3240  3241
²R2            1 00000002 00000001 A   U                   15   78M   80   141M  141   142M  152   173M  173   174M  184
²                                                              193   265M  265   270   289M  290M  293   383M  384   396M
²                                                              397   398M  408   419M  419   422M  433M  434   450M  450
²                                                              453M  464M  465   470   473M  474M  477   501M  502M  505
²                                                              528M  529   541M  542   543M  553   564M  564   567M  578M
²                                                              579   595M  595   598M  609M  610   673M  689   725M  727
²                                                              761M  761   769M  770M  771M  771   782   797M  798M  799
²                                                              836M  852   889M  891  1031M 1031  1032M 1033  1061  1064M
²                                                             1065  1070M 1070  1073  1221M 1222M 1223  1235M 1251  1288M
²                                                             1290  1316M 1317U 1411  1454D 1460M 1476  1512M 1514  1551
²                                                             1553M 1560  1564  1565M 1567  1573  1582M 1591M 1607  1643M
²                                                             1645  1693M 1693  1694M 1704  1771M 1771  1772M 1791  1817M
²                                                             1833  1869M 1871  1966M 1967  1969M 1970  1974M 1975U 1976
²                                                             1980M 1993  2028M 2028  2029M 2039  2179M 2180  2192M 2193
²                                                             2194M 2204  2215M 2215  2218M 2229M 2230  2246M 2246  2249M
¯
                               Ordinary Symbol and Literal Cross Reference                                     Page  102
Symbol   Length   Value     Id    R Type Asm  Program   Defn References                     HLASM R6.0  2014/07/08 18.32
²                                                             2260M 2261  2337M 2353  2389M 2391  2430M 2431  2443M 2444
²                                                             2445M 2455  2466M 2466  2469M 2480M 2481  2497M 2497  2500M
²                                                             2511M 2512  2533M 2533  2534M 2535M 2554  2558M 2571  2572M
²                                                             2572  2573  2574  2575M 2575  2576  2581  2582M 2582  2583
²                                                             2584  2618M 2619  2631M 2632  2633M 2643  2654M 2654  2657M
²                                                             2668M 2669  2685M 2685  2688M 2699M 2700  2731M 2732U 2741D
²                                                             2742  2792  2839M 2839  2840M 2841M 2850  2874M 2890  2927M
²                                                             2929  2983M 2983  2984M 2985  3001  3002M 3002  3003  3005M
²                                                             3005  3006  3008M 3008  3009M 3010  3026  3027M 3027  3028
²                                                             3030M 3030  3031M 3041  3047M 3047  3048M 3049  3065  3066M
²                                                             3066  3067  3069M 3069  3070M 3071  3087  3088M 3088  3089
²                                                             3091M 3091  3092M 3102  3108M 3108  3109M 3119  3125M 3125
²                                                             3126M 3136  3142M 3142  3143M 3153  3236M 3252
²R3            1 00000003 00000001 A   U                   16   73M   77    79   140M  161   242   243   256M  260   290
²                                                              291M  292M  292   297   382M  384   418M  423   429M  439M
²                                                              440M  441   449M  454   460M  474   475M  476M  476   481
²                                                              498M  502   503M  504M  504   509   527M  529   563M  568
²                                                              574M  584M  585M  586   594M  599   605M  720M  724   726
²                                                              762M  762   766M  769   804M  805   807M  807   808   884M
²                                                              888   890   917M  978   995M  996M 1006  1033M 1034M 1044
²                                                             1057M 1063  1071  1076  1082M 1083M 1093  1117  1126M 1127M
²                                                             1137  1159  1173M 1174M 1184  1283M 1287  1289  1322M 1324
²                                                             1326  1332  1334  1335  1353  1359  1384  1507M 1511  1513
²                                                             1638M 1642  1644  1692M 1713  1864M 1868  1870  1948M 1978
²                                                             1995D 1999  2027M 2048  2133M 2133  2147M 2148U 2171  2178M
²                                                             2180  2214M 2219  2225M 2235M 2236M 2237  2245M 2250  2256M
²                                                             2265D 2267M 2384M 2388  2390  2429M 2431  2465M 2470  2476M
²                                                             2486M 2487M 2488  2496M 2501  2507M 2532M 2559  2561M 2561
²                                                             2562U 2564  2565M 2566  2568M 2570M 2579M 2580U 2585M 2586
²                                                             2589D 2617M 2619  2653M 2658  2664M 2674M 2675M 2676  2684M
²                                                             2689  2695M 2922M 2926  2928  2985M 2986M 2996  3010M 3011M
²                                                             3021  3049M 3050M 3060  3071M 3072M 3082
²R4            1 00000004 00000001 A   U                   17  156M  157U  204D  205   266M  266   268M  269   293M  295
²                                                              397M  436   438M  439   442M  443M  457   458M  462   477M
²                                                              479   499M  505M  507   542M  581   583M  584   587M  588M
²                                                              602   603M  607   763M  763   767M  770   817M  818   820M
²                                                              820   821  1076M 1077M 1108  1117M 1118M 1121  1152  1162
²                                                             1324M 1325M 1326  1332M 1333M 1415  1425  1559M 1582  1708M
²                                                             1709U 1725D 1726  2043M 2044U 2060D 2061  2135M 2135  2136M
²                                                             2140  2143  2193M 2232  2234M 2235  2238M 2239M 2253  2254M
²                                                             2258  2267  2444M 2483  2485M 2486  2489M 2490M 2504  2505M
²                                                             2509  2564M 2568  2632M 2671  2673M 2674  2677M 2678M 2692
²                                                             2693M 2697  2716M 2739  2742M 2822
²R5            1 00000005 00000001 A   U                   18  188M  189U  196   296M  297M  300M  302   303M  303   304
²                                                              309M  311   312M  312   313   342M  344   345M  345   346
²                                                              365M  369   376M  381U  426   428M  431   435M  442   466D
²                                                              480M  481M  490M  493   494M  494   495   508M  509M  512M
²                                                              515   516M  516   517   521M  526U  571   573M  576   580M
²                                                              587   611D  918M  981   987  1021  1069M 1069  1071M 1072
²                                                             1082  1106  1109M 1110  1120M 1121M 1126  1150  1153M 1154
²                                                             1161M 1162M 1164  1334M 1428  1438  1560M 1561M 1567  2113M
²                                                             2114M 2139M 2139  2140M 2141  2143M 2144  2171M 2253  2255M
²                                                             2258  2419M 2504  2506M 2509  2525  2710M 2740  2759
²R6            1 00000006 00000001 A   U                   19  340M  341U  347D  349   360M  361U  363   364   372D  457
²                                                              459M  462   488M  489U  496D  511U  518D  602   604M  607
¯
                               Ordinary Symbol and Literal Cross Reference                                     Page  103
Symbol   Length   Value     Id    R Type Asm  Program   Defn References                     HLASM R6.0  2014/07/08 18.32
²                                                              619M  658   755M  756M  794   816M  991  1024M 1027  1066M
²                                                             1078  1112M 1119M 1120  1122  1155M 1161  1167M 1169  1199
²                                                             1203M 1335M 1339  1342M 1441  1451  1563M 1563  1564M 1577M
²                                                             1577  1578M 1585  2111M 2112U 2115D 2116M 2140  2143  2172M
²                                                             2177U 2222  2224M 2227  2231M 2238  2262D 2422M 2428U 2473
²                                                             2475M 2478  2482M 2489  2513D 2588M 2599U 2601D 2616U 2661
²                                                             2663M 2666  2670M 2677  2701D 2954M 2955M
²R7            1 00000007 00000001 A   U                   20  362M  363   364   413M  414M  418   558M  559M  563   758M
²                                                              759M  816   990M  995  1019  1022M 1023  1158M 1158  1159M
²                                                             1164M 1165M 1166M 1173  1197  1200M 1201  1359M 1360M 1361
²                                                             1371  2128M 2128  2130M 2141  2209M 2210M 2214  2460M 2461M
²                                                             2465  2648M 2649M 2653
²R8            1 00000008 00000001 A   U                   21  243   301M  310M  343M  366M  367M  370M  371M  444M  444
²                                                              445M  449   492M  514M  589M  589   590M  594   787M  794
²                                                              799   801   802M  802   808M  812   814M  814   821M  825
²                                                             1010M 1011U 1025  1048M 1049U 1067  1097M 1098U 1111M 1113
²                                                             1141M 1142U 1156  1188M 1189U 1202M 1204  2129M 2129  2131M
²                                                             2144  2240M 2240  2241M 2245  2491M 2491  2492M 2496  2679M
²                                                             2679  2680M 2684  2762M 2796
²R9            1 00000009 00000001 A   U                   22  205M  211   259   412M  426   427M  431   435   557M  571
²                                                              572M  576   580   638   653   801M  827   960M  962  1025
²                                                             1067  1113  1156  1204  1337M 1337  1361M 1370  1414M 1414
²                                                             1415M 1424  1428M 1437  1441M 1450  1570M 1570  1573M 1575
²                                                             1578  1679  1728M 2002M 2005  2009M 2012  2154M 2157  2164M
²                                                             2167  2208M 2222  2223M 2227  2231  2281M 2305  2459M 2473
²                                                             2474M 2478  2482  2592M 2594M 2595M 2596M 2600  2647M 2661
²                                                             2662M 2666  2670  2792M 2840  2851
²SCANTAB       1 0000083C 00000005     X  X               970  971   973   975   978   981
²SCTB          1 00000942 00000005     U                  979  963B
²SCTB2         1 0000016E 00000003     X  X               225  226   228   230   232   234   242
²SCTB3         1 00000D6E 00000007     X  X              1542 1543  1545  1547  1551
²SDNM1         1 00000092 00000003     U                  139  137B
²SKIP#1        1 00000440 00000003     U                  432  424B  430B
²SKIP#10       1 00001936 0000000A     U                 2698 2690B 2696B
²SKIP#2        1 00000496 00000003     U                  463  455B  461B
²SKIP#3        1 00000590 00000003     U                  577  569B  575B
²SKIP#4        1 000005E6 00000003     U                  608  600B  606B
²SKIP#5        1 00001554 00000009     U                 2228 2220B 2226B
²SKIP#50       1 0000029C 00000003     U                  252  216B
²SKIP#6        1 000015AA 00000009     U                 2259 2251B 2257B
²SKIP#61       1 00000E74 00000007     U                 1552 1541B
²SKIP#62       1 000012B9 00000009     U                 1943 1897B
²SKIP#7        1 0000172C 0000000A     U                 2479 2471B 2477B
²SKIP#70       1 00001A4A 0000000A     U                 2791 2778B
²SKIP#8        1 00001782 0000000A     U                 2510 2502B 2508B
²SKIP#9        1 000018E0 0000000A     U                 2667 2659B 2665B
²SKIP#90       1 00001150 00000008     U                 1782 1773B
²SKIPLIN1      1 000013FA 00000009     U                 2076 2085B
²SKIPLIN2      1 00001412 00000009     U                 2088 2097B
²SKIPLIN3      1 0000142A 00000009     U                 2100 2109B
²SKIP2         1 000009E0 00000005     U                 1056 1053B
²SKPMVC#1      1 0000071A 00000004     U                  795  789B
²SKPSPC        1 00000EB6 00000007     U                 1580 1576B
²SND1          6 00000996 00000005     I                 1021 1023X
²SND2          6 000009F6 00000005     I                 1063 1065X
¯
                               Ordinary Symbol and Literal Cross Reference                                     Page  104
Symbol   Length   Value     Id    R Type Asm  Program   Defn References                     HLASM R6.0  2014/07/08 18.32
²SND3          6 00000A62 00000005     I                 1108 1110X
²SND4          6 00000AC6 00000005     I                 1152 1154X
²SND5          6 00000B2A 00000005     I                 1199 1201X
²SPACE#        1 0000016A 00000003     X  X               221  470
²SPZPGEN       1 00000F00 00000008     J                 1618 1619  1620  1668  2871
²SPZPGEN_OLD_SAVE
²              4 00000004 FFFFFFF9     A  A              1650 1818
²SPZPGEN_SAVE
²              1 00000000 FFFFFFF9     J                 1647 1617U
²SPZPGEN_SAVE_AREA
²              1 00000000 FFFFFFF9     C  C              1648 1667
²SPZPGEN_SAVE_R0
²              4 00000014 FFFFFFF9     F  F              1654 1639  1819M
²SPZPGEN_SAVE_R1
²              4 00000018 FFFFFFF9     F  F              1655 1640  1820M
²SPZPGEN_SAVE_R15
²              4 00000010 FFFFFFF9     F  F              1653 1641  1822M
²SPZPGEN_SAVELEN
²              1 00000048 FFFFFFF9 A   U                 1667 1628  1827
²SPZPPRM       1 00000000 FFFFFFEC     J                 3358 2732U
²SPZPRM#       1 00000032 FFFFFFEC A   U                 3367 2721
²SYSIN         8 00000022 FFFFFFEC     X  X              3365 2740M
²SYSLIB        8 0000001A FFFFFFEC     X  X              3364 2739M
²SZ1          80 0000105F 00000008     C  C              1778 1742
²SZ2          80 000010AF 00000008     C  C              1779 1749
²SZ3          80 000010FF 00000008     C  C              1780 1756
²S1            2 0000099C 00000005     I                 1022 1020B
²S2            2 000009FC 00000005     I                 1064 1062B
²S3            2 00000A68 00000005     I                 1109 1107B
²S4            2 00000ACC 00000005     I                 1153 1151B
²S5            2 00000B30 00000005     I                 1200 1198B
²S99RB         1 00000000 FFFFFFEA     J                 3608  935U 1317U
²S99RBLN       1 00000000 FFFFFFEA     C  C              3610  942M
²S99RBX        1 00000000 FFFFFFE6     J                 3748 3788
²S99TUKEY      2 00000000 FFFFFFE8     X  X              3734 1015M 1052M 1102M 1146M 1193M
²S99TULNG      2 00000004 FFFFFFE8     X  X              3737 1019M 1061M 1106M 1150M 1197M
²S99TUNIT      1 00000000 FFFFFFE8     J                 3733 1011U 1049U 1098U 1142U 1189U
²S99TUNUM      2 00000002 FFFFFFE8     X  X              3735 1018M 1060M 1105M 1149M 1196M
²S99TUPAR      1 00000006 FFFFFFE8     C  C              3738 1021M 1063M 1108M 1152M 1199M
²S99TXTPP      4 00000008 FFFFFFEA     F  F              3659  962M 1322
²S99VERB       1 00000001 FFFFFFEA     C  C              3611  944M 1320M 1321M
²S99VRBAL      1 00000001 FFFFFFEA A   U                 3612  944
²S99VRBUN      1 00000002 FFFFFFEA A   U                 3613 1321
²TDD           8 000019BE 0000000A     C  C              2779 2716  2797
²TDDSPZP       8 00001057 00000008     C  C              1777 1673  1692  1809
²TEMP2         1 000009DE 00000005     X  X              1054 1057
²TOPM          1 00000000 FFFFFFF0     J                 3313  341U
²TOPM#         1 0000000A FFFFFFF0 A   U                 3318  323   337  2487  2492  2519  2594  3092
²TOPM@         4 00000000 FFFFFFF1     F  F              3295 2422  2590  3064M 3311
²TRTBL@        4 00000008 FFFFFFF1     F  F              3297 3000M
²TRTBLSZ       1 00000800 FFFFFFED A   U                 3352 2984  3048
²TR1           6 00000E6E 00000007     I                 1551 1557X
²TSPZP         2 00001040 00000008     X  X              1775 1672
²USA           1 00000000 FFFFFFF1     J                 3293  107U 1946U 2417U 2981U
²USA#          1 000000A0 FFFFFFF1 A   U                 3311 2970
¯
                               Ordinary Symbol and Literal Cross Reference                                     Page  105
Symbol   Length   Value     Id    R Type Asm  Program   Defn References                     HLASM R6.0  2014/07/08 18.32
²USA@L         4 00000090 FFFFFFF7     F  F              2320 1972M
²=A(BLDPRM)
²              4 0000161C 00000009     A                 2331 2003
²=A(CNVTOHEX)
²              4 00001628 00000009     A                 2334 2155  2165
²=A(DALLOC)
²              4 00001188 00000008     A                 1814 1676
²=A(DALLOC)
²              4 00001620 00000009     A                 2332 2010
²=A(DALLOC)
²              4 00001AF0 0000000A     A                 2872 2800
²=A(DUNALLOC)
²              4 0000162C 00000009     A                 2335 2311
²=A(GETINIT)
²              4 00000010 00000002     A                   46   41
²=A(INPARSE)
²              4 00001D38 0000000B     A                 3233 3216
²=A(PREPMDL)
²              4 00001D3C 0000000B     A                 3234 3224
²=A(SPZPGEN)
²              4 00001AEC 0000000A     A                 2871 2706
²=C'    '      4 00000658 00000003     C                  670  362
²=CL4'DCBE'
²              4 00000654 00000003     C                  669  197
²=X'00000000'
²              4 0000065C 00000003     X                  671  423   454   568   599
²=X'00000000'
²              4 00000B70 00000005     X                 1233 1073
²=X'00000000'
²              4 00001618 00000009     X                 2330 1976  2219  2250
²=X'00000000'
²              4 00001AE0 0000000A     X                 2868 2470  2501  2559  2566  2658  2689
²=X'00000001'
²              4 00000EC8 00000007     X                 1589 1559
²=X'00000006'
²              4 00001AE4 0000000A     X                 2869 2605
²=X'00001222'
²              4 00000768 00000004     X                  834  829
²=X'47F0C00C'
²              4 00001AE8 0000000A     X                 2870 2607
²=X'80000000'
²              4 00000CF8 00000006     X                 1458 1339
²=XL4'00000001'
²              4 00000650 00000003     X                  668  166   167   168   169   170   171   172   194
²=XL4'00000001'
²              4 0000118C 00000008     X                 1815 1718  1719  1720  1721  1722  1723  1724
²=XL4'00000001'
²              4 00001624 00000009     X                 2333 2053  2054  2055  2056  2057  2058  2059
¯
                                  Unreferenced Symbols Defined in CSECTs                                       Page  106
  Defn  Symbol                                                                              HLASM R6.0  2014/07/08 18.32
²  2783  ALIGN
²   966  COMMA
²   219  COMMA#1
²   830  DATA#3
²  2784  DDNAMLST
²  1903  DEBUG
²   217  DIEZ
²  1994  ENDL#63
²   386  EXP#1
²   531  EXP#2
²  2182  EXP#3
²  2433  EXP#4
²  2621  EXP#5
²  1228  GOOD
²   964  LEFT
²  2782  MSG
²   298  NXT#1
²  3261  RETRY
²   968  SPACE
²  1940  SR1
²  3162  T1
²  3163  T2
²  3165  T3
²  3166  T4
¯
                                          Macro and Copy Code Source Summary                                   Page  107
 Con Source                                        Volume    Members                        HLASM R6.0  2014/07/08 18.32
²     PRIMARY INPUT                                           SKIPBLOCK
²  L1 EMCPROJ.MACLIB                                ZAIMS1    CRSZPARM CRTRECB  FASTCOPY GENREG   PREPDCB  PROCBGN
²                                                             PROCCALL PROCEND  PSHSTRCT TEXTUNIT
²  L2 SYS1.MACLIB                                   ZARES1    CLOSE    DCB      DCBD     DYNALLOC FREEMAIN GET
²                                                             GETMAIN  IEFSJDKY IEFZB4D0 IEFZB4D2 IHADCBE  IHBINNRA
²                                                             IHBINNRB IHBOPLST IHB01    LINK     OPEN     PUT
²                                                             SYSSTATE WTO
²  L3 EMCPROJ.COPY                                  ZAIMS1    BPARM    CNVTOHEX DALLOC   DUNALLOC INPARSE
¯
                                                Dsect Cross Reference                                          Page  108
Dsect     Length      Id       Defn                                                         HLASM R6.0  2014/07/08 18.32
²BLDPRM_SAVE
²         00000048  FFFFFFFD     729
²BLDRECB_SAVE
²         00000048  FFFFFFF8    1873
²CBHEAD   00000010  FFFFFFF4    3269
²CNVTOHEX_SAVE
²         00000048  FFFFFFFA    1516
²DALLOC_SAVE
²         00000048  FFFFFFFC     893
²DCBE     00000038  FFFFFFE3    4813
²DDATA1   00000054  FFFFFFFE     659
²DDATA2   000000A0  FFFFFFF7    2316
²DNCB     00000038  FFFFFFEF    3320
²DUNALLOC_SAVE
²         00000048  FFFFFFFB    1292
²GETINIT_SAVE
²         00000048  FFFFFFF5    2931
²ICB      00000008  FFFFFFED    3335
²IHADCB   00000060  FFFFFFE4    4249
²INPARSE_SAVE
²         00000048  FFFFFFFF      82
²PREPMDL_SAVE
²         00000048  FFFFFFF6    2393
²RECB     00000010  FFFFFFEE    3328
²RSA      00000130  FFFFFFF2    3286
²SPZPGEN_SAVE
²         00000048  FFFFFFF9    1647
²SPZPPRM  00000034  FFFFFFEC    3358
²SVC99KYS 00000000  FFFFFFE5    3986
²S99RB    00000014  FFFFFFEA    3608
²S99RBP   00000004  FFFFFFEB    3605
²S99RBX   00000024  FFFFFFE6    3748
²S99TUFLD 00000003  FFFFFFE7    3742
²S99TUNIT 00000007  FFFFFFE8    3733
²S99TUPL  00000004  FFFFFFE9    3727
²TOPM     0000000A  FFFFFFF0    3313
²TRTBL    00000020  FFFFFFF3    3277
²USA      000000A0  FFFFFFF1    3293
¯
                                                      Using Map                                                Page  109
²                                                                                            HLASM R6.0  2014/07/08 18.32
²  Stmt  -----Location----- Action ----------------Using----------------- Reg Max     Last Label and Using Text
          Count      Id           Type          Value    Range     Id        Disp    Stmt
²    37  00000002  00000002 USING  ORDINARY    00000002 00001000 00000002  12 0000E     41 *,R12
²    52  00000014  00000002 USING  ORDINARY    00000000 00001000 FFFFFFFF  13 00018    678 INPARSE_SAVE,R13
²    58  0000001E  00000003 USING  ORDINARY    0000001E 00001000 00000003  12 00662    690 *,R12
²   107  00000054  00000003 USING  ORDINARY    00000000 00001000 FFFFFFF1  10 0006A    521 USA,R10
²   124  0000006E  00000003 USING  ORDINARY    00000000 00001000 FFFFFFFE  11 00050    619 DDATA1,R11
²   157  000000B0  00000003 USING  ORDINARY    00000000 00001000 FFFFFFE4   4 0004C    196 IHADCB,R4
²   189  00000118  00000003 USING  ORDINARY    00000000 00001000 FFFFFFE3   5 00028    201 DCBE,R5
²   204  00000144  00000003 DROP                                            4              R4
²   341  00000374  00000003 USING  ORDINARY    00000000 00001000 FFFFFFF0   6 00002    346 TOPM,R6
²   347  00000386  00000003 DROP                                            6              R6
²   361  0000039C  00000003 USING  ORDINARY    00000000 00001000 FFFFFFED   6 00000    366 ICB,R6
²   372  000003BA  00000003 DROP                                            6              R6
²   381  000003C2  00000003 USING  ORDINARY    00000000 00001000 FFFFFFF4   5 00004    441 CBHEAD,R5
²   466  0000049C  00000003 DROP                                            5              R5
²   489  000004CE  00000003 USING  ORDINARY    00000000 00001000 FFFFFFEF   6 00002    495 DNCB,R6
²   496  000004E0  00000003 DROP                                            6              R6
²   511  000004F8  00000003 USING  ORDINARY    00000000 00001000 FFFFFFEF   6 00030    517 DNCB,R6
²   518  0000050A  00000003 DROP                                            6              R6
²   526  00000512  00000003 USING  ORDINARY    00000000 00001000 FFFFFFF4   5 00004    586 CBHEAD,R5
²   611  000005EC  00000003 DROP                                            5              R5
²   656  00000648  00000003 DROP                                           10              R10
²   657  00000648  00000003 DROP                                           11              R11
²   693  00000690  00000003 DROP                                           12              R12
²   694  00000690  00000003 USING  ORDINARY    00000690 00001000 00000003  12 00000        *,R12
²   695  00000690  00000003 DROP                                           13              R13
²   699  00000692  00000003 USING  ORDINARY    00000000 00001000 FFFFFFFD  13 00018    841 BLDPRM_SAVE,R13
²   705  0000069E  00000004 USING  ORDINARY    0000069E 00001000 00000004  12 000EE    853 *,R12
²   856  0000079C  00000004 DROP                                           12              R12
²   857  0000079C  00000004 USING  ORDINARY    0000079C 00001000 00000004  12 00000        *,R12
²   858  0000079C  00000004 DROP                                           13              R13
²   863  0000079E  00000004 USING  ORDINARY    00000000 00001000 FFFFFFFC  13 00018   1240 DALLOC_SAVE,R13
²   869  000007A6  00000005 USING  ORDINARY    000007A6 00001000 00000005  12 003EE   1252 *,R12
²   935  000007FA  00000005 USING  ORDINARY    00000000 00001000 FFFFFFEA  10 00008    962 S99RB,R10
²  1011  00000978  00000005 USING  ORDINARY    00000000 00001000 FFFFFFE8   8 00006   1021 S99TUNIT,R8
²  1049  000009D0  00000005 USING  ORDINARY    00000000 00001000 FFFFFFE8   8 00006   1063 S99TUNIT,R8
²  1098  00000A44  00000005 USING  ORDINARY    00000000 00001000 FFFFFFE8   8 00006   1108 S99TUNIT,R8
²  1142  00000AA8  00000005 USING  ORDINARY    00000000 00001000 FFFFFFE8   8 00006   1152 S99TUNIT,R8
²  1189  00000B0C  00000005 USING  ORDINARY    00000000 00001000 FFFFFFE8   8 00006   1199 S99TUNIT,R8
²  1229  00000B6C  00000005 DROP                                           10              R10
²  1255  00000BA4  00000005 DROP                                           12              R12
²  1256  00000BA4  00000005 USING  ORDINARY    00000BA4 00001000 00000005  12 00000        *,R12
²  1257  00000BA4  00000005 DROP                                           13              R13
²  1262  00000BA6  00000005 USING  ORDINARY    00000000 00001000 FFFFFFFB  13 00018   1465 DUNALLOC_SAVE,R13
²  1268  00000BAE  00000006 USING  ORDINARY    00000BAE 00001000 00000006  12 0016E   1477 *,R12
²  1317  00000BE8  00000006 USING  ORDINARY    00000000 00001000 FFFFFFEA   2 00008   1322 S99RB,R2
²  1454  00000CF2  00000006 DROP                                            2              R2
²  1480  00000D2C  00000006 DROP                                           12              R12
²  1481  00000D2C  00000006 USING  ORDINARY    00000D2C 00001000 00000006  12 00000        *,R12
²  1482  00000D2C  00000006 DROP                                           13              R13
²  1486  00000D2E  00000006 USING  ORDINARY    00000000 00001000 FFFFFFFA  13 00018   1596 CNVTOHEX_SAVE,R13
²  1492  00000D36  00000007 USING  ORDINARY    00000D36 00001000 00000007  12 001B6   1608 *,R12
²  1611  00000EFC  00000007 DROP                                           12              R12
²  1612  00000EFC  00000007 USING  ORDINARY    00000EFC 00001000 00000007  12 00000        *,R12
¯
                                                      Using Map                                                Page  110
²                                                                                            HLASM R6.0  2014/07/08 18.32
²  Stmt  -----Location----- Action ----------------Using----------------- Reg Max     Last Label and Using Text
          Count      Id           Type          Value    Range     Id        Disp    Stmt
²  1613  00000EFC  00000007 DROP                                           13              R13
²  1617  00000EFE  00000007 USING  ORDINARY    00000000 00001000 FFFFFFF9  13 00018   1822 SPZPGEN_SAVE,R13
²  1623  00000F06  00000008 USING  ORDINARY    00000F06 00001000 00000008  12 002AA   1834 *,R12
²  1709  00000F84  00000008 USING  ORDINARY    00000000 00001000 FFFFFFE4   4 0004C   1724 IHADCB,R4
²  1725  00000FD0  00000008 DROP                                            4              R4
²  1837  000011C0  00000008 DROP                                           12              R12
²  1838  000011C0  00000008 USING  ORDINARY    000011C0 00001000 00000008  12 00000        *,R12
²  1839  000011C0  00000008 DROP                                           13              R13
²  1843  000011C2  00000008 USING  ORDINARY    00000000 00001000 FFFFFFF8  13 00018   2342 BLDRECB_SAVE,R13
²  1849  000011CE  00000009 USING  ORDINARY    000011CE 00001000 00000009  12 00482   2354 *,R12
²  1946  000012BC  00000009 USING  ORDINARY    00000000 00001000 FFFFFFF1  10 00068   1997 USA,R10
²  1964  000012DA  00000009 USING  ORDINARY    00000000 00001000 FFFFFFF7  11 0009C   2308 DDATA2,R11
²  1998  0000133A  00000009 DROP                                           10              R10
²  2044  0000138C  00000009 USING  ORDINARY    00000000 00001000 FFFFFFE4   4 0004C   2059 IHADCB,R4
²  2060  000013D8  00000009 DROP                                            4              R4
²  2112  00001446  00000009 USING  ORDINARY    00000000 00001000 FFFFFFF4   6 00004   2113 CBHEAD,R6
²  2115  0000144E  00000009 DROP                                            6              R6
²  2148  00001498  00000009 USING  ORDINARY    00000000 00001000 FFFFFFEE   3 00008   2168 RECB,R3
²  2177  000014D4  00000009 USING  ORDINARY    00000000 00001000 FFFFFFF4   6 00004   2237 CBHEAD,R6
²  2262  000015B0  00000009 DROP                                            6              R6
²  2265  000015B4  00000009 DROP                                            3              R3
²  2280  000015CE  00000009 USING  ORDINARY    00000000 00001000 FFFFFFE4  10 00000   2281 IHADCB,R10
²  2314  00001612  00000009 DROP                                           11              R11
²  2315  00001612  00000009 DROP                                           10              R10
²  2357  00001660  00000009 DROP                                           12              R12
²  2358  00001660  00000009 USING  ORDINARY    00001660 00001000 00000009  12 00000        *,R12
²  2359  00001660  00000009 DROP                                           13              R13
²  2363  00001662  00000009 USING  ORDINARY    00000000 00001000 FFFFFFF6  13 00018   2879 PREPMDL_SAVE,R13
²  2369  0000166E  0000000A USING  ORDINARY    0000166E 00001000 0000000A  12 004A6   2891 *,R12
²  2417  000016A4  0000000A USING  ORDINARY    00000000 00001000 FFFFFFF1  11 00030   2762 USA,R11
²  2428  000016AE  0000000A USING  ORDINARY    00000000 00001000 FFFFFFF4   6 00004   2488 CBHEAD,R6
²  2513  00001788  0000000A DROP                                            6              R6
²  2562  000017EC  0000000A USING  ORDINARY    00000000 00001000 FFFFFFF4   3 0000C   2576 CBHEAD,R3
²  2580  0000181C  0000000A USING  ORDINARY    00000000 00001000 FFFFFFF4   3 0000C   2584 CBHEAD,R3
²  2589  00001832  0000000A DROP                                            3              R3
²  2591  00001836  0000000A USING  ORDINARY    00000000 00001000 FFFFFFF4  10 00004   2592 CBHEAD,R10
²  2598  00001844  0000000A DROP                                           10              R10
²  2599  00001844  0000000A USING  ORDINARY    00000000 00001000 FFFFFFF4   6 0000C   2600 CBHEAD,R6
²  2601  00001848  0000000A DROP                                            6              R6
²  2604  0000184C  0000000A USING  ORDINARY    00000000 00001000 FFFFFFEE  10 00008   2608 RECB,R10
²  2609  0000185C  0000000A DROP                                           10              R10
²  2616  00001860  0000000A USING  ORDINARY    00000000 00001000 FFFFFFF4   6 00004   2676 CBHEAD,R6
²  2701  0000193C  0000000A DROP                                            6              R6
²  2732  0000196A  0000000A USING  ORDINARY    00000000 00001000 FFFFFFEC   2 00022   2740 SPZPPRM,R2
²  2741  0000198C  0000000A DROP                                            2              R2
²  2864  00001AD8  0000000A DROP                                           11              R11
²  2894  00001B24  0000000A DROP                                           12              R12
²  2895  00001B24  0000000A USING  ORDINARY    00001B24 00001000 0000000A  12 00000        *,R12
²  2896  00001B24  0000000A DROP                                           13              R13
²  2901  00001B26  0000000A USING  ORDINARY    00000000 00001000 FFFFFFF5  13 00018   3241 GETINIT_SAVE,R13
²  2907  00001B2E  0000000B USING  ORDINARY    00001B2E 00001000 0000000B  12 00232   3253 *,R12
²  2981  00001B86  0000000B USING  ORDINARY    00000000 00001000 FFFFFFF1  11 00028   3228 USA,R11
²  3229  00001D2E  0000000B DROP                                           11              R11
¯
                                                      Using Map                                                Page  111
²                                                                                            HLASM R6.0  2014/07/08 18.32
²  Stmt  -----Location----- Action ----------------Using----------------- Reg Max     Last Label and Using Text
          Count      Id           Type          Value    Range     Id        Disp    Stmt
²  3256  00001D70  0000000B DROP                                           12              R12
²  3257  00001D70  0000000B USING  ORDINARY    00001D70 00001000 0000000B  12 00000        *,R12
²  3258  00001D70  0000000B DROP                                           13              R13
¯
                                   General Purpose Register Cross Reference                                    Page  112
 Register  References (M=modified, B=branch, U=USING, D=DROP, N=index)                      HLASM R6.0  2014/07/08 18.32
²    0(0)      56    69M   74M  106   119M  152M  184M  213M  260M  318   329M  339M  374   408M  468M  520   553M  612M
²             629M  640M  652M  658M  675   688M  692M  703   716M  721M  755   765   782M  827M  838   851M  855M  867
²             880M  885M  917   930M  956M  991  1006M 1024M 1027  1044M 1066M 1078  1093M 1112M 1122  1137M 1155M 1169
²            1184M 1203M 1217M 1228M 1237  1250M 1254M 1266  1279M 1284M 1315  1352M 1370M 1383M 1397M 1410M 1424M 1437M
²            1450M 1462  1475M 1479M 1490  1503M 1508M 1553  1585M 1593  1606M 1610M 1621  1634M 1639M 1672M 1679  1704M
²            1728M 1736M 1742M 1749M 1756M 1767M 1791M 1805M 1810M 1819  1832M 1836M 1847  1860M 1865M 1945  1959M 1997M
²            2013  2039M 2070M 2080M 2092M 2104M 2121M 2150M 2158  2160M 2168  2170  2204M 2263M 2291M 2304M 2308M 2339
²            2352M 2356M 2367  2380M 2385M 2416  2421  2455M 2514M 2524M 2554M 2611  2643M 2702M 2710  2727M 2758M 2796M
²            2803  2850M 2876  2889M 2893M 2905  2918M 2923M 2976M 2996M 3021M 3041M 3060M 3082M 3102M 3119M 3136M 3153M
²            3213M 3220  3221M 3238  3251M 3255M
²    1(1)      56    71M   71    73    75M  121M  121   123   131M  154M  154   156   158M  158   159   186M  186   188
²             190M  190   191   200M  201   208M  211N  212   213   214M  214   242M  259M  262   276M  289   291   296
²             318   331M  331   333   335M  335   336   339M  374   390M  410M  410   412   420M  420   421M  422   451M
²             451   452M  453   468M  473   475   480   498   499   501   503   508   520   535M  555M  555   557   565M
²             565   566M  567   596M  596   597M  598   612M  630M  635M  638N  639   640   641M  641   653M  676   689M
²             692M  703   718M  718   720   722M  758   767   784M  784   787   810M  810   811M  812   823M  823   824M
²             825   839   852M  855M  867   882M  882   884   886M  918   932M  932   934   937M  937   938   941M  942
²             958M  958   960   978M  981M  983M  983   984M  987M  990   991  1008M 1008  1010  1012M 1012  1013M 1013
²            1014M 1015  1016M 1016  1017M 1018  1024M 1027  1046M 1046  1048  1050M 1050  1051M 1052  1058M 1058  1059M
²            1060  1066M 1078  1095M 1095  1097  1099M 1099  1100M 1100  1101M 1102  1103M 1103  1104M 1105  1112M 1119
²            1122  1139M 1139  1141  1143M 1143  1144M 1144  1145M 1146  1147M 1147  1148M 1149  1155M 1169  1186M 1186
²            1188  1190M 1190  1191M 1191  1192M 1193  1194M 1194  1195M 1196  1203M 1219M 1219  1223  1224  1238  1251M
²            1254M 1266  1281M 1281  1283  1285M 1319M 1319  1320  1328M 1353M 1371M 1384M 1398M 1411M 1425M 1438M 1451M
²            1463  1476M 1479M 1490  1505M 1505  1507  1509M 1554  1594  1607M 1610M 1621  1636M 1636  1638  1640M 1673M
²            1679  1685M 1706M 1706  1708  1710M 1710  1711  1728M 1731M 1734N 1735  1736  1737M 1737  1741M 1744  1748M
²            1751  1755M 1758  1762M 1765N 1766  1767  1768M 1768  1792M 1807M 1807  1809  1810  1820  1833M 1836M 1847
²            1862M 1862  1864  1866M 1948  1961M 1961  1963  1986M 1999M 2007M 2020M 2041M 2041  2043  2045M 2045  2046
²            2065M 2068N 2069  2070  2071M 2071  2079M 2082  2091M 2094  2103M 2106  2120M 2123  2151M 2151  2152M 2161M
²            2161  2162M 2170  2186M 2206M 2206  2208  2216M 2216  2217M 2218  2247M 2247  2248M 2249  2263M 2275M 2277N
²            2278  2292M 2305M 2340  2353M 2356M 2367  2382M 2382  2384  2386M 2419  2421  2437M 2457M 2457  2459  2467M
²            2467  2468M 2469  2498M 2498  2499M 2500  2514M 2525M 2539M 2556M 2556  2569  2570  2579  2585  2588  2605M
²            2606  2607M 2608  2611  2625M 2645M 2645  2647  2655M 2655  2656M 2657  2686M 2686  2687M 2688  2702M 2729M
²            2729  2731  2733M 2733  2734M 2735  2736M 2736  2737  2759M 2766M 2797M 2807M 2825M 2851M 2858M 2877  2890M
²            2893M 2905  2920M 2920  2922  2924M 2954  2978M 2978  2980  2998M 2998  3000  3001  3003N 3023M 3023  3025
²            3026N 3028N 3043M 3043  3045  3062M 3062  3064  3065N 3067N 3084M 3084  3086  3087N 3089N 3104M 3104  3106
²            3121M 3121  3123  3138M 3138  3140  3155M 3155  3157  3220M 3227M 3228  3239  3252M 3255M
²    2(2)      56    78M   80N  141M  141   142M  152   173M  173   174M  184   193   242M  265M  265   270   289M  290M
²             293   318   339M  374   383M  384   396M  397   398M  408   419M  419   422M  433M  434   450M  450   453M
²             464M  465   468M  470   473M  474M  477   501M  502M  505   520   528M  529   541M  542   543M  553   564M
²             564   567M  578M  579   595M  595   598M  609M  610   612M  673M  689   692M  703   725M  727N  761M  761
²             769M  770M  771M  771   782   797M  798M  799   836M  852   855M  867   889M  891N  978M  981M  991  1024M
²            1027  1031M 1031  1032M 1033  1061  1064M 1065  1066M 1070M 1070  1073  1078  1112M 1122  1155M 1169  1203M
²            1221M 1222M 1223  1235M 1251  1254M 1266  1288M 1290N 1316M 1317U 1411  1454D 1460M 1476  1479M 1490  1512M
²            1514N 1551  1553M 1560  1564  1565M 1567  1573  1582M 1591M 1607  1610M 1621  1643M 1645N 1679  1693M 1693
²            1694M 1704  1728M 1771M 1771  1772M 1791  1817M 1833  1836M 1847  1869M 1871N 1966M 1967  1969M 1970  1974M
²            1976  1980M 1993  2028M 2028  2029M 2039  2170  2179M 2180  2192M 2193  2194M 2204  2215M 2215  2218M 2229M
²            2230  2246M 2246  2249M 2260M 2261  2263M 2337M 2353  2356M 2367  2389M 2391N 2421  2430M 2431  2443M 2444
²            2445M 2455  2466M 2466  2469M 2480M 2481  2497M 2497  2500M 2511M 2512  2514M 2533M 2533  2534M 2535M 2554
²            2558M 2571  2572M 2572  2573  2574  2575M 2575  2576  2581  2582M 2582  2583  2584  2611  2618M 2619  2631M
²            2632  2633M 2643  2654M 2654  2657M 2668M 2669  2685M 2685  2688M 2699M 2700  2702M 2731M 2732U 2741D 2742
²            2792  2839M 2839  2840M 2841M 2850  2874M 2890  2893M 2905  2927M 2929N 2983M 2983  2984M 2985  3001  3002M
²            3002  3003  3005M 3005  3006  3008M 3008  3009M 3010  3026  3027M 3027  3028  3030M 3030  3031M 3041  3047M
²            3047  3048M 3049  3065  3066M 3066  3067  3069M 3069  3070M 3071  3087  3088M 3088  3089  3091M 3091  3092M
²            3102  3108M 3108  3109M 3119  3125M 3125  3126M 3136  3142M 3142  3143M 3153  3236M 3252  3255M
²    3(3)      56    73M   77N   79   140M  161   242   243   256M  260   290   291M  292M  292   297   318   339M  374
¯
                                   General Purpose Register Cross Reference                                    Page  113
 Register  References (M=modified, B=branch, U=USING, D=DROP, N=index)                      HLASM R6.0  2014/07/08 18.32
²             382M  384   418M  422M  423   429M  439M  440M  441   449M  453M  454   460M  468M  474   475M  476M  476
²             481   498M  502   503M  504M  504   509   520   527M  529   563M  567M  568   574M  584M  585M  586   594M
²             598M  599   605M  612M  692M  703   720M  724N  726   762M  762   766M  769   804M  805   807M  807   808
²             855M  867   884M  888N  890   917M  978   991   995M  996M 1006  1024M 1027  1033M 1034M 1044  1057M 1063
²            1066M 1071  1076  1078  1082M 1083M 1093  1112M 1117  1122  1126M 1127M 1137  1155M 1159  1169  1173M 1174M
²            1184  1203M 1254M 1266  1283M 1287N 1289  1322M 1324  1326  1332  1334  1335  1353  1359  1384  1479M 1490
²            1507M 1511N 1513  1610M 1621  1638M 1642N 1644  1679  1692M 1713  1728M 1836M 1847  1864M 1868N 1870  1948M
²            1978  1999  2027M 2048  2133M 2133  2147M 2148U 2170  2171  2178M 2180  2214M 2218M 2219  2225M 2235M 2236M
²            2237  2245M 2249M 2250  2256M 2263M 2265D 2267M 2356M 2367  2384M 2388N 2390  2421  2429M 2431  2465M 2469M
²            2470  2476M 2486M 2487M 2488  2496M 2500M 2501  2507M 2514M 2532M 2559  2561M 2561  2562U 2564  2565M 2566
²            2568M 2570M 2579M 2580U 2585M 2586  2589D 2611  2617M 2619  2653M 2657M 2658  2664M 2674M 2675M 2676  2684M
²            2688M 2689  2695M 2702M 2893M 2905  2922M 2926N 2928  2985M 2986M 2996  3010M 3011M 3021  3049M 3050M 3060
²            3071M 3072M 3082  3255M
²    4(4)      56   156M  157U  204D  205   266M  266   268M  269   293M  295   318   339M  374   397M  436   438M  439
²             442M  443M  457   458M  462   468M  477M  479   499M  505M  507   520   542M  581   583M  584   587M  588M
²             602   603M  607   612M  692M  703   763M  763   767M  770   817M  818   820M  820   821   855M  867   991
²            1024M 1027  1066M 1076M 1077M 1078  1108  1112M 1117M 1118M 1121  1122  1152  1155M 1162  1169  1203M 1254M
²            1266  1324M 1325M 1326  1332M 1333M 1415  1425  1479M 1490  1559M 1582  1610M 1621  1679  1708M 1709U 1725D
²            1726  1728M 1836M 1847  2043M 2044U 2060D 2061  2135M 2135  2136M 2140N 2143N 2170  2193M 2232  2234M 2235
²            2238M 2239M 2253  2254M 2258  2263M 2267  2356M 2367  2421  2444M 2483  2485M 2486  2489M 2490M 2504  2505M
²            2509  2514M 2564M 2568  2611  2632M 2671  2673M 2674  2677M 2678M 2692  2693M 2697  2702M 2716M 2739  2742M
²            2822  2893M 2905  3255M
²    5(5)      56   188M  189U  196   296M  297M  300M  302   303M  303   304   309M  311   312M  312   313   318   339M
²             342M  344   345M  345   346   365M  369   374   376M  381U  426   428M  431   435M  442   466D  468M  480M
²             481M  490M  493   494M  494   495   508M  509M  512M  515   516M  516   517   520   521M  526U  571   573M
²             576   580M  587   611D  612M  692M  703   855M  867   918M  981   987   991  1021  1024M 1027  1066M 1069M
²            1069  1071M 1072  1078  1082  1106  1109M 1110  1112M 1120M 1121M 1122  1126  1150  1153M 1154  1155M 1161M
²            1162M 1164  1169  1203M 1254M 1266  1334M 1428  1438  1479M 1490  1560M 1561M 1567  1582  1610M 1621  1679
²            1728M 1836M 1847  2113M 2114M 2139M 2139  2140M 2141  2143M 2144  2170  2171M 2253  2255M 2258  2263M 2267
²            2356M 2367  2419M 2421  2504  2506M 2509  2514M 2525  2611  2702M 2710M 2740  2759  2893M 2905  3255M
²    6(6)      56   318   339M  340M  341U  347D  349   360M  361U  363   364   372D  374   457   459M  462   468M  488M
²             489U  496D  511U  518D  520   602   604M  607   612M  619M  658   692M  703   755M  756M  794   816M  855M
²             867   991  1024M 1027  1066M 1078  1112M 1119M 1120  1122  1155M 1161  1167M 1169  1199  1203M 1254M 1266
²            1335M 1339  1342M 1441  1451  1479M 1490  1563M 1563  1564M 1577M 1577  1578M 1585  1610M 1621  1679  1728M
²            1836M 1847  2111M 2112U 2115D 2116M 2140  2143  2170  2172M 2177U 2222  2224M 2227  2231M 2238  2262D 2263M
²            2356M 2367  2421  2422M 2428U 2473  2475M 2478  2482M 2489  2513D 2514M 2588M 2599U 2601D 2611  2616U 2661
²            2663M 2666  2670M 2677  2701D 2702M 2893M 2905  2954M 2955M 3255M
²    7(7)      56   318   339M  362M  363   364   374   413M  414M  418   468M  520   558M  559M  563   612M  692M  703
²             758M  759M  816   855M  867   990M  995  1019  1022M 1023  1158M 1158  1159M 1164M 1165M 1166M 1173  1197
²            1200M 1201  1254M 1266  1359M 1360M 1361  1371  1479M 1490  1610M 1621  1679  1728M 1836M 1847  2128M 2128
²            2130M 2141  2170  2209M 2210M 2214  2263M 2356M 2367  2421  2460M 2461M 2465  2514M 2611  2648M 2649M 2653
²            2702M 2893M 2905  3255M
²    8(8)      56   243   301M  310M  318   339M  343M  366M  367M  370M  371M  374   444M  444   445M  449   468M  492M
²             514M  520   589M  589   590M  594   612M  692M  703   787M  794   799   801   802M  802   808M  812   814M
²             814   821M  825   855M  867  1010M 1011U 1025  1048M 1049U 1067  1097M 1098U 1111M 1113  1141M 1142U 1156
²            1188M 1189U 1202M 1204  1254M 1266  1479M 1490  1610M 1621  1679  1728M 1836M 1847  2129M 2129  2131M 2144
²            2170  2240M 2240  2241M 2245  2263M 2356M 2367  2421  2491M 2491  2492M 2496  2514M 2611  2679M 2679  2680M
²            2684  2702M 2762M 2796  2893M 2905  3255M
²    9(9)      56   205M  211   259   318   339M  374   412M  426   427M  431   435   468M  520   557M  571   572M  576
²             580   612M  638   653   692M  703   801M  827   855M  867   960M  962  1025  1067  1113  1156  1204  1254M
²            1266  1337M 1337  1361M 1370  1414M 1414  1415M 1424  1428M 1437  1441M 1450  1479M 1490  1570M 1570  1573M
²            1575  1578  1610M 1621  1679  1728M 1836M 1847  2002M 2005  2009M 2012  2154M 2157  2164M 2167  2170  2208M
²            2222  2223M 2227  2231  2263M 2281M 2305  2356M 2367  2421  2459M 2473  2474M 2478  2482  2514M 2592M 2594M
²            2595M 2596M 2600  2611  2647M 2661  2662M 2666  2670  2702M 2792M 2840  2851  2893M 2905  3255M
²   10(A)      56   106M  107U  318   339M  374   468M  520   612M  656D  692M  703   765M  766   855M  867   934M  935U
¯
                                   General Purpose Register Cross Reference                                    Page  114
 Register  References (M=modified, B=branch, U=USING, D=DROP, N=index)                      HLASM R6.0  2014/07/08 18.32
²             938N  939   939  1221  1229D 1254M 1266  1479M 1490  1554M 1556M 1557  1561  1610M 1621  1726M 1734  1741
²            1748  1755  1765  1792  1836M 1847  1945M 1946U 1972  1998D 2061M 2062  2068  2079  2091  2103  2120  2170
²            2263M 2277  2280U 2292  2310M 2313  2315D 2356M 2367  2421  2514M 2590M 2591U 2595  2598D 2603M 2604U 2609D
²            2611  2692  2694M 2697  2702M 2705M 2708  2799M 2802  2803M 2893M 2905  3215M 3218  3223M 3226  3255M
²   11(B)      40M   43    56   123M  124U  256   318   339M  374   468M  520   612M  630   657D  692M  703   855M  867
²            1224M 1228  1254M 1266  1315M 1316  1328  1398  1479M 1490  1610M 1621  1675M 1678  1836M 1847  1963M 1964U
²            2170  2263M 2314D 2356M 2367  2416M 2417U 2421  2514M 2611  2702M 2864D 2893M 2905  2980M 2981U 3213  3221
²            3229D 3255M
²   12(C)      36M   37U   56    57M   58U  318   339M  374   468M  520   612M  692M  693D  694U  703   704M  705U  855M
²             856D  857U  867   868M  869U 1254M 1255D 1256U 1266  1267M 1268U 1479M 1480D 1481U 1490  1491M 1492U 1610M
²            1611D 1612U 1621  1622M 1623U 1836M 1837D 1838U 1847  1848M 1849U 2170  2263M 2356M 2357D 2358U 2367  2368M
²            2369U 2421  2514M 2611  2702M 2893M 2894D 2895U 2905  2906M 2907U 3255M 3256D 3257U
²   13(D)      52U   56    77    78    79M   80   318   339   374   468   520   612   673   674M  692   695D  699U  703
²             724   725   726M  727   836   837M  855   858D  863U  867   888   889   890M  891   991  1024  1027  1066
²            1078  1112  1122  1155  1169  1203  1235  1236M 1254  1257D 1262U 1266  1287  1288  1289M 1290  1460  1461M
²            1479  1482D 1486U 1490  1511  1512  1513M 1514  1591  1592M 1610  1613D 1617U 1621  1642  1643  1644M 1645
²            1679  1728  1817  1818M 1836  1839D 1843U 1847  1868  1869  1870M 1871  2170  2263  2337  2338M 2356  2359D
²            2363U 2367  2388  2389  2390M 2391  2421  2514  2611  2702  2874  2875M 2893  2896D 2901U 2905  2926  2927
²            2928M 2929  3236  3237M 3255  3258D
²   14(E)      40    42M   43M   44B   56   263M  374   468M  520   612M  692M  696B  703   855M  859B  867   991  1024M
²            1027  1066M 1078  1112M 1122  1155M 1169  1203M 1254M 1258B 1266  1479M 1483B 1490  1610M 1614B 1621  1675
²            1677M 1678M 1679  1728M 1745M 1752M 1759M 1836M 1840B 1847  2002  2004M 2005M 2009  2011M 2012M 2083M 2095M
²            2107M 2124M 2154  2156M 2157M 2164  2166M 2167M 2170  2263M 2310  2312M 2313M 2356M 2360B 2367  2421  2514M
²            2611  2702M 2705  2707M 2708M 2799  2801M 2802M 2893M 2897B 2905  3215  3217M 3218M 3223  3225M 3226M 3255M
²            3259B
²   15(F)      41M   42B   56    70M   76M  120M  153M  185M  261M  261   262M  263B  282M  282   283M  330M  333M  336
²             337   337   340   374   409M  468M  520   554M  612M  631M  654M  677M  677   678   690M  692M  703   717M
²             723M  783M  829M  840M  840   841   853M  855M  867   881M  887M  931M  957M  991  1007M 1024M 1027  1045M
²            1066M 1078  1094M 1112M 1122  1138M 1155M 1169  1185M 1203M 1218M 1239M 1239  1240  1252M 1254M 1266  1280M
²            1286M 1354M 1372M 1385M 1399M 1412M 1426M 1439M 1452M 1464M 1464  1465  1477M 1479M 1490  1504M 1510M 1595M
²            1595  1596  1608M 1610M 1621  1635M 1641M 1676M 1677B 1679  1705M 1728M 1743M 1743  1744M 1745B 1750M 1750
²            1751M 1752B 1757M 1757  1758M 1759B 1793M 1806M 1821M 1821  1822  1834M 1836M 1847  1861M 1867M 1960M 2003M
²            2004B 2010M 2011B 2040M 2081M 2081  2082M 2083B 2093M 2093  2094M 2095B 2105M 2105  2106M 2107B 2122M 2122
²            2123M 2124B 2155M 2156B 2165M 2166B 2170  2205M 2263M 2293M 2306M 2311M 2312B 2341M 2341  2342  2354M 2356M
²            2367  2381M 2387M 2421  2456M 2514M 2526M 2555M 2611  2644M 2702M 2706M 2707B 2728M 2760M 2800M 2801B 2834M
²            2852M 2878M 2878  2879  2891M 2893M 2905  2919M 2925M 2977M 2997M 3022M 3042M 3061M 3083M 3103M 3120M 3137M
²            3154M 3216M 3217B 3224M 3225B 3240M 3240  3241  3253M 3255M
¯
                                  Diagnostic Cross Reference and Assembler Summary                             Page  115
                                                                                            HLASM R6.0  2014/07/08 18.32
Statements Flagged
²    1897(P1,72), 1975(P1,96), 1978(P1,99), 1980(P1,101), 1995(P1,108), 2111(P1,128)

      6 Statements Flagged in this Assembly        8 was Highest Severity Code
HIGH LEVEL ASSEMBLER, 5696-234, RELEASE 6.0, PTF UK37157
SYSTEM: z/OS 01.10.00              JOBNAME: SPYM        STEPNAME: COMPILE    PROCSTEP: (NOPROC)
²Data Sets Allocated for this Assembly
² Con DDname   Data Set Name                                Volume  Member
²  P1 SYSIN    EMCPROJ.SRC                                  ZAIMS1  SPYM
²  L1 SYSLIB   EMCPROJ.MACLIB                               ZAIMS1
²  L2          SYS1.MACLIB                                  ZARES1
²  L3          EMCPROJ.COPY                                 ZAIMS1
²     SYSLIN   EMCPROJ.OBJ                                  ZAIMS1  SPYM
²     SYSPRINT EMCPROJ.LISTING                              ZAIMS1  SPYM
²
²  32128K allocated to Buffer Pool       Storage required    2028K
²    574 Primary Input Records Read        16681 Library Records Read                  0 Work File Reads
²      0 ASMAOPT Records Read               6170 Primary Print Records Written         0 Work File Writes
    165 Object Records Written                0 ADATA Records Written
²Assembly Start Time: 18.32.38 Stop Time: 18.32.41 Processor Time: 00.00.02.9904
²Return Code 008
¯
                                         High Level Assembler Option Summary                   (PTF UK37157)   Page    1
                                                                                            HLASM R6.0  2014/07/08 18.32
²  No Overriding ASMAOPT Parameters
²  No Overriding Parameters
²  No Process Statements


  Options for this Assembly
²  NOADATA
²    ALIGN
²  NOASA
²    BATCH
²    CODEPAGE(047C)
²  NOCOMPAT
²  NODBCS
²  NODECK
²    DXREF
²    ESD
²  NOEXIT
²    FLAG(0,ALIGN,CONT,EXLITW,NOIMPLEN,NOPAGE0,PUSH,RECORD,NOSUBSTR,USING0)
²  NOFOLD
²  NOGOFF
²  NOINFO
²    LANGUAGE(EN)
²  NOLIBMAC
²    LINECOUNT(60)
²    LIST(121)
²    MACHINE(,NOLIST)
²    MXREF(SOURCE)
²    OBJECT
²    OPTABLE(UNI,NOLIST)
²  NOPCONTROL
²  NOPESTOP
²  NOPROFILE
²  NORA2
²  NORENT
²    RLD
²    RXREF
²    SECTALGN(8)
²    SIZE(MAX)
²  NOSUPRWARN
²    SYSPARM()
²  NOTERM
²  NOTEST
²    THREAD
²  NOTRANSLATE
²    TYPECHECK(MAGNITUDE,REGISTER)
²    USING(NOLIMIT,MAP,WARN(15))
²  NOWORKFILE
²    XREF(SHORT,UNREFS)

²  No Overriding DD Names
¯
²                                                                                                               Page    2
  Active Usings: None
  Loc  Object Code    Addr1 Addr2  Stmt   Source Statement                                  HLASM R6.0  2014/07/08 18.32
²                                      1 *        LA    R2,TOPM@                                                 00520015
²                                      2 *        USING CBHEAD,R2                                                00530015
²                                      3 *        L     R1,POS        R1:=POS                                    00540015
²                                      4 *        DROP  R2                                                       00550015
²                                      5 *        AHI   R1,-TOPM#     GOT LAST RECORD RELATIVE CBHEAD            00560015
²                                      6 *        AR    R1,R2         ADD ADDR OF CBHEAD                         00570015
²                                      7 *        AHI   R1,CBHEAD#    ADD SIZE OF CBHEAD                         00580015
²** ASMA140W END record missing
²** ASMA435I Record 581 in EMCPROJ.SRC(SPYM) on volume: ZAIMS1
¯
                                   General Purpose Register Cross Reference                                    Page    3
 Register  References (M=modified, B=branch, U=USING, D=DROP, N=index)                      HLASM R6.0  2014/07/08 18.32
²    0(0)    (no references identified)
²    1(1)    (no references identified)
²    2(2)    (no references identified)
²    3(3)    (no references identified)
²    4(4)    (no references identified)
²    5(5)    (no references identified)
²    6(6)    (no references identified)
²    7(7)    (no references identified)
²    8(8)    (no references identified)
²    9(9)    (no references identified)
²   10(A)    (no references identified)
²   11(B)    (no references identified)
²   12(C)    (no references identified)
²   13(D)    (no references identified)
²   14(E)    (no references identified)
²   15(F)    (no references identified)
¯
                                  Diagnostic Cross Reference and Assembler Summary                             Page    4
                                                                                            HLASM R6.0  2014/07/08 18.32
Statements Flagged
²    8(P1,581)

      1 Statement  Flagged in this Assembly        4 was Highest Severity Code
HIGH LEVEL ASSEMBLER, 5696-234, RELEASE 6.0, PTF UK37157
SYSTEM: z/OS 01.10.00              JOBNAME: SPYM        STEPNAME: COMPILE    PROCSTEP: (NOPROC)
²Data Sets Allocated for this Assembly
² Con DDname   Data Set Name                                Volume  Member
²  P1 SYSIN    EMCPROJ.SRC                                  ZAIMS1  SPYM
²  L1 SYSLIB   EMCPROJ.MACLIB                               ZAIMS1
²  L2          SYS1.MACLIB                                  ZARES1
²  L3          EMCPROJ.COPY                                 ZAIMS1
²     SYSLIN   EMCPROJ.OBJ                                  ZAIMS1  SPYM
²     SYSPRINT EMCPROJ.LISTING                              ZAIMS1  SPYM
²
²  32128K allocated to Buffer Pool       Storage required    2028K
²      7 Primary Input Records Read            0 Library Records Read                  0 Work File Reads
²      0 ASMAOPT Records Read                109 Primary Print Records Written         0 Work File Writes
      0 Object Records Written                0 ADATA Records Written
²Assembly Start Time: 18.32.41 Stop Time: 18.32.41 Processor Time: 00.00.00.0260
²Return Code 004
